{
  "contractName": "Liquidity",
  "abi": [
    {
      "constant": true,
      "inputs": [
        {
          "internalType": "address",
          "name": "account",
          "type": "address"
        }
      ],
      "name": "balanceOfBonded",
      "outputs": [
        {
          "internalType": "uint256",
          "name": "",
          "type": "uint256"
        }
      ],
      "payable": false,
      "stateMutability": "view",
      "type": "function"
    },
    {
      "constant": true,
      "inputs": [
        {
          "internalType": "address",
          "name": "account",
          "type": "address"
        }
      ],
      "name": "balanceOfClaimable",
      "outputs": [
        {
          "internalType": "uint256",
          "name": "",
          "type": "uint256"
        }
      ],
      "payable": false,
      "stateMutability": "view",
      "type": "function"
    },
    {
      "constant": true,
      "inputs": [
        {
          "internalType": "address",
          "name": "account",
          "type": "address"
        }
      ],
      "name": "balanceOfPhantom",
      "outputs": [
        {
          "internalType": "uint256",
          "name": "",
          "type": "uint256"
        }
      ],
      "payable": false,
      "stateMutability": "view",
      "type": "function"
    },
    {
      "constant": true,
      "inputs": [
        {
          "internalType": "address",
          "name": "account",
          "type": "address"
        }
      ],
      "name": "balanceOfRewarded",
      "outputs": [
        {
          "internalType": "uint256",
          "name": "",
          "type": "uint256"
        }
      ],
      "payable": false,
      "stateMutability": "view",
      "type": "function"
    },
    {
      "constant": true,
      "inputs": [
        {
          "internalType": "address",
          "name": "account",
          "type": "address"
        }
      ],
      "name": "balanceOfStaged",
      "outputs": [
        {
          "internalType": "uint256",
          "name": "",
          "type": "uint256"
        }
      ],
      "payable": false,
      "stateMutability": "view",
      "type": "function"
    },
    {
      "constant": true,
      "inputs": [],
      "name": "dao",
      "outputs": [
        {
          "internalType": "contract IDAO",
          "name": "",
          "type": "address"
        }
      ],
      "payable": false,
      "stateMutability": "view",
      "type": "function"
    },
    {
      "constant": true,
      "inputs": [],
      "name": "dollar",
      "outputs": [
        {
          "internalType": "contract IDollar",
          "name": "",
          "type": "address"
        }
      ],
      "payable": false,
      "stateMutability": "view",
      "type": "function"
    },
    {
      "constant": true,
      "inputs": [],
      "name": "paused",
      "outputs": [
        {
          "internalType": "bool",
          "name": "",
          "type": "bool"
        }
      ],
      "payable": false,
      "stateMutability": "view",
      "type": "function"
    },
    {
      "constant": true,
      "inputs": [
        {
          "internalType": "address",
          "name": "account",
          "type": "address"
        }
      ],
      "name": "statusOf",
      "outputs": [
        {
          "internalType": "enum PoolAccount.Status",
          "name": "",
          "type": "uint8"
        }
      ],
      "payable": false,
      "stateMutability": "view",
      "type": "function"
    },
    {
      "constant": true,
      "inputs": [],
      "name": "totalBonded",
      "outputs": [
        {
          "internalType": "uint256",
          "name": "",
          "type": "uint256"
        }
      ],
      "payable": false,
      "stateMutability": "view",
      "type": "function"
    },
    {
      "constant": true,
      "inputs": [],
      "name": "totalClaimable",
      "outputs": [
        {
          "internalType": "uint256",
          "name": "",
          "type": "uint256"
        }
      ],
      "payable": false,
      "stateMutability": "view",
      "type": "function"
    },
    {
      "constant": true,
      "inputs": [],
      "name": "totalPhantom",
      "outputs": [
        {
          "internalType": "uint256",
          "name": "",
          "type": "uint256"
        }
      ],
      "payable": false,
      "stateMutability": "view",
      "type": "function"
    },
    {
      "constant": true,
      "inputs": [],
      "name": "totalRewarded",
      "outputs": [
        {
          "internalType": "uint256",
          "name": "",
          "type": "uint256"
        }
      ],
      "payable": false,
      "stateMutability": "view",
      "type": "function"
    },
    {
      "constant": true,
      "inputs": [],
      "name": "totalStaged",
      "outputs": [
        {
          "internalType": "uint256",
          "name": "",
          "type": "uint256"
        }
      ],
      "payable": false,
      "stateMutability": "view",
      "type": "function"
    },
    {
      "constant": true,
      "inputs": [],
      "name": "univ2",
      "outputs": [
        {
          "internalType": "contract IERC20",
          "name": "",
          "type": "address"
        }
      ],
      "payable": false,
      "stateMutability": "view",
      "type": "function"
    },
    {
      "constant": true,
      "inputs": [],
      "name": "usdc",
      "outputs": [
        {
          "internalType": "address",
          "name": "",
          "type": "address"
        }
      ],
      "payable": false,
      "stateMutability": "view",
      "type": "function"
    }
  ],
  "bytecode": "0x608060405234801561001057600080fd5b50610931806100206000396000f3fe608060405234801561001057600080fd5b50600436106101005760003560e01c80637298d36e11610097578063aed29d0711610066578063aed29d07146101e6578063c0d7a94f146101ee578063cf02377914610201578063e0cf72851461020957610100565b80637298d36e14610198578063825ad607146101a057806386cf9f14146101b357806397a5d5b5146101c657610100565b806344d96e95116100d357806344d96e951461016b5780634838ed191461017357806351adeb571461017b5780635c975abb1461018357610100565b80631667eb171461010557806329f32ed41461012e5780633e413bee146101415780634162169f14610156575b600080fd5b61011861011336600461069c565b610211565b6040516101259190610830565b60405180910390f35b61011861013c36600461069c565b610233565b610149610251565b60405161012591906107c7565b61015e610260565b60405161012591906107e3565b61011861026a565b610118610270565b61015e610276565b61018b610280565b60405161012591906107d5565b61015e610289565b6101186101ae36600461069c565b610293565b6101186101c136600461069c565b6102b1565b6101d96101d436600461069c565b6102cc565b60405161012591906107f1565b610118610306565b6101186101fc36600461069c565b6103a2565b61011861044a565b610118610450565b6001600160a01b0381166000908152600560205260409020600101545b919050565b6001600160a01b031660009081526005602052604090206003015490565b600061025b610456565b905090565b600061025b61046e565b60025490565b60015490565b600061025b610486565b60045460ff1690565b600061025b61049e565b6001600160a01b031660009081526005602052604090206002015490565b6001600160a01b031660009081526005602052604090205490565b6001600160a01b0381166000908152600560205260408120600401546102f06104b6565b10156102fd576001610300565b60005b92915050565b600061025b610313610270565b61031b610276565b6001600160a01b03166370a08231306040518263ffffffff1660e01b815260040161034691906107c7565b60206040518083038186803b15801561035e57600080fd5b505afa158015610372573d6000803e3d6000fd5b505050506040513d601f19601f8201168201806040525061039691908101906106c2565b9063ffffffff61053016565b6000806103ad61026a565b9050806103be57600091505061022e565b60006103df6103cb610450565b6103d3610306565b9063ffffffff61057916565b9050600061040c836104006103f388610293565b859063ffffffff6105a716565b9063ffffffff6105e116565b9050600061041986610233565b90508082111561043e57610433828263ffffffff61053016565b94505050505061022e565b50600095945050505050565b60005490565b60035490565b73a0b86991c6218b36c1d19d4a2e9eb0ce3606eb4890565b73443d2f2755db5942601fa062cc248aaa153313d390565b7336f3fd68e7325a35eb768f1aedaae9ea0689d72390565b7388ff79eb2bc5850f27315415da8685282c7610f990565b60006104c0610260565b6001600160a01b031663900cf0cf6040518163ffffffff1660e01b815260040160206040518083038186803b1580156104f857600080fd5b505afa15801561050c573d6000803e3d6000fd5b505050506040513d601f19601f8201168201806040525061025b91908101906106c2565b600061057283836040518060400160405280601e81526020017f536166654d6174683a207375627472616374696f6e206f766572666c6f770000815250610623565b9392505050565b6000828201838110156105725760405162461bcd60e51b815260040161059e90610810565b60405180910390fd5b6000826105b657506000610300565b828202828482816105c357fe5b04146105725760405162461bcd60e51b815260040161059e90610820565b600061057283836040518060400160405280601a81526020017f536166654d6174683a206469766973696f6e206279207a65726f00000000000081525061064f565b600081848411156106475760405162461bcd60e51b815260040161059e91906107ff565b505050900390565b600081836106705760405162461bcd60e51b815260040161059e91906107ff565b50600083858161067c57fe5b0495945050505050565b8035610300816108d1565b8051610300816108e5565b6000602082840312156106ae57600080fd5b60006106ba8484610686565b949350505050565b6000602082840312156106d457600080fd5b60006106ba8484610691565b6106e98161084b565b82525050565b6106e981610856565b6106e981610874565b6106e98161087f565b60006107158261083e565b61071f8185610842565b935061072f81856020860161088a565b610738816108ba565b9093019392505050565b600061074f601b83610842565b7f536166654d6174683a206164646974696f6e206f766572666c6f770000000000815260200192915050565b6000610788602183610842565b7f536166654d6174683a206d756c7469706c69636174696f6e206f766572666c6f8152607760f81b602082015260400192915050565b6106e981610871565b6020810161030082846106e0565b6020810161030082846106ef565b6020810161030082846106f8565b602081016103008284610701565b60208082528101610572818461070a565b6020808252810161030081610742565b602080825281016103008161077b565b6020810161030082846107be565b5190565b90815260200190565b600061030082610865565b151590565b8061022e816108c4565b6001600160a01b031690565b90565b60006103008261084b565b60006103008261085b565b60005b838110156108a557818101518382015260200161088d565b838111156108b4576000848401525b50505050565b601f01601f191690565b600381106108ce57fe5b50565b6108da8161084b565b81146108ce57600080fd5b6108da8161087156fea365627a7a72315820bf95d40904992d8602246ededa0188f982105f31b11019248c55fd7071d23d226c6578706572696d656e74616cf564736f6c63430005110040",
  "source": "/*\n    Copyright 2020 Empty Set Squad <emptysetsquad@protonmail.com>\n\n    Licensed under the Apache License, Version 2.0 (the \"License\");\n    you may not use this file except in compliance with the License.\n    You may obtain a copy of the License at\n\n    http://www.apache.org/licenses/LICENSE-2.0\n\n    Unless required by applicable law or agreed to in writing, software\n    distributed under the License is distributed on an \"AS IS\" BASIS,\n    WITHOUT WARRANTIES OR CONDITIONS OF ANY KIND, either express or implied.\n    See the License for the specific language governing permissions and\n    limitations under the License.\n*/\n\npragma solidity ^0.5.17;\npragma experimental ABIEncoderV2;\n\nimport \"@openzeppelin/contracts/token/ERC20/IERC20.sol\";\nimport '@uniswap/v2-core/contracts/interfaces/IUniswapV2Pair.sol';\nimport '../external/UniswapV2Library.sol';\nimport \"../Constants.sol\";\nimport \"./PoolGetters.sol\";\n\ncontract Liquidity is PoolGetters {\n    address private constant UNISWAP_FACTORY = address(0x5C69bEe701ef814a2B6a3EDD4B1652CB9cc5aA6f);\n\n    function addLiquidity(uint256 dollarAmount) internal returns (uint256, uint256) {\n        (address dollar, address usdc) = (address(dollar()), usdc());\n        (uint reserveA, uint reserveB) = getReserves(dollar, usdc);\n\n        uint256 usdcAmount = (reserveA == 0 && reserveB == 0) ?\n             dollarAmount :\n             UniswapV2Library.quote(dollarAmount, reserveA, reserveB);\n\n        address pair = address(univ2());\n        IERC20(dollar).transfer(pair, dollarAmount);\n        IERC20(usdc).transferFrom(msg.sender, pair, usdcAmount);\n        return (usdcAmount, IUniswapV2Pair(pair).mint(address(this)));\n    }\n\n    // overridable for testing\n    function getReserves(address tokenA, address tokenB) internal view returns (uint reserveA, uint reserveB) {\n        (address token0,) = UniswapV2Library.sortTokens(tokenA, tokenB);\n        (uint reserve0, uint reserve1,) = IUniswapV2Pair(UniswapV2Library.pairFor(UNISWAP_FACTORY, tokenA, tokenB)).getReserves();\n        (reserveA, reserveB) = tokenA == token0 ? (reserve0, reserve1) : (reserve1, reserve0);\n    }\n}\n",
  "sourcePath": "/Users/sachin/code/dollar/protocol/contracts/oracle/Liquidity.sol",
  "compiler": {
    "name": "solc",
    "version": "0.5.17+commit.d19bba13.Emscripten.clang"
  },
  "schemaVersion": "3.3.3",
  "updatedAt": "2021-01-01T13:40:49.155Z",
  "devdoc": {
    "methods": {}
  },
  "userdoc": {
    "methods": {
      "balanceOfStaged(address)": {
        "notice": "Account"
      },
      "usdc()": {
        "notice": "Global"
      }
    }
  }
}