{
  "contractName": "MockState",
  "abi": [
    {
      "inputs": [],
      "payable": false,
      "stateMutability": "nonpayable",
      "type": "constructor"
    },
    {
      "anonymous": false,
      "inputs": [
        {
          "indexed": true,
          "internalType": "address",
          "name": "from",
          "type": "address"
        },
        {
          "indexed": true,
          "internalType": "address",
          "name": "to",
          "type": "address"
        },
        {
          "indexed": false,
          "internalType": "uint256",
          "name": "value",
          "type": "uint256"
        }
      ],
      "name": "Transfer",
      "type": "event"
    },
    {
      "constant": true,
      "inputs": [
        {
          "internalType": "address",
          "name": "owner",
          "type": "address"
        },
        {
          "internalType": "address",
          "name": "spender",
          "type": "address"
        }
      ],
      "name": "allowance",
      "outputs": [
        {
          "internalType": "uint256",
          "name": "",
          "type": "uint256"
        }
      ],
      "payable": false,
      "stateMutability": "view",
      "type": "function"
    },
    {
      "constant": true,
      "inputs": [
        {
          "internalType": "address",
          "name": "owner",
          "type": "address"
        },
        {
          "internalType": "address",
          "name": "spender",
          "type": "address"
        }
      ],
      "name": "allowanceCoupons",
      "outputs": [
        {
          "internalType": "uint256",
          "name": "",
          "type": "uint256"
        }
      ],
      "payable": false,
      "stateMutability": "view",
      "type": "function"
    },
    {
      "constant": false,
      "inputs": [
        {
          "internalType": "address",
          "name": "spender",
          "type": "address"
        },
        {
          "internalType": "uint256",
          "name": "amount",
          "type": "uint256"
        }
      ],
      "name": "approve",
      "outputs": [
        {
          "internalType": "bool",
          "name": "",
          "type": "bool"
        }
      ],
      "payable": false,
      "stateMutability": "nonpayable",
      "type": "function"
    },
    {
      "constant": true,
      "inputs": [
        {
          "internalType": "address",
          "name": "candidate",
          "type": "address"
        }
      ],
      "name": "approveFor",
      "outputs": [
        {
          "internalType": "uint256",
          "name": "",
          "type": "uint256"
        }
      ],
      "payable": false,
      "stateMutability": "view",
      "type": "function"
    },
    {
      "constant": true,
      "inputs": [
        {
          "internalType": "address",
          "name": "account",
          "type": "address"
        }
      ],
      "name": "balanceOf",
      "outputs": [
        {
          "internalType": "uint256",
          "name": "",
          "type": "uint256"
        }
      ],
      "payable": false,
      "stateMutability": "view",
      "type": "function"
    },
    {
      "constant": true,
      "inputs": [
        {
          "internalType": "address",
          "name": "account",
          "type": "address"
        }
      ],
      "name": "balanceOfBonded",
      "outputs": [
        {
          "internalType": "uint256",
          "name": "",
          "type": "uint256"
        }
      ],
      "payable": false,
      "stateMutability": "view",
      "type": "function"
    },
    {
      "constant": true,
      "inputs": [
        {
          "internalType": "address",
          "name": "account",
          "type": "address"
        },
        {
          "internalType": "uint256",
          "name": "epoch",
          "type": "uint256"
        }
      ],
      "name": "balanceOfCoupons",
      "outputs": [
        {
          "internalType": "uint256",
          "name": "",
          "type": "uint256"
        }
      ],
      "payable": false,
      "stateMutability": "view",
      "type": "function"
    },
    {
      "constant": true,
      "inputs": [
        {
          "internalType": "address",
          "name": "account",
          "type": "address"
        }
      ],
      "name": "balanceOfStaged",
      "outputs": [
        {
          "internalType": "uint256",
          "name": "",
          "type": "uint256"
        }
      ],
      "payable": false,
      "stateMutability": "view",
      "type": "function"
    },
    {
      "constant": true,
      "inputs": [
        {
          "internalType": "uint256",
          "name": "epoch",
          "type": "uint256"
        }
      ],
      "name": "bootstrappingAt",
      "outputs": [
        {
          "internalType": "bool",
          "name": "",
          "type": "bool"
        }
      ],
      "payable": false,
      "stateMutability": "view",
      "type": "function"
    },
    {
      "constant": true,
      "inputs": [
        {
          "internalType": "uint256",
          "name": "epoch",
          "type": "uint256"
        }
      ],
      "name": "couponsExpiration",
      "outputs": [
        {
          "internalType": "uint256",
          "name": "",
          "type": "uint256"
        }
      ],
      "payable": false,
      "stateMutability": "view",
      "type": "function"
    },
    {
      "constant": true,
      "inputs": [],
      "name": "decimals",
      "outputs": [
        {
          "internalType": "uint8",
          "name": "",
          "type": "uint8"
        }
      ],
      "payable": false,
      "stateMutability": "view",
      "type": "function"
    },
    {
      "constant": true,
      "inputs": [],
      "name": "dollar",
      "outputs": [
        {
          "internalType": "contract IDollar",
          "name": "",
          "type": "address"
        }
      ],
      "payable": false,
      "stateMutability": "view",
      "type": "function"
    },
    {
      "constant": true,
      "inputs": [],
      "name": "epoch",
      "outputs": [
        {
          "internalType": "uint256",
          "name": "",
          "type": "uint256"
        }
      ],
      "payable": false,
      "stateMutability": "view",
      "type": "function"
    },
    {
      "constant": true,
      "inputs": [],
      "name": "epochTime",
      "outputs": [
        {
          "internalType": "uint256",
          "name": "",
          "type": "uint256"
        }
      ],
      "payable": false,
      "stateMutability": "view",
      "type": "function"
    },
    {
      "constant": true,
      "inputs": [
        {
          "internalType": "uint256",
          "name": "epoch",
          "type": "uint256"
        }
      ],
      "name": "expiringCoupons",
      "outputs": [
        {
          "internalType": "uint256",
          "name": "",
          "type": "uint256"
        }
      ],
      "payable": false,
      "stateMutability": "view",
      "type": "function"
    },
    {
      "constant": true,
      "inputs": [
        {
          "internalType": "uint256",
          "name": "epoch",
          "type": "uint256"
        },
        {
          "internalType": "uint256",
          "name": "i",
          "type": "uint256"
        }
      ],
      "name": "expiringCouponsAtIndex",
      "outputs": [
        {
          "internalType": "uint256",
          "name": "",
          "type": "uint256"
        }
      ],
      "payable": false,
      "stateMutability": "view",
      "type": "function"
    },
    {
      "constant": true,
      "inputs": [
        {
          "internalType": "address",
          "name": "account",
          "type": "address"
        }
      ],
      "name": "fluidUntil",
      "outputs": [
        {
          "internalType": "uint256",
          "name": "",
          "type": "uint256"
        }
      ],
      "payable": false,
      "stateMutability": "view",
      "type": "function"
    },
    {
      "constant": true,
      "inputs": [],
      "name": "implementation",
      "outputs": [
        {
          "internalType": "address",
          "name": "impl",
          "type": "address"
        }
      ],
      "payable": false,
      "stateMutability": "view",
      "type": "function"
    },
    {
      "constant": true,
      "inputs": [
        {
          "internalType": "address",
          "name": "candidate",
          "type": "address"
        }
      ],
      "name": "isInitialized",
      "outputs": [
        {
          "internalType": "bool",
          "name": "",
          "type": "bool"
        }
      ],
      "payable": false,
      "stateMutability": "view",
      "type": "function"
    },
    {
      "constant": true,
      "inputs": [
        {
          "internalType": "address",
          "name": "candidate",
          "type": "address"
        }
      ],
      "name": "isNominated",
      "outputs": [
        {
          "internalType": "bool",
          "name": "",
          "type": "bool"
        }
      ],
      "payable": false,
      "stateMutability": "view",
      "type": "function"
    },
    {
      "constant": true,
      "inputs": [
        {
          "internalType": "address",
          "name": "account",
          "type": "address"
        }
      ],
      "name": "lockedUntil",
      "outputs": [
        {
          "internalType": "uint256",
          "name": "",
          "type": "uint256"
        }
      ],
      "payable": false,
      "stateMutability": "view",
      "type": "function"
    },
    {
      "constant": true,
      "inputs": [],
      "name": "name",
      "outputs": [
        {
          "internalType": "string",
          "name": "",
          "type": "string"
        }
      ],
      "payable": false,
      "stateMutability": "view",
      "type": "function"
    },
    {
      "constant": true,
      "inputs": [],
      "name": "oracle",
      "outputs": [
        {
          "internalType": "contract IOracle",
          "name": "",
          "type": "address"
        }
      ],
      "payable": false,
      "stateMutability": "view",
      "type": "function"
    },
    {
      "constant": true,
      "inputs": [
        {
          "internalType": "uint256",
          "name": "epoch",
          "type": "uint256"
        }
      ],
      "name": "outstandingCoupons",
      "outputs": [
        {
          "internalType": "uint256",
          "name": "",
          "type": "uint256"
        }
      ],
      "payable": false,
      "stateMutability": "view",
      "type": "function"
    },
    {
      "constant": true,
      "inputs": [
        {
          "internalType": "address",
          "name": "candidate",
          "type": "address"
        }
      ],
      "name": "periodFor",
      "outputs": [
        {
          "internalType": "uint256",
          "name": "",
          "type": "uint256"
        }
      ],
      "payable": false,
      "stateMutability": "view",
      "type": "function"
    },
    {
      "constant": true,
      "inputs": [],
      "name": "pool",
      "outputs": [
        {
          "internalType": "address",
          "name": "",
          "type": "address"
        }
      ],
      "payable": false,
      "stateMutability": "view",
      "type": "function"
    },
    {
      "constant": true,
      "inputs": [
        {
          "internalType": "address",
          "name": "account",
          "type": "address"
        },
        {
          "internalType": "address",
          "name": "candidate",
          "type": "address"
        }
      ],
      "name": "recordedVote",
      "outputs": [
        {
          "internalType": "enum Candidate.Vote",
          "name": "",
          "type": "uint8"
        }
      ],
      "payable": false,
      "stateMutability": "view",
      "type": "function"
    },
    {
      "constant": true,
      "inputs": [
        {
          "internalType": "address",
          "name": "candidate",
          "type": "address"
        }
      ],
      "name": "rejectFor",
      "outputs": [
        {
          "internalType": "uint256",
          "name": "",
          "type": "uint256"
        }
      ],
      "payable": false,
      "stateMutability": "view",
      "type": "function"
    },
    {
      "constant": true,
      "inputs": [
        {
          "internalType": "address",
          "name": "candidate",
          "type": "address"
        }
      ],
      "name": "startFor",
      "outputs": [
        {
          "internalType": "uint256",
          "name": "",
          "type": "uint256"
        }
      ],
      "payable": false,
      "stateMutability": "view",
      "type": "function"
    },
    {
      "constant": true,
      "inputs": [
        {
          "internalType": "address",
          "name": "account",
          "type": "address"
        }
      ],
      "name": "statusOf",
      "outputs": [
        {
          "internalType": "enum Account.Status",
          "name": "",
          "type": "uint8"
        }
      ],
      "payable": false,
      "stateMutability": "view",
      "type": "function"
    },
    {
      "constant": true,
      "inputs": [],
      "name": "symbol",
      "outputs": [
        {
          "internalType": "string",
          "name": "",
          "type": "string"
        }
      ],
      "payable": false,
      "stateMutability": "view",
      "type": "function"
    },
    {
      "constant": true,
      "inputs": [],
      "name": "totalBonded",
      "outputs": [
        {
          "internalType": "uint256",
          "name": "",
          "type": "uint256"
        }
      ],
      "payable": false,
      "stateMutability": "view",
      "type": "function"
    },
    {
      "constant": true,
      "inputs": [
        {
          "internalType": "uint256",
          "name": "epoch",
          "type": "uint256"
        }
      ],
      "name": "totalBondedAt",
      "outputs": [
        {
          "internalType": "uint256",
          "name": "",
          "type": "uint256"
        }
      ],
      "payable": false,
      "stateMutability": "view",
      "type": "function"
    },
    {
      "constant": true,
      "inputs": [],
      "name": "totalCoupons",
      "outputs": [
        {
          "internalType": "uint256",
          "name": "",
          "type": "uint256"
        }
      ],
      "payable": false,
      "stateMutability": "view",
      "type": "function"
    },
    {
      "constant": true,
      "inputs": [],
      "name": "totalDebt",
      "outputs": [
        {
          "internalType": "uint256",
          "name": "",
          "type": "uint256"
        }
      ],
      "payable": false,
      "stateMutability": "view",
      "type": "function"
    },
    {
      "constant": true,
      "inputs": [],
      "name": "totalNet",
      "outputs": [
        {
          "internalType": "uint256",
          "name": "",
          "type": "uint256"
        }
      ],
      "payable": false,
      "stateMutability": "view",
      "type": "function"
    },
    {
      "constant": true,
      "inputs": [],
      "name": "totalRedeemable",
      "outputs": [
        {
          "internalType": "uint256",
          "name": "",
          "type": "uint256"
        }
      ],
      "payable": false,
      "stateMutability": "view",
      "type": "function"
    },
    {
      "constant": true,
      "inputs": [],
      "name": "totalStaged",
      "outputs": [
        {
          "internalType": "uint256",
          "name": "",
          "type": "uint256"
        }
      ],
      "payable": false,
      "stateMutability": "view",
      "type": "function"
    },
    {
      "constant": true,
      "inputs": [],
      "name": "totalSupply",
      "outputs": [
        {
          "internalType": "uint256",
          "name": "",
          "type": "uint256"
        }
      ],
      "payable": false,
      "stateMutability": "view",
      "type": "function"
    },
    {
      "constant": false,
      "inputs": [
        {
          "internalType": "address",
          "name": "recipient",
          "type": "address"
        },
        {
          "internalType": "uint256",
          "name": "amount",
          "type": "uint256"
        }
      ],
      "name": "transfer",
      "outputs": [
        {
          "internalType": "bool",
          "name": "",
          "type": "bool"
        }
      ],
      "payable": false,
      "stateMutability": "nonpayable",
      "type": "function"
    },
    {
      "constant": false,
      "inputs": [
        {
          "internalType": "address",
          "name": "sender",
          "type": "address"
        },
        {
          "internalType": "address",
          "name": "recipient",
          "type": "address"
        },
        {
          "internalType": "uint256",
          "name": "amount",
          "type": "uint256"
        }
      ],
      "name": "transferFrom",
      "outputs": [
        {
          "internalType": "bool",
          "name": "",
          "type": "bool"
        }
      ],
      "payable": false,
      "stateMutability": "nonpayable",
      "type": "function"
    },
    {
      "constant": true,
      "inputs": [
        {
          "internalType": "address",
          "name": "candidate",
          "type": "address"
        }
      ],
      "name": "votesFor",
      "outputs": [
        {
          "internalType": "uint256",
          "name": "",
          "type": "uint256"
        }
      ],
      "payable": false,
      "stateMutability": "view",
      "type": "function"
    },
    {
      "constant": false,
      "inputs": [
        {
          "internalType": "uint256",
          "name": "amount",
          "type": "uint256"
        }
      ],
      "name": "incrementTotalBondedE",
      "outputs": [],
      "payable": false,
      "stateMutability": "nonpayable",
      "type": "function"
    },
    {
      "constant": false,
      "inputs": [
        {
          "internalType": "uint256",
          "name": "amount",
          "type": "uint256"
        },
        {
          "internalType": "string",
          "name": "reason",
          "type": "string"
        }
      ],
      "name": "decrementTotalBondedE",
      "outputs": [],
      "payable": false,
      "stateMutability": "nonpayable",
      "type": "function"
    },
    {
      "constant": false,
      "inputs": [
        {
          "internalType": "uint256",
          "name": "amount",
          "type": "uint256"
        }
      ],
      "name": "incrementTotalDebtE",
      "outputs": [],
      "payable": false,
      "stateMutability": "nonpayable",
      "type": "function"
    },
    {
      "constant": false,
      "inputs": [
        {
          "internalType": "uint256",
          "name": "amount",
          "type": "uint256"
        },
        {
          "internalType": "string",
          "name": "reason",
          "type": "string"
        }
      ],
      "name": "decrementTotalDebtE",
      "outputs": [],
      "payable": false,
      "stateMutability": "nonpayable",
      "type": "function"
    },
    {
      "constant": false,
      "inputs": [
        {
          "internalType": "uint256",
          "name": "amount",
          "type": "uint256"
        }
      ],
      "name": "incrementTotalRedeemableE",
      "outputs": [],
      "payable": false,
      "stateMutability": "nonpayable",
      "type": "function"
    },
    {
      "constant": false,
      "inputs": [
        {
          "internalType": "uint256",
          "name": "amount",
          "type": "uint256"
        },
        {
          "internalType": "string",
          "name": "reason",
          "type": "string"
        }
      ],
      "name": "decrementTotalRedeemableE",
      "outputs": [],
      "payable": false,
      "stateMutability": "nonpayable",
      "type": "function"
    },
    {
      "constant": false,
      "inputs": [
        {
          "internalType": "address",
          "name": "account",
          "type": "address"
        },
        {
          "internalType": "uint256",
          "name": "amount",
          "type": "uint256"
        }
      ],
      "name": "incrementBalanceOfE",
      "outputs": [],
      "payable": false,
      "stateMutability": "nonpayable",
      "type": "function"
    },
    {
      "constant": false,
      "inputs": [
        {
          "internalType": "address",
          "name": "account",
          "type": "address"
        },
        {
          "internalType": "uint256",
          "name": "amount",
          "type": "uint256"
        },
        {
          "internalType": "string",
          "name": "reason",
          "type": "string"
        }
      ],
      "name": "decrementBalanceOfE",
      "outputs": [],
      "payable": false,
      "stateMutability": "nonpayable",
      "type": "function"
    },
    {
      "constant": false,
      "inputs": [
        {
          "internalType": "address",
          "name": "account",
          "type": "address"
        },
        {
          "internalType": "uint256",
          "name": "amount",
          "type": "uint256"
        }
      ],
      "name": "incrementBalanceOfStagedE",
      "outputs": [],
      "payable": false,
      "stateMutability": "nonpayable",
      "type": "function"
    },
    {
      "constant": false,
      "inputs": [
        {
          "internalType": "address",
          "name": "account",
          "type": "address"
        },
        {
          "internalType": "uint256",
          "name": "amount",
          "type": "uint256"
        },
        {
          "internalType": "string",
          "name": "reason",
          "type": "string"
        }
      ],
      "name": "decrementBalanceOfStagedE",
      "outputs": [],
      "payable": false,
      "stateMutability": "nonpayable",
      "type": "function"
    },
    {
      "constant": false,
      "inputs": [
        {
          "internalType": "address",
          "name": "account",
          "type": "address"
        },
        {
          "internalType": "uint256",
          "name": "epoch",
          "type": "uint256"
        },
        {
          "internalType": "uint256",
          "name": "amount",
          "type": "uint256"
        }
      ],
      "name": "incrementBalanceOfCouponsE",
      "outputs": [],
      "payable": false,
      "stateMutability": "nonpayable",
      "type": "function"
    },
    {
      "constant": false,
      "inputs": [
        {
          "internalType": "address",
          "name": "account",
          "type": "address"
        },
        {
          "internalType": "uint256",
          "name": "epoch",
          "type": "uint256"
        },
        {
          "internalType": "uint256",
          "name": "amount",
          "type": "uint256"
        },
        {
          "internalType": "string",
          "name": "reason",
          "type": "string"
        }
      ],
      "name": "decrementBalanceOfCouponsE",
      "outputs": [],
      "payable": false,
      "stateMutability": "nonpayable",
      "type": "function"
    },
    {
      "constant": false,
      "inputs": [
        {
          "internalType": "address",
          "name": "account",
          "type": "address"
        }
      ],
      "name": "unfreezeE",
      "outputs": [],
      "payable": false,
      "stateMutability": "nonpayable",
      "type": "function"
    },
    {
      "constant": false,
      "inputs": [
        {
          "internalType": "address",
          "name": "owner",
          "type": "address"
        },
        {
          "internalType": "address",
          "name": "spender",
          "type": "address"
        },
        {
          "internalType": "uint256",
          "name": "amount",
          "type": "uint256"
        }
      ],
      "name": "updateAllowanceCouponsE",
      "outputs": [],
      "payable": false,
      "stateMutability": "nonpayable",
      "type": "function"
    },
    {
      "constant": false,
      "inputs": [
        {
          "internalType": "address",
          "name": "owner",
          "type": "address"
        },
        {
          "internalType": "address",
          "name": "spender",
          "type": "address"
        },
        {
          "internalType": "uint256",
          "name": "amount",
          "type": "uint256"
        },
        {
          "internalType": "string",
          "name": "reason",
          "type": "string"
        }
      ],
      "name": "decrementAllowanceCouponsE",
      "outputs": [],
      "payable": false,
      "stateMutability": "nonpayable",
      "type": "function"
    },
    {
      "constant": false,
      "inputs": [
        {
          "internalType": "uint256",
          "name": "start",
          "type": "uint256"
        },
        {
          "internalType": "uint256",
          "name": "period",
          "type": "uint256"
        }
      ],
      "name": "setEpochParamsE",
      "outputs": [],
      "payable": false,
      "stateMutability": "nonpayable",
      "type": "function"
    },
    {
      "constant": false,
      "inputs": [],
      "name": "incrementEpochE",
      "outputs": [],
      "payable": false,
      "stateMutability": "nonpayable",
      "type": "function"
    },
    {
      "constant": false,
      "inputs": [],
      "name": "snapshotTotalBondedE",
      "outputs": [],
      "payable": false,
      "stateMutability": "nonpayable",
      "type": "function"
    },
    {
      "constant": false,
      "inputs": [
        {
          "internalType": "uint256",
          "name": "epoch",
          "type": "uint256"
        },
        {
          "internalType": "uint256",
          "name": "expiration",
          "type": "uint256"
        }
      ],
      "name": "initializeCouponsExpirationE",
      "outputs": [],
      "payable": false,
      "stateMutability": "nonpayable",
      "type": "function"
    },
    {
      "constant": false,
      "inputs": [
        {
          "internalType": "uint256",
          "name": "epoch",
          "type": "uint256"
        }
      ],
      "name": "eliminateOutstandingCouponsE",
      "outputs": [],
      "payable": false,
      "stateMutability": "nonpayable",
      "type": "function"
    },
    {
      "constant": false,
      "inputs": [
        {
          "internalType": "address",
          "name": "candidate",
          "type": "address"
        },
        {
          "internalType": "uint256",
          "name": "period",
          "type": "uint256"
        }
      ],
      "name": "createCandidateE",
      "outputs": [],
      "payable": false,
      "stateMutability": "nonpayable",
      "type": "function"
    },
    {
      "constant": false,
      "inputs": [
        {
          "internalType": "address",
          "name": "account",
          "type": "address"
        },
        {
          "internalType": "address",
          "name": "candidate",
          "type": "address"
        },
        {
          "internalType": "enum Candidate.Vote",
          "name": "vote",
          "type": "uint8"
        }
      ],
      "name": "recordVoteE",
      "outputs": [],
      "payable": false,
      "stateMutability": "nonpayable",
      "type": "function"
    },
    {
      "constant": false,
      "inputs": [
        {
          "internalType": "address",
          "name": "candidate",
          "type": "address"
        },
        {
          "internalType": "uint256",
          "name": "amount",
          "type": "uint256"
        }
      ],
      "name": "incrementApproveForE",
      "outputs": [],
      "payable": false,
      "stateMutability": "nonpayable",
      "type": "function"
    },
    {
      "constant": false,
      "inputs": [
        {
          "internalType": "address",
          "name": "candidate",
          "type": "address"
        },
        {
          "internalType": "uint256",
          "name": "amount",
          "type": "uint256"
        },
        {
          "internalType": "string",
          "name": "reason",
          "type": "string"
        }
      ],
      "name": "decrementApproveForE",
      "outputs": [],
      "payable": false,
      "stateMutability": "nonpayable",
      "type": "function"
    },
    {
      "constant": false,
      "inputs": [
        {
          "internalType": "address",
          "name": "candidate",
          "type": "address"
        },
        {
          "internalType": "uint256",
          "name": "amount",
          "type": "uint256"
        }
      ],
      "name": "incrementRejectForE",
      "outputs": [],
      "payable": false,
      "stateMutability": "nonpayable",
      "type": "function"
    },
    {
      "constant": false,
      "inputs": [
        {
          "internalType": "address",
          "name": "candidate",
          "type": "address"
        },
        {
          "internalType": "uint256",
          "name": "amount",
          "type": "uint256"
        },
        {
          "internalType": "string",
          "name": "reason",
          "type": "string"
        }
      ],
      "name": "decrementRejectForE",
      "outputs": [],
      "payable": false,
      "stateMutability": "nonpayable",
      "type": "function"
    },
    {
      "constant": false,
      "inputs": [
        {
          "internalType": "address",
          "name": "account",
          "type": "address"
        },
        {
          "internalType": "address",
          "name": "candidate",
          "type": "address"
        }
      ],
      "name": "placeLockE",
      "outputs": [],
      "payable": false,
      "stateMutability": "nonpayable",
      "type": "function"
    },
    {
      "constant": false,
      "inputs": [
        {
          "internalType": "address",
          "name": "candidate",
          "type": "address"
        }
      ],
      "name": "initializedE",
      "outputs": [],
      "payable": false,
      "stateMutability": "nonpayable",
      "type": "function"
    },
    {
      "constant": false,
      "inputs": [
        {
          "internalType": "uint256",
          "name": "timestamp",
          "type": "uint256"
        }
      ],
      "name": "setBlockTimestamp",
      "outputs": [],
      "payable": false,
      "stateMutability": "nonpayable",
      "type": "function"
    }
  ],
  "bytecode": "0x608060405234801561001057600080fd5b5042600f556120e5806100246000396000f3fe608060405234801561001057600080fd5b506004361061041d5760003560e01c806386cf9f141161022b578063b11ee0e311610130578063d6d8816d116100b8578063f1b7cf4911610087578063f1b7cf49146108a6578063f35adf7e146108b9578063f7a31818146108c1578063fc7b9c18146108d4578063ffbe3b73146108dc5761041d565b8063d6d8816d1461085f578063d83d3ed514610872578063dd62ed3e14610885578063e0abdf66146108935761041d565b8063c2aeb5fe116100ff578063c2aeb5fe1461080b578063c9aff70c1461081e578063cc8d823c14610831578063cf02377914610844578063d60b347f1461084c5761041d565b8063b11ee0e3146107bf578063b32a2f90146107d2578063bc7513e2146107e5578063c1410c02146107f85761041d565b80639f6e1b26116101b3578063a6f37b5311610182578063a6f37b5314610773578063a9059cbb14610440578063a9b3cf1514610786578063adbff2be14610799578063ae5c2381146107ac5761041d565b80639f6e1b2614610732578063a00e14d114610745578063a50cd8e714610758578063a6c409f11461076b5761041d565b806397a5d5b5116101fa57806397a5d5b5146106de5780639a649edc146106f15780639b82b49b146106f95780639bc289f11461070c5780639be464931461071f5761041d565b806386cf9f14146106a85780638de2e573146106bb578063900cf0cf146106ce57806395d89b41146106d65761041d565b80633fd4973c116103315780636b862d66116102b957806375d5024b1161028857806375d5024b146106545780637cb95a32146106675780637dc0d1d01461067a578063825ad607146106825780638413e52a146106955761041d565b80636b862d661461061357806370a082311461062657806371c511eb1461063957806372924d2a146106415761041d565b806351adeb571161030057806351adeb57146105bd57806351bf21d8146105d25780635c60da1b146105e557806364668022146105ed5780636a39e328146106005761041d565b80633fd4973c1461058757806344d96e951461059a5780634c736099146105a25780635053e461146105b55761041d565b80631edbcf6c116103b45780633234742211610383578063323474221461051b578063353a420c1461052e5780633a3e6c81146105415780633f7bcaf3146105545780633fbba9a6146105675761041d565b80631edbcf6c146104d857806323b872dd146104e0578063259f7adf146104f3578063313ce567146105065761041d565b806315e14bf6116103f057806315e14bf61461049557806316f0115b146104a857806318160ddd146104bd5780631a08e22a146104c55761041d565b806306fdde0314610422578063095ea7b3146104405780630dc6d3a31461046057806310e95b6c14610475575b600080fd5b61042a6108ef565b6040516104379190611f99565b60405180910390f35b61045361044e366004611cc1565b61091f565b6040516104379190611f6f565b61047361046e366004611c43565b610928565b005b610488610483366004611dc0565b610971565b6040516104379190611fca565b6104886104a3366004611b53565b610989565b6104b06109a7565b6040516104379190611f61565b6104886109b6565b6104736104d3366004611e52565b6109bc565b6104886109ca565b6104536104ee366004611c00565b6109d0565b610473610501366004611dc0565b6109d9565b61050e6109e5565b6040516104379190611fd8565b610473610529366004611dfc565b6109ea565b61048861053c366004611b53565b610a2f565b61045361054f366004611b53565b610a4d565b610473610562366004611c00565b610a6a565b61057a610575366004611b79565b610a75565b6040516104379190611f8b565b610473610595366004611cf1565b610aa8565b610488610aef565b6104886105b0366004611e52565b610af5565b610488610b25565b6105c5610b7b565b6040516104379190611f7d565b6104886105e0366004611b53565b610b8a565b6104b0610ba8565b6104886105fb366004611b53565b610bcd565b61048861060e366004611dc0565b610beb565b610473610621366004611d59565b610c00565b610488610634366004611b53565b610c0b565b610473610c29565b61047361064f366004611dfc565b610c33565b610453610662366004611dc0565b610c73565b610473610675366004611cf1565b610c86565b6105c5610cc7565b610488610690366004611b53565b610cd6565b6104736106a3366004611bb3565b610d29565b6104886106b6366004611b53565b610d34565b6104736106c9366004611dc0565b610d4f565b610488610d58565b61042a610d5e565b61057a6106ec366004611b53565b610d7c565b610488610de1565b610473610707366004611dfc565b610de7565b61048861071a366004611b53565b610e27565b61047361072d366004611b53565b610e45565b610488610740366004611b79565b610e4e565b610473610753366004611e52565b610e7d565b610488610766366004611b53565b610e88565b610488610eab565b610473610781366004611b53565b610f41565b610473610794366004611dc0565b610f4a565b6104736107a7366004611cf1565b610f53565b6104736107ba366004611cc1565b610f94565b6104736107cd366004611cc1565b610f9e565b6104736107e0366004611cf1565b610fa8565b6104886107f3366004611cc1565b610fe9565b610473610806366004611b79565b61102d565b610473610819366004611d8b565b611037565b61048861082c366004611dc0565b611079565b61047361083f366004611cc1565b61108e565b610488611098565b61045361085a366004611b53565b61109e565b61047361086d366004611dc0565b6110bf565b610473610880366004611cc1565b6110c8565b61048861044e366004611b79565b6104736108a1366004611dc0565b6110d2565b6104886108b4366004611b53565b6110d7565b6104736110f2565b6104736108cf366004611cc1565b6110fa565b610488611104565b6104886108ea366004611dc0565b61110a565b604080518082019091526016815275456d7074792053657420446f6c6c6172205374616b6560501b602082015290565b60005b92915050565b61096a85858585858080601f01602080910402602001604051908101604052809392919081815260200183838082843760009201919091525061111c92505050565b5050505050565b6000818152600d60205260409020600201545b919050565b6001600160a01b03166000908152600e602052604090206001015490565b600b546001600160a01b031690565b60035490565b6109c6828261118d565b5050565b60065490565b60009392505050565b6109e2816111bf565b50565b601290565b610a2a8383838080601f0160208091040260200160405190810160405280939291908181526020018383808284376000920191909152506111d892505050565b505050565b6001600160a01b03166000908152600e602052604090206003015490565b6001600160a01b03166000908152600e6020526040902054151590565b610a2a8383836111f3565b6001600160a01b038082166000908152600e60209081526040808320938616835260049093019052205460ff1692915050565b610ae9848484848080601f01602080910402602001604051908101604052809392919081815260200183838082843760009201919091525061122392505050565b50505050565b60045490565b6000828152600d60205260408120600301805483908110610b1257fe5b9060005260206000200154905092915050565b6000610b2f611abd565b610b37611274565b9050610b41611abd565b610b496112a3565b90508160200151610b586112d3565b10610b6b57610b66826112d9565b610b74565b610b74816112d9565b9250505090565b6009546001600160a01b031690565b6001600160a01b03166000908152600c602052604090206004015490565b7f360894a13ba1a3210667c828492db98dca3e2076cc3735a920a3ca505d382bbc5490565b6001600160a01b03166000908152600e602052604090206002015490565b6000908152600d602052604090206003015490565b610a2a8383836112fb565b6001600160a01b03166000908152600c602052604090206001015490565b610c316113a2565b565b610a2a8383838080601f0160208091040260200160405190810160405280939291908181526020018383808284376000920191909152506113c992505050565b6000610c7d6113e4565b90911115919050565b610ae9848484848080601f0160208091040260200160405190810160405280939291908181526020018383808284376000920191909152506113e992505050565b600a546001600160a01b031690565b600080610ce16109b6565b905080610cf2576000915050610984565b610d2281610d16610d0286610c0b565b610d0a610aef565b9063ffffffff61143a16565b9063ffffffff61147d16565b9392505050565b610a2a8383836114bf565b6001600160a01b03166000908152600c602052604090205490565b6109e281611509565b60025490565b6040805180820190915260048152634553445360e01b602082015290565b6000610d86610d58565b6001600160a01b0383166000908152600c60205260409020600501541115610db057506002610984565b6001600160a01b0382166000908152600c6020526040902060040154610dd4610d58565b101561091f576001610922565b60085490565b610a2a8383838080601f01602080910402602001604051908101604052809392919081815260200183838082843760009201919091525061152292505050565b6001600160a01b03166000908152600c602052604090206005015490565b6109e28161153d565b6001600160a01b039182166000908152600c602090815260408083209390941682526003909201909152205490565b600091909155600155565b6000610922610e9683610a2f565b610e9f84610bcd565b9063ffffffff61156f16565b6000610f3c610eb8611104565b610ec0610b7b565b6001600160a01b03166318160ddd6040518163ffffffff1660e01b815260040160206040518083038186803b158015610ef857600080fd5b505afa158015610f0c573d6000803e3d6000fd5b505050506040513d601f19601f82011682018060405250610f309190810190611dde565b9063ffffffff61159416565b905090565b6109e2816115d6565b6109e2816115fd565b610ae9848484848080601f01602080910402602001604051908101604052809392919081815260200183838082843760009201919091525061164092505050565b6109c682826116eb565b6109c68282611793565b610ae9848484848080601f0160208091040260200160405190810160405280939291908181526020018383808284376000920191909152506117ef92505050565b6000610ff482611079565b61100057506000610922565b506001600160a01b03919091166000908152600c6020908152604080832093835260029093019052205490565b6109c6828261184e565b61096a85858585858080601f0160208091040260200160405190810160405280939291908181526020018383808284376000920191909152506118ae92505050565b6000908152600d602052604090206001015490565b6109c68282611959565b60055490565b6001600160a01b03166000908152600e602052604090206005015460ff1690565b6109e2816119a8565b6109c682826119c1565b600f55565b6001600160a01b03166000908152600e602052604090205490565b610c316119ed565b6109c68282611a06565b60075490565b6000908152600d602052604090205490565b6001600160a01b038085166000908152600c60209081526040808320938716835260039093019052205461115790838363ffffffff611a5516565b6001600160a01b039485166000908152600c60209081526040808320969097168252600390950190945293909220929092555050565b6000828152600d6020908152604080832060020184905592825291812060030180546001810182559082529190200155565b6004546111d2908263ffffffff61156f16565b60045550565b6006546111ec90838363ffffffff611a5516565b6006555050565b6001600160a01b039283166000908152600c60209081526040808320949095168252600390930190925291902055565b6001600160a01b0383166000908152600e602052604090206003015461125090838363ffffffff611a5516565b6001600160a01b039093166000908152600e60205260409020600301929092555050565b61127c611abd565b6040518060600160405280606a8152602001635f7fa8008152602001617080815250905090565b6112ab611abd565b6040518060600160405280605b8152602001635f6be180815260200162015180815250905090565b600f5490565b60006109228260000151610e9f8460400151610d168660200151610f306112d3565b6001600160a01b0383166000908152600c60209081526040808320858452600201909152902054611332908263ffffffff61156f16565b6001600160a01b0384166000908152600c60209081526040808320868452600201825280832093909355600d90522060010154611375908263ffffffff61156f16565b6000838152600d602052604090206001015560085461139a908263ffffffff61156f16565b600855505050565b6113aa6109b6565b600d60006113b6610d58565b8152602081019190915260400160002055565b6007546113dd90838363ffffffff611a5516565b6007555050565b605a90565b6001600160a01b0383166000908152600e602052604090206002015461141690838363ffffffff611a5516565b6001600160a01b039093166000908152600e60205260409020600201929092555050565b60008261144957506000610922565b8282028284828161145657fe5b0414610d225760405162461bcd60e51b815260040161147490611fba565b60405180910390fd5b6000610d2283836040518060400160405280601a81526020017f536166654d6174683a206469766973696f6e206279207a65726f000000000000815250611a81565b6001600160a01b038083166000908152600e6020908152604080832093871683526004909301905220805482919060ff191660018360028111156114ff57fe5b0217905550505050565b60075461151c908263ffffffff61156f16565b60075550565b60045461153690838363ffffffff611a5516565b6004555050565b611550611548611ab8565b610e9f610d58565b6001600160a01b039091166000908152600c6020526040902060040155565b600082820183811015610d225760405162461bcd60e51b815260040161147490611faa565b6000610d2283836040518060400160405280601e81526020017f536166654d6174683a207375627472616374696f6e206f766572666c6f770000815250611a55565b6001600160a01b03166000908152600e60205260409020600501805460ff19166001179055565b600061160882611079565b90508061161557506109e2565b600854611628908263ffffffff61159416565b600855506000908152600d6020526040812060010155565b6001600160a01b0383166000908152600c602052604090206001015461166d90838363ffffffff611a5516565b6001600160a01b0384166000908152600c602052604090206001015560035461169d90838363ffffffff611a5516565b6003556040516000906001600160a01b038516907fddf252ad1be2c89b69c2b068fc378daa952ba7f163c4a11628f55a4df523b3ef906116de908690611fca565b60405180910390a3505050565b6001600160a01b0382166000908152600c6020526040902060010154611717908263ffffffff61156f16565b6001600160a01b0383166000908152600c6020526040902060010155600354611746908263ffffffff61156f16565b6003556040516001600160a01b038316906000907fddf252ad1be2c89b69c2b068fc378daa952ba7f163c4a11628f55a4df523b3ef90611787908590611fca565b60405180910390a35050565b6001600160a01b0382166000908152600c60205260409020546117bc908263ffffffff61156f16565b6001600160a01b0383166000908152600c60205260409020556005546117e8908263ffffffff61156f16565b6005555050565b6001600160a01b0383166000908152600c602052604090205461181990838363ffffffff611a5516565b6001600160a01b0384166000908152600c602052604090205560055461184690838363ffffffff611a5516565b600555505050565b6001600160a01b0382166000908152600c60205260408120600501549061188061187784610989565b610e9f856110d7565b905081811115610ae9576001600160a01b0384166000908152600c6020526040902060050181905550505050565b6001600160a01b0384166000908152600c602090815260408083208684526002019091529020546118e690838363ffffffff611a5516565b6001600160a01b0385166000908152600c60209081526040808320878452600201825280832093909355600d9052206001015461192a90838363ffffffff611a5516565b6000848152600d602052604090206001015560085461195090838363ffffffff611a5516565b60085550505050565b6001600160a01b0382166000908152600e6020526040902060030154611985908263ffffffff61156f16565b6001600160a01b039092166000908152600e602052604090206003019190915550565b6006546119bb908263ffffffff61156f16565b60065550565b6119c9610d58565b6001600160a01b039092166000908152600e60205260409020918255600190910155565b600254611a0190600163ffffffff61156f16565b600255565b6001600160a01b0382166000908152600e6020526040902060020154611a32908263ffffffff61156f16565b6001600160a01b039092166000908152600e602052604090206002019190915550565b60008184841115611a795760405162461bcd60e51b81526004016114749190611f99565b505050900390565b60008183611aa25760405162461bcd60e51b81526004016114749190611f99565b506000838581611aae57fe5b0495945050505050565b600f90565b60405180606001604052806000815260200160008152602001600081525090565b803561092281612078565b80356109228161208c565b60008083601f840112611b0657600080fd5b50813567ffffffffffffffff811115611b1e57600080fd5b602083019150836001820283011115611b3657600080fd5b9250929050565b803561092281612099565b805161092281612099565b600060208284031215611b6557600080fd5b6000611b718484611ade565b949350505050565b60008060408385031215611b8c57600080fd5b6000611b988585611ade565b9250506020611ba985828601611ade565b9150509250929050565b600080600060608486031215611bc857600080fd5b6000611bd48686611ade565b9350506020611be586828701611ade565b9250506040611bf686828701611ae9565b9150509250925092565b600080600060608486031215611c1557600080fd5b6000611c218686611ade565b9350506020611c3286828701611ade565b9250506040611bf686828701611b3d565b600080600080600060808688031215611c5b57600080fd5b6000611c678888611ade565b9550506020611c7888828901611ade565b9450506040611c8988828901611b3d565b935050606086013567ffffffffffffffff811115611ca657600080fd5b611cb288828901611af4565b92509250509295509295909350565b60008060408385031215611cd457600080fd5b6000611ce08585611ade565b9250506020611ba985828601611b3d565b60008060008060608587031215611d0757600080fd5b6000611d138787611ade565b9450506020611d2487828801611b3d565b935050604085013567ffffffffffffffff811115611d4157600080fd5b611d4d87828801611af4565b95989497509550505050565b600080600060608486031215611d6e57600080fd5b6000611d7a8686611ade565b9350506020611c3286828701611b3d565b600080600080600060808688031215611da357600080fd5b6000611daf8888611ade565b9550506020611c7888828901611b3d565b600060208284031215611dd257600080fd5b6000611b718484611b3d565b600060208284031215611df057600080fd5b6000611b718484611b48565b600080600060408486031215611e1157600080fd5b6000611e1d8686611b3d565b935050602084013567ffffffffffffffff811115611e3a57600080fd5b611e4686828701611af4565b92509250509250925092565b60008060408385031215611e6557600080fd5b6000611ce08585611b3d565b611e7a81611ff3565b82525050565b611e7a81611ffe565b611e7a81612022565b611e7a8161202d565b6000611ea682611fe6565b611eb08185611fea565b9350611ec0818560208601612038565b611ec981612064565b9093019392505050565b6000611ee0601b83611fea565b7f536166654d6174683a206164646974696f6e206f766572666c6f770000000000815260200192915050565b6000611f19602183611fea565b7f536166654d6174683a206d756c7469706c69636174696f6e206f766572666c6f8152607760f81b602082015260400192915050565b611e7a81612019565b611e7a8161201c565b602081016109228284611e71565b602081016109228284611e80565b602081016109228284611e89565b602081016109228284611e92565b60208082528101610d228184611e9b565b6020808252810161092281611ed3565b6020808252810161092281611f0c565b602081016109228284611f4f565b602081016109228284611f58565b5190565b90815260200190565b60006109228261200d565b151590565b806109848161206e565b6001600160a01b031690565b90565b60ff1690565b600061092282611ff3565b600061092282612003565b60005b8381101561205357818101518382015260200161203b565b83811115610ae95750506000910152565b601f01601f191690565b600381106109e257fe5b61208181611ff3565b81146109e257600080fd5b600381106109e257600080fd5b6120818161201956fea365627a7a72315820afb44e4a590b3373353766b9cbc6a586e9f5faacb964061523900f49e48824c76c6578706572696d656e74616cf564736f6c63430005110040",
  "source": "/*\n    Copyright 2020 Empty Set Squad <emptysetsquad@protonmail.com>\n\n    Licensed under the Apache License, Version 2.0 (the \"License\");\n    you may not use this file except in compliance with the License.\n    You may obtain a copy of the License at\n\n    http://www.apache.org/licenses/LICENSE-2.0\n\n    Unless required by applicable law or agreed to in writing, software\n    distributed under the License is distributed on an \"AS IS\" BASIS,\n    WITHOUT WARRANTIES OR CONDITIONS OF ANY KIND, either express or implied.\n    See the License for the specific language governing permissions and\n    limitations under the License.\n*/\n\npragma solidity ^0.5.17;\npragma experimental ABIEncoderV2;\n\nimport \"../dao/Setters.sol\";\n\ncontract MockState is Setters {\n    uint256 internal _blockTimestamp;\n\n    constructor () public {\n        _blockTimestamp = block.timestamp;\n    }\n\n    /**\n     * Global\n     */\n\n    function incrementTotalBondedE(uint256 amount) external {\n        super.incrementTotalBonded(amount);\n    }\n\n    function decrementTotalBondedE(uint256 amount, string calldata reason) external {\n        super.decrementTotalBonded(amount, reason);\n    }\n\n    function incrementTotalDebtE(uint256 amount) external {\n        super.incrementTotalDebt(amount);\n    }\n\n    function decrementTotalDebtE(uint256 amount, string calldata reason) external {\n        super.decrementTotalDebt(amount, reason);\n    }\n\n    function incrementTotalRedeemableE(uint256 amount) external {\n        super.incrementTotalRedeemable(amount);\n    }\n\n    function decrementTotalRedeemableE(uint256 amount, string calldata reason) external {\n        super.decrementTotalRedeemable(amount, reason);\n    }\n\n    /**\n     * Account\n     */\n\n    function incrementBalanceOfE(address account, uint256 amount) external {\n        super.incrementBalanceOf(account, amount);\n    }\n\n    function decrementBalanceOfE(address account, uint256 amount, string calldata reason) external {\n        super.decrementBalanceOf(account, amount, reason);\n    }\n\n    function incrementBalanceOfStagedE(address account, uint256 amount) external {\n        super.incrementBalanceOfStaged(account, amount);\n    }\n\n    function decrementBalanceOfStagedE(address account, uint256 amount, string calldata reason) external {\n        super.decrementBalanceOfStaged(account, amount, reason);\n    }\n\n    function incrementBalanceOfCouponsE(address account, uint256 epoch, uint256 amount) external {\n        super.incrementBalanceOfCoupons(account, epoch, amount);\n    }\n\n    function decrementBalanceOfCouponsE(address account, uint256 epoch, uint256 amount, string calldata reason) external {\n        super.decrementBalanceOfCoupons(account, epoch, amount, reason);\n    }\n\n    function unfreezeE(address account) external {\n        super.unfreeze(account);\n    }\n\n    function updateAllowanceCouponsE(address owner, address spender, uint256 amount) external {\n        super.updateAllowanceCoupons(owner, spender, amount);\n    }\n\n    function decrementAllowanceCouponsE(address owner, address spender, uint256 amount, string calldata reason) external {\n        super.decrementAllowanceCoupons(owner, spender, amount, reason);\n    }\n\n    /**\n     * Epoch\n     */\n\n    function setEpochParamsE(uint256 start, uint256 period) external {\n        _state.epoch.start = start;\n        _state.epoch.period = period;\n    }\n\n    function incrementEpochE() external {\n        super.incrementEpoch();\n    }\n\n    function snapshotTotalBondedE() external {\n        super.snapshotTotalBonded();\n    }\n\n    function initializeCouponsExpirationE(uint256 epoch, uint256 expiration) external {\n        super.initializeCouponsExpiration(epoch, expiration);\n    }\n\n    function eliminateOutstandingCouponsE(uint256 epoch) external {\n       super.eliminateOutstandingCoupons(epoch);\n    }\n\n    /**\n     * Governance\n     */\n\n    function createCandidateE(address candidate, uint256 period) external {\n        super.createCandidate(candidate, period);\n    }\n\n    function recordVoteE(address account, address candidate, Candidate.Vote vote) external {\n        super.recordVote(account, candidate, vote);\n    }\n\n    function incrementApproveForE(address candidate, uint256 amount) external {\n        super.incrementApproveFor(candidate, amount);\n    }\n\n    function decrementApproveForE(address candidate, uint256 amount, string calldata reason) external {\n        super.decrementApproveFor(candidate, amount, reason);\n    }\n\n    function incrementRejectForE(address candidate, uint256 amount) external {\n        super.incrementRejectFor(candidate, amount);\n    }\n\n    function decrementRejectForE(address candidate, uint256 amount, string calldata reason) external {\n        super.decrementRejectFor(candidate, amount, reason);\n    }\n\n    function placeLockE(address account, address candidate) external {\n        super.placeLock(account, candidate);\n    }\n\n    function initializedE(address candidate) external {\n        super.initialized(candidate);\n    }\n\n    /**\n     * Mock\n     */\n\n    function setBlockTimestamp(uint256 timestamp) external {\n        _blockTimestamp = timestamp;\n    }\n\n    function blockTimestamp() internal view returns (uint256) {\n        return _blockTimestamp;\n    }\n}\n",
  "sourcePath": "/Users/sachin/code/dollar/protocol/contracts/mock/MockState.sol",
  "compiler": {
    "name": "solc",
    "version": "0.5.17+commit.d19bba13.Emscripten.clang"
  },
  "schemaVersion": "3.3.3",
  "updatedAt": "2021-01-01T13:40:49.135Z",
  "devdoc": {
    "methods": {}
  },
  "userdoc": {
    "methods": {
      "balanceOfStaged(address)": {
        "notice": "Account"
      },
      "createCandidateE(address,uint256)": {
        "notice": "Governance"
      },
      "dollar()": {
        "notice": "Global"
      },
      "epoch()": {
        "notice": "Epoch"
      },
      "incrementBalanceOfE(address,uint256)": {
        "notice": "Account"
      },
      "incrementTotalBondedE(uint256)": {
        "notice": "Global"
      },
      "name()": {
        "notice": "ERC20 Interface"
      },
      "recordedVote(address,address)": {
        "notice": "Governance"
      },
      "setBlockTimestamp(uint256)": {
        "notice": "Mock"
      },
      "setEpochParamsE(uint256,uint256)": {
        "notice": "Epoch"
      },
      "transfer(address,uint256)": {
        "notice": "ERC20 Interface"
      }
    }
  }
}