{
  "contractName": "MockCurve",
  "abi": [
    {
      "inputs": [],
      "payable": false,
      "stateMutability": "nonpayable",
      "type": "constructor"
    },
    {
      "constant": true,
      "inputs": [
        {
          "internalType": "uint256",
          "name": "totalSupply",
          "type": "uint256"
        },
        {
          "internalType": "uint256",
          "name": "totalDebt",
          "type": "uint256"
        },
        {
          "internalType": "uint256",
          "name": "amount",
          "type": "uint256"
        }
      ],
      "name": "calculateCouponsE",
      "outputs": [
        {
          "internalType": "uint256",
          "name": "",
          "type": "uint256"
        }
      ],
      "payable": false,
      "stateMutability": "pure",
      "type": "function"
    }
  ],
  "bytecode": "0x608060405234801561001057600080fd5b50610879806100206000396000f3fe608060405234801561001057600080fd5b506004361061002b5760003560e01c806317a2e00014610030575b600080fd5b61004361003e366004610686565b610059565b60405161005091906107c7565b60405180910390f35b6000610066848484610070565b90505b9392505050565b600061006661009083610084878787610095565b9063ffffffff61020e16565b610240565b61009d610668565b6100a5610668565b6100af848661025d565b90506100b9610668565b6100c1610283565b905060006100d5878663ffffffff6102a516565b905060006100e9878763ffffffff6102a516565b90506100f3610668565b6100fd828461025d565b905061010f858563ffffffff6102e716565b156101f757610124818563ffffffff6102e716565b1561013e57610132846102fd565b95505050505050610069565b610146610668565b6101508286610344565b905061015a610668565b61016a868463ffffffff6103a616565b9050610174610668565b61017d876102fd565b9050610187610668565b610197898963ffffffff6103a616565b90506101e76101ac848363ffffffff6103cf16565b6101db6101bf858563ffffffff6103f816565b6101cf888863ffffffff6103f816565b9063ffffffff6103cf16565b9063ffffffff61042616565b9950505050505050505050610069565b6102018186610344565b9998505050505050505050565b610216610668565b604080516020810190915283518190610235908563ffffffff61045416565b905290505b92915050565b805160009061023a90670de0b6b3a764000063ffffffff61049716565b610265610668565b604051806020016040528061023585670de0b6b3a7640000866104d9565b61028b610668565b506040805160208101909152670214e8348c4f0000815290565b600061006983836040518060400160405280601e81526020017f536166654d6174683a207375627472616374696f6e206f766572666c6f7700008152506104fb565b60006102f38383610527565b6002149392505050565b610305610668565b61023a610310610559565b61032461033c600261033087610324610559565b9063ffffffff6103a616565b9063ffffffff61057b16565b6101db610559565b61034c610668565b61035c838363ffffffff6105d116565b156103715761036a836102fd565b905061023a565b61006961037c610559565b61032461033c61038e87610324610559565b61039a87610324610559565b9063ffffffff6103f816565b6103ae610668565b6040805160208101909152825184518291610235919063ffffffff6102a516565b6103d7610668565b6040805160208101909152825184518291610235919063ffffffff6105d816565b610400610668565b604051806020016040528061023585600001518560000151670de0b6b3a76400006104d9565b61042e610668565b60405180602001604052806102358560000151670de0b6b3a764000086600001516104d9565b6000826104635750600061023a565b8282028284828161047057fe5b04146100695760405162461bcd60e51b815260040161048e906107b7565b60405180910390fd5b600061006983836040518060400160405280601a81526020017f536166654d6174683a206469766973696f6e206279207a65726f0000000000008152506105fd565b6000610066826104ef868663ffffffff61045416565b9063ffffffff61049716565b6000818484111561051f5760405162461bcd60e51b815260040161048e9190610796565b505050900390565b80518251600091141561053c5750600161023a565b815183511161054c57600061054f565b60025b60ff169392505050565b610561610668565b506040805160208101909152670de0b6b3a7640000815290565b610583610668565b816105925761036a6001610634565b61059a610668565b5060408051602081019091528351815260015b838110156105c9576105bf82866103f8565b91506001016105ad565b509392505050565b5190511490565b6000828201838110156100695760405162461bcd60e51b815260040161048e906107a7565b6000818361061e5760405162461bcd60e51b815260040161048e9190610796565b50600083858161062a57fe5b0495945050505050565b61063c610668565b60408051602081019091528061066084670de0b6b3a764000063ffffffff61045416565b905292915050565b6040518060200160405280600081525090565b803561023a8161081f565b60008060006060848603121561069b57600080fd5b60006106a7868661067b565b93505060206106b88682870161067b565b92505060406106c98682870161067b565b9150509250925092565b60006106de826107d5565b6106e881856107d9565b93506106f88185602086016107e5565b61070181610815565b9093019392505050565b6000610718601b836107d9565b7f536166654d6174683a206164646974696f6e206f766572666c6f770000000000815260200192915050565b60006107516021836107d9565b7f536166654d6174683a206d756c7469706c69636174696f6e206f766572666c6f8152607760f81b602082015260400192915050565b610790816107e2565b82525050565b6020808252810161006981846106d3565b6020808252810161023a8161070b565b6020808252810161023a81610744565b6020810161023a8284610787565b5190565b90815260200190565b90565b60005b838110156108005781810151838201526020016107e8565b8381111561080f576000848401525b50505050565b601f01601f191690565b610828816107e2565b811461083357600080fd5b5056fea365627a7a723158206516ea2d11ce3a1ac4a8314d64028525af97ae7a95af1be5d6e2aec786d4fd506c6578706572696d656e74616cf564736f6c63430005110040",
  "source": "/*\n    Copyright 2020 Empty Set Squad <emptysetsquad@protonmail.com>\n\n    Licensed under the Apache License, Version 2.0 (the \"License\");\n    you may not use this file except in compliance with the License.\n    You may obtain a copy of the License at\n\n    http://www.apache.org/licenses/LICENSE-2.0\n\n    Unless required by applicable law or agreed to in writing, software\n    distributed under the License is distributed on an \"AS IS\" BASIS,\n    WITHOUT WARRANTIES OR CONDITIONS OF ANY KIND, either express or implied.\n    See the License for the specific language governing permissions and\n    limitations under the License.\n*/\n\npragma solidity ^0.5.17;\npragma experimental ABIEncoderV2;\n\nimport \"../dao/Curve.sol\";\n\ncontract MockCurve is Curve {\n    constructor () public { }\n\n    function calculateCouponsE(\n        uint256 totalSupply,\n        uint256 totalDebt,\n        uint256 amount\n    ) external pure returns (uint256) {\n        return super.calculateCouponPremium(totalSupply, totalDebt, amount);\n    }\n}\n",
  "sourcePath": "/Users/sachin/code/dollar/protocol/contracts/mock/MockCurve.sol",
  "compiler": {
    "name": "solc",
    "version": "0.5.17+commit.d19bba13.Emscripten.clang"
  },
  "schemaVersion": "3.3.3",
  "updatedAt": "2021-01-01T13:40:49.119Z",
  "devdoc": {
    "methods": {}
  },
  "userdoc": {
    "methods": {}
  }
}