{
  "contractName": "MockUSDC",
  "abi": [
    {
      "constant": true,
      "inputs": [
        {
          "internalType": "address",
          "name": "_account",
          "type": "address"
        }
      ],
      "name": "isBlacklisted",
      "outputs": [
        {
          "internalType": "bool",
          "name": "",
          "type": "bool"
        }
      ],
      "payable": false,
      "stateMutability": "view",
      "type": "function"
    },
    {
      "constant": false,
      "inputs": [
        {
          "internalType": "bool",
          "name": "blacklisted",
          "type": "bool"
        }
      ],
      "name": "setIsBlacklisted",
      "outputs": [],
      "payable": false,
      "stateMutability": "nonpayable",
      "type": "function"
    }
  ],
  "bytecode": "0x608060405234801561001057600080fd5b50610192806100206000396000f3fe608060405234801561001057600080fd5b50600436106100365760003560e01c80638387d0bf1461003b578063fe575a8714610050575b600080fd5b61004e6100493660046100d8565b610079565b005b61006361005e3660046100b2565b61008c565b6040516100709190610105565b60405180910390f35b6000805460ff1916911515919091179055565b5060005460ff1690565b80356100a18161012f565b92915050565b80356100a181610146565b6000602082840312156100c457600080fd5b60006100d08484610096565b949350505050565b6000602082840312156100ea57600080fd5b60006100d084846100a7565b6100ff8161011e565b82525050565b602081016100a182846100f6565b60006100a182610123565b151590565b6001600160a01b031690565b61013881610113565b811461014357600080fd5b50565b6101388161011e56fea365627a7a72315820e7c1b8ca48142a6fc14ed65969c60ccb20b82d8915ff9c4c7494e875cc4fe9746c6578706572696d656e74616cf564736f6c63430005110040",
  "source": "/*\n    Copyright 2020 Empty Set Squad <emptysetsquad@protonmail.com>\n\n    Licensed under the Apache License, Version 2.0 (the \"License\");\n    you may not use this file except in compliance with the License.\n    You may obtain a copy of the License at\n\n    http://www.apache.org/licenses/LICENSE-2.0\n\n    Unless required by applicable law or agreed to in writing, software\n    distributed under the License is distributed on an \"AS IS\" BASIS,\n    WITHOUT WARRANTIES OR CONDITIONS OF ANY KIND, either express or implied.\n    See the License for the specific language governing permissions and\n    limitations under the License.\n*/\n\npragma solidity ^0.5.17;\npragma experimental ABIEncoderV2;\n\nimport \"../oracle/IUSDC.sol\";\n\ncontract MockUSDC is IUSDC {\n    bool private _blacklisted;\n\n    function isBlacklisted(address _account) external view returns (bool) {\n        return _blacklisted;\n    }\n\n    function setIsBlacklisted(bool blacklisted) external {\n        _blacklisted = blacklisted;\n    }\n}\n",
  "sourcePath": "/Users/sachin/code/dollar/protocol/contracts/mock/MockUSDC.sol",
  "compiler": {
    "name": "solc",
    "version": "0.5.17+commit.d19bba13.Emscripten.clang"
  },
  "schemaVersion": "3.3.3",
  "updatedAt": "2021-01-01T13:40:49.140Z",
  "devdoc": {
    "methods": {}
  },
  "userdoc": {
    "methods": {}
  }
}