{
  "contractName": "MockBonding",
  "abi": [
    {
      "inputs": [],
      "payable": false,
      "stateMutability": "nonpayable",
      "type": "constructor"
    },
    {
      "anonymous": false,
      "inputs": [
        {
          "indexed": true,
          "internalType": "address",
          "name": "account",
          "type": "address"
        },
        {
          "indexed": false,
          "internalType": "uint256",
          "name": "start",
          "type": "uint256"
        },
        {
          "indexed": false,
          "internalType": "uint256",
          "name": "value",
          "type": "uint256"
        },
        {
          "indexed": false,
          "internalType": "uint256",
          "name": "valueUnderlying",
          "type": "uint256"
        }
      ],
      "name": "Bond",
      "type": "event"
    },
    {
      "anonymous": false,
      "inputs": [
        {
          "indexed": true,
          "internalType": "address",
          "name": "account",
          "type": "address"
        },
        {
          "indexed": false,
          "internalType": "uint256",
          "name": "value",
          "type": "uint256"
        }
      ],
      "name": "Deposit",
      "type": "event"
    },
    {
      "anonymous": false,
      "inputs": [
        {
          "indexed": true,
          "internalType": "address",
          "name": "from",
          "type": "address"
        },
        {
          "indexed": true,
          "internalType": "address",
          "name": "to",
          "type": "address"
        },
        {
          "indexed": false,
          "internalType": "uint256",
          "name": "value",
          "type": "uint256"
        }
      ],
      "name": "Transfer",
      "type": "event"
    },
    {
      "anonymous": false,
      "inputs": [
        {
          "indexed": true,
          "internalType": "address",
          "name": "account",
          "type": "address"
        },
        {
          "indexed": false,
          "internalType": "uint256",
          "name": "start",
          "type": "uint256"
        },
        {
          "indexed": false,
          "internalType": "uint256",
          "name": "value",
          "type": "uint256"
        },
        {
          "indexed": false,
          "internalType": "uint256",
          "name": "valueUnderlying",
          "type": "uint256"
        }
      ],
      "name": "Unbond",
      "type": "event"
    },
    {
      "anonymous": false,
      "inputs": [
        {
          "indexed": true,
          "internalType": "address",
          "name": "account",
          "type": "address"
        },
        {
          "indexed": false,
          "internalType": "uint256",
          "name": "value",
          "type": "uint256"
        }
      ],
      "name": "Withdraw",
      "type": "event"
    },
    {
      "constant": true,
      "inputs": [
        {
          "internalType": "address",
          "name": "owner",
          "type": "address"
        },
        {
          "internalType": "address",
          "name": "spender",
          "type": "address"
        }
      ],
      "name": "allowance",
      "outputs": [
        {
          "internalType": "uint256",
          "name": "",
          "type": "uint256"
        }
      ],
      "payable": false,
      "stateMutability": "view",
      "type": "function"
    },
    {
      "constant": true,
      "inputs": [
        {
          "internalType": "address",
          "name": "owner",
          "type": "address"
        },
        {
          "internalType": "address",
          "name": "spender",
          "type": "address"
        }
      ],
      "name": "allowanceCoupons",
      "outputs": [
        {
          "internalType": "uint256",
          "name": "",
          "type": "uint256"
        }
      ],
      "payable": false,
      "stateMutability": "view",
      "type": "function"
    },
    {
      "constant": false,
      "inputs": [
        {
          "internalType": "address",
          "name": "spender",
          "type": "address"
        },
        {
          "internalType": "uint256",
          "name": "amount",
          "type": "uint256"
        }
      ],
      "name": "approve",
      "outputs": [
        {
          "internalType": "bool",
          "name": "",
          "type": "bool"
        }
      ],
      "payable": false,
      "stateMutability": "nonpayable",
      "type": "function"
    },
    {
      "constant": true,
      "inputs": [
        {
          "internalType": "address",
          "name": "candidate",
          "type": "address"
        }
      ],
      "name": "approveFor",
      "outputs": [
        {
          "internalType": "uint256",
          "name": "",
          "type": "uint256"
        }
      ],
      "payable": false,
      "stateMutability": "view",
      "type": "function"
    },
    {
      "constant": true,
      "inputs": [
        {
          "internalType": "address",
          "name": "account",
          "type": "address"
        }
      ],
      "name": "balanceOf",
      "outputs": [
        {
          "internalType": "uint256",
          "name": "",
          "type": "uint256"
        }
      ],
      "payable": false,
      "stateMutability": "view",
      "type": "function"
    },
    {
      "constant": true,
      "inputs": [
        {
          "internalType": "address",
          "name": "account",
          "type": "address"
        }
      ],
      "name": "balanceOfBonded",
      "outputs": [
        {
          "internalType": "uint256",
          "name": "",
          "type": "uint256"
        }
      ],
      "payable": false,
      "stateMutability": "view",
      "type": "function"
    },
    {
      "constant": true,
      "inputs": [
        {
          "internalType": "address",
          "name": "account",
          "type": "address"
        },
        {
          "internalType": "uint256",
          "name": "epoch",
          "type": "uint256"
        }
      ],
      "name": "balanceOfCoupons",
      "outputs": [
        {
          "internalType": "uint256",
          "name": "",
          "type": "uint256"
        }
      ],
      "payable": false,
      "stateMutability": "view",
      "type": "function"
    },
    {
      "constant": true,
      "inputs": [
        {
          "internalType": "address",
          "name": "account",
          "type": "address"
        }
      ],
      "name": "balanceOfStaged",
      "outputs": [
        {
          "internalType": "uint256",
          "name": "",
          "type": "uint256"
        }
      ],
      "payable": false,
      "stateMutability": "view",
      "type": "function"
    },
    {
      "constant": false,
      "inputs": [
        {
          "internalType": "uint256",
          "name": "value",
          "type": "uint256"
        }
      ],
      "name": "bond",
      "outputs": [],
      "payable": false,
      "stateMutability": "nonpayable",
      "type": "function"
    },
    {
      "constant": true,
      "inputs": [
        {
          "internalType": "uint256",
          "name": "epoch",
          "type": "uint256"
        }
      ],
      "name": "bootstrappingAt",
      "outputs": [
        {
          "internalType": "bool",
          "name": "",
          "type": "bool"
        }
      ],
      "payable": false,
      "stateMutability": "view",
      "type": "function"
    },
    {
      "constant": false,
      "inputs": [
        {
          "internalType": "address",
          "name": "account",
          "type": "address"
        },
        {
          "internalType": "uint256",
          "name": "amount",
          "type": "uint256"
        }
      ],
      "name": "burnFromAccountE",
      "outputs": [],
      "payable": false,
      "stateMutability": "nonpayable",
      "type": "function"
    },
    {
      "constant": false,
      "inputs": [
        {
          "internalType": "uint256",
          "name": "amount",
          "type": "uint256"
        }
      ],
      "name": "burnRedeemableE",
      "outputs": [],
      "payable": false,
      "stateMutability": "nonpayable",
      "type": "function"
    },
    {
      "constant": true,
      "inputs": [
        {
          "internalType": "uint256",
          "name": "epoch",
          "type": "uint256"
        }
      ],
      "name": "couponsExpiration",
      "outputs": [
        {
          "internalType": "uint256",
          "name": "",
          "type": "uint256"
        }
      ],
      "payable": false,
      "stateMutability": "view",
      "type": "function"
    },
    {
      "constant": false,
      "inputs": [
        {
          "internalType": "address",
          "name": "candidate",
          "type": "address"
        },
        {
          "internalType": "uint256",
          "name": "period",
          "type": "uint256"
        }
      ],
      "name": "createCandidateE",
      "outputs": [],
      "payable": false,
      "stateMutability": "nonpayable",
      "type": "function"
    },
    {
      "constant": true,
      "inputs": [],
      "name": "decimals",
      "outputs": [
        {
          "internalType": "uint8",
          "name": "",
          "type": "uint8"
        }
      ],
      "payable": false,
      "stateMutability": "view",
      "type": "function"
    },
    {
      "constant": false,
      "inputs": [
        {
          "internalType": "uint256",
          "name": "amount",
          "type": "uint256"
        }
      ],
      "name": "decreaseDebtE",
      "outputs": [],
      "payable": false,
      "stateMutability": "nonpayable",
      "type": "function"
    },
    {
      "constant": false,
      "inputs": [
        {
          "internalType": "address",
          "name": "owner",
          "type": "address"
        },
        {
          "internalType": "address",
          "name": "spender",
          "type": "address"
        },
        {
          "internalType": "uint256",
          "name": "amount",
          "type": "uint256"
        },
        {
          "internalType": "string",
          "name": "reason",
          "type": "string"
        }
      ],
      "name": "decrementAllowanceCouponsE",
      "outputs": [],
      "payable": false,
      "stateMutability": "nonpayable",
      "type": "function"
    },
    {
      "constant": false,
      "inputs": [
        {
          "internalType": "address",
          "name": "candidate",
          "type": "address"
        },
        {
          "internalType": "uint256",
          "name": "amount",
          "type": "uint256"
        },
        {
          "internalType": "string",
          "name": "reason",
          "type": "string"
        }
      ],
      "name": "decrementApproveForE",
      "outputs": [],
      "payable": false,
      "stateMutability": "nonpayable",
      "type": "function"
    },
    {
      "constant": false,
      "inputs": [
        {
          "internalType": "address",
          "name": "account",
          "type": "address"
        },
        {
          "internalType": "uint256",
          "name": "epoch",
          "type": "uint256"
        },
        {
          "internalType": "uint256",
          "name": "amount",
          "type": "uint256"
        },
        {
          "internalType": "string",
          "name": "reason",
          "type": "string"
        }
      ],
      "name": "decrementBalanceOfCouponsE",
      "outputs": [],
      "payable": false,
      "stateMutability": "nonpayable",
      "type": "function"
    },
    {
      "constant": false,
      "inputs": [
        {
          "internalType": "address",
          "name": "account",
          "type": "address"
        },
        {
          "internalType": "uint256",
          "name": "amount",
          "type": "uint256"
        },
        {
          "internalType": "string",
          "name": "reason",
          "type": "string"
        }
      ],
      "name": "decrementBalanceOfE",
      "outputs": [],
      "payable": false,
      "stateMutability": "nonpayable",
      "type": "function"
    },
    {
      "constant": false,
      "inputs": [
        {
          "internalType": "address",
          "name": "account",
          "type": "address"
        },
        {
          "internalType": "uint256",
          "name": "amount",
          "type": "uint256"
        },
        {
          "internalType": "string",
          "name": "reason",
          "type": "string"
        }
      ],
      "name": "decrementBalanceOfStagedE",
      "outputs": [],
      "payable": false,
      "stateMutability": "nonpayable",
      "type": "function"
    },
    {
      "constant": false,
      "inputs": [
        {
          "internalType": "address",
          "name": "candidate",
          "type": "address"
        },
        {
          "internalType": "uint256",
          "name": "amount",
          "type": "uint256"
        },
        {
          "internalType": "string",
          "name": "reason",
          "type": "string"
        }
      ],
      "name": "decrementRejectForE",
      "outputs": [],
      "payable": false,
      "stateMutability": "nonpayable",
      "type": "function"
    },
    {
      "constant": false,
      "inputs": [
        {
          "internalType": "uint256",
          "name": "amount",
          "type": "uint256"
        },
        {
          "internalType": "string",
          "name": "reason",
          "type": "string"
        }
      ],
      "name": "decrementTotalBondedE",
      "outputs": [],
      "payable": false,
      "stateMutability": "nonpayable",
      "type": "function"
    },
    {
      "constant": false,
      "inputs": [
        {
          "internalType": "uint256",
          "name": "amount",
          "type": "uint256"
        },
        {
          "internalType": "string",
          "name": "reason",
          "type": "string"
        }
      ],
      "name": "decrementTotalDebtE",
      "outputs": [],
      "payable": false,
      "stateMutability": "nonpayable",
      "type": "function"
    },
    {
      "constant": false,
      "inputs": [
        {
          "internalType": "uint256",
          "name": "amount",
          "type": "uint256"
        },
        {
          "internalType": "string",
          "name": "reason",
          "type": "string"
        }
      ],
      "name": "decrementTotalRedeemableE",
      "outputs": [],
      "payable": false,
      "stateMutability": "nonpayable",
      "type": "function"
    },
    {
      "constant": false,
      "inputs": [
        {
          "internalType": "uint256",
          "name": "value",
          "type": "uint256"
        }
      ],
      "name": "deposit",
      "outputs": [],
      "payable": false,
      "stateMutability": "nonpayable",
      "type": "function"
    },
    {
      "constant": true,
      "inputs": [],
      "name": "dollar",
      "outputs": [
        {
          "internalType": "contract IDollar",
          "name": "",
          "type": "address"
        }
      ],
      "payable": false,
      "stateMutability": "view",
      "type": "function"
    },
    {
      "constant": false,
      "inputs": [
        {
          "internalType": "uint256",
          "name": "epoch",
          "type": "uint256"
        }
      ],
      "name": "eliminateOutstandingCouponsE",
      "outputs": [],
      "payable": false,
      "stateMutability": "nonpayable",
      "type": "function"
    },
    {
      "constant": true,
      "inputs": [],
      "name": "epoch",
      "outputs": [
        {
          "internalType": "uint256",
          "name": "",
          "type": "uint256"
        }
      ],
      "payable": false,
      "stateMutability": "view",
      "type": "function"
    },
    {
      "constant": true,
      "inputs": [],
      "name": "epochTime",
      "outputs": [
        {
          "internalType": "uint256",
          "name": "",
          "type": "uint256"
        }
      ],
      "payable": false,
      "stateMutability": "view",
      "type": "function"
    },
    {
      "constant": true,
      "inputs": [
        {
          "internalType": "uint256",
          "name": "epoch",
          "type": "uint256"
        }
      ],
      "name": "expiringCoupons",
      "outputs": [
        {
          "internalType": "uint256",
          "name": "",
          "type": "uint256"
        }
      ],
      "payable": false,
      "stateMutability": "view",
      "type": "function"
    },
    {
      "constant": true,
      "inputs": [
        {
          "internalType": "uint256",
          "name": "epoch",
          "type": "uint256"
        },
        {
          "internalType": "uint256",
          "name": "i",
          "type": "uint256"
        }
      ],
      "name": "expiringCouponsAtIndex",
      "outputs": [
        {
          "internalType": "uint256",
          "name": "",
          "type": "uint256"
        }
      ],
      "payable": false,
      "stateMutability": "view",
      "type": "function"
    },
    {
      "constant": true,
      "inputs": [
        {
          "internalType": "address",
          "name": "account",
          "type": "address"
        }
      ],
      "name": "fluidUntil",
      "outputs": [
        {
          "internalType": "uint256",
          "name": "",
          "type": "uint256"
        }
      ],
      "payable": false,
      "stateMutability": "view",
      "type": "function"
    },
    {
      "constant": true,
      "inputs": [],
      "name": "implementation",
      "outputs": [
        {
          "internalType": "address",
          "name": "impl",
          "type": "address"
        }
      ],
      "payable": false,
      "stateMutability": "view",
      "type": "function"
    },
    {
      "constant": false,
      "inputs": [
        {
          "internalType": "uint256",
          "name": "amount",
          "type": "uint256"
        }
      ],
      "name": "increaseDebtE",
      "outputs": [],
      "payable": false,
      "stateMutability": "nonpayable",
      "type": "function"
    },
    {
      "constant": false,
      "inputs": [
        {
          "internalType": "address",
          "name": "candidate",
          "type": "address"
        },
        {
          "internalType": "uint256",
          "name": "amount",
          "type": "uint256"
        }
      ],
      "name": "incrementApproveForE",
      "outputs": [],
      "payable": false,
      "stateMutability": "nonpayable",
      "type": "function"
    },
    {
      "constant": false,
      "inputs": [
        {
          "internalType": "address",
          "name": "account",
          "type": "address"
        },
        {
          "internalType": "uint256",
          "name": "epoch",
          "type": "uint256"
        },
        {
          "internalType": "uint256",
          "name": "amount",
          "type": "uint256"
        }
      ],
      "name": "incrementBalanceOfCouponsE",
      "outputs": [],
      "payable": false,
      "stateMutability": "nonpayable",
      "type": "function"
    },
    {
      "constant": false,
      "inputs": [
        {
          "internalType": "address",
          "name": "account",
          "type": "address"
        },
        {
          "internalType": "uint256",
          "name": "amount",
          "type": "uint256"
        }
      ],
      "name": "incrementBalanceOfE",
      "outputs": [],
      "payable": false,
      "stateMutability": "nonpayable",
      "type": "function"
    },
    {
      "constant": false,
      "inputs": [
        {
          "internalType": "address",
          "name": "account",
          "type": "address"
        },
        {
          "internalType": "uint256",
          "name": "amount",
          "type": "uint256"
        }
      ],
      "name": "incrementBalanceOfStagedE",
      "outputs": [],
      "payable": false,
      "stateMutability": "nonpayable",
      "type": "function"
    },
    {
      "constant": false,
      "inputs": [],
      "name": "incrementEpochE",
      "outputs": [],
      "payable": false,
      "stateMutability": "nonpayable",
      "type": "function"
    },
    {
      "constant": false,
      "inputs": [
        {
          "internalType": "address",
          "name": "candidate",
          "type": "address"
        },
        {
          "internalType": "uint256",
          "name": "amount",
          "type": "uint256"
        }
      ],
      "name": "incrementRejectForE",
      "outputs": [],
      "payable": false,
      "stateMutability": "nonpayable",
      "type": "function"
    },
    {
      "constant": false,
      "inputs": [
        {
          "internalType": "uint256",
          "name": "amount",
          "type": "uint256"
        }
      ],
      "name": "incrementTotalBondedE",
      "outputs": [],
      "payable": false,
      "stateMutability": "nonpayable",
      "type": "function"
    },
    {
      "constant": false,
      "inputs": [
        {
          "internalType": "uint256",
          "name": "amount",
          "type": "uint256"
        }
      ],
      "name": "incrementTotalDebtE",
      "outputs": [],
      "payable": false,
      "stateMutability": "nonpayable",
      "type": "function"
    },
    {
      "constant": false,
      "inputs": [
        {
          "internalType": "uint256",
          "name": "amount",
          "type": "uint256"
        }
      ],
      "name": "incrementTotalRedeemableE",
      "outputs": [],
      "payable": false,
      "stateMutability": "nonpayable",
      "type": "function"
    },
    {
      "constant": false,
      "inputs": [
        {
          "internalType": "uint256",
          "name": "epoch",
          "type": "uint256"
        },
        {
          "internalType": "uint256",
          "name": "expiration",
          "type": "uint256"
        }
      ],
      "name": "initializeCouponsExpirationE",
      "outputs": [],
      "payable": false,
      "stateMutability": "nonpayable",
      "type": "function"
    },
    {
      "constant": false,
      "inputs": [
        {
          "internalType": "address",
          "name": "candidate",
          "type": "address"
        }
      ],
      "name": "initializedE",
      "outputs": [],
      "payable": false,
      "stateMutability": "nonpayable",
      "type": "function"
    },
    {
      "constant": true,
      "inputs": [
        {
          "internalType": "address",
          "name": "candidate",
          "type": "address"
        }
      ],
      "name": "isInitialized",
      "outputs": [
        {
          "internalType": "bool",
          "name": "",
          "type": "bool"
        }
      ],
      "payable": false,
      "stateMutability": "view",
      "type": "function"
    },
    {
      "constant": true,
      "inputs": [
        {
          "internalType": "address",
          "name": "candidate",
          "type": "address"
        }
      ],
      "name": "isNominated",
      "outputs": [
        {
          "internalType": "bool",
          "name": "",
          "type": "bool"
        }
      ],
      "payable": false,
      "stateMutability": "view",
      "type": "function"
    },
    {
      "constant": true,
      "inputs": [
        {
          "internalType": "address",
          "name": "account",
          "type": "address"
        }
      ],
      "name": "lockedUntil",
      "outputs": [
        {
          "internalType": "uint256",
          "name": "",
          "type": "uint256"
        }
      ],
      "payable": false,
      "stateMutability": "view",
      "type": "function"
    },
    {
      "constant": false,
      "inputs": [
        {
          "internalType": "address",
          "name": "account",
          "type": "address"
        },
        {
          "internalType": "uint256",
          "name": "amount",
          "type": "uint256"
        }
      ],
      "name": "mintToAccountE",
      "outputs": [],
      "payable": false,
      "stateMutability": "nonpayable",
      "type": "function"
    },
    {
      "constant": false,
      "inputs": [
        {
          "internalType": "address",
          "name": "account",
          "type": "address"
        },
        {
          "internalType": "uint256",
          "name": "amount",
          "type": "uint256"
        }
      ],
      "name": "mintToE",
      "outputs": [],
      "payable": false,
      "stateMutability": "nonpayable",
      "type": "function"
    },
    {
      "constant": true,
      "inputs": [],
      "name": "name",
      "outputs": [
        {
          "internalType": "string",
          "name": "",
          "type": "string"
        }
      ],
      "payable": false,
      "stateMutability": "view",
      "type": "function"
    },
    {
      "constant": true,
      "inputs": [],
      "name": "oracle",
      "outputs": [
        {
          "internalType": "contract IOracle",
          "name": "",
          "type": "address"
        }
      ],
      "payable": false,
      "stateMutability": "view",
      "type": "function"
    },
    {
      "constant": true,
      "inputs": [
        {
          "internalType": "uint256",
          "name": "epoch",
          "type": "uint256"
        }
      ],
      "name": "outstandingCoupons",
      "outputs": [
        {
          "internalType": "uint256",
          "name": "",
          "type": "uint256"
        }
      ],
      "payable": false,
      "stateMutability": "view",
      "type": "function"
    },
    {
      "constant": true,
      "inputs": [
        {
          "internalType": "address",
          "name": "candidate",
          "type": "address"
        }
      ],
      "name": "periodFor",
      "outputs": [
        {
          "internalType": "uint256",
          "name": "",
          "type": "uint256"
        }
      ],
      "payable": false,
      "stateMutability": "view",
      "type": "function"
    },
    {
      "constant": false,
      "inputs": [
        {
          "internalType": "address",
          "name": "account",
          "type": "address"
        },
        {
          "internalType": "address",
          "name": "candidate",
          "type": "address"
        }
      ],
      "name": "placeLockE",
      "outputs": [],
      "payable": false,
      "stateMutability": "nonpayable",
      "type": "function"
    },
    {
      "constant": true,
      "inputs": [],
      "name": "pool",
      "outputs": [
        {
          "internalType": "address",
          "name": "",
          "type": "address"
        }
      ],
      "payable": false,
      "stateMutability": "view",
      "type": "function"
    },
    {
      "constant": false,
      "inputs": [
        {
          "internalType": "address",
          "name": "account",
          "type": "address"
        },
        {
          "internalType": "address",
          "name": "candidate",
          "type": "address"
        },
        {
          "internalType": "enum Candidate.Vote",
          "name": "vote",
          "type": "uint8"
        }
      ],
      "name": "recordVoteE",
      "outputs": [],
      "payable": false,
      "stateMutability": "nonpayable",
      "type": "function"
    },
    {
      "constant": true,
      "inputs": [
        {
          "internalType": "address",
          "name": "account",
          "type": "address"
        },
        {
          "internalType": "address",
          "name": "candidate",
          "type": "address"
        }
      ],
      "name": "recordedVote",
      "outputs": [
        {
          "internalType": "enum Candidate.Vote",
          "name": "",
          "type": "uint8"
        }
      ],
      "payable": false,
      "stateMutability": "view",
      "type": "function"
    },
    {
      "constant": false,
      "inputs": [
        {
          "internalType": "address",
          "name": "account",
          "type": "address"
        },
        {
          "internalType": "uint256",
          "name": "amount",
          "type": "uint256"
        }
      ],
      "name": "redeemToAccountE",
      "outputs": [],
      "payable": false,
      "stateMutability": "nonpayable",
      "type": "function"
    },
    {
      "constant": true,
      "inputs": [
        {
          "internalType": "address",
          "name": "candidate",
          "type": "address"
        }
      ],
      "name": "rejectFor",
      "outputs": [
        {
          "internalType": "uint256",
          "name": "",
          "type": "uint256"
        }
      ],
      "payable": false,
      "stateMutability": "view",
      "type": "function"
    },
    {
      "constant": false,
      "inputs": [
        {
          "internalType": "uint256",
          "name": "percent",
          "type": "uint256"
        }
      ],
      "name": "resetDebtE",
      "outputs": [],
      "payable": false,
      "stateMutability": "nonpayable",
      "type": "function"
    },
    {
      "constant": false,
      "inputs": [
        {
          "internalType": "uint256",
          "name": "timestamp",
          "type": "uint256"
        }
      ],
      "name": "setBlockTimestamp",
      "outputs": [],
      "payable": false,
      "stateMutability": "nonpayable",
      "type": "function"
    },
    {
      "constant": false,
      "inputs": [
        {
          "internalType": "uint256",
          "name": "start",
          "type": "uint256"
        },
        {
          "internalType": "uint256",
          "name": "period",
          "type": "uint256"
        }
      ],
      "name": "setEpochParamsE",
      "outputs": [],
      "payable": false,
      "stateMutability": "nonpayable",
      "type": "function"
    },
    {
      "constant": false,
      "inputs": [],
      "name": "snapshotTotalBondedE",
      "outputs": [],
      "payable": false,
      "stateMutability": "nonpayable",
      "type": "function"
    },
    {
      "constant": true,
      "inputs": [
        {
          "internalType": "address",
          "name": "candidate",
          "type": "address"
        }
      ],
      "name": "startFor",
      "outputs": [
        {
          "internalType": "uint256",
          "name": "",
          "type": "uint256"
        }
      ],
      "payable": false,
      "stateMutability": "view",
      "type": "function"
    },
    {
      "constant": true,
      "inputs": [
        {
          "internalType": "address",
          "name": "account",
          "type": "address"
        }
      ],
      "name": "statusOf",
      "outputs": [
        {
          "internalType": "enum Account.Status",
          "name": "",
          "type": "uint8"
        }
      ],
      "payable": false,
      "stateMutability": "view",
      "type": "function"
    },
    {
      "constant": true,
      "inputs": [],
      "name": "symbol",
      "outputs": [
        {
          "internalType": "string",
          "name": "",
          "type": "string"
        }
      ],
      "payable": false,
      "stateMutability": "view",
      "type": "function"
    },
    {
      "constant": true,
      "inputs": [],
      "name": "totalBonded",
      "outputs": [
        {
          "internalType": "uint256",
          "name": "",
          "type": "uint256"
        }
      ],
      "payable": false,
      "stateMutability": "view",
      "type": "function"
    },
    {
      "constant": true,
      "inputs": [
        {
          "internalType": "uint256",
          "name": "epoch",
          "type": "uint256"
        }
      ],
      "name": "totalBondedAt",
      "outputs": [
        {
          "internalType": "uint256",
          "name": "",
          "type": "uint256"
        }
      ],
      "payable": false,
      "stateMutability": "view",
      "type": "function"
    },
    {
      "constant": true,
      "inputs": [],
      "name": "totalCoupons",
      "outputs": [
        {
          "internalType": "uint256",
          "name": "",
          "type": "uint256"
        }
      ],
      "payable": false,
      "stateMutability": "view",
      "type": "function"
    },
    {
      "constant": true,
      "inputs": [],
      "name": "totalDebt",
      "outputs": [
        {
          "internalType": "uint256",
          "name": "",
          "type": "uint256"
        }
      ],
      "payable": false,
      "stateMutability": "view",
      "type": "function"
    },
    {
      "constant": true,
      "inputs": [],
      "name": "totalNet",
      "outputs": [
        {
          "internalType": "uint256",
          "name": "",
          "type": "uint256"
        }
      ],
      "payable": false,
      "stateMutability": "view",
      "type": "function"
    },
    {
      "constant": true,
      "inputs": [],
      "name": "totalRedeemable",
      "outputs": [
        {
          "internalType": "uint256",
          "name": "",
          "type": "uint256"
        }
      ],
      "payable": false,
      "stateMutability": "view",
      "type": "function"
    },
    {
      "constant": true,
      "inputs": [],
      "name": "totalStaged",
      "outputs": [
        {
          "internalType": "uint256",
          "name": "",
          "type": "uint256"
        }
      ],
      "payable": false,
      "stateMutability": "view",
      "type": "function"
    },
    {
      "constant": true,
      "inputs": [],
      "name": "totalSupply",
      "outputs": [
        {
          "internalType": "uint256",
          "name": "",
          "type": "uint256"
        }
      ],
      "payable": false,
      "stateMutability": "view",
      "type": "function"
    },
    {
      "constant": false,
      "inputs": [
        {
          "internalType": "address",
          "name": "recipient",
          "type": "address"
        },
        {
          "internalType": "uint256",
          "name": "amount",
          "type": "uint256"
        }
      ],
      "name": "transfer",
      "outputs": [
        {
          "internalType": "bool",
          "name": "",
          "type": "bool"
        }
      ],
      "payable": false,
      "stateMutability": "nonpayable",
      "type": "function"
    },
    {
      "constant": false,
      "inputs": [
        {
          "internalType": "address",
          "name": "sender",
          "type": "address"
        },
        {
          "internalType": "address",
          "name": "recipient",
          "type": "address"
        },
        {
          "internalType": "uint256",
          "name": "amount",
          "type": "uint256"
        }
      ],
      "name": "transferFrom",
      "outputs": [
        {
          "internalType": "bool",
          "name": "",
          "type": "bool"
        }
      ],
      "payable": false,
      "stateMutability": "nonpayable",
      "type": "function"
    },
    {
      "constant": false,
      "inputs": [
        {
          "internalType": "uint256",
          "name": "value",
          "type": "uint256"
        }
      ],
      "name": "unbond",
      "outputs": [],
      "payable": false,
      "stateMutability": "nonpayable",
      "type": "function"
    },
    {
      "constant": false,
      "inputs": [
        {
          "internalType": "uint256",
          "name": "value",
          "type": "uint256"
        }
      ],
      "name": "unbondUnderlying",
      "outputs": [],
      "payable": false,
      "stateMutability": "nonpayable",
      "type": "function"
    },
    {
      "constant": false,
      "inputs": [
        {
          "internalType": "address",
          "name": "account",
          "type": "address"
        }
      ],
      "name": "unfreezeE",
      "outputs": [],
      "payable": false,
      "stateMutability": "nonpayable",
      "type": "function"
    },
    {
      "constant": false,
      "inputs": [
        {
          "internalType": "address",
          "name": "owner",
          "type": "address"
        },
        {
          "internalType": "address",
          "name": "spender",
          "type": "address"
        },
        {
          "internalType": "uint256",
          "name": "amount",
          "type": "uint256"
        }
      ],
      "name": "updateAllowanceCouponsE",
      "outputs": [],
      "payable": false,
      "stateMutability": "nonpayable",
      "type": "function"
    },
    {
      "constant": true,
      "inputs": [
        {
          "internalType": "address",
          "name": "candidate",
          "type": "address"
        }
      ],
      "name": "votesFor",
      "outputs": [
        {
          "internalType": "uint256",
          "name": "",
          "type": "uint256"
        }
      ],
      "payable": false,
      "stateMutability": "view",
      "type": "function"
    },
    {
      "constant": false,
      "inputs": [
        {
          "internalType": "uint256",
          "name": "value",
          "type": "uint256"
        }
      ],
      "name": "withdraw",
      "outputs": [],
      "payable": false,
      "stateMutability": "nonpayable",
      "type": "function"
    },
    {
      "constant": false,
      "inputs": [],
      "name": "stepE",
      "outputs": [],
      "payable": false,
      "stateMutability": "nonpayable",
      "type": "function"
    }
  ],
  "bytecode": "0x60806040523480156200001157600080fd5b5042600f5560405160009062000027906200007a565b604051809103906000f08015801562000044573d6000803e3d6000fd5b50600980546001600160a01b039283166001600160a01b031991821617909155600b805493909216921691909117905562000088565b611c0480620031b083390190565b61311880620000986000396000f3fe608060405234801561001057600080fd5b50600436106104b75760003560e01c8063825ad60711610278578063b11ee0e31161015c578063d60b347f116100ce578063e0abdf6611610092578063e0abdf6614610a2c578063f1b7cf4914610a3f578063f35adf7e14610a52578063f7a3181814610a5a578063fc7b9c1814610a6d578063ffbe3b7314610a75576104b7565b8063d60b347f146109d2578063d6d8816d146109e5578063d83d3ed5146109f8578063dd62ed3e14610a0b578063df9a2b1c14610a19576104b7565b8063c1410c0211610120578063c1410c021461096b578063c2aeb5fe1461097e578063c45a3e0a14610991578063c9aff70c146109a4578063cc8d823c146109b7578063cf023779146109ca576104b7565b8063b11ee0e31461090c578063b16144a31461091f578063b32a2f9014610932578063b6b55f2514610945578063bc7513e214610958576104b7565b80639bc289f1116101f5578063a6c409f1116101b9578063a6c409f1146108b8578063a6f37b53146108c0578063a9059cbb146104da578063a9b3cf15146108d3578063adbff2be146108e6578063ae5c2381146108f9576104b7565b80639bc289f1146108595780639be464931461086c5780639f6e1b261461087f578063a00e14d114610892578063a50cd8e7146108a5576104b7565b806395d89b411161023c57806395d89b411461081057806397a5d5b5146108185780639940686e1461082b5780639a649edc1461083e5780639b82b49b14610846576104b7565b8063825ad607146107bc5780638413e52a146107cf57806386cf9f14146107e25780638de2e573146107f5578063900cf0cf14610808576104b7565b80633fbba9a61161039f5780635dbf800a1161031c57806370a08231116102e057806370a082311461076057806371c511eb1461077357806372924d2a1461077b57806375d5024b1461078e5780637cb95a32146107a15780637dc0d1d0146107b4576104b7565b80635dbf800a146107015780635f14fec81461071457806364668022146107275780636a39e3281461073a5780636b862d661461074d576104b7565b80634c736099116103635780634c736099146106b65780635053e461146106c957806351adeb57146106d157806351bf21d8146106e65780635c60da1b146106f9576104b7565b80633fbba9a6146106605780633fd4973c14610680578063416a23cc14610693578063438735261461069b57806344d96e95146106ae576104b7565b806320f6bc90116104385780632e1a7d4d116103fc5780632e1a7d4d146105ec578063313ce567146105ff5780633234742214610614578063353a420c146106275780633a3e6c811461063a5780633f7bcaf31461064d576104b7565b806320f6bc901461058d57806323b872dd146105a0578063259f7adf146105b3578063277805a9146105c657806327de9e32146105d9576104b7565b806316f0115b1161047f57806316f0115b1461054257806318160ddd146105575780631a08e22a1461055f5780631edbcf6c146105725780631fac97321461057a576104b7565b806306fdde03146104bc578063095ea7b3146104da5780630dc6d3a3146104fa57806310e95b6c1461050f57806315e14bf61461052f575b600080fd5b6104c4610a88565b6040516104d19190612efc565b60405180910390f35b6104ed6104e8366004612b0c565b610ab8565b6040516104d19190612ed2565b61050d610508366004612a8e565b610ac1565b005b61052261051d366004612c29565b610b0a565b6040516104d19190612f2d565b61052261053d3660046129a6565b610b22565b61054a610b40565b6040516104d19190612e65565b610522610b4f565b61050d61056d366004612cbb565b610b55565b610522610b63565b61050d610588366004612c29565b610b69565b61050d61059b366004612b0c565b610b75565b6104ed6105ae366004612a4b565b610b7f565b61050d6105c1366004612c29565b610b89565b61050d6105d4366004612b0c565b610b92565b61050d6105e7366004612c29565b610c1e565b61050d6105fa366004612c29565b610d68565b610607610ea0565b6040516104d19190612f56565b61050d610622366004612c65565b610ea5565b6105226106353660046129a6565b610ee5565b6104ed6106483660046129a6565b610f03565b61050d61065b366004612a4b565b610f20565b61067361066e3660046129c4565b610f2b565b6040516104d19190612eee565b61050d61068e366004612b3c565b610f5e565b61050d610fa5565b61050d6106a9366004612c29565b610faf565b610522610fb8565b6105226106c4366004612cbb565b610fbe565b610522610fee565b6106d9611044565b6040516104d19190612ee0565b6105226106f43660046129a6565b611053565b61054a611071565b61050d61070f366004612c29565b611096565b61050d610722366004612b0c565b61109f565b6105226107353660046129a6565b6110a9565b610522610748366004612c29565b6110c7565b61050d61075b366004612ba4565b6110dc565b61052261076e3660046129a6565b6110e7565b61050d611105565b61050d610789366004612c65565b61110d565b6104ed61079c366004612c29565b61114d565b61050d6107af366004612b3c565b611160565b6106d96111a1565b6105226107ca3660046129a6565b6111b0565b61050d6107dd3660046129fe565b6111f0565b6105226107f03660046129a6565b6111fb565b61050d610803366004612c29565b611216565b61052261121f565b6104c4611225565b6106736108263660046129a6565b611243565b61050d610839366004612c29565b6112a8565b610522611376565b61050d610854366004612c65565b61137c565b6105226108673660046129a6565b6113bc565b61050d61087a3660046129a6565b6113da565b61052261088d3660046129c4565b6113e3565b61050d6108a0366004612cbb565b611412565b6105226108b33660046129a6565b61141d565b610522611434565b61050d6108ce3660046129a6565b6114ca565b61050d6108e1366004612c29565b6114d3565b61050d6108f4366004612b3c565b6114dc565b61050d610907366004612b0c565b61151d565b61050d61091a366004612b0c565b611527565b61050d61092d366004612c29565b611531565b61050d610940366004612b3c565b611544565b61050d610953366004612c29565b611585565b610522610966366004612b0c565b61165d565b61050d6109793660046129c4565b6116a1565b61050d61098c366004612bd6565b6116ab565b61050d61099f366004612b0c565b6116ed565b6105226109b2366004612c29565b6116f7565b61050d6109c5366004612b0c565b61170c565b610522611716565b6104ed6109e03660046129a6565b61171c565b61050d6109f3366004612c29565b61173d565b61050d610a06366004612b0c565b611746565b6105226104e83660046129c4565b61050d610a27366004612c29565b611750565b61050d610a3a366004612c29565b61180e565b610522610a4d3660046129a6565b611813565b61050d61182e565b61050d610a68366004612b0c565b611836565b610522611840565b610522610a83366004612c29565b611846565b604080518082019091526016815275456d7074792053657420446f6c6c6172205374616b6560501b602082015290565b60005b92915050565b610b0385858585858080601f01602080910402602001604051908101604052809392919081815260200183838082843760009201919091525061185892505050565b5050505050565b6000818152600d60205260409020600201545b919050565b6001600160a01b03166000908152600e602052604090206001015490565b600b546001600160a01b031690565b60035490565b610b5f82826118c9565b5050565b60065490565b610b72816118fb565b50565b610b5f8282611942565b60005b9392505050565b610b72816119ec565b610b9a611044565b6001600160a01b03166340c10f1983836040518363ffffffff1660e01b8152600401610bc7929190612ec4565b602060405180830381600087803b158015610be157600080fd5b505af1158015610bf5573d6000803e3d6000fd5b505050506040513d601f19601f82011682018060405250610c199190810190612c0b565b505050565b33610c6560025b610c2e83611243565b6002811115610c3957fe5b1415692832b936b4b9b9b4b7b760b11b72139bdd08199c9bde995b881bdc88199b1d5a59606a1b611a05565b610c6e33611a63565b6000610ca1610c7c336110e7565b610c95610c88336111b0565b869063ffffffff611a9516565b9063ffffffff611acf16565b9050610cad3382611b11565b610ccf8160405180606001604052806022815260200161306260229139611b6d565b610d0f33846040518060400160405280601d81526020017f426f6e64696e673a20696e73756666696369656e742062616c616e6365000000815250611b88565b337f93530ac0ee8c50e696e13c5ac62355d0c0ba4bd943620d5bda1eb08b64ae7512610d4a6001610d3e61121f565b9063ffffffff611c3316565b8584604051610d5b93929190612f3b565b60405180910390a2505050565b33610db060015b610d7883611243565b6002811115610d8357fe5b1415692832b936b4b9b9b4b7b760b11b73139bdd08199c9bde995b881bdc881b1bd8dad95960621b611a05565b610db8611044565b6001600160a01b031663a9059cbb33846040518363ffffffff1660e01b8152600401610de5929190612e9b565b602060405180830381600087803b158015610dff57600080fd5b505af1158015610e13573d6000803e3d6000fd5b505050506040513d601f19601f82011682018060405250610e379190810190612c0b565b50610e5b338360405180606001604052806024815260200161303e60249139611c58565b336001600160a01b03167f884edad9ce6fa2440d8a54cc123490eb96d2768479d49ff9c7366125a942436483604051610e949190612f2d565b60405180910390a25050565b601290565b610c198383838080601f016020809104026020016040519081016040528093929190818152602001838380828437600092019190915250611cb792505050565b6001600160a01b03166000908152600e602052604090206003015490565b6001600160a01b03166000908152600e6020526040902054151590565b610c19838383611cd2565b6001600160a01b038082166000908152600e60209081526040808320938616835260049093019052205460ff1692915050565b610f9f848484848080601f016020809104026020016040519081016040528093929190818152602001838380828437600092019190915250611d0292505050565b50505050565b610fad611d53565b565b610b5f81611d96565b60045490565b6000828152600d60205260408120600301805483908110610fdb57fe5b9060005260206000200154905092915050565b6000610ff86128f2565b611000611ddd565b905061100a6128f2565b611012611e0c565b90508160200151611021611e3c565b106110345761102f82611e42565b61103d565b61103d81611e42565b9250505090565b6009546001600160a01b031690565b6001600160a01b03166000908152600c602052604090206004015490565b7f360894a13ba1a3210667c828492db98dca3e2076cc3735a920a3ca505d382bbc5490565b610b7281611e64565b610b5f8282611eeb565b6001600160a01b03166000908152600e602052604090206002015490565b6000908152600d602052604090206003015490565b610c19838383611ffc565b6001600160a01b03166000908152600c602052604090206001015490565b610fad6120a3565b610c198383838080601f0160208091040260200160405190810160405280939291908181526020018383808284376000920191909152506120ca92505050565b60006111576120e5565b90911115919050565b610f9f848484848080601f0160208091040260200160405190810160405280939291908181526020018383808284376000920191909152506120ea92505050565b600a546001600160a01b031690565b6000806111bb610b4f565b9050806111cc576000915050610b1d565b610b8281610c956111dc866110e7565b6111e4610fb8565b9063ffffffff611a9516565b610c1983838361213b565b6001600160a01b03166000908152600c602052604090205490565b610b7281612185565b60025490565b6040805180820190915260048152634553445360e01b602082015290565b600061124d61121f565b6001600160a01b0383166000908152600c6020526040902060050154111561127757506002610b1d565b6001600160a01b0382166000908152600c602052604090206004015461129b61121f565b1015610ab8576001610abb565b336112b36002610c25565b6112bc33611a63565b60006112c6610fb8565b156112e6576112e16112d6610fb8565b610c95610c88610b4f565b6112fe565b6112fe6112f161219e565b849063ffffffff611a9516565b905061130a33826121a5565b611313836119ec565b611336338460405180606001604052806024815260200161303e60249139611c58565b337f44002fdef5a0c2d2e4e05572e9780b95aef97e0e93ffd7cc076b09fa78ff2b466113656001610d3e61121f565b8386604051610d5b93929190612f3b565b60085490565b610c198383838080601f016020809104026020016040519081016040528093929190818152602001838380828437600092019190915250611b6d92505050565b6001600160a01b03166000908152600c602052604090206005015490565b610b7281611a63565b6001600160a01b039182166000908152600c602090815260408083209390941682526003909201909152205490565b600091909155600155565b6000610abb61142b83610ee5565b610d3e846110a9565b60006114c5611441611840565b611449611044565b6001600160a01b03166318160ddd6040518163ffffffff1660e01b815260040160206040518083038186803b15801561148157600080fd5b505afa158015611495573d6000803e3d6000fd5b505050506040513d601f19601f820116820180604052506114b99190810190612c47565b9063ffffffff61224d16565b905090565b610b728161228f565b610b72816122b6565b610f9f848484848080601f016020809104026020016040519081016040528093929190818152602001838380828437600092019190915250611b8892505050565b610b5f82826121a5565b610b5f8282611b11565b610b5f61153f8260646122f9565b612328565b610f9f848484848080601f016020809104026020016040519081016040528093929190818152602001838380828437600092019190915250611c5892505050565b336115906001610d6f565b611598611044565b6001600160a01b03166323b872dd3330856040518463ffffffff1660e01b81526004016115c793929190612e73565b602060405180830381600087803b1580156115e157600080fd5b505af11580156115f5573d6000803e3d6000fd5b505050506040513d601f19601f820116820180604052506116199190810190612c0b565b506116243383611b11565b336001600160a01b03167fe1fffcc4923d04b559f4d29a8bfc6cda04eb5b0d3c460751c2402c5c5cc9109c83604051610e949190612f2d565b6000611668826116f7565b61167457506000610abb565b506001600160a01b03919091166000908152600c6020908152604080832093835260029093019052205490565b610b5f8282612402565b610b0385858585858080601f01602080910402602001604051908101604052809392919081815260200183838082843760009201919091525061246292505050565b610b5f828261250d565b6000908152600d602052604090206001015490565b610b5f82826125b7565b60055490565b6001600160a01b03166000908152600e602052604090206005015460ff1690565b610b7281612606565b610b5f828261261f565b3361175b6002610c25565b61176433611a63565b60006117716112d6610fb8565b905061177d3384611b11565b61179f8360405180606001604052806022815260200161306260229139611b6d565b6117df33826040518060400160405280601d81526020017f426f6e64696e673a20696e73756666696369656e742062616c616e6365000000815250611b88565b337f93530ac0ee8c50e696e13c5ac62355d0c0ba4bd943620d5bda1eb08b64ae75126113656001610d3e61121f565b600f55565b6001600160a01b03166000908152600e602052604090205490565b610fad61264b565b610b5f8282612664565b60075490565b6000908152600d602052604090205490565b6001600160a01b038085166000908152600c60209081526040808320938716835260039093019052205461189390838363ffffffff6126b316565b6001600160a01b039485166000908152600c60209081526040808320969097168252600390950190945293909220929092555050565b6000828152600d6020908152604080832060020184905592825291812060030180546001810182559082529190200155565b61193a816040518060400160405280601c81526020017f436f6d7074726f6c6c65723a206e6f7420656e6f7567682064656274000000008152506120ca565b610b726126df565b61194a611044565b6001600160a01b03166340c10f1983836040518363ffffffff1660e01b8152600401611977929190612ec4565b602060405180830381600087803b15801561199157600080fd5b505af11580156119a5573d6000803e3d6000fd5b505050506040513d601f19601f820116820180604052506119c99190810190612c0b565b506119d561079c61121f565b6119e4576119e281611d96565b505b610b5f6126df565b6004546119ff908263ffffffff611c3316565b60045550565b82610c1957611a13826127b2565b6101d160f51b611a22836127b2565b604051602001611a3493929190612e34565b60408051601f198184030181529082905262461bcd60e51b8252611a5a91600401612efc565b60405180910390fd5b611a76611a6e612832565b610d3e61121f565b6001600160a01b039091166000908152600c6020526040902060040155565b600082611aa457506000610abb565b82820282848281611ab157fe5b0414610b825760405162461bcd60e51b8152600401611a5a90612f1d565b6000610b8283836040518060400160405280601a81526020017f536166654d6174683a206469766973696f6e206279207a65726f000000000000815250612837565b6001600160a01b0382166000908152600c6020526040902054611b3a908263ffffffff611c3316565b6001600160a01b0383166000908152600c6020526040902055600554611b66908263ffffffff611c3316565b6005555050565b600454611b8190838363ffffffff6126b316565b6004555050565b6001600160a01b0383166000908152600c6020526040902060010154611bb590838363ffffffff6126b316565b6001600160a01b0384166000908152600c6020526040902060010155600354611be590838363ffffffff6126b316565b6003556040516000906001600160a01b038516907fddf252ad1be2c89b69c2b068fc378daa952ba7f163c4a11628f55a4df523b3ef90611c26908690612f2d565b60405180910390a3505050565b600082820183811015610b825760405162461bcd60e51b8152600401611a5a90612f0d565b6001600160a01b0383166000908152600c6020526040902054611c8290838363ffffffff6126b316565b6001600160a01b0384166000908152600c6020526040902055600554611caf90838363ffffffff6126b316565b600555505050565b600654611ccb90838363ffffffff6126b316565b6006555050565b6001600160a01b039283166000908152600c60209081526040808320949095168252600390930190925291902055565b6001600160a01b0383166000908152600e6020526040902060030154611d2f90838363ffffffff6126b316565b6001600160a01b039093166000908152600e60205260409020600301929092555050565b611d8e611d5e61121f565b611d66610fee565b1166426f6e64696e6760c81b720a6e8d2d8d840c6eae4e4cadce840cae0dec6d606b1b611a05565b61182e6120a3565b6000611da182612185565b6000611dae61153f61286e565b9050611db86126df565b828111611dd457611dcf838263ffffffff61224d16565b610b82565b50600092915050565b611de56128f2565b6040518060600160405280606a8152602001635f7fa8008152602001617080815250905090565b611e146128f2565b6040518060600160405280605b8152602001635f6be180815260200162015180815250905090565b600f5490565b6000610abb8260000151610d3e8460400151610c9586602001516114b9611e3c565b611e6c611044565b6001600160a01b03166342966c68826040518263ffffffff1660e01b8152600401611e979190612f2d565b600060405180830381600087803b158015611eb157600080fd5b505af1158015611ec5573d6000803e3d6000fd5b5050505061193a816040518060600160405280602a81526020016130ac602a9139611cb7565b611ef3611044565b6001600160a01b03166323b872dd8330846040518463ffffffff1660e01b8152600401611f2293929190612eb6565b602060405180830381600087803b158015611f3c57600080fd5b505af1158015611f50573d6000803e3d6000fd5b505050506040513d601f19601f82011682018060405250611f749190810190612c0b565b50611f7d611044565b6001600160a01b03166342966c68826040518263ffffffff1660e01b8152600401611fa89190612f2d565b600060405180830381600087803b158015611fc257600080fd5b505af1158015611fd6573d6000803e3d6000fd5b505050506119e481604051806060016040528060288152602001613084602891396120ca565b6001600160a01b0383166000908152600c60209081526040808320858452600201909152902054612033908263ffffffff611c3316565b6001600160a01b0384166000908152600c60209081526040808320868452600201825280832093909355600d90522060010154612076908263ffffffff611c3316565b6000838152600d602052604090206001015560085461209b908263ffffffff611c3316565b600855505050565b6120ab610b4f565b600d60006120b761121f565b8152602081019190915260400160002055565b6007546120de90838363ffffffff6126b316565b6007555050565b605a90565b6001600160a01b0383166000908152600e602052604090206002015461211790838363ffffffff6126b316565b6001600160a01b039093166000908152600e60205260409020600201929092555050565b6001600160a01b038083166000908152600e6020908152604080832093871683526004909301905220805482919060ff1916600183600281111561217b57fe5b0217905550505050565b600754612198908263ffffffff611c3316565b60075550565b620f424090565b6001600160a01b0382166000908152600c60205260409020600101546121d1908263ffffffff611c3316565b6001600160a01b0383166000908152600c6020526040902060010155600354612200908263ffffffff611c3316565b6003556040516001600160a01b038316906000907fddf252ad1be2c89b69c2b068fc378daa952ba7f163c4a11628f55a4df523b3ef90612241908590612f2d565b60405180910390a35050565b6000610b8283836040518060400160405280601e81526020017f536166654d6174683a207375627472616374696f6e206f766572666c6f7700008152506126b3565b6001600160a01b03166000908152600e60205260409020600501805460ff19166001179055565b60006122c1826116f7565b9050806122ce5750610b72565b6008546122e1908263ffffffff61224d16565b600855506000908152600d6020526040812060010155565b612301612913565b604051806020016040528061231f85670de0b6b3a764000086612890565b90529392505050565b6000806123bb6123b6612339611044565b6001600160a01b03166318160ddd6040518163ffffffff1660e01b815260040160206040518083038186803b15801561237157600080fd5b505afa158015612385573d6000803e3d6000fd5b505050506040513d601f19601f820116820180604052506123a99190810190612c47565b859063ffffffff6128ae16565b6128d5565b905060006123c7611840565b9050818111156123f85760006123e3828463ffffffff61224d16565b90506123ee816118fb565b9250610b1d915050565b5060009392505050565b6001600160a01b0382166000908152600c60205260408120600501549061243461242b84610b22565b610d3e85611813565b905081811115610f9f576001600160a01b0384166000908152600c6020526040902060050181905550505050565b6001600160a01b0384166000908152600c6020908152604080832086845260020190915290205461249a90838363ffffffff6126b316565b6001600160a01b0385166000908152600c60209081526040808320878452600201825280832093909355600d905220600101546124de90838363ffffffff6126b316565b6000848152600d602052604090206001015560085461250490838363ffffffff6126b316565b60085550505050565b612515611044565b6001600160a01b031663a9059cbb83836040518363ffffffff1660e01b8152600401612542929190612ec4565b602060405180830381600087803b15801561255c57600080fd5b505af1158015612570573d6000803e3d6000fd5b505050506040513d601f19601f820116820180604052506125949190810190612c0b565b506119e4816040518060600160405280602a81526020016130ac602a9139611cb7565b6001600160a01b0382166000908152600e60205260409020600301546125e3908263ffffffff611c3316565b6001600160a01b039092166000908152600e602052604090206003019190915550565b600654612619908263ffffffff611c3316565b60065550565b61262761121f565b6001600160a01b039092166000908152600e60205260409020918255600190910155565b60025461265f90600163ffffffff611c3316565b600255565b6001600160a01b0382166000908152600e6020526040902060020154612690908263ffffffff611c3316565b6001600160a01b039092166000908152600e602052604090206002019190915550565b600081848411156126d75760405162461bcd60e51b8152600401611a5a9190612efc565b505050900390565b610fad6127006126ed610b63565b610d3e6126f8611716565b610d3e610fb8565b612708611044565b6001600160a01b03166370a08231306040518263ffffffff1660e01b81526004016127339190612e65565b60206040518083038186803b15801561274b57600080fd5b505afa15801561275f573d6000803e3d6000fd5b505050506040513d601f19601f820116820180604052506127839190810190612c47565b10156a21b7b6b83a3937b63632b960a91b74496e636f6e73697374656e742062616c616e63657360581b611a05565b606080826040516020016127c69190612e1f565b60408051601f19818403018152919052905060205b801561281b578151600019909101908290829081106127f657fe5b01602001516001600160f81b031916156128165760010181529050610b1d565b6127db565b505060408051600081526020810190915292915050565b600f90565b600081836128585760405162461bcd60e51b8152600401611a5a9190612efc565b50600083858161286457fe5b0495945050505050565b612876612913565b506040805160208101909152670214e8348c4f0000815290565b60006128a682610c95868663ffffffff611a9516565b949350505050565b6128b6612913565b60408051602081019091528351819061231f908563ffffffff611a9516565b8051600090610abb90670de0b6b3a764000063ffffffff611acf16565b60405180606001604052806000815260200160008152602001600081525090565b6040518060200160405280600081525090565b8035610abb8161300a565b8051610abb8161301e565b8035610abb81613027565b60008083601f84011261295957600080fd5b50813567ffffffffffffffff81111561297157600080fd5b60208301915083600182028301111561298957600080fd5b9250929050565b8035610abb81613034565b8051610abb81613034565b6000602082840312156129b857600080fd5b60006128a68484612926565b600080604083850312156129d757600080fd5b60006129e38585612926565b92505060206129f485828601612926565b9150509250929050565b600080600060608486031215612a1357600080fd5b6000612a1f8686612926565b9350506020612a3086828701612926565b9250506040612a418682870161293c565b9150509250925092565b600080600060608486031215612a6057600080fd5b6000612a6c8686612926565b9350506020612a7d86828701612926565b9250506040612a4186828701612990565b600080600080600060808688031215612aa657600080fd5b6000612ab28888612926565b9550506020612ac388828901612926565b9450506040612ad488828901612990565b935050606086013567ffffffffffffffff811115612af157600080fd5b612afd88828901612947565b92509250509295509295909350565b60008060408385031215612b1f57600080fd5b6000612b2b8585612926565b92505060206129f485828601612990565b60008060008060608587031215612b5257600080fd5b6000612b5e8787612926565b9450506020612b6f87828801612990565b935050604085013567ffffffffffffffff811115612b8c57600080fd5b612b9887828801612947565b95989497509550505050565b600080600060608486031215612bb957600080fd5b6000612bc58686612926565b9350506020612a7d86828701612990565b600080600080600060808688031215612bee57600080fd5b6000612bfa8888612926565b9550506020612ac388828901612990565b600060208284031215612c1d57600080fd5b60006128a68484612931565b600060208284031215612c3b57600080fd5b60006128a68484612990565b600060208284031215612c5957600080fd5b60006128a6848461299b565b600080600060408486031215612c7a57600080fd5b6000612c868686612990565b935050602084013567ffffffffffffffff811115612ca357600080fd5b612caf86828701612947565b92509250509250925092565b60008060408385031215612cce57600080fd5b6000612b2b8585612990565b612ce381612fad565b82525050565b612ce381612f71565b612ce381612f7c565b612ce3612d0782612f81565b612f8e565b612ce3612d0782612f8e565b6000612d2382612f64565b612d2d8185610b1d565b9350612d3d818560208601612fca565b9290920192915050565b612ce381612fb4565b612ce381612fbf565b6000612d6482612f64565b612d6e8185612f68565b9350612d7e818560208601612fca565b612d8781612ff6565b9093019392505050565b6000612d9e601b83612f68565b7f536166654d6174683a206164646974696f6e206f766572666c6f770000000000815260200192915050565b6000612dd7602183612f68565b7f536166654d6174683a206d756c7469706c69636174696f6e206f766572666c6f8152607760f81b602082015260400192915050565b612ce381612f8e565b612ce381612fa7565b6000612e2b8284612d0c565b50602001919050565b6000612e408286612d18565b9150612e4c8285612cfb565b600282019150612e5c8284612d18565b95945050505050565b60208101610abb8284612ce9565b60608101612e818286612cda565b612e8e6020830185612ce9565b6128a66040830184612e0d565b60408101612ea98285612cda565b610b826020830184612e0d565b60608101612e818286612ce9565b60408101612ea98285612ce9565b60208101610abb8284612cf2565b60208101610abb8284612d47565b60208101610abb8284612d50565b60208082528101610b828184612d59565b60208082528101610abb81612d91565b60208082528101610abb81612dca565b60208101610abb8284612e0d565b60608101612f498286612e0d565b612e8e6020830185612e0d565b60208101610abb8284612e16565b5190565b90815260200190565b6000610abb82612f9b565b151590565b6001600160f01b03191690565b90565b80610b1d81613000565b6001600160a01b031690565b60ff1690565b6000610abb825b6000610abb82612f71565b6000610abb82612f91565b60005b83811015612fe5578181015183820152602001612fcd565b83811115610f9f5750506000910152565b601f01601f191690565b60038110610b7257fe5b61301381612f71565b8114610b7257600080fd5b61301381612f7c565b60038110610b7257600080fd5b61301381612f8e56fe426f6e64696e673a20696e73756666696369656e74207374616765642062616c616e6365426f6e64696e673a20696e73756666696369656e7420746f74616c20626f6e646564436f6d7074726f6c6c65723a206e6f7420656e6f756768206f75747374616e64696e672064656274436f6d7074726f6c6c65723a206e6f7420656e6f7567682072656465656d61626c652062616c616e6365a365627a7a723158200c46c2c4d56124bdf47618a76201d8f27681c4bb4c25adcd681dfddd124fd5776c6578706572696d656e74616cf564736f6c6343000511004060806040523480156200001157600080fd5b506040518060400160405280601081526020016f22b6b83a3c9029b2ba102237b63630b960811b815250604051806040016040528060038152602001621154d160ea1b81525060126200007c6200006d6200011760201b60201c565b6001600160e01b036200011c16565b82516200009190600190602086019062000311565b508151620000a790600290602085019062000311565b506003805460ff191660ff92909216919091179055506200010e9050620000cd6200016e565b604051806040016040528060018152602001603160f81b815250620000fc6200020760201b620016341760201c565b306200020c60201b620016391760201c565b60075562000467565b335b90565b620001378160006200026360201b62000d7e1790919060201c565b6040516001600160a01b038216907f6ae172837ea30b801fbfcdd4108aa1d5bf8ff775444fd70256b44e6bf3dfc3f690600090a250565b60018054604080516020601f60026000196101008789161502019095169490940493840181900481028201810190925282815260609390929091830182828015620001fd5780601f10620001d157610100808354040283529160200191620001fd565b820191906000526020600020905b815481529060010190602001808311620001df57829003601f168201915b5050505050905090565b600190565b8351602094850120835193850193909320604080517f8b73c3c69bb8fe3d512ecc4cf759cc79239f7b179b0ffacaa9a75d522b39400f815295860194909452928401929092526060830152608082015260a0902090565b6200027882826001600160e01b03620002c616565b15620002a15760405162461bcd60e51b8152600401620002989062000434565b60405180910390fd5b6001600160a01b0316600090815260209190915260409020805460ff19166001179055565b60006001600160a01b038216620002f15760405162461bcd60e51b815260040162000298906200044c565b506001600160a01b03166000908152602091909152604090205460ff1690565b828054600181600116156101000203166002900490600052602060002090601f016020900481019282601f106200035457805160ff191683800117855562000384565b8280016001018555821562000384579182015b828111156200038457825182559160200191906001019062000367565b506200039292915062000396565b5090565b6200011991905b808211156200039257600081556001016200039d565b6000620003c2601f836200045e565b7f526f6c65733a206163636f756e7420616c72656164792068617320726f6c6500815260200192915050565b6000620003fd6022836200045e565b7f526f6c65733a206163636f756e7420697320746865207a65726f206164647265815261737360f01b602082015260400192915050565b602080825281016200044681620003b3565b92915050565b602080825281016200044681620003ee565b90815260200190565b61178d80620004776000396000f3fe608060405234801561001057600080fd5b506004361061012c5760003560e01c806395d89b41116100ad578063aa271e1a11610071578063aa271e1a14610256578063d505accf14610269578063dab400f31461027c578063dd62ed3e14610284578063e879c19f146102975761012c565b806395d89b411461020d578063983b2d56146102155780639865027514610228578063a457c2d714610230578063a9059cbb146102435761012c565b806339509351116100f457806339509351146101ac57806340c10f19146101bf57806342966c68146101d257806370a08231146101e757806379cc6790146101fa5761012c565b806306fdde0314610131578063095ea7b31461014f57806318160ddd1461016f57806323b872dd14610184578063313ce56714610197575b600080fd5b61013961029f565b60405161014691906114c6565b60405180910390f35b61016261015d366004610ffc565b610334565b604051610146919061141b565b610177610352565b6040516101469190611429565b610162610192366004610f13565b610358565b61019f6103ca565b6040516101469190611587565b6101626101ba366004610ffc565b6103d3565b6101626101cd366004610ffc565b610427565b6101e56101e036600461102c565b610463565b005b6101776101f5366004610eb3565b610477565b6101e5610208366004610ffc565b610496565b6101396104a4565b6101e5610223366004610eb3565b610502565b6101e5610532565b61016261023e366004610ffc565b610544565b610162610251366004610ffc565b6105b2565b610162610264366004610eb3565b6105c6565b6101e5610277366004610f60565b6105d8565b61017761075f565b610177610292366004610ed9565b610765565b610177610790565b60018054604080516020601f6002600019610100878916150201909516949094049384018190048102820181019092528281526060939092909183018282801561032a5780601f106102ff5761010080835404028352916020019161032a565b820191906000526020600020905b81548152906001019060200180831161030d57829003601f168201915b5050505050905090565b60006103486103416107b4565b84846107b8565b5060015b92915050565b60065490565b600061036584848461086c565b600019610374856102926107b4565b146103c0576103c0846103856107b4565b6103bb856040518060600160405280602981526020016116fd602991396103ae8a6102926107b4565b919063ffffffff61098216565b6107b8565b5060019392505050565b60035460ff1690565b60006103486103e06107b4565b846103bb85600560006103f16107b4565b6001600160a01b03908116825260208083019390935260409182016000908120918c16815292529020549063ffffffff6109ae16565b60006104346102646107b4565b6104595760405162461bcd60e51b815260040161045090611517565b60405180910390fd5b61034883836109da565b61047461046e6107b4565b82610a9a565b50565b6001600160a01b0381166000908152600460205260409020545b919050565b6104a08282610b70565b5050565b60028054604080516020601f600019610100600187161502019094168590049384018190048102820181019092528281526060939092909183018282801561032a5780601f106102ff5761010080835404028352916020019161032a565b61050d6102646107b4565b6105295760405162461bcd60e51b815260040161045090611517565b61047481610beb565b61054261053d6107b4565b610c33565b565b60006103486105516107b4565b846103bb85604051806060016040528060258152602001611726602591396005600061057b6107b4565b6001600160a01b03908116825260208083019390935260409182016000908120918d1681529252902054919063ffffffff61098216565b60006103486105bf6107b4565b848461086c565b600061034c818363ffffffff610c7b16565b6007546001600160a01b03881660009081526008602090815260408083208054600181019091559051929361065a93909261063f927f6e71edae12b1b97f4d1f60370fef10105fa2faae0126114a169c64845d6126c9928e928e928e9290918e9101611437565b60405160208183030381529060405280519060200120610cc3565b90506000600182868686604051600081526020016040526040516106819493929190611491565b6020604051602081039080840390855afa1580156106a3573d6000803e3d6000fd5b5050506020604051035190506106f0896001600160a01b0316826001600160a01b0316146a5065726d69747461626c6560a81b70496e76616c6964207369676e617475726560781b610ce2565b6107236001600160a01b03821615156a5065726d69747461626c6560a81b6b5a65726f206164647265737360a01b610ce2565b610749864211156a5065726d69747461626c6560a81b66115e1c1a5c995960ca1b610ce2565b6107548989896107b8565b505050505050505050565b60075481565b6001600160a01b03918216600090815260056020908152604080832093909416825291909152205490565b7f6e71edae12b1b97f4d1f60370fef10105fa2faae0126114a169c64845d6126c981565b3390565b6001600160a01b0383166107de5760405162461bcd60e51b815260040161045090611567565b6001600160a01b0382166108045760405162461bcd60e51b8152600401610450906114f7565b6001600160a01b0380841660008181526005602090815260408083209487168084529490915290819020849055517f8c5be1e5ebec7d5bd14f71427d1e84f3dd0314c0f7b2291e5b200ac8c7c3b9259061085f908590611429565b60405180910390a3505050565b6001600160a01b0383166108925760405162461bcd60e51b815260040161045090611557565b6001600160a01b0382166108b85760405162461bcd60e51b8152600401610450906114d7565b6108fb816040518060600160405280602681526020016116b3602691396001600160a01b038616600090815260046020526040902054919063ffffffff61098216565b6001600160a01b038085166000908152600460205260408082209390935590841681522054610930908263ffffffff6109ae16565b6001600160a01b0380841660008181526004602052604090819020939093559151908516907fddf252ad1be2c89b69c2b068fc378daa952ba7f163c4a11628f55a4df523b3ef9061085f908590611429565b600081848411156109a65760405162461bcd60e51b815260040161045091906114c6565b505050900390565b6000828201838110156109d35760405162461bcd60e51b815260040161045090611507565b9392505050565b6001600160a01b038216610a005760405162461bcd60e51b815260040161045090611577565b600654610a13908263ffffffff6109ae16565b6006556001600160a01b038216600090815260046020526040902054610a3f908263ffffffff6109ae16565b6001600160a01b0383166000818152600460205260408082209390935591519091907fddf252ad1be2c89b69c2b068fc378daa952ba7f163c4a11628f55a4df523b3ef90610a8e908590611429565b60405180910390a35050565b6001600160a01b038216610ac05760405162461bcd60e51b815260040161045090611547565b610b0381604051806060016040528060228152602001611691602291396001600160a01b038516600090815260046020526040902054919063ffffffff61098216565b6001600160a01b038316600090815260046020526040902055600654610b2f908263ffffffff610d3c16565b6006556040516000906001600160a01b038416907fddf252ad1be2c89b69c2b068fc378daa952ba7f163c4a11628f55a4df523b3ef90610a8e908590611429565b610b7a8282610a9a565b6104a082610b866107b4565b6103bb846040518060600160405280602481526020016116d9602491396001600160a01b038816600090815260056020526040812090610bc46107b4565b6001600160a01b03168152602081019190915260400160002054919063ffffffff61098216565b610bfc60008263ffffffff610d7e16565b6040516001600160a01b038216907f6ae172837ea30b801fbfcdd4108aa1d5bf8ff775444fd70256b44e6bf3dfc3f690600090a250565b610c4460008263ffffffff610dca16565b6040516001600160a01b038216907fe94479a9f7e1952cc78f2d6baab678adc1b772d936c6583def489e524cb6669290600090a250565b60006001600160a01b038216610ca35760405162461bcd60e51b815260040161045090611537565b506001600160a01b03166000908152602091909152604090205460ff1690565b60405161190160f01b8152600281019290925260228201526042902090565b82610d3757610cf082610e12565b6101d160f51b610cff83610e12565b604051602001610d11939291906113ea565b60408051601f198184030181529082905262461bcd60e51b8252610450916004016114c6565b505050565b60006109d383836040518060400160405280601e81526020017f536166654d6174683a207375627472616374696f6e206f766572666c6f770000815250610982565b610d888282610c7b565b15610da55760405162461bcd60e51b8152600401610450906114e7565b6001600160a01b0316600090815260209190915260409020805460ff19166001179055565b610dd48282610c7b565b610df05760405162461bcd60e51b815260040161045090611527565b6001600160a01b0316600090815260209190915260409020805460ff19169055565b60608082604051602001610e2691906113d5565b60408051601f19818403018152919052905060205b8015610e7b57815160001990910190829082908110610e5657fe5b01602001516001600160f81b03191615610e765760010181529050610491565b610e3b565b505060408051600081526020810190915292915050565b803561034c8161160e565b803561034c81611622565b803561034c8161162b565b600060208284031215610ec557600080fd5b6000610ed18484610e92565b949350505050565b60008060408385031215610eec57600080fd5b6000610ef88585610e92565b9250506020610f0985828601610e92565b9150509250929050565b600080600060608486031215610f2857600080fd5b6000610f348686610e92565b9350506020610f4586828701610e92565b9250506040610f5686828701610e9d565b9150509250925092565b600080600080600080600060e0888a031215610f7b57600080fd5b6000610f878a8a610e92565b9750506020610f988a828b01610e92565b9650506040610fa98a828b01610e9d565b9550506060610fba8a828b01610e9d565b9450506080610fcb8a828b01610ea8565b93505060a0610fdc8a828b01610e9d565b92505060c0610fed8a828b01610e9d565b91505092959891949750929550565b6000806040838503121561100f57600080fd5b600061101b8585610e92565b9250506020610f0985828601610e9d565b60006020828403121561103e57600080fd5b6000610ed18484610e9d565b611053816115a2565b82525050565b611053816115ad565b61105361106e826115b2565b6115bf565b611053816115bf565b61105361106e826115bf565b600061109382611595565b61109d8185610491565b93506110ad8185602086016115d4565b9290920192915050565b60006110c282611595565b6110cc8185611599565b93506110dc8185602086016115d4565b6110e581611604565b9093019392505050565b60006110fc602383611599565b7f45524332303a207472616e7366657220746f20746865207a65726f206164647281526265737360e81b602082015260400192915050565b6000611141601f83611599565b7f526f6c65733a206163636f756e7420616c72656164792068617320726f6c6500815260200192915050565b600061117a602283611599565b7f45524332303a20617070726f766520746f20746865207a65726f206164647265815261737360f01b602082015260400192915050565b60006111be601b83611599565b7f536166654d6174683a206164646974696f6e206f766572666c6f770000000000815260200192915050565b60006111f7603083611599565b7f4d696e746572526f6c653a2063616c6c657220646f6573206e6f74206861766581526f20746865204d696e74657220726f6c6560801b602082015260400192915050565b6000611249602183611599565b7f526f6c65733a206163636f756e7420646f6573206e6f74206861766520726f6c8152606560f81b602082015260400192915050565b600061128c602283611599565b7f526f6c65733a206163636f756e7420697320746865207a65726f206164647265815261737360f01b602082015260400192915050565b60006112d0602183611599565b7f45524332303a206275726e2066726f6d20746865207a65726f206164647265738152607360f81b602082015260400192915050565b6000611313602583611599565b7f45524332303a207472616e736665722066726f6d20746865207a65726f206164815264647265737360d81b602082015260400192915050565b600061135a602483611599565b7f45524332303a20617070726f76652066726f6d20746865207a65726f206164648152637265737360e01b602082015260400192915050565b60006113a0601f83611599565b7f45524332303a206d696e7420746f20746865207a65726f206164647265737300815260200192915050565b611053816115ce565b60006113e1828461107c565b50602001919050565b60006113f68286611088565b91506114028285611062565b6002820191506114128284611088565b95945050505050565b6020810161034c8284611059565b6020810161034c8284611073565b60c081016114458289611073565b611452602083018861104a565b61145f604083018761104a565b61146c6060830186611073565b6114796080830185611073565b61148660a0830184611073565b979650505050505050565b6080810161149f8287611073565b6114ac60208301866113cc565b6114b96040830185611073565b6114126060830184611073565b602080825281016109d381846110b7565b6020808252810161034c816110ef565b6020808252810161034c81611134565b6020808252810161034c8161116d565b6020808252810161034c816111b1565b6020808252810161034c816111ea565b6020808252810161034c8161123c565b6020808252810161034c8161127f565b6020808252810161034c816112c3565b6020808252810161034c81611306565b6020808252810161034c8161134d565b6020808252810161034c81611393565b6020810161034c82846113cc565b5190565b90815260200190565b600061034c826115c2565b151590565b6001600160f01b03191690565b90565b6001600160a01b031690565b60ff1690565b60005b838110156115ef5781810151838201526020016115d7565b838111156115fe576000848401525b50505050565b601f01601f191690565b611617816115a2565b811461047457600080fd5b611617816115bf565b611617816115ce565b600190565b8351602094850120835193850193909320604080517f8b73c3c69bb8fe3d512ecc4cf759cc79239f7b179b0ffacaa9a75d522b39400f815295860194909452928401929092526060830152608082015260a090209056fe45524332303a206275726e20616d6f756e7420657863656564732062616c616e636545524332303a207472616e7366657220616d6f756e7420657863656564732062616c616e636545524332303a206275726e20616d6f756e74206578636565647320616c6c6f77616e6365446f6c6c61723a207472616e7366657220616d6f756e74206578636565647320616c6c6f77616e636545524332303a2064656372656173656420616c6c6f77616e63652062656c6f77207a65726fa365627a7a723158208e61a028d221fa26d51f465c8284bf132167a31b571a90d94d77fc3201378a806c6578706572696d656e74616cf564736f6c63430005110040",
  "source": "/*\n    Copyright 2020 Empty Set Squad <emptysetsquad@protonmail.com>\n\n    Licensed under the Apache License, Version 2.0 (the \"License\");\n    you may not use this file except in compliance with the License.\n    You may obtain a copy of the License at\n\n    http://www.apache.org/licenses/LICENSE-2.0\n\n    Unless required by applicable law or agreed to in writing, software\n    distributed under the License is distributed on an \"AS IS\" BASIS,\n    WITHOUT WARRANTIES OR CONDITIONS OF ANY KIND, either express or implied.\n    See the License for the specific language governing permissions and\n    limitations under the License.\n*/\n\npragma solidity ^0.5.17;\npragma experimental ABIEncoderV2;\n\nimport \"./MockState.sol\";\nimport \"../dao/Bonding.sol\";\nimport \"./MockComptroller.sol\";\n\ncontract MockBonding is MockComptroller, Bonding {\n    constructor() MockComptroller(address(0)) public { }\n\n    function stepE() external {\n        Bonding.step();\n    }\n}\n",
  "sourcePath": "/Users/sachin/code/dollar/protocol/contracts/mock/MockBonding.sol",
  "compiler": {
    "name": "solc",
    "version": "0.5.17+commit.d19bba13.Emscripten.clang"
  },
  "schemaVersion": "3.3.3",
  "updatedAt": "2021-01-01T13:40:49.114Z",
  "devdoc": {
    "methods": {}
  },
  "userdoc": {
    "methods": {
      "balanceOfStaged(address)": {
        "notice": "Account"
      },
      "createCandidateE(address,uint256)": {
        "notice": "Governance"
      },
      "dollar()": {
        "notice": "Global"
      },
      "epoch()": {
        "notice": "Epoch"
      },
      "incrementBalanceOfE(address,uint256)": {
        "notice": "Account"
      },
      "incrementTotalBondedE(uint256)": {
        "notice": "Global"
      },
      "name()": {
        "notice": "ERC20 Interface"
      },
      "recordedVote(address,address)": {
        "notice": "Governance"
      },
      "setBlockTimestamp(uint256)": {
        "notice": "Mock"
      },
      "setEpochParamsE(uint256,uint256)": {
        "notice": "Epoch"
      },
      "transfer(address,uint256)": {
        "notice": "ERC20 Interface"
      }
    }
  }
}