{
  "contractName": "MockPoolState",
  "abi": [
    {
      "constant": true,
      "inputs": [
        {
          "internalType": "address",
          "name": "account",
          "type": "address"
        }
      ],
      "name": "balanceOfBonded",
      "outputs": [
        {
          "internalType": "uint256",
          "name": "",
          "type": "uint256"
        }
      ],
      "payable": false,
      "stateMutability": "view",
      "type": "function"
    },
    {
      "constant": true,
      "inputs": [
        {
          "internalType": "address",
          "name": "account",
          "type": "address"
        }
      ],
      "name": "balanceOfClaimable",
      "outputs": [
        {
          "internalType": "uint256",
          "name": "",
          "type": "uint256"
        }
      ],
      "payable": false,
      "stateMutability": "view",
      "type": "function"
    },
    {
      "constant": true,
      "inputs": [
        {
          "internalType": "address",
          "name": "account",
          "type": "address"
        }
      ],
      "name": "balanceOfPhantom",
      "outputs": [
        {
          "internalType": "uint256",
          "name": "",
          "type": "uint256"
        }
      ],
      "payable": false,
      "stateMutability": "view",
      "type": "function"
    },
    {
      "constant": true,
      "inputs": [
        {
          "internalType": "address",
          "name": "account",
          "type": "address"
        }
      ],
      "name": "balanceOfRewarded",
      "outputs": [
        {
          "internalType": "uint256",
          "name": "",
          "type": "uint256"
        }
      ],
      "payable": false,
      "stateMutability": "view",
      "type": "function"
    },
    {
      "constant": true,
      "inputs": [
        {
          "internalType": "address",
          "name": "account",
          "type": "address"
        }
      ],
      "name": "balanceOfStaged",
      "outputs": [
        {
          "internalType": "uint256",
          "name": "",
          "type": "uint256"
        }
      ],
      "payable": false,
      "stateMutability": "view",
      "type": "function"
    },
    {
      "constant": true,
      "inputs": [],
      "name": "paused",
      "outputs": [
        {
          "internalType": "bool",
          "name": "",
          "type": "bool"
        }
      ],
      "payable": false,
      "stateMutability": "view",
      "type": "function"
    },
    {
      "constant": true,
      "inputs": [
        {
          "internalType": "address",
          "name": "account",
          "type": "address"
        }
      ],
      "name": "statusOf",
      "outputs": [
        {
          "internalType": "enum PoolAccount.Status",
          "name": "",
          "type": "uint8"
        }
      ],
      "payable": false,
      "stateMutability": "view",
      "type": "function"
    },
    {
      "constant": true,
      "inputs": [],
      "name": "totalBonded",
      "outputs": [
        {
          "internalType": "uint256",
          "name": "",
          "type": "uint256"
        }
      ],
      "payable": false,
      "stateMutability": "view",
      "type": "function"
    },
    {
      "constant": true,
      "inputs": [],
      "name": "totalClaimable",
      "outputs": [
        {
          "internalType": "uint256",
          "name": "",
          "type": "uint256"
        }
      ],
      "payable": false,
      "stateMutability": "view",
      "type": "function"
    },
    {
      "constant": true,
      "inputs": [],
      "name": "totalPhantom",
      "outputs": [
        {
          "internalType": "uint256",
          "name": "",
          "type": "uint256"
        }
      ],
      "payable": false,
      "stateMutability": "view",
      "type": "function"
    },
    {
      "constant": true,
      "inputs": [],
      "name": "totalRewarded",
      "outputs": [
        {
          "internalType": "uint256",
          "name": "",
          "type": "uint256"
        }
      ],
      "payable": false,
      "stateMutability": "view",
      "type": "function"
    },
    {
      "constant": true,
      "inputs": [],
      "name": "totalStaged",
      "outputs": [
        {
          "internalType": "uint256",
          "name": "",
          "type": "uint256"
        }
      ],
      "payable": false,
      "stateMutability": "view",
      "type": "function"
    },
    {
      "constant": true,
      "inputs": [],
      "name": "univ2",
      "outputs": [
        {
          "internalType": "contract IERC20",
          "name": "",
          "type": "address"
        }
      ],
      "payable": false,
      "stateMutability": "view",
      "type": "function"
    },
    {
      "constant": true,
      "inputs": [],
      "name": "usdc",
      "outputs": [
        {
          "internalType": "address",
          "name": "",
          "type": "address"
        }
      ],
      "payable": false,
      "stateMutability": "view",
      "type": "function"
    },
    {
      "constant": false,
      "inputs": [
        {
          "internalType": "address",
          "name": "dao",
          "type": "address"
        },
        {
          "internalType": "address",
          "name": "dollar",
          "type": "address"
        }
      ],
      "name": "set",
      "outputs": [],
      "payable": false,
      "stateMutability": "nonpayable",
      "type": "function"
    },
    {
      "constant": true,
      "inputs": [],
      "name": "dao",
      "outputs": [
        {
          "internalType": "contract IDAO",
          "name": "",
          "type": "address"
        }
      ],
      "payable": false,
      "stateMutability": "view",
      "type": "function"
    },
    {
      "constant": true,
      "inputs": [],
      "name": "dollar",
      "outputs": [
        {
          "internalType": "contract IDollar",
          "name": "",
          "type": "address"
        }
      ],
      "payable": false,
      "stateMutability": "view",
      "type": "function"
    },
    {
      "constant": false,
      "inputs": [
        {
          "internalType": "address",
          "name": "account",
          "type": "address"
        },
        {
          "internalType": "uint256",
          "name": "amount",
          "type": "uint256"
        }
      ],
      "name": "incrementBalanceOfBondedE",
      "outputs": [],
      "payable": false,
      "stateMutability": "nonpayable",
      "type": "function"
    },
    {
      "constant": false,
      "inputs": [
        {
          "internalType": "address",
          "name": "account",
          "type": "address"
        },
        {
          "internalType": "uint256",
          "name": "amount",
          "type": "uint256"
        },
        {
          "internalType": "string",
          "name": "reason",
          "type": "string"
        }
      ],
      "name": "decrementBalanceOfBondedE",
      "outputs": [],
      "payable": false,
      "stateMutability": "nonpayable",
      "type": "function"
    },
    {
      "constant": false,
      "inputs": [
        {
          "internalType": "address",
          "name": "account",
          "type": "address"
        },
        {
          "internalType": "uint256",
          "name": "amount",
          "type": "uint256"
        }
      ],
      "name": "incrementBalanceOfStagedE",
      "outputs": [],
      "payable": false,
      "stateMutability": "nonpayable",
      "type": "function"
    },
    {
      "constant": false,
      "inputs": [
        {
          "internalType": "address",
          "name": "account",
          "type": "address"
        },
        {
          "internalType": "uint256",
          "name": "amount",
          "type": "uint256"
        },
        {
          "internalType": "string",
          "name": "reason",
          "type": "string"
        }
      ],
      "name": "decrementBalanceOfStagedE",
      "outputs": [],
      "payable": false,
      "stateMutability": "nonpayable",
      "type": "function"
    },
    {
      "constant": false,
      "inputs": [
        {
          "internalType": "address",
          "name": "account",
          "type": "address"
        },
        {
          "internalType": "uint256",
          "name": "amount",
          "type": "uint256"
        }
      ],
      "name": "incrementBalanceOfClaimableE",
      "outputs": [],
      "payable": false,
      "stateMutability": "nonpayable",
      "type": "function"
    },
    {
      "constant": false,
      "inputs": [
        {
          "internalType": "address",
          "name": "account",
          "type": "address"
        },
        {
          "internalType": "uint256",
          "name": "amount",
          "type": "uint256"
        },
        {
          "internalType": "string",
          "name": "reason",
          "type": "string"
        }
      ],
      "name": "decrementBalanceOfClaimableE",
      "outputs": [],
      "payable": false,
      "stateMutability": "nonpayable",
      "type": "function"
    },
    {
      "constant": false,
      "inputs": [
        {
          "internalType": "address",
          "name": "account",
          "type": "address"
        },
        {
          "internalType": "uint256",
          "name": "amount",
          "type": "uint256"
        }
      ],
      "name": "incrementBalanceOfPhantomE",
      "outputs": [],
      "payable": false,
      "stateMutability": "nonpayable",
      "type": "function"
    },
    {
      "constant": false,
      "inputs": [
        {
          "internalType": "address",
          "name": "account",
          "type": "address"
        },
        {
          "internalType": "uint256",
          "name": "amount",
          "type": "uint256"
        },
        {
          "internalType": "string",
          "name": "reason",
          "type": "string"
        }
      ],
      "name": "decrementBalanceOfPhantomE",
      "outputs": [],
      "payable": false,
      "stateMutability": "nonpayable",
      "type": "function"
    },
    {
      "constant": false,
      "inputs": [
        {
          "internalType": "address",
          "name": "account",
          "type": "address"
        }
      ],
      "name": "unfreezeE",
      "outputs": [],
      "payable": false,
      "stateMutability": "nonpayable",
      "type": "function"
    }
  ],
  "bytecode": "0x608060405234801561001057600080fd5b50611043806100206000396000f3fe608060405234801561001057600080fd5b506004361061018e5760003560e01c80635c975abb116100de5780639be4649311610097578063b32a2f9011610071578063b32a2f9014610329578063c0d7a94f1461033c578063cf0237791461034f578063e0cf7285146103575761018e565b80639be46493146102fb578063aed29d071461030e578063b11ee0e3146103165761018e565b80635c975abb146102855780637298d36e1461029a578063825ad607146102a257806386cf9f14146102b557806389675cac146102c857806397a5d5b5146102db5761018e565b8063400d56ac1161014b57806344d96e951161012557806344d96e951461025a5780634838ed191461026257806351adeb571461026a57806356a7d6ce146102725761018e565b8063400d56ac1461021f5780634162169f14610232578063447ca8b4146102475761018e565b80631667eb171461019357806326ff681a146101bc57806329f32ed4146101d15780633cdb7767146101e45780633d2286d3146101f75780633e413bee1461020a575b600080fd5b6101a66101a1366004610ce3565b61035f565b6040516101b39190610f49565b60405180910390f35b6101cf6101ca366004610d43565b610381565b005b6101a66101df366004610ce3565b61038f565b6101cf6101f2366004610d43565b6103ad565b6101cf610205366004610d73565b6103b7565b6102126103fe565b6040516101b39190610ee0565b6101cf61022d366004610d73565b61040d565b61023a61044e565b6040516101b39190610efc565b6101cf610255366004610d73565b61045d565b6101a661049e565b6101a66104a4565b61023a6104aa565b6101cf610280366004610d43565b6104b9565b61028d6104c3565b6040516101b39190610eee565b61023a6104cc565b6101a66102b0366004610ce3565b6104d6565b6101a66102c3366004610ce3565b6104f4565b6101cf6102d6366004610d09565b61050f565b6102ee6102e9366004610ce3565b61053d565b6040516101b39190610f0a565b6101cf610309366004610ce3565b610577565b6101a6610583565b6101cf610324366004610d43565b61061f565b6101cf610337366004610d73565b610629565b6101a661034a366004610ce3565b61066a565b6101a6610712565b6101a6610718565b6001600160a01b0381166000908152600560205260409020600101545b919050565b61038b828261071e565b5050565b6001600160a01b031660009081526005602052604090206003015490565b61038b8282610783565b6103f8848484848080601f0160208091040260200160405190810160405280939291908181526020018383808284376000920191909152506107e892505050565b50505050565b6000610408610850565b905090565b6103f8848484848080601f01602080910402602001604051908101604052809392919081815260200183838082843760009201919091525061086892505050565b6006546001600160a01b031690565b6103f8848484848080601f0160208091040260200160405190810160405280939291908181526020018383808284376000920191909152506108d092505050565b60025490565b60015490565b6007546001600160a01b031690565b61038b8282610938565b60045460ff1690565b600061040861099d565b6001600160a01b031660009081526005602052604090206002015490565b6001600160a01b031660009081526005602052604090205490565b600680546001600160a01b039384166001600160a01b03199182161790915560078054929093169116179055565b6001600160a01b0381166000908152600560205260408120600401546105616109b5565b101561056e576001610571565b60005b92915050565b61058081610a2f565b50565b60006104086105906104a4565b6105986104aa565b6001600160a01b03166370a08231306040518263ffffffff1660e01b81526004016105c39190610ee0565b60206040518083038186803b1580156105db57600080fd5b505afa1580156105ef573d6000803e3d6000fd5b505050506040513d601f19601f820116820180604052506106139190810190610ddb565b9063ffffffff610a6116565b61038b8282610aaa565b6103f8848484848080601f016020809104026020016040519081016040528093929190818152602001838380828437600092019190915250610b0792505050565b60008061067561049e565b90508061068657600091505061037c565b60006106a7610693610718565b61069b610583565b9063ffffffff610b6716565b905060006106d4836106c86106bb886104d6565b859063ffffffff610b9516565b9063ffffffff610bcf16565b905060006106e18661038f565b905080821115610706576106fb828263ffffffff610a6116565b94505050505061037c565b50600095945050505050565b60005490565b60035490565b6001600160a01b03821660009081526005602052604090206002015461074a908263ffffffff610b6716565b6001600160a01b03831660009081526005602052604090206002908101919091555461077c908263ffffffff610b6716565b6002555050565b6001600160a01b0382166000908152600560205260409020600101546107af908263ffffffff610b6716565b6001600160a01b0383166000908152600560205260409020600190810191909155546107e1908263ffffffff610b6716565b6001555050565b6001600160a01b03831660009081526005602052604090206003015461081590838363ffffffff610c1116565b6001600160a01b03841660009081526005602052604090206003908101919091555461084890838363ffffffff610c1116565b600355505050565b73a0b86991c6218b36c1d19d4a2e9eb0ce3606eb4890565b6001600160a01b03831660009081526005602052604090206002015461089590838363ffffffff610c1116565b6001600160a01b0384166000908152600560205260409020600290810191909155546108c890838363ffffffff610c1116565b600255505050565b6001600160a01b0383166000908152600560205260409020600101546108fd90838363ffffffff610c1116565b6001600160a01b03841660009081526005602052604090206001908101919091555461093090838363ffffffff610c1116565b600155505050565b6001600160a01b038216600090815260056020526040902060030154610964908263ffffffff610b6716565b6001600160a01b038316600090815260056020526040902060039081019190915554610996908263ffffffff610b6716565b6003555050565b7388ff79eb2bc5850f27315415da8685282c7610f990565b60006109bf61044e565b6001600160a01b031663900cf0cf6040518163ffffffff1660e01b815260040160206040518083038186803b1580156109f757600080fd5b505afa158015610a0b573d6000803e3d6000fd5b505050506040513d601f19601f820116820180604052506104089190810190610ddb565b610a42610a3a610c3d565b61069b6109b5565b6001600160a01b03909116600090815260056020526040902060040155565b6000610aa383836040518060400160405280601e81526020017f536166654d6174683a207375627472616374696f6e206f766572666c6f770000815250610c11565b9392505050565b6001600160a01b038216600090815260056020526040902054610ad3908263ffffffff610b6716565b6001600160a01b03831660009081526005602052604081209190915554610b00908263ffffffff610b6716565b6000555050565b6001600160a01b038316600090815260056020526040902054610b3190838363ffffffff610c1116565b6001600160a01b03841660009081526005602052604081209190915554610b5f90838363ffffffff610c1116565b600055505050565b600082820183811015610aa35760405162461bcd60e51b8152600401610b8c90610f29565b60405180910390fd5b600082610ba457506000610571565b82820282848281610bb157fe5b0414610aa35760405162461bcd60e51b8152600401610b8c90610f39565b6000610aa383836040518060400160405280601a81526020017f536166654d6174683a206469766973696f6e206279207a65726f000000000000815250610c42565b60008184841115610c355760405162461bcd60e51b8152600401610b8c9190610f18565b505050900390565b600590565b60008183610c635760405162461bcd60e51b8152600401610b8c9190610f18565b506000838581610c6f57fe5b0495945050505050565b803561057181610fe3565b60008083601f840112610c9657600080fd5b50813567ffffffffffffffff811115610cae57600080fd5b602083019150836001820283011115610cc657600080fd5b9250929050565b803561057181610ff7565b805161057181610ff7565b600060208284031215610cf557600080fd5b6000610d018484610c79565b949350505050565b60008060408385031215610d1c57600080fd5b6000610d288585610c79565b9250506020610d3985828601610c79565b9150509250929050565b60008060408385031215610d5657600080fd5b6000610d628585610c79565b9250506020610d3985828601610ccd565b60008060008060608587031215610d8957600080fd5b6000610d958787610c79565b9450506020610da687828801610ccd565b935050604085013567ffffffffffffffff811115610dc357600080fd5b610dcf87828801610c84565b95989497509550505050565b600060208284031215610ded57600080fd5b6000610d018484610cd8565b610e0281610f64565b82525050565b610e0281610f6f565b610e0281610f8d565b610e0281610f98565b6000610e2e82610f57565b610e388185610f5b565b9350610e48818560208601610fa3565b610e5181610fcf565b9093019392505050565b6000610e68601b83610f5b565b7f536166654d6174683a206164646974696f6e206f766572666c6f770000000000815260200192915050565b6000610ea1602183610f5b565b7f536166654d6174683a206d756c7469706c69636174696f6e206f766572666c6f8152607760f81b602082015260400192915050565b610e0281610f8a565b602081016105718284610df9565b602081016105718284610e08565b602081016105718284610e11565b602081016105718284610e1a565b60208082528101610aa38184610e23565b6020808252810161057181610e5b565b6020808252810161057181610e94565b602081016105718284610ed7565b5190565b90815260200190565b600061057182610f7e565b151590565b8061037c81610fd9565b6001600160a01b031690565b90565b600061057182610f64565b600061057182610f74565b60005b83811015610fbe578181015183820152602001610fa6565b838111156103f85750506000910152565b601f01601f191690565b6003811061058057fe5b610fec81610f64565b811461058057600080fd5b610fec81610f8a56fea365627a7a723158205784d5b7819271a373540191ada82cf81d914d8d0233624aa5e1189c2b8a911e6c6578706572696d656e74616cf564736f6c63430005110040",
  "source": "/*\n    Copyright 2020 Empty Set Squad <emptysetsquad@protonmail.com>\n\n    Licensed under the Apache License, Version 2.0 (the \"License\");\n    you may not use this file except in compliance with the License.\n    You may obtain a copy of the License at\n\n    http://www.apache.org/licenses/LICENSE-2.0\n\n    Unless required by applicable law or agreed to in writing, software\n    distributed under the License is distributed on an \"AS IS\" BASIS,\n    WITHOUT WARRANTIES OR CONDITIONS OF ANY KIND, either express or implied.\n    See the License for the specific language governing permissions and\n    limitations under the License.\n*/\n\npragma solidity ^0.5.17;\npragma experimental ABIEncoderV2;\n\nimport \"../oracle/PoolSetters.sol\";\n\ncontract MockPoolState is PoolSetters {\n    address private _dao;\n    address private _dollar;\n\n    function set(address dao, address dollar) external {\n        _dao = dao;\n        _dollar = dollar;\n    }\n\n    function dao() public view returns (IDAO) {\n        return IDAO(_dao);\n    }\n\n    function dollar() public view returns (IDollar) {\n        return IDollar(_dollar);\n    }\n\n    /**\n     * Account\n     */\n\n    function incrementBalanceOfBondedE(address account, uint256 amount) external {\n        super.incrementBalanceOfBonded(account, amount);\n    }\n\n    function decrementBalanceOfBondedE(address account, uint256 amount, string calldata reason) external {\n        super.decrementBalanceOfBonded(account, amount, reason);\n    }\n\n    function incrementBalanceOfStagedE(address account, uint256 amount) external {\n        super.incrementBalanceOfStaged(account, amount);\n    }\n\n    function decrementBalanceOfStagedE(address account, uint256 amount, string calldata reason) external {\n        super.decrementBalanceOfStaged(account, amount, reason);\n    }\n\n    function incrementBalanceOfClaimableE(address account, uint256 amount) external {\n        super.incrementBalanceOfClaimable(account, amount);\n    }\n\n    function decrementBalanceOfClaimableE(address account, uint256 amount, string calldata reason) external {\n        super.decrementBalanceOfClaimable(account, amount, reason);\n    }\n\n    function incrementBalanceOfPhantomE(address account, uint256 amount) external {\n        super.incrementBalanceOfPhantom(account, amount);\n    }\n\n    function decrementBalanceOfPhantomE(address account, uint256 amount, string calldata reason) external {\n        super.decrementBalanceOfPhantom(account, amount, reason);\n    }\n\n    function unfreezeE(address account) external {\n        super.unfreeze(account);\n    }\n}\n",
  "sourcePath": "/Users/sachin/code/dollar/protocol/contracts/mock/MockPoolState.sol",
  "compiler": {
    "name": "solc",
    "version": "0.5.17+commit.d19bba13.Emscripten.clang"
  },
  "schemaVersion": "3.3.3",
  "updatedAt": "2021-01-01T13:40:49.129Z",
  "devdoc": {
    "methods": {}
  },
  "userdoc": {
    "methods": {
      "balanceOfStaged(address)": {
        "notice": "Account"
      },
      "incrementBalanceOfBondedE(address,uint256)": {
        "notice": "Account"
      },
      "usdc()": {
        "notice": "Global"
      }
    }
  }
}