{
  "contractName": "Regulator",
  "abi": [
    {
      "anonymous": false,
      "inputs": [
        {
          "indexed": true,
          "internalType": "uint256",
          "name": "epoch",
          "type": "uint256"
        },
        {
          "indexed": false,
          "internalType": "uint256",
          "name": "price",
          "type": "uint256"
        },
        {
          "indexed": false,
          "internalType": "uint256",
          "name": "newDebt",
          "type": "uint256"
        }
      ],
      "name": "SupplyDecrease",
      "type": "event"
    },
    {
      "anonymous": false,
      "inputs": [
        {
          "indexed": true,
          "internalType": "uint256",
          "name": "epoch",
          "type": "uint256"
        },
        {
          "indexed": false,
          "internalType": "uint256",
          "name": "price",
          "type": "uint256"
        },
        {
          "indexed": false,
          "internalType": "uint256",
          "name": "newRedeemable",
          "type": "uint256"
        },
        {
          "indexed": false,
          "internalType": "uint256",
          "name": "lessDebt",
          "type": "uint256"
        },
        {
          "indexed": false,
          "internalType": "uint256",
          "name": "newBonded",
          "type": "uint256"
        }
      ],
      "name": "SupplyIncrease",
      "type": "event"
    },
    {
      "anonymous": false,
      "inputs": [
        {
          "indexed": true,
          "internalType": "uint256",
          "name": "epoch",
          "type": "uint256"
        }
      ],
      "name": "SupplyNeutral",
      "type": "event"
    },
    {
      "anonymous": false,
      "inputs": [
        {
          "indexed": true,
          "internalType": "address",
          "name": "from",
          "type": "address"
        },
        {
          "indexed": true,
          "internalType": "address",
          "name": "to",
          "type": "address"
        },
        {
          "indexed": false,
          "internalType": "uint256",
          "name": "value",
          "type": "uint256"
        }
      ],
      "name": "Transfer",
      "type": "event"
    },
    {
      "constant": true,
      "inputs": [
        {
          "internalType": "address",
          "name": "owner",
          "type": "address"
        },
        {
          "internalType": "address",
          "name": "spender",
          "type": "address"
        }
      ],
      "name": "allowance",
      "outputs": [
        {
          "internalType": "uint256",
          "name": "",
          "type": "uint256"
        }
      ],
      "payable": false,
      "stateMutability": "view",
      "type": "function"
    },
    {
      "constant": true,
      "inputs": [
        {
          "internalType": "address",
          "name": "owner",
          "type": "address"
        },
        {
          "internalType": "address",
          "name": "spender",
          "type": "address"
        }
      ],
      "name": "allowanceCoupons",
      "outputs": [
        {
          "internalType": "uint256",
          "name": "",
          "type": "uint256"
        }
      ],
      "payable": false,
      "stateMutability": "view",
      "type": "function"
    },
    {
      "constant": false,
      "inputs": [
        {
          "internalType": "address",
          "name": "spender",
          "type": "address"
        },
        {
          "internalType": "uint256",
          "name": "amount",
          "type": "uint256"
        }
      ],
      "name": "approve",
      "outputs": [
        {
          "internalType": "bool",
          "name": "",
          "type": "bool"
        }
      ],
      "payable": false,
      "stateMutability": "nonpayable",
      "type": "function"
    },
    {
      "constant": true,
      "inputs": [
        {
          "internalType": "address",
          "name": "candidate",
          "type": "address"
        }
      ],
      "name": "approveFor",
      "outputs": [
        {
          "internalType": "uint256",
          "name": "",
          "type": "uint256"
        }
      ],
      "payable": false,
      "stateMutability": "view",
      "type": "function"
    },
    {
      "constant": true,
      "inputs": [
        {
          "internalType": "address",
          "name": "account",
          "type": "address"
        }
      ],
      "name": "balanceOf",
      "outputs": [
        {
          "internalType": "uint256",
          "name": "",
          "type": "uint256"
        }
      ],
      "payable": false,
      "stateMutability": "view",
      "type": "function"
    },
    {
      "constant": true,
      "inputs": [
        {
          "internalType": "address",
          "name": "account",
          "type": "address"
        }
      ],
      "name": "balanceOfBonded",
      "outputs": [
        {
          "internalType": "uint256",
          "name": "",
          "type": "uint256"
        }
      ],
      "payable": false,
      "stateMutability": "view",
      "type": "function"
    },
    {
      "constant": true,
      "inputs": [
        {
          "internalType": "address",
          "name": "account",
          "type": "address"
        },
        {
          "internalType": "uint256",
          "name": "epoch",
          "type": "uint256"
        }
      ],
      "name": "balanceOfCoupons",
      "outputs": [
        {
          "internalType": "uint256",
          "name": "",
          "type": "uint256"
        }
      ],
      "payable": false,
      "stateMutability": "view",
      "type": "function"
    },
    {
      "constant": true,
      "inputs": [
        {
          "internalType": "address",
          "name": "account",
          "type": "address"
        }
      ],
      "name": "balanceOfStaged",
      "outputs": [
        {
          "internalType": "uint256",
          "name": "",
          "type": "uint256"
        }
      ],
      "payable": false,
      "stateMutability": "view",
      "type": "function"
    },
    {
      "constant": true,
      "inputs": [
        {
          "internalType": "uint256",
          "name": "epoch",
          "type": "uint256"
        }
      ],
      "name": "bootstrappingAt",
      "outputs": [
        {
          "internalType": "bool",
          "name": "",
          "type": "bool"
        }
      ],
      "payable": false,
      "stateMutability": "view",
      "type": "function"
    },
    {
      "constant": true,
      "inputs": [
        {
          "internalType": "uint256",
          "name": "epoch",
          "type": "uint256"
        }
      ],
      "name": "couponsExpiration",
      "outputs": [
        {
          "internalType": "uint256",
          "name": "",
          "type": "uint256"
        }
      ],
      "payable": false,
      "stateMutability": "view",
      "type": "function"
    },
    {
      "constant": true,
      "inputs": [],
      "name": "decimals",
      "outputs": [
        {
          "internalType": "uint8",
          "name": "",
          "type": "uint8"
        }
      ],
      "payable": false,
      "stateMutability": "view",
      "type": "function"
    },
    {
      "constant": true,
      "inputs": [],
      "name": "dollar",
      "outputs": [
        {
          "internalType": "contract IDollar",
          "name": "",
          "type": "address"
        }
      ],
      "payable": false,
      "stateMutability": "view",
      "type": "function"
    },
    {
      "constant": true,
      "inputs": [],
      "name": "epoch",
      "outputs": [
        {
          "internalType": "uint256",
          "name": "",
          "type": "uint256"
        }
      ],
      "payable": false,
      "stateMutability": "view",
      "type": "function"
    },
    {
      "constant": true,
      "inputs": [],
      "name": "epochTime",
      "outputs": [
        {
          "internalType": "uint256",
          "name": "",
          "type": "uint256"
        }
      ],
      "payable": false,
      "stateMutability": "view",
      "type": "function"
    },
    {
      "constant": true,
      "inputs": [
        {
          "internalType": "uint256",
          "name": "epoch",
          "type": "uint256"
        }
      ],
      "name": "expiringCoupons",
      "outputs": [
        {
          "internalType": "uint256",
          "name": "",
          "type": "uint256"
        }
      ],
      "payable": false,
      "stateMutability": "view",
      "type": "function"
    },
    {
      "constant": true,
      "inputs": [
        {
          "internalType": "uint256",
          "name": "epoch",
          "type": "uint256"
        },
        {
          "internalType": "uint256",
          "name": "i",
          "type": "uint256"
        }
      ],
      "name": "expiringCouponsAtIndex",
      "outputs": [
        {
          "internalType": "uint256",
          "name": "",
          "type": "uint256"
        }
      ],
      "payable": false,
      "stateMutability": "view",
      "type": "function"
    },
    {
      "constant": true,
      "inputs": [
        {
          "internalType": "address",
          "name": "account",
          "type": "address"
        }
      ],
      "name": "fluidUntil",
      "outputs": [
        {
          "internalType": "uint256",
          "name": "",
          "type": "uint256"
        }
      ],
      "payable": false,
      "stateMutability": "view",
      "type": "function"
    },
    {
      "constant": true,
      "inputs": [],
      "name": "implementation",
      "outputs": [
        {
          "internalType": "address",
          "name": "impl",
          "type": "address"
        }
      ],
      "payable": false,
      "stateMutability": "view",
      "type": "function"
    },
    {
      "constant": true,
      "inputs": [
        {
          "internalType": "address",
          "name": "candidate",
          "type": "address"
        }
      ],
      "name": "isInitialized",
      "outputs": [
        {
          "internalType": "bool",
          "name": "",
          "type": "bool"
        }
      ],
      "payable": false,
      "stateMutability": "view",
      "type": "function"
    },
    {
      "constant": true,
      "inputs": [
        {
          "internalType": "address",
          "name": "candidate",
          "type": "address"
        }
      ],
      "name": "isNominated",
      "outputs": [
        {
          "internalType": "bool",
          "name": "",
          "type": "bool"
        }
      ],
      "payable": false,
      "stateMutability": "view",
      "type": "function"
    },
    {
      "constant": true,
      "inputs": [
        {
          "internalType": "address",
          "name": "account",
          "type": "address"
        }
      ],
      "name": "lockedUntil",
      "outputs": [
        {
          "internalType": "uint256",
          "name": "",
          "type": "uint256"
        }
      ],
      "payable": false,
      "stateMutability": "view",
      "type": "function"
    },
    {
      "constant": true,
      "inputs": [],
      "name": "name",
      "outputs": [
        {
          "internalType": "string",
          "name": "",
          "type": "string"
        }
      ],
      "payable": false,
      "stateMutability": "view",
      "type": "function"
    },
    {
      "constant": true,
      "inputs": [],
      "name": "oracle",
      "outputs": [
        {
          "internalType": "contract IOracle",
          "name": "",
          "type": "address"
        }
      ],
      "payable": false,
      "stateMutability": "view",
      "type": "function"
    },
    {
      "constant": true,
      "inputs": [
        {
          "internalType": "uint256",
          "name": "epoch",
          "type": "uint256"
        }
      ],
      "name": "outstandingCoupons",
      "outputs": [
        {
          "internalType": "uint256",
          "name": "",
          "type": "uint256"
        }
      ],
      "payable": false,
      "stateMutability": "view",
      "type": "function"
    },
    {
      "constant": true,
      "inputs": [
        {
          "internalType": "address",
          "name": "candidate",
          "type": "address"
        }
      ],
      "name": "periodFor",
      "outputs": [
        {
          "internalType": "uint256",
          "name": "",
          "type": "uint256"
        }
      ],
      "payable": false,
      "stateMutability": "view",
      "type": "function"
    },
    {
      "constant": true,
      "inputs": [],
      "name": "pool",
      "outputs": [
        {
          "internalType": "address",
          "name": "",
          "type": "address"
        }
      ],
      "payable": false,
      "stateMutability": "view",
      "type": "function"
    },
    {
      "constant": true,
      "inputs": [
        {
          "internalType": "address",
          "name": "account",
          "type": "address"
        },
        {
          "internalType": "address",
          "name": "candidate",
          "type": "address"
        }
      ],
      "name": "recordedVote",
      "outputs": [
        {
          "internalType": "enum Candidate.Vote",
          "name": "",
          "type": "uint8"
        }
      ],
      "payable": false,
      "stateMutability": "view",
      "type": "function"
    },
    {
      "constant": true,
      "inputs": [
        {
          "internalType": "address",
          "name": "candidate",
          "type": "address"
        }
      ],
      "name": "rejectFor",
      "outputs": [
        {
          "internalType": "uint256",
          "name": "",
          "type": "uint256"
        }
      ],
      "payable": false,
      "stateMutability": "view",
      "type": "function"
    },
    {
      "constant": true,
      "inputs": [
        {
          "internalType": "address",
          "name": "candidate",
          "type": "address"
        }
      ],
      "name": "startFor",
      "outputs": [
        {
          "internalType": "uint256",
          "name": "",
          "type": "uint256"
        }
      ],
      "payable": false,
      "stateMutability": "view",
      "type": "function"
    },
    {
      "constant": true,
      "inputs": [
        {
          "internalType": "address",
          "name": "account",
          "type": "address"
        }
      ],
      "name": "statusOf",
      "outputs": [
        {
          "internalType": "enum Account.Status",
          "name": "",
          "type": "uint8"
        }
      ],
      "payable": false,
      "stateMutability": "view",
      "type": "function"
    },
    {
      "constant": true,
      "inputs": [],
      "name": "symbol",
      "outputs": [
        {
          "internalType": "string",
          "name": "",
          "type": "string"
        }
      ],
      "payable": false,
      "stateMutability": "view",
      "type": "function"
    },
    {
      "constant": true,
      "inputs": [],
      "name": "totalBonded",
      "outputs": [
        {
          "internalType": "uint256",
          "name": "",
          "type": "uint256"
        }
      ],
      "payable": false,
      "stateMutability": "view",
      "type": "function"
    },
    {
      "constant": true,
      "inputs": [
        {
          "internalType": "uint256",
          "name": "epoch",
          "type": "uint256"
        }
      ],
      "name": "totalBondedAt",
      "outputs": [
        {
          "internalType": "uint256",
          "name": "",
          "type": "uint256"
        }
      ],
      "payable": false,
      "stateMutability": "view",
      "type": "function"
    },
    {
      "constant": true,
      "inputs": [],
      "name": "totalCoupons",
      "outputs": [
        {
          "internalType": "uint256",
          "name": "",
          "type": "uint256"
        }
      ],
      "payable": false,
      "stateMutability": "view",
      "type": "function"
    },
    {
      "constant": true,
      "inputs": [],
      "name": "totalDebt",
      "outputs": [
        {
          "internalType": "uint256",
          "name": "",
          "type": "uint256"
        }
      ],
      "payable": false,
      "stateMutability": "view",
      "type": "function"
    },
    {
      "constant": true,
      "inputs": [],
      "name": "totalNet",
      "outputs": [
        {
          "internalType": "uint256",
          "name": "",
          "type": "uint256"
        }
      ],
      "payable": false,
      "stateMutability": "view",
      "type": "function"
    },
    {
      "constant": true,
      "inputs": [],
      "name": "totalRedeemable",
      "outputs": [
        {
          "internalType": "uint256",
          "name": "",
          "type": "uint256"
        }
      ],
      "payable": false,
      "stateMutability": "view",
      "type": "function"
    },
    {
      "constant": true,
      "inputs": [],
      "name": "totalStaged",
      "outputs": [
        {
          "internalType": "uint256",
          "name": "",
          "type": "uint256"
        }
      ],
      "payable": false,
      "stateMutability": "view",
      "type": "function"
    },
    {
      "constant": true,
      "inputs": [],
      "name": "totalSupply",
      "outputs": [
        {
          "internalType": "uint256",
          "name": "",
          "type": "uint256"
        }
      ],
      "payable": false,
      "stateMutability": "view",
      "type": "function"
    },
    {
      "constant": false,
      "inputs": [
        {
          "internalType": "address",
          "name": "recipient",
          "type": "address"
        },
        {
          "internalType": "uint256",
          "name": "amount",
          "type": "uint256"
        }
      ],
      "name": "transfer",
      "outputs": [
        {
          "internalType": "bool",
          "name": "",
          "type": "bool"
        }
      ],
      "payable": false,
      "stateMutability": "nonpayable",
      "type": "function"
    },
    {
      "constant": false,
      "inputs": [
        {
          "internalType": "address",
          "name": "sender",
          "type": "address"
        },
        {
          "internalType": "address",
          "name": "recipient",
          "type": "address"
        },
        {
          "internalType": "uint256",
          "name": "amount",
          "type": "uint256"
        }
      ],
      "name": "transferFrom",
      "outputs": [
        {
          "internalType": "bool",
          "name": "",
          "type": "bool"
        }
      ],
      "payable": false,
      "stateMutability": "nonpayable",
      "type": "function"
    },
    {
      "constant": true,
      "inputs": [
        {
          "internalType": "address",
          "name": "candidate",
          "type": "address"
        }
      ],
      "name": "votesFor",
      "outputs": [
        {
          "internalType": "uint256",
          "name": "",
          "type": "uint256"
        }
      ],
      "payable": false,
      "stateMutability": "view",
      "type": "function"
    }
  ],
  "bytecode": "0x608060405234801561001057600080fd5b50610feb806100206000396000f3fe608060405234801561001057600080fd5b506004361061025e5760003560e01c806375d5024b11610146578063a50cd8e7116100c3578063cf02377911610087578063cf023779146104c6578063d60b347f146104ce578063dd62ed3e146104e1578063f1b7cf49146104ef578063fc7b9c1814610502578063ffbe3b731461050a5761025e565b8063a50cd8e714610485578063a6c409f114610498578063a9059cbb14610281578063bc7513e2146104a0578063c9aff70c146104b35761025e565b806395d89b411161010a57806395d89b411461043c57806397a5d5b5146104445780639a649edc146104575780639bc289f11461045f5780639f6e1b26146104725761025e565b806375d5024b146103f35780637dc0d1d014610406578063825ad6071461040e57806386cf9f1414610421578063900cf0cf146104345761025e565b80633a3e6c81116101df57806351adeb57116101a357806351adeb571461038a57806351bf21d81461039f5780635c60da1b146103b257806364668022146103ba5780636a39e328146103cd57806370a08231146103e05761025e565b80633a3e6c81146103345780633fbba9a61461034757806344d96e95146103675780634c7360991461036f5780635053e461146103825761025e565b806318160ddd1161022657806318160ddd146102e95780631edbcf6c146102f157806323b872dd146102f9578063313ce5671461030c578063353a420c146103215761025e565b806306fdde0314610263578063095ea7b31461028157806310e95b6c146102a157806315e14bf6146102c157806316f0115b146102d4575b600080fd5b61026b61051d565b6040516102789190610ea5565b60405180910390f35b61029461028f366004610cf2565b61054d565b6040516102789190610e7b565b6102b46102af366004610d22565b610556565b6040516102789190610ed6565b6102b46102cf366004610c45565b61056e565b6102dc61058c565b6040516102789190610e6d565b6102b461059b565b6102b46105a1565b610294610307366004610ca5565b6105a7565b6103146105b0565b6040516102789190610ee4565b6102b461032f366004610c45565b6105b5565b610294610342366004610c45565b6105d3565b61035a610355366004610c6b565b6105f0565b6040516102789190610e97565b6102b4610623565b6102b461037d366004610d5e565b610629565b6102b4610659565b6103926106af565b6040516102789190610e89565b6102b46103ad366004610c45565b6106be565b6102dc6106dc565b6102b46103c8366004610c45565b610701565b6102b46103db366004610d22565b61071f565b6102b46103ee366004610c45565b610734565b610294610401366004610d22565b610752565b610392610765565b6102b461041c366004610c45565b610774565b6102b461042f366004610c45565b6107c7565b6102b46107e2565b61026b6107e8565b61035a610452366004610c45565b610806565b6102b461086b565b6102b461046d366004610c45565b610871565b6102b4610480366004610c6b565b61088f565b6102b4610493366004610c45565b6108be565b6102b46108e1565b6102b46104ae366004610cf2565b610977565b6102b46104c1366004610d22565b6109bb565b6102b46109d0565b6102946104dc366004610c45565b6109d6565b6102b461028f366004610c6b565b6102b46104fd366004610c45565b6109f7565b6102b4610a12565b6102b4610518366004610d22565b610a18565b604080518082019091526016815275456d7074792053657420446f6c6c6172205374616b6560501b602082015290565b60005b92915050565b6000818152600d60205260409020600201545b919050565b6001600160a01b03166000908152600e602052604090206001015490565b600b546001600160a01b031690565b60035490565b60065490565b60009392505050565b601290565b6001600160a01b03166000908152600e602052604090206003015490565b6001600160a01b03166000908152600e6020526040902054151590565b6001600160a01b038082166000908152600e60209081526040808320938616835260049093019052205460ff1692915050565b60045490565b6000828152600d6020526040812060030180548390811061064657fe5b9060005260206000200154905092915050565b6000610663610c03565b61066b610a2a565b9050610675610c03565b61067d610a59565b9050816020015161068c610a89565b1061069f5761069a82610a8d565b6106a8565b6106a881610a8d565b9250505090565b6009546001600160a01b031690565b6001600160a01b03166000908152600c602052604090206004015490565b7f360894a13ba1a3210667c828492db98dca3e2076cc3735a920a3ca505d382bbc5490565b6001600160a01b03166000908152600e602052604090206002015490565b6000908152600d602052604090206003015490565b6001600160a01b03166000908152600c602052604090206001015490565b600061075c610aaf565b90911115919050565b600a546001600160a01b031690565b60008061077f61059b565b905080610790576000915050610569565b6107c0816107b46107a086610734565b6107a8610623565b9063ffffffff610ab416565b9063ffffffff610af716565b9392505050565b6001600160a01b03166000908152600c602052604090205490565b60025490565b6040805180820190915260048152634553445360e01b602082015290565b60006108106107e2565b6001600160a01b0383166000908152600c6020526040902060050154111561083a57506002610569565b6001600160a01b0382166000908152600c602052604090206004015461085e6107e2565b101561054d576001610550565b60085490565b6001600160a01b03166000908152600c602052604090206005015490565b6001600160a01b039182166000908152600c602090815260408083209390941682526003909201909152205490565b60006105506108cc836105b5565b6108d584610701565b9063ffffffff610b3916565b60006109726108ee610a12565b6108f66106af565b6001600160a01b03166318160ddd6040518163ffffffff1660e01b815260040160206040518083038186803b15801561092e57600080fd5b505afa158015610942573d6000803e3d6000fd5b505050506040513d601f19601f820116820180604052506109669190810190610d40565b9063ffffffff610b5e16565b905090565b6000610982826109bb565b61098e57506000610550565b506001600160a01b03919091166000908152600c6020908152604080832093835260029093019052205490565b6000908152600d602052604090206001015490565b60055490565b6001600160a01b03166000908152600e602052604090206005015460ff1690565b6001600160a01b03166000908152600e602052604090205490565b60075490565b6000908152600d602052604090205490565b610a32610c03565b6040518060600160405280606a8152602001635f7fa8008152602001617080815250905090565b610a61610c03565b6040518060600160405280605b8152602001635f6be180815260200162015180815250905090565b4290565b600061055082600001516108d584604001516107b48660200151610966610a89565b605a90565b600082610ac357506000610550565b82820282848281610ad057fe5b04146107c05760405162461bcd60e51b8152600401610aee90610ec6565b60405180910390fd5b60006107c083836040518060400160405280601a81526020017f536166654d6174683a206469766973696f6e206279207a65726f000000000000815250610ba0565b6000828201838110156107c05760405162461bcd60e51b8152600401610aee90610eb6565b60006107c083836040518060400160405280601e81526020017f536166654d6174683a207375627472616374696f6e206f766572666c6f770000815250610bd7565b60008183610bc15760405162461bcd60e51b8152600401610aee9190610ea5565b506000838581610bcd57fe5b0495945050505050565b60008184841115610bfb5760405162461bcd60e51b8152600401610aee9190610ea5565b505050900390565b60405180606001604052806000815260200160008152602001600081525090565b803561055081610f8b565b803561055081610f9f565b805161055081610f9f565b600060208284031215610c5757600080fd5b6000610c638484610c24565b949350505050565b60008060408385031215610c7e57600080fd5b6000610c8a8585610c24565b9250506020610c9b85828601610c24565b9150509250929050565b600080600060608486031215610cba57600080fd5b6000610cc68686610c24565b9350506020610cd786828701610c24565b9250506040610ce886828701610c2f565b9150509250925092565b60008060408385031215610d0557600080fd5b6000610d118585610c24565b9250506020610c9b85828601610c2f565b600060208284031215610d3457600080fd5b6000610c638484610c2f565b600060208284031215610d5257600080fd5b6000610c638484610c3a565b60008060408385031215610d7157600080fd5b6000610d118585610c2f565b610d8681610eff565b82525050565b610d8681610f0a565b610d8681610f2e565b610d8681610f39565b6000610db282610ef2565b610dbc8185610ef6565b9350610dcc818560208601610f44565b610dd581610f74565b9093019392505050565b6000610dec601b83610ef6565b7f536166654d6174683a206164646974696f6e206f766572666c6f770000000000815260200192915050565b6000610e25602183610ef6565b7f536166654d6174683a206d756c7469706c69636174696f6e206f766572666c6f8152607760f81b602082015260400192915050565b610d8681610f25565b610d8681610f28565b602081016105508284610d7d565b602081016105508284610d8c565b602081016105508284610d95565b602081016105508284610d9e565b602080825281016107c08184610da7565b6020808252810161055081610ddf565b6020808252810161055081610e18565b602081016105508284610e5b565b602081016105508284610e64565b5190565b90815260200190565b600061055082610f19565b151590565b8061056981610f7e565b6001600160a01b031690565b90565b60ff1690565b600061055082610eff565b600061055082610f0f565b60005b83811015610f5f578181015183820152602001610f47565b83811115610f6e576000848401525b50505050565b601f01601f191690565b60038110610f8857fe5b50565b610f9481610eff565b8114610f8857600080fd5b610f9481610f2556fea365627a7a723158203e2bb256534b122b65dc5e46a96ace15a49d46194e82f3dbf672610874ddd64c6c6578706572696d656e74616cf564736f6c63430005110040",
  "source": "/*\n    Copyright 2020 Empty Set Squad <emptysetsquad@protonmail.com>\n\n    Licensed under the Apache License, Version 2.0 (the \"License\");\n    you may not use this file except in compliance with the License.\n    You may obtain a copy of the License at\n\n    http://www.apache.org/licenses/LICENSE-2.0\n\n    Unless required by applicable law or agreed to in writing, software\n    distributed under the License is distributed on an \"AS IS\" BASIS,\n    WITHOUT WARRANTIES OR CONDITIONS OF ANY KIND, either express or implied.\n    See the License for the specific language governing permissions and\n    limitations under the License.\n*/\n\npragma solidity ^0.5.17;\npragma experimental ABIEncoderV2;\n\nimport \"@openzeppelin/contracts/math/SafeMath.sol\";\nimport \"./Comptroller.sol\";\nimport \"../external/Decimal.sol\";\nimport \"../Constants.sol\";\n\ncontract Regulator is Comptroller {\n    using SafeMath for uint256;\n    using Decimal for Decimal.D256;\n\n    event SupplyIncrease(uint256 indexed epoch, uint256 price, uint256 newRedeemable, uint256 lessDebt, uint256 newBonded);\n    event SupplyDecrease(uint256 indexed epoch, uint256 price, uint256 newDebt);\n    event SupplyNeutral(uint256 indexed epoch);\n\n    function step() internal {\n        Decimal.D256 memory price = oracleCapture();\n\n        if (price.greaterThan(Decimal.one())) {\n            growSupply(price);\n            return;\n        }\n\n        if (price.lessThan(Decimal.one())) {\n            shrinkSupply(price);\n            return;\n        }\n\n        emit SupplyNeutral(epoch());\n    }\n\n    function shrinkSupply(Decimal.D256 memory price) private {\n        Decimal.D256 memory delta = limit(Decimal.one().sub(price), price);\n        uint256 newDebt = delta.mul(totalNet()).asUint256();\n        uint256 cappedNewDebt = increaseDebt(newDebt);\n\n        emit SupplyDecrease(epoch(), price.value, cappedNewDebt);\n        return;\n    }\n\n    function growSupply(Decimal.D256 memory price) private {\n        uint256 lessDebt = resetDebt(Decimal.zero());\n\n        Decimal.D256 memory delta = limit(price.sub(Decimal.one()), price);\n        uint256 newSupply = delta.mul(totalNet()).asUint256();\n        (uint256 newRedeemable, uint256 newBonded) = increaseSupply(newSupply);\n        emit SupplyIncrease(epoch(), price.value, newRedeemable, lessDebt, newBonded);\n    }\n\n    function limit(Decimal.D256 memory delta, Decimal.D256 memory price) private view returns (Decimal.D256 memory) {\n\n        Decimal.D256 memory supplyChangeLimit = Constants.getSupplyChangeLimit();\n        \n        uint256 totalRedeemable = totalRedeemable();\n        uint256 totalCoupons = totalCoupons();\n        if (price.greaterThan(Decimal.one()) && (totalRedeemable < totalCoupons)) {\n            supplyChangeLimit = Constants.getCouponSupplyChangeLimit();\n        }\n\n        return delta.greaterThan(supplyChangeLimit) ? supplyChangeLimit : delta;\n\n    }\n\n    function oracleCapture() private returns (Decimal.D256 memory) {\n        (Decimal.D256 memory price, bool valid) = oracle().capture();\n\n        if (bootstrappingAt(epoch().sub(1))) {\n            return Constants.getBootstrappingPrice();\n        }\n        if (!valid) {\n            return Decimal.one();\n        }\n\n        return price;\n    }\n}\n",
  "sourcePath": "/Users/sachin/code/dollar/protocol/contracts/dao/Regulator.sol",
  "compiler": {
    "name": "solc",
    "version": "0.5.17+commit.d19bba13.Emscripten.clang"
  },
  "schemaVersion": "3.3.3",
  "updatedAt": "2021-01-01T13:40:49.078Z",
  "devdoc": {
    "methods": {}
  },
  "userdoc": {
    "methods": {
      "balanceOfStaged(address)": {
        "notice": "Account"
      },
      "dollar()": {
        "notice": "Global"
      },
      "epoch()": {
        "notice": "Epoch"
      },
      "name()": {
        "notice": "ERC20 Interface"
      },
      "recordedVote(address,address)": {
        "notice": "Governance"
      },
      "transfer(address,uint256)": {
        "notice": "ERC20 Interface"
      }
    }
  }
}