{
  "contractName": "Implementation",
  "abi": [
    {
      "anonymous": false,
      "inputs": [
        {
          "indexed": true,
          "internalType": "uint256",
          "name": "epoch",
          "type": "uint256"
        },
        {
          "indexed": false,
          "internalType": "uint256",
          "name": "block",
          "type": "uint256"
        },
        {
          "indexed": false,
          "internalType": "uint256",
          "name": "timestamp",
          "type": "uint256"
        }
      ],
      "name": "Advance",
      "type": "event"
    },
    {
      "anonymous": false,
      "inputs": [
        {
          "indexed": true,
          "internalType": "address",
          "name": "account",
          "type": "address"
        },
        {
          "indexed": false,
          "internalType": "uint256",
          "name": "start",
          "type": "uint256"
        },
        {
          "indexed": false,
          "internalType": "uint256",
          "name": "value",
          "type": "uint256"
        },
        {
          "indexed": false,
          "internalType": "uint256",
          "name": "valueUnderlying",
          "type": "uint256"
        }
      ],
      "name": "Bond",
      "type": "event"
    },
    {
      "anonymous": false,
      "inputs": [
        {
          "indexed": true,
          "internalType": "address",
          "name": "account",
          "type": "address"
        },
        {
          "indexed": true,
          "internalType": "address",
          "name": "candidate",
          "type": "address"
        }
      ],
      "name": "Commit",
      "type": "event"
    },
    {
      "anonymous": false,
      "inputs": [
        {
          "indexed": true,
          "internalType": "address",
          "name": "owner",
          "type": "address"
        },
        {
          "indexed": true,
          "internalType": "address",
          "name": "spender",
          "type": "address"
        },
        {
          "indexed": false,
          "internalType": "uint256",
          "name": "value",
          "type": "uint256"
        }
      ],
      "name": "CouponApproval",
      "type": "event"
    },
    {
      "anonymous": false,
      "inputs": [
        {
          "indexed": true,
          "internalType": "uint256",
          "name": "epoch",
          "type": "uint256"
        },
        {
          "indexed": false,
          "internalType": "uint256",
          "name": "couponsExpired",
          "type": "uint256"
        },
        {
          "indexed": false,
          "internalType": "uint256",
          "name": "lessRedeemable",
          "type": "uint256"
        },
        {
          "indexed": false,
          "internalType": "uint256",
          "name": "lessDebt",
          "type": "uint256"
        },
        {
          "indexed": false,
          "internalType": "uint256",
          "name": "newBonded",
          "type": "uint256"
        }
      ],
      "name": "CouponExpiration",
      "type": "event"
    },
    {
      "anonymous": false,
      "inputs": [
        {
          "indexed": true,
          "internalType": "address",
          "name": "account",
          "type": "address"
        },
        {
          "indexed": true,
          "internalType": "uint256",
          "name": "epoch",
          "type": "uint256"
        },
        {
          "indexed": false,
          "internalType": "uint256",
          "name": "dollarAmount",
          "type": "uint256"
        },
        {
          "indexed": false,
          "internalType": "uint256",
          "name": "couponAmount",
          "type": "uint256"
        }
      ],
      "name": "CouponPurchase",
      "type": "event"
    },
    {
      "anonymous": false,
      "inputs": [
        {
          "indexed": true,
          "internalType": "address",
          "name": "account",
          "type": "address"
        },
        {
          "indexed": true,
          "internalType": "uint256",
          "name": "epoch",
          "type": "uint256"
        },
        {
          "indexed": false,
          "internalType": "uint256",
          "name": "couponAmount",
          "type": "uint256"
        }
      ],
      "name": "CouponRedemption",
      "type": "event"
    },
    {
      "anonymous": false,
      "inputs": [
        {
          "indexed": true,
          "internalType": "address",
          "name": "from",
          "type": "address"
        },
        {
          "indexed": true,
          "internalType": "address",
          "name": "to",
          "type": "address"
        },
        {
          "indexed": true,
          "internalType": "uint256",
          "name": "epoch",
          "type": "uint256"
        },
        {
          "indexed": false,
          "internalType": "uint256",
          "name": "value",
          "type": "uint256"
        }
      ],
      "name": "CouponTransfer",
      "type": "event"
    },
    {
      "anonymous": false,
      "inputs": [
        {
          "indexed": true,
          "internalType": "address",
          "name": "account",
          "type": "address"
        },
        {
          "indexed": false,
          "internalType": "uint256",
          "name": "value",
          "type": "uint256"
        }
      ],
      "name": "Deposit",
      "type": "event"
    },
    {
      "anonymous": false,
      "inputs": [
        {
          "indexed": true,
          "internalType": "address",
          "name": "account",
          "type": "address"
        },
        {
          "indexed": false,
          "internalType": "uint256",
          "name": "amount",
          "type": "uint256"
        }
      ],
      "name": "Incentivization",
      "type": "event"
    },
    {
      "anonymous": false,
      "inputs": [
        {
          "indexed": true,
          "internalType": "address",
          "name": "candidate",
          "type": "address"
        },
        {
          "indexed": true,
          "internalType": "address",
          "name": "account",
          "type": "address"
        },
        {
          "indexed": true,
          "internalType": "uint256",
          "name": "start",
          "type": "uint256"
        },
        {
          "indexed": false,
          "internalType": "uint256",
          "name": "period",
          "type": "uint256"
        }
      ],
      "name": "Proposal",
      "type": "event"
    },
    {
      "anonymous": false,
      "inputs": [
        {
          "indexed": true,
          "internalType": "uint256",
          "name": "epoch",
          "type": "uint256"
        },
        {
          "indexed": false,
          "internalType": "uint256",
          "name": "price",
          "type": "uint256"
        },
        {
          "indexed": false,
          "internalType": "uint256",
          "name": "newDebt",
          "type": "uint256"
        }
      ],
      "name": "SupplyDecrease",
      "type": "event"
    },
    {
      "anonymous": false,
      "inputs": [
        {
          "indexed": true,
          "internalType": "uint256",
          "name": "epoch",
          "type": "uint256"
        },
        {
          "indexed": false,
          "internalType": "uint256",
          "name": "price",
          "type": "uint256"
        },
        {
          "indexed": false,
          "internalType": "uint256",
          "name": "newRedeemable",
          "type": "uint256"
        },
        {
          "indexed": false,
          "internalType": "uint256",
          "name": "lessDebt",
          "type": "uint256"
        },
        {
          "indexed": false,
          "internalType": "uint256",
          "name": "newBonded",
          "type": "uint256"
        }
      ],
      "name": "SupplyIncrease",
      "type": "event"
    },
    {
      "anonymous": false,
      "inputs": [
        {
          "indexed": true,
          "internalType": "uint256",
          "name": "epoch",
          "type": "uint256"
        }
      ],
      "name": "SupplyNeutral",
      "type": "event"
    },
    {
      "anonymous": false,
      "inputs": [
        {
          "indexed": true,
          "internalType": "address",
          "name": "from",
          "type": "address"
        },
        {
          "indexed": true,
          "internalType": "address",
          "name": "to",
          "type": "address"
        },
        {
          "indexed": false,
          "internalType": "uint256",
          "name": "value",
          "type": "uint256"
        }
      ],
      "name": "Transfer",
      "type": "event"
    },
    {
      "anonymous": false,
      "inputs": [
        {
          "indexed": true,
          "internalType": "address",
          "name": "account",
          "type": "address"
        },
        {
          "indexed": false,
          "internalType": "uint256",
          "name": "start",
          "type": "uint256"
        },
        {
          "indexed": false,
          "internalType": "uint256",
          "name": "value",
          "type": "uint256"
        },
        {
          "indexed": false,
          "internalType": "uint256",
          "name": "valueUnderlying",
          "type": "uint256"
        }
      ],
      "name": "Unbond",
      "type": "event"
    },
    {
      "anonymous": false,
      "inputs": [
        {
          "indexed": true,
          "internalType": "address",
          "name": "implementation",
          "type": "address"
        }
      ],
      "name": "Upgraded",
      "type": "event"
    },
    {
      "anonymous": false,
      "inputs": [
        {
          "indexed": true,
          "internalType": "address",
          "name": "account",
          "type": "address"
        },
        {
          "indexed": true,
          "internalType": "address",
          "name": "candidate",
          "type": "address"
        },
        {
          "indexed": false,
          "internalType": "enum Candidate.Vote",
          "name": "vote",
          "type": "uint8"
        },
        {
          "indexed": false,
          "internalType": "uint256",
          "name": "bonded",
          "type": "uint256"
        }
      ],
      "name": "Vote",
      "type": "event"
    },
    {
      "anonymous": false,
      "inputs": [
        {
          "indexed": true,
          "internalType": "address",
          "name": "account",
          "type": "address"
        },
        {
          "indexed": false,
          "internalType": "uint256",
          "name": "value",
          "type": "uint256"
        }
      ],
      "name": "Withdraw",
      "type": "event"
    },
    {
      "constant": true,
      "inputs": [
        {
          "internalType": "address",
          "name": "owner",
          "type": "address"
        },
        {
          "internalType": "address",
          "name": "spender",
          "type": "address"
        }
      ],
      "name": "allowance",
      "outputs": [
        {
          "internalType": "uint256",
          "name": "",
          "type": "uint256"
        }
      ],
      "payable": false,
      "stateMutability": "view",
      "type": "function"
    },
    {
      "constant": true,
      "inputs": [
        {
          "internalType": "address",
          "name": "owner",
          "type": "address"
        },
        {
          "internalType": "address",
          "name": "spender",
          "type": "address"
        }
      ],
      "name": "allowanceCoupons",
      "outputs": [
        {
          "internalType": "uint256",
          "name": "",
          "type": "uint256"
        }
      ],
      "payable": false,
      "stateMutability": "view",
      "type": "function"
    },
    {
      "constant": false,
      "inputs": [
        {
          "internalType": "address",
          "name": "spender",
          "type": "address"
        },
        {
          "internalType": "uint256",
          "name": "amount",
          "type": "uint256"
        }
      ],
      "name": "approve",
      "outputs": [
        {
          "internalType": "bool",
          "name": "",
          "type": "bool"
        }
      ],
      "payable": false,
      "stateMutability": "nonpayable",
      "type": "function"
    },
    {
      "constant": false,
      "inputs": [
        {
          "internalType": "address",
          "name": "spender",
          "type": "address"
        },
        {
          "internalType": "uint256",
          "name": "amount",
          "type": "uint256"
        }
      ],
      "name": "approveCoupons",
      "outputs": [],
      "payable": false,
      "stateMutability": "nonpayable",
      "type": "function"
    },
    {
      "constant": true,
      "inputs": [
        {
          "internalType": "address",
          "name": "candidate",
          "type": "address"
        }
      ],
      "name": "approveFor",
      "outputs": [
        {
          "internalType": "uint256",
          "name": "",
          "type": "uint256"
        }
      ],
      "payable": false,
      "stateMutability": "view",
      "type": "function"
    },
    {
      "constant": true,
      "inputs": [
        {
          "internalType": "address",
          "name": "account",
          "type": "address"
        }
      ],
      "name": "balanceOf",
      "outputs": [
        {
          "internalType": "uint256",
          "name": "",
          "type": "uint256"
        }
      ],
      "payable": false,
      "stateMutability": "view",
      "type": "function"
    },
    {
      "constant": true,
      "inputs": [
        {
          "internalType": "address",
          "name": "account",
          "type": "address"
        }
      ],
      "name": "balanceOfBonded",
      "outputs": [
        {
          "internalType": "uint256",
          "name": "",
          "type": "uint256"
        }
      ],
      "payable": false,
      "stateMutability": "view",
      "type": "function"
    },
    {
      "constant": true,
      "inputs": [
        {
          "internalType": "address",
          "name": "account",
          "type": "address"
        },
        {
          "internalType": "uint256",
          "name": "epoch",
          "type": "uint256"
        }
      ],
      "name": "balanceOfCoupons",
      "outputs": [
        {
          "internalType": "uint256",
          "name": "",
          "type": "uint256"
        }
      ],
      "payable": false,
      "stateMutability": "view",
      "type": "function"
    },
    {
      "constant": true,
      "inputs": [
        {
          "internalType": "address",
          "name": "account",
          "type": "address"
        }
      ],
      "name": "balanceOfStaged",
      "outputs": [
        {
          "internalType": "uint256",
          "name": "",
          "type": "uint256"
        }
      ],
      "payable": false,
      "stateMutability": "view",
      "type": "function"
    },
    {
      "constant": false,
      "inputs": [
        {
          "internalType": "uint256",
          "name": "value",
          "type": "uint256"
        }
      ],
      "name": "bond",
      "outputs": [],
      "payable": false,
      "stateMutability": "nonpayable",
      "type": "function"
    },
    {
      "constant": true,
      "inputs": [
        {
          "internalType": "uint256",
          "name": "epoch",
          "type": "uint256"
        }
      ],
      "name": "bootstrappingAt",
      "outputs": [
        {
          "internalType": "bool",
          "name": "",
          "type": "bool"
        }
      ],
      "payable": false,
      "stateMutability": "view",
      "type": "function"
    },
    {
      "constant": false,
      "inputs": [
        {
          "internalType": "address",
          "name": "candidate",
          "type": "address"
        }
      ],
      "name": "commit",
      "outputs": [],
      "payable": false,
      "stateMutability": "nonpayable",
      "type": "function"
    },
    {
      "constant": true,
      "inputs": [
        {
          "internalType": "uint256",
          "name": "amount",
          "type": "uint256"
        }
      ],
      "name": "couponPremium",
      "outputs": [
        {
          "internalType": "uint256",
          "name": "",
          "type": "uint256"
        }
      ],
      "payable": false,
      "stateMutability": "view",
      "type": "function"
    },
    {
      "constant": true,
      "inputs": [
        {
          "internalType": "uint256",
          "name": "epoch",
          "type": "uint256"
        }
      ],
      "name": "couponsExpiration",
      "outputs": [
        {
          "internalType": "uint256",
          "name": "",
          "type": "uint256"
        }
      ],
      "payable": false,
      "stateMutability": "view",
      "type": "function"
    },
    {
      "constant": true,
      "inputs": [],
      "name": "decimals",
      "outputs": [
        {
          "internalType": "uint8",
          "name": "",
          "type": "uint8"
        }
      ],
      "payable": false,
      "stateMutability": "view",
      "type": "function"
    },
    {
      "constant": false,
      "inputs": [
        {
          "internalType": "uint256",
          "name": "value",
          "type": "uint256"
        }
      ],
      "name": "deposit",
      "outputs": [],
      "payable": false,
      "stateMutability": "nonpayable",
      "type": "function"
    },
    {
      "constant": true,
      "inputs": [],
      "name": "dollar",
      "outputs": [
        {
          "internalType": "contract IDollar",
          "name": "",
          "type": "address"
        }
      ],
      "payable": false,
      "stateMutability": "view",
      "type": "function"
    },
    {
      "constant": false,
      "inputs": [
        {
          "internalType": "address",
          "name": "candidate",
          "type": "address"
        }
      ],
      "name": "emergencyCommit",
      "outputs": [],
      "payable": false,
      "stateMutability": "nonpayable",
      "type": "function"
    },
    {
      "constant": true,
      "inputs": [],
      "name": "epoch",
      "outputs": [
        {
          "internalType": "uint256",
          "name": "",
          "type": "uint256"
        }
      ],
      "payable": false,
      "stateMutability": "view",
      "type": "function"
    },
    {
      "constant": true,
      "inputs": [],
      "name": "epochTime",
      "outputs": [
        {
          "internalType": "uint256",
          "name": "",
          "type": "uint256"
        }
      ],
      "payable": false,
      "stateMutability": "view",
      "type": "function"
    },
    {
      "constant": true,
      "inputs": [
        {
          "internalType": "uint256",
          "name": "epoch",
          "type": "uint256"
        }
      ],
      "name": "expiringCoupons",
      "outputs": [
        {
          "internalType": "uint256",
          "name": "",
          "type": "uint256"
        }
      ],
      "payable": false,
      "stateMutability": "view",
      "type": "function"
    },
    {
      "constant": true,
      "inputs": [
        {
          "internalType": "uint256",
          "name": "epoch",
          "type": "uint256"
        },
        {
          "internalType": "uint256",
          "name": "i",
          "type": "uint256"
        }
      ],
      "name": "expiringCouponsAtIndex",
      "outputs": [
        {
          "internalType": "uint256",
          "name": "",
          "type": "uint256"
        }
      ],
      "payable": false,
      "stateMutability": "view",
      "type": "function"
    },
    {
      "constant": true,
      "inputs": [
        {
          "internalType": "address",
          "name": "account",
          "type": "address"
        }
      ],
      "name": "fluidUntil",
      "outputs": [
        {
          "internalType": "uint256",
          "name": "",
          "type": "uint256"
        }
      ],
      "payable": false,
      "stateMutability": "view",
      "type": "function"
    },
    {
      "constant": true,
      "inputs": [],
      "name": "implementation",
      "outputs": [
        {
          "internalType": "address",
          "name": "impl",
          "type": "address"
        }
      ],
      "payable": false,
      "stateMutability": "view",
      "type": "function"
    },
    {
      "constant": true,
      "inputs": [
        {
          "internalType": "address",
          "name": "candidate",
          "type": "address"
        }
      ],
      "name": "isInitialized",
      "outputs": [
        {
          "internalType": "bool",
          "name": "",
          "type": "bool"
        }
      ],
      "payable": false,
      "stateMutability": "view",
      "type": "function"
    },
    {
      "constant": true,
      "inputs": [
        {
          "internalType": "address",
          "name": "candidate",
          "type": "address"
        }
      ],
      "name": "isNominated",
      "outputs": [
        {
          "internalType": "bool",
          "name": "",
          "type": "bool"
        }
      ],
      "payable": false,
      "stateMutability": "view",
      "type": "function"
    },
    {
      "constant": true,
      "inputs": [
        {
          "internalType": "address",
          "name": "account",
          "type": "address"
        }
      ],
      "name": "lockedUntil",
      "outputs": [
        {
          "internalType": "uint256",
          "name": "",
          "type": "uint256"
        }
      ],
      "payable": false,
      "stateMutability": "view",
      "type": "function"
    },
    {
      "constant": true,
      "inputs": [],
      "name": "name",
      "outputs": [
        {
          "internalType": "string",
          "name": "",
          "type": "string"
        }
      ],
      "payable": false,
      "stateMutability": "view",
      "type": "function"
    },
    {
      "constant": true,
      "inputs": [],
      "name": "oracle",
      "outputs": [
        {
          "internalType": "contract IOracle",
          "name": "",
          "type": "address"
        }
      ],
      "payable": false,
      "stateMutability": "view",
      "type": "function"
    },
    {
      "constant": true,
      "inputs": [
        {
          "internalType": "uint256",
          "name": "epoch",
          "type": "uint256"
        }
      ],
      "name": "outstandingCoupons",
      "outputs": [
        {
          "internalType": "uint256",
          "name": "",
          "type": "uint256"
        }
      ],
      "payable": false,
      "stateMutability": "view",
      "type": "function"
    },
    {
      "constant": true,
      "inputs": [
        {
          "internalType": "address",
          "name": "candidate",
          "type": "address"
        }
      ],
      "name": "periodFor",
      "outputs": [
        {
          "internalType": "uint256",
          "name": "",
          "type": "uint256"
        }
      ],
      "payable": false,
      "stateMutability": "view",
      "type": "function"
    },
    {
      "constant": true,
      "inputs": [],
      "name": "pool",
      "outputs": [
        {
          "internalType": "address",
          "name": "",
          "type": "address"
        }
      ],
      "payable": false,
      "stateMutability": "view",
      "type": "function"
    },
    {
      "constant": false,
      "inputs": [
        {
          "internalType": "uint256",
          "name": "dollarAmount",
          "type": "uint256"
        }
      ],
      "name": "purchaseCoupons",
      "outputs": [
        {
          "internalType": "uint256",
          "name": "",
          "type": "uint256"
        }
      ],
      "payable": false,
      "stateMutability": "nonpayable",
      "type": "function"
    },
    {
      "constant": true,
      "inputs": [
        {
          "internalType": "address",
          "name": "account",
          "type": "address"
        },
        {
          "internalType": "address",
          "name": "candidate",
          "type": "address"
        }
      ],
      "name": "recordedVote",
      "outputs": [
        {
          "internalType": "enum Candidate.Vote",
          "name": "",
          "type": "uint8"
        }
      ],
      "payable": false,
      "stateMutability": "view",
      "type": "function"
    },
    {
      "constant": false,
      "inputs": [
        {
          "internalType": "uint256",
          "name": "couponEpoch",
          "type": "uint256"
        },
        {
          "internalType": "uint256",
          "name": "couponAmount",
          "type": "uint256"
        }
      ],
      "name": "redeemCoupons",
      "outputs": [],
      "payable": false,
      "stateMutability": "nonpayable",
      "type": "function"
    },
    {
      "constant": true,
      "inputs": [
        {
          "internalType": "address",
          "name": "candidate",
          "type": "address"
        }
      ],
      "name": "rejectFor",
      "outputs": [
        {
          "internalType": "uint256",
          "name": "",
          "type": "uint256"
        }
      ],
      "payable": false,
      "stateMutability": "view",
      "type": "function"
    },
    {
      "constant": true,
      "inputs": [
        {
          "internalType": "address",
          "name": "candidate",
          "type": "address"
        }
      ],
      "name": "startFor",
      "outputs": [
        {
          "internalType": "uint256",
          "name": "",
          "type": "uint256"
        }
      ],
      "payable": false,
      "stateMutability": "view",
      "type": "function"
    },
    {
      "constant": true,
      "inputs": [
        {
          "internalType": "address",
          "name": "account",
          "type": "address"
        }
      ],
      "name": "statusOf",
      "outputs": [
        {
          "internalType": "enum Account.Status",
          "name": "",
          "type": "uint8"
        }
      ],
      "payable": false,
      "stateMutability": "view",
      "type": "function"
    },
    {
      "constant": true,
      "inputs": [],
      "name": "symbol",
      "outputs": [
        {
          "internalType": "string",
          "name": "",
          "type": "string"
        }
      ],
      "payable": false,
      "stateMutability": "view",
      "type": "function"
    },
    {
      "constant": true,
      "inputs": [],
      "name": "totalBonded",
      "outputs": [
        {
          "internalType": "uint256",
          "name": "",
          "type": "uint256"
        }
      ],
      "payable": false,
      "stateMutability": "view",
      "type": "function"
    },
    {
      "constant": true,
      "inputs": [
        {
          "internalType": "uint256",
          "name": "epoch",
          "type": "uint256"
        }
      ],
      "name": "totalBondedAt",
      "outputs": [
        {
          "internalType": "uint256",
          "name": "",
          "type": "uint256"
        }
      ],
      "payable": false,
      "stateMutability": "view",
      "type": "function"
    },
    {
      "constant": true,
      "inputs": [],
      "name": "totalCoupons",
      "outputs": [
        {
          "internalType": "uint256",
          "name": "",
          "type": "uint256"
        }
      ],
      "payable": false,
      "stateMutability": "view",
      "type": "function"
    },
    {
      "constant": true,
      "inputs": [],
      "name": "totalDebt",
      "outputs": [
        {
          "internalType": "uint256",
          "name": "",
          "type": "uint256"
        }
      ],
      "payable": false,
      "stateMutability": "view",
      "type": "function"
    },
    {
      "constant": true,
      "inputs": [],
      "name": "totalNet",
      "outputs": [
        {
          "internalType": "uint256",
          "name": "",
          "type": "uint256"
        }
      ],
      "payable": false,
      "stateMutability": "view",
      "type": "function"
    },
    {
      "constant": true,
      "inputs": [],
      "name": "totalRedeemable",
      "outputs": [
        {
          "internalType": "uint256",
          "name": "",
          "type": "uint256"
        }
      ],
      "payable": false,
      "stateMutability": "view",
      "type": "function"
    },
    {
      "constant": true,
      "inputs": [],
      "name": "totalStaged",
      "outputs": [
        {
          "internalType": "uint256",
          "name": "",
          "type": "uint256"
        }
      ],
      "payable": false,
      "stateMutability": "view",
      "type": "function"
    },
    {
      "constant": true,
      "inputs": [],
      "name": "totalSupply",
      "outputs": [
        {
          "internalType": "uint256",
          "name": "",
          "type": "uint256"
        }
      ],
      "payable": false,
      "stateMutability": "view",
      "type": "function"
    },
    {
      "constant": false,
      "inputs": [
        {
          "internalType": "address",
          "name": "recipient",
          "type": "address"
        },
        {
          "internalType": "uint256",
          "name": "amount",
          "type": "uint256"
        }
      ],
      "name": "transfer",
      "outputs": [
        {
          "internalType": "bool",
          "name": "",
          "type": "bool"
        }
      ],
      "payable": false,
      "stateMutability": "nonpayable",
      "type": "function"
    },
    {
      "constant": false,
      "inputs": [
        {
          "internalType": "address",
          "name": "sender",
          "type": "address"
        },
        {
          "internalType": "address",
          "name": "recipient",
          "type": "address"
        },
        {
          "internalType": "uint256",
          "name": "epoch",
          "type": "uint256"
        },
        {
          "internalType": "uint256",
          "name": "amount",
          "type": "uint256"
        }
      ],
      "name": "transferCoupons",
      "outputs": [],
      "payable": false,
      "stateMutability": "nonpayable",
      "type": "function"
    },
    {
      "constant": false,
      "inputs": [
        {
          "internalType": "address",
          "name": "sender",
          "type": "address"
        },
        {
          "internalType": "address",
          "name": "recipient",
          "type": "address"
        },
        {
          "internalType": "uint256",
          "name": "amount",
          "type": "uint256"
        }
      ],
      "name": "transferFrom",
      "outputs": [
        {
          "internalType": "bool",
          "name": "",
          "type": "bool"
        }
      ],
      "payable": false,
      "stateMutability": "nonpayable",
      "type": "function"
    },
    {
      "constant": false,
      "inputs": [
        {
          "internalType": "uint256",
          "name": "value",
          "type": "uint256"
        }
      ],
      "name": "unbond",
      "outputs": [],
      "payable": false,
      "stateMutability": "nonpayable",
      "type": "function"
    },
    {
      "constant": false,
      "inputs": [
        {
          "internalType": "uint256",
          "name": "value",
          "type": "uint256"
        }
      ],
      "name": "unbondUnderlying",
      "outputs": [],
      "payable": false,
      "stateMutability": "nonpayable",
      "type": "function"
    },
    {
      "constant": false,
      "inputs": [
        {
          "internalType": "address",
          "name": "candidate",
          "type": "address"
        },
        {
          "internalType": "enum Candidate.Vote",
          "name": "vote",
          "type": "uint8"
        }
      ],
      "name": "vote",
      "outputs": [],
      "payable": false,
      "stateMutability": "nonpayable",
      "type": "function"
    },
    {
      "constant": true,
      "inputs": [
        {
          "internalType": "address",
          "name": "candidate",
          "type": "address"
        }
      ],
      "name": "votesFor",
      "outputs": [
        {
          "internalType": "uint256",
          "name": "",
          "type": "uint256"
        }
      ],
      "payable": false,
      "stateMutability": "view",
      "type": "function"
    },
    {
      "constant": false,
      "inputs": [
        {
          "internalType": "uint256",
          "name": "value",
          "type": "uint256"
        }
      ],
      "name": "withdraw",
      "outputs": [],
      "payable": false,
      "stateMutability": "nonpayable",
      "type": "function"
    },
    {
      "constant": false,
      "inputs": [],
      "name": "initialize",
      "outputs": [],
      "payable": false,
      "stateMutability": "nonpayable",
      "type": "function"
    },
    {
      "constant": false,
      "inputs": [],
      "name": "advance",
      "outputs": [],
      "payable": false,
      "stateMutability": "nonpayable",
      "type": "function"
    }
  ],
  "bytecode": "0x608060405234801561001057600080fd5b50614352806100206000396000f3fe608060405234801561001057600080fd5b50600436106103825760003560e01c80637dc0d1d0116101de578063b6b55f251161010f578063d8f54138116100ad578063ea105ac71161007c578063ea105ac714610714578063f1b7cf491461071c578063fc7b9c181461072f578063ffbe3b731461073757610382565b8063d8f54138146106cd578063dd62ed3e146106e0578063df9a2b1c146106ee578063e5f55c7e1461070157610382565b8063c9aff70c116100e9578063c9aff70c1461068c578063cf0237791461069f578063d60b347f146106a7578063d6a9cf08146106ba57610382565b8063b6b55f2514610653578063bc7513e214610666578063bceb514d1461067957610382565b80639940686e1161017c5780639f6e1b26116101565780639f6e1b2614610625578063a50cd8e714610638578063a6c409f11461064b578063a9059cbb146103ba57610382565b80639940686e146105f75780639a649edc1461060a5780639bc289f11461061257610382565b806386cf9f14116101b857806386cf9f14146105c1578063900cf0cf146105d457806395d89b41146105dc57806397a5d5b5146105e457610382565b80637dc0d1d01461059e5780638129fc1c146105a6578063825ad607146105ae57610382565b8063369e8c1d116102b857806351adeb5711610256578063646680221161023057806364668022146105525780636a39e3281461056557806370a082311461057857806375d5024b1461058b57610382565b806351adeb571461052257806351bf21d8146105375780635c60da1b1461054a57610382565b806344d96e951161029257806344d96e95146104ec57806347c05069146104f45780634c736099146105075780635053e4611461051a57610382565b8063369e8c1d146104a65780633a3e6c81146104b95780633fbba9a6146104cc57610382565b80631edbcf6c116103255780632e1a7d4d116102ff5780632e1a7d4d146104585780632f7f889e1461046b578063313ce5671461047e578063353a420c1461049357610382565b80631edbcf6c1461042a57806323b872dd1461043257806327de9e321461044557610382565b806310e95b6c1161036157806310e95b6c146103da57806315e14bf6146103fa57806316f0115b1461040d57806318160ddd1461042257610382565b80625edd371461038757806306fdde031461039c578063095ea7b3146103ba575b600080fd5b61039a610395366004613ad6565b61074a565b005b6103a461086d565b6040516103b19190614005565b60405180910390f35b6103cd6103c8366004613b67565b61089e565b6040516103b19190613fcd565b6103ed6103e8366004613be5565b6108a7565b6040516103b19190614086565b6103ed610408366004613a31565b6108bf565b6104156108dd565b6040516103b19190613f60565b6103ed6108ec565b6103ed6108f2565b6103cd610440366004613a89565b6108f8565b61039a610453366004613be5565b610902565b61039a610466366004613be5565b610a4c565b61039a610479366004613b67565b610b84565b610486610c04565b6040516103b1919061411a565b6103ed6104a1366004613a31565b610c09565b61039a6104b4366004613a31565b610c27565b6103cd6104c7366004613a31565b610db8565b6104df6104da366004613a4f565b610dd5565b6040516103b19190613fe9565b6103ed610e08565b61039a610502366004613a31565b610e0e565b6103ed610515366004613c21565b610f01565b6103ed610f31565b61052a610f87565b6040516103b19190613fdb565b6103ed610545366004613a31565b610f96565b610415610fb4565b6103ed610560366004613a31565b610fd9565b6103ed610573366004613be5565b610ff7565b6103ed610586366004613a31565b61100c565b6103cd610599366004613be5565b61102a565b61052a61103d565b61039a61104c565b6103ed6105bc366004613a31565b6110fb565b6103ed6105cf366004613a31565b61112f565b6103ed61114a565b6103a4611150565b6104df6105f2366004613a31565b61116e565b61039a610605366004613be5565b6111d3565b6103ed6112a1565b6103ed610620366004613a31565b6112a7565b6103ed610633366004613a4f565b6112c5565b6103ed610646366004613a31565b6112f4565b6103ed61130b565b61039a610661366004613be5565b611395565b6103ed610674366004613b67565b61146d565b61039a610687366004613b37565b6114b1565b6103ed61069a366004613be5565b611757565b6103ed61176c565b6103cd6106b5366004613a31565b611772565b61039a6106c8366004613c21565b611793565b6103ed6106db366004613be5565b611827565b6103ed6103c8366004613a4f565b61039a6106fc366004613be5565b6118b2565b6103ed61070f366004613be5565b611970565b61039a611a62565b6103ed61072a366004613a31565b611ac9565b6103ed611ae4565b6103ed610745366004613be5565b611aea565b6001600160a01b0384166107795760405162461bcd60e51b815260040161077090614066565b60405180910390fd5b6001600160a01b03831661079f5760405162461bcd60e51b815260040161077090614026565b6107c384838360405180606001604052806023815260200161423160239139611afc565b6107ce838383611ba7565b336001600160a01b038516148015906107f257506000196107ef85336112c5565b14155b1561081b5761081b84338360405180606001604052806024815260200161427860249139611c4e565b81836001600160a01b0316856001600160a01b03167f0f1dbb1ccbe57a1590c7baad7b01d581b730c9ebc535dcde4345e6db424063d88460405161085f9190614086565b60405180910390a450505050565b604080518082019091526016815275456d7074792053657420446f6c6c6172205374616b6560501b60208201525b90565b60005b92915050565b6000818152600d60205260409020600201545b919050565b6001600160a01b03166000908152600e602052604090206001015490565b600b546001600160a01b031690565b60035490565b60065490565b60005b9392505050565b3361094960025b6109128361116e565b600281111561091d57fe5b1415692832b936b4b9b9b4b7b760b11b72139bdd08199c9bde995b881bdc88199b1d5a59606a1b611cbf565b61095233611d14565b60006109856109603361100c565b61097961096c336110fb565b869063ffffffff611d3e16565b9063ffffffff611d7816565b90506109913382611dba565b6109b38160405180606001604052806022815260200161429c60229139611e16565b6109f333846040518060400160405280601d81526020017f426f6e64696e673a20696e73756666696369656e742062616c616e6365000000815250611e31565b337f93530ac0ee8c50e696e13c5ac62355d0c0ba4bd943620d5bda1eb08b64ae7512610a2e6001610a2261114a565b9063ffffffff611edc16565b8584604051610a3f939291906140d7565b60405180910390a2505050565b33610a9460015b610a5c8361116e565b6002811115610a6757fe5b1415692832b936b4b9b9b4b7b760b11b73139bdd08199c9bde995b881bdc881b1bd8dad95960621b611cbf565b610a9c610f87565b6001600160a01b031663a9059cbb33846040518363ffffffff1660e01b8152600401610ac9929190613f96565b602060405180830381600087803b158015610ae357600080fd5b505af1158015610af7573d6000803e3d6000fd5b505050506040513d601f19601f82011682018060405250610b1b9190810190613b97565b50610b3f338360405180606001604052806024815260200161425460249139611f01565b336001600160a01b03167f884edad9ce6fa2440d8a54cc123490eb96d2768479d49ff9c7366125a942436483604051610b789190614086565b60405180910390a25050565b6001600160a01b038216610baa5760405162461bcd60e51b815260040161077090614056565b610bb5338383611f60565b816001600160a01b0316336001600160a01b03167f8ff27e6b95060c1ca851e7c2c28af8b413eb1a8bcb637b0290da9543a709cce383604051610bf89190614086565b60405180910390a35050565b601290565b6001600160a01b03166000908152600e602052604090206003015490565b610c53610c3382610db8565b6523b7bb32b93760d11b6c139bdd081b9bdb5a5b985d1959609a1b611cbf565b6000610c7b6001610c6f610c66856108bf565b610a2286611ac9565b9063ffffffff611f9016565b9050610ca681610c8961114a565b116523b7bb32b93760d11b68139bdd08195b99195960ba1b611cbf565b610ce9610cc5610cb4611fd2565b610a2284600163ffffffff611edc16565b610ccd61114a565b11156523b7bb32b93760d11b66115e1c1a5c995960ca1b611cbf565b610d40610d1d610cf7611fd7565b610d11610d03866112f4565b610d0c86611aea565b611ff9565b9063ffffffff61202816565b6523b7bb32b93760d11b6f4d75737420686176652071756f726f6d60801b611cbf565b610d75610d4c83610c09565b610d5584610fd9565b116523b7bb32b93760d11b6b139bdd08185c1c1c9bdd995960a21b611cbf565b610d7e8261203e565b6040516001600160a01b0383169033907f815ca4497ab9fc80c76f210e6e842a5e198e195aa136034557eee144f790e7bb90600090a35050565b6001600160a01b03166000908152600e6020526040902054151590565b6001600160a01b038082166000908152600e60209081526040808320938616835260049093019052205460ff1692915050565b60045490565b610e1a610c3382610db8565b610e58610e30610e2861212a565b610a2261114a565b610e38610f31565b116523b7bb32b93760d11b6b115c1bd8da081cde5b98d95960a21b611cbf565b610eaa610e7a610e6661212f565b610d11610e7285610fd9565b610d0c6108ec565b6523b7bb32b93760d11b7f4d7573742068617665207375706572206d616a6f726974790000000000000000611cbf565b610ebf610eb682610c09565b610d5583610fd9565b610ec88161203e565b6040516001600160a01b0382169033907f815ca4497ab9fc80c76f210e6e842a5e198e195aa136034557eee144f790e7bb90600090a350565b6000828152600d60205260408120600301805483908110610f1e57fe5b9060005260206000200154905092915050565b6000610f3b613993565b610f43612151565b9050610f4d613993565b610f55612180565b90508160200151610f646121b0565b10610f7757610f72826121b4565b610f80565b610f80816121b4565b9250505090565b6009546001600160a01b031690565b6001600160a01b03166000908152600c602052604090206004015490565b7f360894a13ba1a3210667c828492db98dca3e2076cc3735a920a3ca505d382bbc5490565b6001600160a01b03166000908152600e602052604090206002015490565b6000908152600d602052604090206003015490565b6001600160a01b03166000908152600c602052604090206001015490565b60006110346121d6565b90911115919050565b600a546001600160a01b031690565b61108561105a6106b5610fb4565b15692832b936b4b9b9b4b7b760b11b72105b1c9958591e481a5b9a5d1a585b1a5e9959606a1b611cbf565b611095611090610fb4565b6121db565b6110a6336110a1612202565b61220f565b6110cd73739e3ad76c6bbe301e6e358a1f8326f31ab8933568878678326eac90000061220f565b60006110ed600561097960036110e1611ae4565b9063ffffffff611d3e16565b90506110f881612252565b50565b6000806111066108ec565b9050806111175760009150506108ba565b6108fb816109796111278661100c565b6110e1610e08565b6001600160a01b03166000908152600c602052604090205490565b60025490565b6040805180820190915260048152634553445360e01b602082015290565b600061117861114a565b6001600160a01b0383166000908152600c602052604090206005015411156111a2575060026108ba565b6001600160a01b0382166000908152600c60205260409020600401546111c661114a565b101561089e5760016108a1565b336111de6002610909565b6111e733611d14565b60006111f1610e08565b156112115761120c611201610e08565b61097961096c6108ec565b611229565b61122961121c612299565b849063ffffffff611d3e16565b905061123533826122a0565b61123e8361233c565b611261338460405180606001604052806024815260200161425460249139611f01565b337f44002fdef5a0c2d2e4e05572e9780b95aef97e0e93ffd7cc076b09fa78ff2b466112906001610a2261114a565b8386604051610a3f939291906140d7565b60085490565b6001600160a01b03166000908152600c602052604090206005015490565b6001600160a01b039182166000908152600c602090815260408083209390941682526003909201909152205490565b60006108a161130283610c09565b610a2284610fd9565b6000611390611318611ae4565b611320610f87565b6001600160a01b03166318160ddd6040518163ffffffff1660e01b815260040160206040518083038186803b15801561135857600080fd5b505afa15801561136c573d6000803e3d6000fd5b505050506040513d601f19601f82011682018060405250610c6f9190810190613c03565b905090565b336113a06001610a53565b6113a8610f87565b6001600160a01b03166323b872dd3330856040518463ffffffff1660e01b81526004016113d793929190613f6e565b602060405180830381600087803b1580156113f157600080fd5b505af1158015611405573d6000803e3d6000fd5b505050506040513d601f19601f820116820180604052506114299190810190613b97565b506114343383611dba565b336001600160a01b03167fe1fffcc4923d04b559f4d29a8bfc6cda04eb5b0d3c460751c2402c5c5cc9109c83604051610b789190614086565b600061147882611757565b611484575060006108a1565b506001600160a01b03919091166000908152600c6020908152604080832093835260029093019052205490565b336114bc6001610a53565b6114ed60006114ca3361100c565b116523b7bb32b93760d11b6e4d7573742068617665207374616b6560881b611cbf565b6114f683610db8565b6115995761153661150633612355565b6523b7bb32b93760d11b7f4e6f7420656e6f756768207374616b6520746f2070726f706f73650000000000611cbf565b61154783611542612399565b61239e565b61154f61114a565b336001600160a01b0385167fd15e38a680a427478883cd2d32eb664cb6bb2090b0126a23ebaf3e3784b8c56b611583612399565b6040516115909190614086565b60405180910390a45b6115c96115a8610c66856108bf565b6115b061114a565b106523b7bb32b93760d11b64115b99195960da1b611cbf565b60006115d43361100c565b905060006115e23386610dd5565b90508060028111156115f057fe5b8460028111156115fc57fe5b1415611609575050611752565b600281600281111561161757fe5b141561165d5761165d85836040518060400160405280601b81526020017f476f7665726e3a20496e73756666696369656e742072656a65637400000000008152506123ca565b600181600281111561166b57fe5b14156116b1576116b185836040518060400160405280601c81526020017f476f7665726e3a20496e73756666696369656e7420617070726f76650000000081525061241b565b60028460028111156116bf57fe5b14156116cf576116cf858361246c565b60018460028111156116dd57fe5b14156116ed576116ed85836124bb565b6116f833868661250a565b6117023386612554565b846001600160a01b0316336001600160a01b03167fbe50c78cbc15b0864819aadea36c6499da421b33c38e2ef19bebda583c708c788685604051611747929190613ff7565b60405180910390a350505b505050565b6000908152600d602052604090206001015490565b60055490565b6001600160a01b03166000908152600e602052604090206005015460ff1690565b60026117a183610c6f61114a565b10156117bf5760405162461bcd60e51b815260040161077090614076565b6117e333838360405180606001604052806023815260200161423160239139611afc565b6117ed33826125b5565b81336001600160a01b03167f46e9903ae8ac9e9f0c9bc321b05965c1c036e7d4783758703f5cdfc4133c51b683604051610bf89190614086565b60006108a1611834610f87565b6001600160a01b03166318160ddd6040518163ffffffff1660e01b815260040160206040518083038186803b15801561186c57600080fd5b505afa158015611880573d6000803e3d6000fd5b505050506040513d601f19601f820116820180604052506118a49190810190613c03565b6118ac611ae4565b8461266b565b336118bd6002610909565b6118c633611d14565b60006118d3611201610e08565b90506118df3384611dba565b6119018360405180606001604052806022815260200161429c60229139611e16565b61194133826040518060400160405280601d81526020017f426f6e64696e673a20696e73756666696369656e742062616c616e6365000000815250611e31565b337f93530ac0ee8c50e696e13c5ac62355d0c0ba4bd943620d5bda1eb08b64ae75126112906001610a2261114a565b60006119a9600083116513585c9ad95d60d21b7f4d757374207075726368617365206e6f6e2d7a65726f20616d6f756e74000000611cbf565b6119d9826119b5611ae4565b10156513585c9ad95d60d21b6e139bdd08195b9bdd59da081919589d608a1b611cbf565b60006119e361114a565b90506000611a006119f385611827565b859063ffffffff611edc16565b9050611a0c3385612698565b611a17338383611ba7565b81336001600160a01b03167fbce252db29f761f815dc2e9ea60005af065efba6eb619d2a0b2a113fdeb614148684604051611a53929190614094565b60405180910390a39392505050565b611a6e336110a1612202565b611a766127a9565b611a7e6127f6565b611a86612881565b611a8e61114a565b7fc30b728d1c19e5db3678b8ea9e9a063a5655071e1a325c2f7fdbca48baa906004342604051611abf929190614094565b60405180910390a2565b6001600160a01b03166000908152600e602052604090205490565b60075490565b6000908152600d602052604090205490565b6001600160a01b0384166000908152600c60209081526040808320868452600201909152902054611b3490838363ffffffff6128d816565b6001600160a01b0385166000908152600c60209081526040808320878452600201825280832093909355600d90522060010154611b7890838363ffffffff6128d816565b6000848152600d6020526040902060010155600854611b9e90838363ffffffff6128d816565b60085550505050565b6001600160a01b0383166000908152600c60209081526040808320858452600201909152902054611bde908263ffffffff611edc16565b6001600160a01b0384166000908152600c60209081526040808320868452600201825280832093909355600d90522060010154611c21908263ffffffff611edc16565b6000838152600d6020526040902060010155600854611c46908263ffffffff611edc16565b600855505050565b6001600160a01b038085166000908152600c602090815260408083209387168352600390930190522054611c8990838363ffffffff6128d816565b6001600160a01b039485166000908152600c60209081526040808320969097168252600390950190945293909220929092555050565b8261175257611ccd82612904565b6101d160f51b611cdc83612904565b604051602001611cee93929190613f2f565b60408051601f198184030181529082905262461bcd60e51b825261077091600401614005565b611d1f610e28612984565b6001600160a01b039091166000908152600c6020526040902060040155565b600082611d4d575060006108a1565b82820282848281611d5a57fe5b04146108fb5760405162461bcd60e51b815260040161077090614036565b60006108fb83836040518060400160405280601a81526020017f536166654d6174683a206469766973696f6e206279207a65726f000000000000815250612989565b6001600160a01b0382166000908152600c6020526040902054611de3908263ffffffff611edc16565b6001600160a01b0383166000908152600c6020526040902055600554611e0f908263ffffffff611edc16565b6005555050565b600454611e2a90838363ffffffff6128d816565b6004555050565b6001600160a01b0383166000908152600c6020526040902060010154611e5e90838363ffffffff6128d816565b6001600160a01b0384166000908152600c6020526040902060010155600354611e8e90838363ffffffff6128d816565b6003556040516000906001600160a01b038516907fddf252ad1be2c89b69c2b068fc378daa952ba7f163c4a11628f55a4df523b3ef90611ecf908690614086565b60405180910390a3505050565b6000828201838110156108fb5760405162461bcd60e51b815260040161077090614016565b6001600160a01b0383166000908152600c6020526040902054611f2b90838363ffffffff6128d816565b6001600160a01b0384166000908152600c6020526040902055600554611f5890838363ffffffff6128d816565b600555505050565b6001600160a01b039283166000908152600c60209081526040808320949095168252600390930190925291902055565b60006108fb83836040518060400160405280601e81526020017f536166654d6174683a207375627472616374696f6e206f766572666c6f7700008152506128d8565b600290565b611fdf6139b4565b5060408051602081019091526702c68af0bb140000815290565b6120016139b4565b604051806020016040528061201f85670de0b6b3a7640000866129c0565b90529392505050565b600061203483836129d6565b6002149392505050565b61204781612a08565b60408051600481526024810182526020810180516001600160e01b031663204a7f0760e21b17905290516000916060916001600160a01b0385169161208b91613f23565b600060405180830381855af49150503d80600081146120c6576040519150601f19603f3d011682016040523d82523d6000602084013e6120cb565b606091505b50915091508181906120f05760405162461bcd60e51b81526004016107709190614005565b506040516001600160a01b038416907fbc7cd75a20ee27fd9adebab32041f755214dbc6bffa90cc0225b39da2e5c2d3b90600090a2505050565b600690565b6121376139b4565b506040805160208101909152670928ca80cfc20000815290565b612159613993565b6040518060600160405280606a8152602001635f7fa8008152602001617080815250905090565b612188613993565b6040518060600160405280605b8152602001635f6be180815260200162015180815250905090565b4290565b60006108a18260000151610a2284604001516109798660200151610c6f6121b0565b605a90565b6001600160a01b03166000908152600e60205260409020600501805460ff19166001179055565b68056bc75e2d6310000090565b6122198282612a51565b816001600160a01b03167fbb4f656853bc420ad6e4321622c07eefb4ed40e3f91b35553ce14a6dff4c098182604051610b789190614086565b612291816040518060400160405280601c81526020017f436f6d7074726f6c6c65723a206e6f7420656e6f756768206465627400000000815250612afa565b6110f8612b15565b620f424090565b6001600160a01b0382166000908152600c60205260409020600101546122cc908263ffffffff611edc16565b6001600160a01b0383166000908152600c60205260409020600101556003546122fb908263ffffffff611edc16565b6003556040516001600160a01b038316906000907fddf252ad1be2c89b69c2b068fc378daa952ba7f163c4a11628f55a4df523b3ef90610bf8908590614086565b60045461234f908263ffffffff611edc16565b60045550565b600061235f610e08565b61236b575060006108ba565b6123736139b4565b61237f610e728461100c565b90506108fb61238c612be8565b829063ffffffff61202816565b600990565b6123a661114a565b6001600160a01b039092166000908152600e60205260409020918255600190910155565b6001600160a01b0383166000908152600e60205260409020600301546123f790838363ffffffff6128d816565b6001600160a01b039093166000908152600e60205260409020600301929092555050565b6001600160a01b0383166000908152600e602052604090206002015461244890838363ffffffff6128d816565b6001600160a01b039093166000908152600e60205260409020600201929092555050565b6001600160a01b0382166000908152600e6020526040902060030154612498908263ffffffff611edc16565b6001600160a01b039092166000908152600e602052604090206003019190915550565b6001600160a01b0382166000908152600e60205260409020600201546124e7908263ffffffff611edc16565b6001600160a01b039092166000908152600e602052604090206002019190915550565b6001600160a01b038083166000908152600e6020908152604080832093871683526004909301905220805482919060ff1916600183600281111561254a57fe5b0217905550505050565b6001600160a01b0382166000908152600c60205260408120600501549061258661257d846108bf565b610a2285611ac9565b9050818111156125af576001600160a01b0384166000908152600c602052604090206005018190555b50505050565b6125bd610f87565b6001600160a01b031663a9059cbb83836040518363ffffffff1660e01b81526004016125ea929190613fbf565b602060405180830381600087803b15801561260457600080fd5b505af1158015612618573d6000803e3d6000fd5b505050506040513d601f19601f8201168201806040525061263c9190810190613b97565b5061265f816040518060600160405280602a81526020016142e6602a9139612c09565b612667612b15565b5050565b600061269061268b8361267f878787612c24565b9063ffffffff612d9d16565b612dc4565b949350505050565b6126a0610f87565b6001600160a01b03166323b872dd8330846040518463ffffffff1660e01b81526004016126cf93929190613fb1565b602060405180830381600087803b1580156126e957600080fd5b505af11580156126fd573d6000803e3d6000fd5b505050506040513d601f19601f820116820180604052506127219190810190613b97565b5061272a610f87565b6001600160a01b03166342966c68826040518263ffffffff1660e01b81526004016127559190614086565b600060405180830381600087803b15801561276f57600080fd5b505af1158015612783573d6000803e3d6000fd5b5050505061265f816040518060600160405280602881526020016142be60289139612afa565b6127e46127b461114a565b6127bc610f31565b1166426f6e64696e6760c81b720a6e8d2d8d840c6eae4e4cadce840cae0dec6d606b1b611cbf565b6127ec612de1565b6127f4612e08565b565b6127fe6139b4565b612806612e21565b905061281361238c612ee9565b156128275761282181612f0b565b506127f4565b61283f612832612ee9565b829063ffffffff612fc716565b1561284d5761282181612fdb565b61285561114a565b6040517fff7db5a0dc69b02c191ba632db46961b7d0daa1bd30709ddba9b80ad0a15d2c090600090a250565b60005b61288f61057361114a565b8110156128b7576128af6128aa6128a461114a565b83610f01565b61306d565b600101612884565b5060006128c5610e286121d6565b90506110f86128d261114a565b82613105565b600081848411156128fc5760405162461bcd60e51b81526004016107709190614005565b505050900390565b606080826040516020016129189190613f0e565b60408051601f19818403018152919052905060205b801561296d5781516000199091019082908290811061294857fe5b01602001516001600160f81b0319161561296857600101815290506108ba565b61292d565b505060408051600081526020810190915292915050565b600f90565b600081836129aa5760405162461bcd60e51b81526004016107709190614005565b5060008385816129b657fe5b0495945050505050565b600061269082610979868663ffffffff611d3e16565b8051825160009114156129eb575060016108a1565b81518351116129fb5760006129fe565b60025b60ff169392505050565b612a1181613137565b612a2d5760405162461bcd60e51b815260040161077090614046565b7f360894a13ba1a3210667c828492db98dca3e2076cc3735a920a3ca505d382bbc55565b612a59610f87565b6001600160a01b03166340c10f1983836040518363ffffffff1660e01b8152600401612a86929190613fbf565b602060405180830381600087803b158015612aa057600080fd5b505af1158015612ab4573d6000803e3d6000fd5b505050506040513d601f19601f82011682018060405250612ad89190810190613b97565b50612ae461059961114a565b61265f57612af18161313d565b50612667612b15565b600754612b0e90838363ffffffff6128d816565b6007555050565b6127f4612b36612b236108f2565b610a22612b2e61176c565b610a22610e08565b612b3e610f87565b6001600160a01b03166370a08231306040518263ffffffff1660e01b8152600401612b699190613f60565b60206040518083038186803b158015612b8157600080fd5b505afa158015612b95573d6000803e3d6000fd5b505050506040513d601f19601f82011682018060405250612bb99190810190613c03565b10156a21b7b6b83a3937b63632b960a91b74496e636f6e73697374656e742062616c616e63657360581b611cbf565b612bf06139b4565b5060408051602081019091526611c37937e08000815290565b600654612c1d90838363ffffffff6128d816565b6006555050565b612c2c6139b4565b612c346139b4565b612c3e8486611ff9565b9050612c486139b4565b612c50613184565b90506000612c64878663ffffffff611f9016565b90506000612c78878763ffffffff611f9016565b9050612c826139b4565b612c8c8284611ff9565b9050612c9e858563ffffffff61202816565b15612d8657612cb3818563ffffffff61202816565b15612ccd57612cc1846131a6565b955050505050506108fb565b612cd56139b4565b612cdf82866131e1565b9050612ce96139b4565b612cf9868463ffffffff61324316565b9050612d036139b4565b612d0c876131a6565b9050612d166139b4565b612d26898963ffffffff61324316565b9050612d76612d3b848363ffffffff61326c16565b612d6a612d4e858563ffffffff61329516565b612d5e888863ffffffff61329516565b9063ffffffff61326c16565b9063ffffffff6132c316565b99505050505050505050506108fb565b612d9081866131e1565b9998505050505050505050565b612da56139b4565b60408051602081019091528351819061201f908563ffffffff611d3e16565b80516000906108a190670de0b6b3a764000063ffffffff611d7816565b612de96108ec565b600d6000612df561114a565b8152602081019190915260400160002055565b600254612e1c90600163ffffffff611edc16565b600255565b612e296139b4565b612e316139b4565b6000612e3b61103d565b6001600160a01b031663d4a3e9d76040518163ffffffff1660e01b81526004016040805180830381600087803b158015612e7457600080fd5b505af1158015612e88573d6000803e3d6000fd5b505050506040513d601f19601f82011682018060405250612eac9190810190613bb5565b91509150612ec06105996001610c6f61114a565b15612ed657612ecd6132f1565b9250505061089b565b80612ee357612ecd612ee9565b50905090565b612ef16139b4565b506040805160208101909152670de0b6b3a7640000815290565b6000612f1d612f18613313565b61332e565b9050612f276139b4565b612f48612f42612f35612ee9565b859063ffffffff61324316565b84613403565b90506000612f6761268b612f5a61130b565b849063ffffffff612d9d16565b9050600080612f758361348e565b91509150612f8161114a565b86516040517f32fcaa1e76ed9517f4749d8ec9a77dd5e7329456d740b9bf9665d900eef5e28391612fb79186908a9087906140f2565b60405180910390a2505050505050565b6000612fd383836129d6565b159392505050565b612fe36139b4565b613004612ffe83612ff2612ee9565b9063ffffffff61324316565b83613403565b9050600061301661268b612f5a61130b565b905060006130238261313d565b905061302d61114a565b84516040517f5e139d4b8080a4a00dcc151e8217694aeebae893936326aa22096924a99066779161305f918590614094565b60405180910390a250505050565b600061307882611757565b9050600080613086846135c2565b60006130906108f2565b9050600061309c6112a1565b9050808211156130ce576130b6828263ffffffff611f9016565b93506130c184613605565b6130ca8461348e565b9350505b857f753df65b37159bf237ae1fca97ba1bd57cf83bc9498f271a514a4d7bafe87bda8686600087604051612fb794939291906140a2565b6000828152600d6020908152604080832060020184905592825291812060030180546001810182559082529190200155565b3b151590565b60006131488261368c565b6000613155612f18613184565b905061315f612b15565b82811161317b57613176838263ffffffff611f9016565b6108fb565b50600092915050565b61318c6139b4565b506040805160208101909152670214e8348c4f0000815290565b6131ae6139b4565b6108a16131b9612ee9565b612ff26131d960026131cd87612ff2612ee9565b9063ffffffff6136a516565b612d6a612ee9565b6131e96139b4565b6131f9838363ffffffff6136fb16565b1561320e57613207836131a6565b90506108a1565b6108fb613219612ee9565b612ff26131d961322b87612ff2612ee9565b61323787612ff2612ee9565b9063ffffffff61329516565b61324b6139b4565b604080516020810190915282518451829161201f919063ffffffff611f9016565b6132746139b4565b604080516020810190915282518451829161201f919063ffffffff611edc16565b61329d6139b4565b604051806020016040528061201f85600001518560000151670de0b6b3a76400006129c0565b6132cb6139b4565b604051806020016040528061201f8560000151670de0b6b3a764000086600001516129c0565b6132f96139b4565b506040805160208101909152670f43fc2c04ee0000815290565b61331b6139b4565b5060408051602081019091526000815290565b6000806133bc61268b61333f610f87565b6001600160a01b03166318160ddd6040518163ffffffff1660e01b815260040160206040518083038186803b15801561337757600080fd5b505afa15801561338b573d6000803e3d6000fd5b505050506040513d601f19601f820116820180604052506133af9190810190613c03565b859063ffffffff612d9d16565b905060006133c8611ae4565b9050818111156133f95760006133e4828463ffffffff611f9016565b90506133ef81612252565b92506108ba915050565b5060009392505050565b61340b6139b4565b6134136139b4565b61341b613702565b905060006134276108f2565b905060006134336112a1565b905061344d613440612ee9565b869063ffffffff61202816565b801561345857508082105b1561346857613465613723565b92505b613478868463ffffffff61202816565b6134825785613484565b825b9695505050505050565b60008060006134b060646109796134a3613744565b879063ffffffff611d3e16565b90506134bb81613749565b60006134db6127106109796134ce6137dd565b889063ffffffff611d3e16565b90506134e6816137e2565b60006134f8838363ffffffff611edc16565b9050808611613508576000613518565b613518868263ffffffff611f9016565b95506000806135256108f2565b905060006135316112a1565b90508082101561357a5761354b818363ffffffff611f9016565b925088831161355a578261355c565b885b925061356783613806565b613577898463ffffffff611f9016565b98505b613582610e08565b61358b57600098505b881561359a5761359a89613897565b6135a2612b15565b826135b38a8663ffffffff611edc16565b97509750505050505050915091565b60006135cd82611757565b9050806135da57506110f8565b6008546135ed908263ffffffff611f9016565b600855506000908152600d6020526040812060010155565b61360d610f87565b6001600160a01b03166342966c68826040518263ffffffff1660e01b81526004016136389190614086565b600060405180830381600087803b15801561365257600080fd5b505af1158015613666573d6000803e3d6000fd5b50505050612291816040518060600160405280602a81526020016142e6602a9139612c09565b60075461369f908263ffffffff611edc16565b60075550565b6136ad6139b4565b816136bc57613207600161392e565b6136c46139b4565b5060408051602081019091528351815260015b838110156136f3576136e98286613295565b91506001016136d7565b509392505050565b5190511490565b61370a6139b4565b506040805160208101909152666a94d74f430000815290565b61372b6139b4565b50604080516020810190915266d529ae9e860000815290565b601490565b80156110f857613757610f87565b6001600160a01b03166340c10f1961376d6108dd565b836040518363ffffffff1660e01b815260040161378b929190613fbf565b602060405180830381600087803b1580156137a557600080fd5b505af11580156137b9573d6000803e3d6000fd5b505050506040513d601f19601f820116820180604052506126679190810190613b97565b60fa90565b80156110f8576137f0610f87565b6001600160a01b03166340c10f1961376d613962565b61380e610f87565b6001600160a01b03166340c10f1930836040518363ffffffff1660e01b815260040161383b929190613fbf565b602060405180830381600087803b15801561385557600080fd5b505af1158015613869573d6000803e3d6000fd5b505050506040513d601f19601f8201168201806040525061388d9190810190613b97565b506122918161397a565b80156110f8576138a5610f87565b6001600160a01b03166340c10f1930836040518363ffffffff1660e01b81526004016138d2929190613fbf565b602060405180830381600087803b1580156138ec57600080fd5b505af1158015613900573d6000803e3d6000fd5b505050506040513d601f19601f820116820180604052506139249190810190613b97565b506110f88161233c565b6139366139b4565b60408051602081019091528061395a84670de0b6b3a764000063ffffffff611d3e16565b905292915050565b73460661bd4a5364a3abcc9cfc4a8ce7038d05ea2290565b60065461398d908263ffffffff611edc16565b60065550565b60405180606001604052806000815260200160008152602001600081525090565b6040518060200160405280600081525090565b80356108a1816141fd565b80516108a181614211565b80356108a18161421a565b6000602082840312156139fa57600080fd5b613a046020614128565b90506000613a128484613a26565b82525092915050565b80356108a181614227565b80516108a181614227565b600060208284031215613a4357600080fd5b600061269084846139c7565b60008060408385031215613a6257600080fd5b6000613a6e85856139c7565b9250506020613a7f858286016139c7565b9150509250929050565b600080600060608486031215613a9e57600080fd5b6000613aaa86866139c7565b9350506020613abb868287016139c7565b9250506040613acc86828701613a1b565b9150509250925092565b60008060008060808587031215613aec57600080fd5b6000613af887876139c7565b9450506020613b09878288016139c7565b9350506040613b1a87828801613a1b565b9250506060613b2b87828801613a1b565b91505092959194509250565b60008060408385031215613b4a57600080fd5b6000613b5685856139c7565b9250506020613a7f858286016139dd565b60008060408385031215613b7a57600080fd5b6000613b8685856139c7565b9250506020613a7f85828601613a1b565b600060208284031215613ba957600080fd5b600061269084846139d2565b60008060408385031215613bc857600080fd5b6000613bd485856139e8565b9250506020613a7f858286016139d2565b600060208284031215613bf757600080fd5b60006126908484613a1b565b600060208284031215613c1557600080fd5b60006126908484613a26565b60008060408385031215613c3457600080fd5b6000613b868585613a1b565b613c4981614195565b82525050565b613c498161415c565b613c4981614167565b613c49613c6d8261416c565b61089b565b613c49613c6d8261089b565b6000613c898261414f565b613c9381856108ba565b9350613ca38185602086016141bd565b9290920192915050565b613c498161419c565b613c49816141a7565b613c49816141b2565b6000613cd38261414f565b613cdd8185614153565b9350613ced8185602086016141bd565b613cf6816141e9565b9093019392505050565b6000613d0d601b83614153565b7f536166654d6174683a206164646974696f6e206f766572666c6f770000000000815260200192915050565b6000613d46602b83614153565b7f4d61726b65743a20436f75706f6e207472616e7366657220746f20746865207a81526a65726f206164647265737360a81b602082015260400192915050565b6000613d93602183614153565b7f536166654d6174683a206d756c7469706c69636174696f6e206f766572666c6f8152607760f81b602082015260400192915050565b6000613dd6603b83614153565b7f43616e6e6f742073657420612070726f787920696d706c656d656e746174696f81527f6e20746f2061206e6f6e2d636f6e747261637420616464726573730000000000602082015260400192915050565b6000613e35602a83614153565b7f4d61726b65743a20436f75706f6e20617070726f766520746f20746865207a65815269726f206164647265737360b01b602082015260400192915050565b6000613e81602d83614153565b7f4d61726b65743a20436f75706f6e207472616e736665722066726f6d2074686581526c207a65726f206164647265737360981b602082015260400192915050565b6000613ed0601b83614153565b7f4d61726b65743a20546f6f206561726c7920746f2072656465656d0000000000815260200192915050565b613c498161089b565b613c498161418f565b6000613f1a8284613c72565b50602001919050565b60006108fb8284613c7e565b6000613f3b8286613c7e565b9150613f478285613c61565b600282019150613f578284613c7e565b95945050505050565b602081016108a18284613c4f565b60608101613f7c8286613c40565b613f896020830185613c4f565b6126906040830184613efc565b60408101613fa48285613c40565b6108fb6020830184613efc565b60608101613f7c8286613c4f565b60408101613fa48285613c4f565b602081016108a18284613c58565b602081016108a18284613cad565b602081016108a18284613cb6565b60408101613fa48285613cb6565b602080825281016108fb8184613cc8565b602080825281016108a181613d00565b602080825281016108a181613d39565b602080825281016108a181613d86565b602080825281016108a181613dc9565b602080825281016108a181613e28565b602080825281016108a181613e74565b602080825281016108a181613ec3565b602081016108a18284613efc565b60408101613fa48285613efc565b608081016140b08287613efc565b6140bd6020830186613efc565b6140ca6040830185613cbf565b613f576060830184613efc565b606081016140e58286613efc565b613f896020830185613efc565b608081016141008287613efc565b61410d6020830186613efc565b6140ca6040830185613efc565b602081016108a18284613f05565b60405181810167ffffffffffffffff8111828210171561414757600080fd5b604052919050565b5190565b90815260200190565b60006108a182614183565b151590565b6001600160f01b03191690565b806108ba816141f3565b6001600160a01b031690565b60ff1690565b60006108a1825b60006108a18261415c565b60006108a182614179565b60006108a18261089b565b60005b838110156141d85781810151838201526020016141c0565b838111156125af5750506000910152565b601f01601f191690565b600381106110f857fe5b6142068161415c565b81146110f857600080fd5b61420681614167565b600381106110f857600080fd5b6142068161089b56fe4d61726b65743a20496e73756666696369656e7420636f75706f6e2062616c616e6365426f6e64696e673a20696e73756666696369656e74207374616765642062616c616e63654d61726b65743a20496e73756666696369656e7420636f75706f6e20617070726f76616c426f6e64696e673a20696e73756666696369656e7420746f74616c20626f6e646564436f6d7074726f6c6c65723a206e6f7420656e6f756768206f75747374616e64696e672064656274436f6d7074726f6c6c65723a206e6f7420656e6f7567682072656465656d61626c652062616c616e6365a365627a7a72315820f089159cb28936ce85808e35aca684adee40e4b945ac65b0c668ddad4c9ffac06c6578706572696d656e74616cf564736f6c63430005110040",
  "source": "/*\n    Copyright 2020 Empty Set Squad <emptysetsquad@protonmail.com>\n\n    Licensed under the Apache License, Version 2.0 (the \"License\");\n    you may not use this file except in compliance with the License.\n    You may obtain a copy of the License at\n\n    http://www.apache.org/licenses/LICENSE-2.0\n\n    Unless required by applicable law or agreed to in writing, software\n    distributed under the License is distributed on an \"AS IS\" BASIS,\n    WITHOUT WARRANTIES OR CONDITIONS OF ANY KIND, either express or implied.\n    See the License for the specific language governing permissions and\n    limitations under the License.\n*/\n\npragma solidity ^0.5.17;\npragma experimental ABIEncoderV2;\n\nimport \"@openzeppelin/contracts/math/SafeMath.sol\";\nimport \"./Market.sol\";\nimport \"./Regulator.sol\";\nimport \"./Bonding.sol\";\nimport \"./Govern.sol\";\nimport \"../Constants.sol\";\n\ncontract Implementation is State, Bonding, Market, Regulator, Govern {\n    using SafeMath for uint256;\n\n    event Advance(uint256 indexed epoch, uint256 block, uint256 timestamp);\n    event Incentivization(address indexed account, uint256 amount);\n\n    function initialize() initializer public {\n        // Reward committer\n        incentivize(msg.sender, Constants.getAdvanceIncentive());\n        // Dev rewards\n        incentivize(address(0x739e3aD76c6BBe301e6e358a1f8326F31ab89335), 2500e18);\n\n        // Cut the debt to 40% to ease any potential premium shock\n        uint256 decreaseAmount = totalDebt().mul(3).div(5);\n        decreaseDebt(decreaseAmount);\n    }\n\n    function advance() external {\n        incentivize(msg.sender, Constants.getAdvanceIncentive());\n\n        Bonding.step();\n        Regulator.step();\n        Market.step();\n\n        emit Advance(epoch(), block.number, block.timestamp);\n    }\n\n    function incentivize(address account, uint256 amount) private {\n        mintToAccount(account, amount);\n        emit Incentivization(account, amount);\n    }\n}\n",
  "sourcePath": "/Users/sachin/code/dollar/contracts/dao/Implementation.sol",
  "compiler": {
    "name": "solc",
    "version": "0.5.17+commit.d19bba13.Emscripten.clang"
  },
  "schemaVersion": "3.3.3",
  "updatedAt": "2021-01-01T20:56:35.027Z",
  "networkType": "ethereum",
  "devdoc": {
    "methods": {}
  },
  "userdoc": {
    "methods": {
      "balanceOfStaged(address)": {
        "notice": "Account"
      },
      "dollar()": {
        "notice": "Global"
      },
      "epoch()": {
        "notice": "Epoch"
      },
      "name()": {
        "notice": "ERC20 Interface"
      },
      "recordedVote(address,address)": {
        "notice": "Governance"
      },
      "transfer(address,uint256)": {
        "notice": "ERC20 Interface"
      }
    }
  }
}