{
  "contractName": "Market",
  "abi": [
    {
      "anonymous": false,
      "inputs": [
        {
          "indexed": true,
          "internalType": "address",
          "name": "owner",
          "type": "address"
        },
        {
          "indexed": true,
          "internalType": "address",
          "name": "spender",
          "type": "address"
        },
        {
          "indexed": false,
          "internalType": "uint256",
          "name": "value",
          "type": "uint256"
        }
      ],
      "name": "CouponApproval",
      "type": "event"
    },
    {
      "anonymous": false,
      "inputs": [
        {
          "indexed": true,
          "internalType": "uint256",
          "name": "epoch",
          "type": "uint256"
        },
        {
          "indexed": false,
          "internalType": "uint256",
          "name": "couponsExpired",
          "type": "uint256"
        },
        {
          "indexed": false,
          "internalType": "uint256",
          "name": "lessRedeemable",
          "type": "uint256"
        },
        {
          "indexed": false,
          "internalType": "uint256",
          "name": "lessDebt",
          "type": "uint256"
        },
        {
          "indexed": false,
          "internalType": "uint256",
          "name": "newBonded",
          "type": "uint256"
        }
      ],
      "name": "CouponExpiration",
      "type": "event"
    },
    {
      "anonymous": false,
      "inputs": [
        {
          "indexed": true,
          "internalType": "address",
          "name": "account",
          "type": "address"
        },
        {
          "indexed": true,
          "internalType": "uint256",
          "name": "epoch",
          "type": "uint256"
        },
        {
          "indexed": false,
          "internalType": "uint256",
          "name": "dollarAmount",
          "type": "uint256"
        },
        {
          "indexed": false,
          "internalType": "uint256",
          "name": "couponAmount",
          "type": "uint256"
        }
      ],
      "name": "CouponPurchase",
      "type": "event"
    },
    {
      "anonymous": false,
      "inputs": [
        {
          "indexed": true,
          "internalType": "address",
          "name": "account",
          "type": "address"
        },
        {
          "indexed": true,
          "internalType": "uint256",
          "name": "epoch",
          "type": "uint256"
        },
        {
          "indexed": false,
          "internalType": "uint256",
          "name": "couponAmount",
          "type": "uint256"
        }
      ],
      "name": "CouponRedemption",
      "type": "event"
    },
    {
      "anonymous": false,
      "inputs": [
        {
          "indexed": true,
          "internalType": "address",
          "name": "from",
          "type": "address"
        },
        {
          "indexed": true,
          "internalType": "address",
          "name": "to",
          "type": "address"
        },
        {
          "indexed": true,
          "internalType": "uint256",
          "name": "epoch",
          "type": "uint256"
        },
        {
          "indexed": false,
          "internalType": "uint256",
          "name": "value",
          "type": "uint256"
        }
      ],
      "name": "CouponTransfer",
      "type": "event"
    },
    {
      "anonymous": false,
      "inputs": [
        {
          "indexed": true,
          "internalType": "address",
          "name": "from",
          "type": "address"
        },
        {
          "indexed": true,
          "internalType": "address",
          "name": "to",
          "type": "address"
        },
        {
          "indexed": false,
          "internalType": "uint256",
          "name": "value",
          "type": "uint256"
        }
      ],
      "name": "Transfer",
      "type": "event"
    },
    {
      "constant": true,
      "inputs": [
        {
          "internalType": "address",
          "name": "owner",
          "type": "address"
        },
        {
          "internalType": "address",
          "name": "spender",
          "type": "address"
        }
      ],
      "name": "allowance",
      "outputs": [
        {
          "internalType": "uint256",
          "name": "",
          "type": "uint256"
        }
      ],
      "payable": false,
      "stateMutability": "view",
      "type": "function"
    },
    {
      "constant": true,
      "inputs": [
        {
          "internalType": "address",
          "name": "owner",
          "type": "address"
        },
        {
          "internalType": "address",
          "name": "spender",
          "type": "address"
        }
      ],
      "name": "allowanceCoupons",
      "outputs": [
        {
          "internalType": "uint256",
          "name": "",
          "type": "uint256"
        }
      ],
      "payable": false,
      "stateMutability": "view",
      "type": "function"
    },
    {
      "constant": false,
      "inputs": [
        {
          "internalType": "address",
          "name": "spender",
          "type": "address"
        },
        {
          "internalType": "uint256",
          "name": "amount",
          "type": "uint256"
        }
      ],
      "name": "approve",
      "outputs": [
        {
          "internalType": "bool",
          "name": "",
          "type": "bool"
        }
      ],
      "payable": false,
      "stateMutability": "nonpayable",
      "type": "function"
    },
    {
      "constant": true,
      "inputs": [
        {
          "internalType": "address",
          "name": "candidate",
          "type": "address"
        }
      ],
      "name": "approveFor",
      "outputs": [
        {
          "internalType": "uint256",
          "name": "",
          "type": "uint256"
        }
      ],
      "payable": false,
      "stateMutability": "view",
      "type": "function"
    },
    {
      "constant": true,
      "inputs": [
        {
          "internalType": "address",
          "name": "account",
          "type": "address"
        }
      ],
      "name": "balanceOf",
      "outputs": [
        {
          "internalType": "uint256",
          "name": "",
          "type": "uint256"
        }
      ],
      "payable": false,
      "stateMutability": "view",
      "type": "function"
    },
    {
      "constant": true,
      "inputs": [
        {
          "internalType": "address",
          "name": "account",
          "type": "address"
        }
      ],
      "name": "balanceOfBonded",
      "outputs": [
        {
          "internalType": "uint256",
          "name": "",
          "type": "uint256"
        }
      ],
      "payable": false,
      "stateMutability": "view",
      "type": "function"
    },
    {
      "constant": true,
      "inputs": [
        {
          "internalType": "address",
          "name": "account",
          "type": "address"
        },
        {
          "internalType": "uint256",
          "name": "epoch",
          "type": "uint256"
        }
      ],
      "name": "balanceOfCoupons",
      "outputs": [
        {
          "internalType": "uint256",
          "name": "",
          "type": "uint256"
        }
      ],
      "payable": false,
      "stateMutability": "view",
      "type": "function"
    },
    {
      "constant": true,
      "inputs": [
        {
          "internalType": "address",
          "name": "account",
          "type": "address"
        }
      ],
      "name": "balanceOfStaged",
      "outputs": [
        {
          "internalType": "uint256",
          "name": "",
          "type": "uint256"
        }
      ],
      "payable": false,
      "stateMutability": "view",
      "type": "function"
    },
    {
      "constant": true,
      "inputs": [
        {
          "internalType": "uint256",
          "name": "epoch",
          "type": "uint256"
        }
      ],
      "name": "bootstrappingAt",
      "outputs": [
        {
          "internalType": "bool",
          "name": "",
          "type": "bool"
        }
      ],
      "payable": false,
      "stateMutability": "view",
      "type": "function"
    },
    {
      "constant": true,
      "inputs": [
        {
          "internalType": "uint256",
          "name": "epoch",
          "type": "uint256"
        }
      ],
      "name": "couponsExpiration",
      "outputs": [
        {
          "internalType": "uint256",
          "name": "",
          "type": "uint256"
        }
      ],
      "payable": false,
      "stateMutability": "view",
      "type": "function"
    },
    {
      "constant": true,
      "inputs": [],
      "name": "decimals",
      "outputs": [
        {
          "internalType": "uint8",
          "name": "",
          "type": "uint8"
        }
      ],
      "payable": false,
      "stateMutability": "view",
      "type": "function"
    },
    {
      "constant": true,
      "inputs": [],
      "name": "dollar",
      "outputs": [
        {
          "internalType": "contract IDollar",
          "name": "",
          "type": "address"
        }
      ],
      "payable": false,
      "stateMutability": "view",
      "type": "function"
    },
    {
      "constant": true,
      "inputs": [],
      "name": "epoch",
      "outputs": [
        {
          "internalType": "uint256",
          "name": "",
          "type": "uint256"
        }
      ],
      "payable": false,
      "stateMutability": "view",
      "type": "function"
    },
    {
      "constant": true,
      "inputs": [],
      "name": "epochTime",
      "outputs": [
        {
          "internalType": "uint256",
          "name": "",
          "type": "uint256"
        }
      ],
      "payable": false,
      "stateMutability": "view",
      "type": "function"
    },
    {
      "constant": true,
      "inputs": [
        {
          "internalType": "uint256",
          "name": "epoch",
          "type": "uint256"
        }
      ],
      "name": "expiringCoupons",
      "outputs": [
        {
          "internalType": "uint256",
          "name": "",
          "type": "uint256"
        }
      ],
      "payable": false,
      "stateMutability": "view",
      "type": "function"
    },
    {
      "constant": true,
      "inputs": [
        {
          "internalType": "uint256",
          "name": "epoch",
          "type": "uint256"
        },
        {
          "internalType": "uint256",
          "name": "i",
          "type": "uint256"
        }
      ],
      "name": "expiringCouponsAtIndex",
      "outputs": [
        {
          "internalType": "uint256",
          "name": "",
          "type": "uint256"
        }
      ],
      "payable": false,
      "stateMutability": "view",
      "type": "function"
    },
    {
      "constant": true,
      "inputs": [
        {
          "internalType": "address",
          "name": "account",
          "type": "address"
        }
      ],
      "name": "fluidUntil",
      "outputs": [
        {
          "internalType": "uint256",
          "name": "",
          "type": "uint256"
        }
      ],
      "payable": false,
      "stateMutability": "view",
      "type": "function"
    },
    {
      "constant": true,
      "inputs": [],
      "name": "implementation",
      "outputs": [
        {
          "internalType": "address",
          "name": "impl",
          "type": "address"
        }
      ],
      "payable": false,
      "stateMutability": "view",
      "type": "function"
    },
    {
      "constant": true,
      "inputs": [
        {
          "internalType": "address",
          "name": "candidate",
          "type": "address"
        }
      ],
      "name": "isInitialized",
      "outputs": [
        {
          "internalType": "bool",
          "name": "",
          "type": "bool"
        }
      ],
      "payable": false,
      "stateMutability": "view",
      "type": "function"
    },
    {
      "constant": true,
      "inputs": [
        {
          "internalType": "address",
          "name": "candidate",
          "type": "address"
        }
      ],
      "name": "isNominated",
      "outputs": [
        {
          "internalType": "bool",
          "name": "",
          "type": "bool"
        }
      ],
      "payable": false,
      "stateMutability": "view",
      "type": "function"
    },
    {
      "constant": true,
      "inputs": [
        {
          "internalType": "address",
          "name": "account",
          "type": "address"
        }
      ],
      "name": "lockedUntil",
      "outputs": [
        {
          "internalType": "uint256",
          "name": "",
          "type": "uint256"
        }
      ],
      "payable": false,
      "stateMutability": "view",
      "type": "function"
    },
    {
      "constant": true,
      "inputs": [],
      "name": "name",
      "outputs": [
        {
          "internalType": "string",
          "name": "",
          "type": "string"
        }
      ],
      "payable": false,
      "stateMutability": "view",
      "type": "function"
    },
    {
      "constant": true,
      "inputs": [],
      "name": "oracle",
      "outputs": [
        {
          "internalType": "contract IOracle",
          "name": "",
          "type": "address"
        }
      ],
      "payable": false,
      "stateMutability": "view",
      "type": "function"
    },
    {
      "constant": true,
      "inputs": [
        {
          "internalType": "uint256",
          "name": "epoch",
          "type": "uint256"
        }
      ],
      "name": "outstandingCoupons",
      "outputs": [
        {
          "internalType": "uint256",
          "name": "",
          "type": "uint256"
        }
      ],
      "payable": false,
      "stateMutability": "view",
      "type": "function"
    },
    {
      "constant": true,
      "inputs": [
        {
          "internalType": "address",
          "name": "candidate",
          "type": "address"
        }
      ],
      "name": "periodFor",
      "outputs": [
        {
          "internalType": "uint256",
          "name": "",
          "type": "uint256"
        }
      ],
      "payable": false,
      "stateMutability": "view",
      "type": "function"
    },
    {
      "constant": true,
      "inputs": [],
      "name": "pool",
      "outputs": [
        {
          "internalType": "address",
          "name": "",
          "type": "address"
        }
      ],
      "payable": false,
      "stateMutability": "view",
      "type": "function"
    },
    {
      "constant": true,
      "inputs": [
        {
          "internalType": "address",
          "name": "account",
          "type": "address"
        },
        {
          "internalType": "address",
          "name": "candidate",
          "type": "address"
        }
      ],
      "name": "recordedVote",
      "outputs": [
        {
          "internalType": "enum Candidate.Vote",
          "name": "",
          "type": "uint8"
        }
      ],
      "payable": false,
      "stateMutability": "view",
      "type": "function"
    },
    {
      "constant": true,
      "inputs": [
        {
          "internalType": "address",
          "name": "candidate",
          "type": "address"
        }
      ],
      "name": "rejectFor",
      "outputs": [
        {
          "internalType": "uint256",
          "name": "",
          "type": "uint256"
        }
      ],
      "payable": false,
      "stateMutability": "view",
      "type": "function"
    },
    {
      "constant": true,
      "inputs": [
        {
          "internalType": "address",
          "name": "candidate",
          "type": "address"
        }
      ],
      "name": "startFor",
      "outputs": [
        {
          "internalType": "uint256",
          "name": "",
          "type": "uint256"
        }
      ],
      "payable": false,
      "stateMutability": "view",
      "type": "function"
    },
    {
      "constant": true,
      "inputs": [
        {
          "internalType": "address",
          "name": "account",
          "type": "address"
        }
      ],
      "name": "statusOf",
      "outputs": [
        {
          "internalType": "enum Account.Status",
          "name": "",
          "type": "uint8"
        }
      ],
      "payable": false,
      "stateMutability": "view",
      "type": "function"
    },
    {
      "constant": true,
      "inputs": [],
      "name": "symbol",
      "outputs": [
        {
          "internalType": "string",
          "name": "",
          "type": "string"
        }
      ],
      "payable": false,
      "stateMutability": "view",
      "type": "function"
    },
    {
      "constant": true,
      "inputs": [],
      "name": "totalBonded",
      "outputs": [
        {
          "internalType": "uint256",
          "name": "",
          "type": "uint256"
        }
      ],
      "payable": false,
      "stateMutability": "view",
      "type": "function"
    },
    {
      "constant": true,
      "inputs": [
        {
          "internalType": "uint256",
          "name": "epoch",
          "type": "uint256"
        }
      ],
      "name": "totalBondedAt",
      "outputs": [
        {
          "internalType": "uint256",
          "name": "",
          "type": "uint256"
        }
      ],
      "payable": false,
      "stateMutability": "view",
      "type": "function"
    },
    {
      "constant": true,
      "inputs": [],
      "name": "totalCoupons",
      "outputs": [
        {
          "internalType": "uint256",
          "name": "",
          "type": "uint256"
        }
      ],
      "payable": false,
      "stateMutability": "view",
      "type": "function"
    },
    {
      "constant": true,
      "inputs": [],
      "name": "totalDebt",
      "outputs": [
        {
          "internalType": "uint256",
          "name": "",
          "type": "uint256"
        }
      ],
      "payable": false,
      "stateMutability": "view",
      "type": "function"
    },
    {
      "constant": true,
      "inputs": [],
      "name": "totalNet",
      "outputs": [
        {
          "internalType": "uint256",
          "name": "",
          "type": "uint256"
        }
      ],
      "payable": false,
      "stateMutability": "view",
      "type": "function"
    },
    {
      "constant": true,
      "inputs": [],
      "name": "totalRedeemable",
      "outputs": [
        {
          "internalType": "uint256",
          "name": "",
          "type": "uint256"
        }
      ],
      "payable": false,
      "stateMutability": "view",
      "type": "function"
    },
    {
      "constant": true,
      "inputs": [],
      "name": "totalStaged",
      "outputs": [
        {
          "internalType": "uint256",
          "name": "",
          "type": "uint256"
        }
      ],
      "payable": false,
      "stateMutability": "view",
      "type": "function"
    },
    {
      "constant": true,
      "inputs": [],
      "name": "totalSupply",
      "outputs": [
        {
          "internalType": "uint256",
          "name": "",
          "type": "uint256"
        }
      ],
      "payable": false,
      "stateMutability": "view",
      "type": "function"
    },
    {
      "constant": false,
      "inputs": [
        {
          "internalType": "address",
          "name": "recipient",
          "type": "address"
        },
        {
          "internalType": "uint256",
          "name": "amount",
          "type": "uint256"
        }
      ],
      "name": "transfer",
      "outputs": [
        {
          "internalType": "bool",
          "name": "",
          "type": "bool"
        }
      ],
      "payable": false,
      "stateMutability": "nonpayable",
      "type": "function"
    },
    {
      "constant": false,
      "inputs": [
        {
          "internalType": "address",
          "name": "sender",
          "type": "address"
        },
        {
          "internalType": "address",
          "name": "recipient",
          "type": "address"
        },
        {
          "internalType": "uint256",
          "name": "amount",
          "type": "uint256"
        }
      ],
      "name": "transferFrom",
      "outputs": [
        {
          "internalType": "bool",
          "name": "",
          "type": "bool"
        }
      ],
      "payable": false,
      "stateMutability": "nonpayable",
      "type": "function"
    },
    {
      "constant": true,
      "inputs": [
        {
          "internalType": "address",
          "name": "candidate",
          "type": "address"
        }
      ],
      "name": "votesFor",
      "outputs": [
        {
          "internalType": "uint256",
          "name": "",
          "type": "uint256"
        }
      ],
      "payable": false,
      "stateMutability": "view",
      "type": "function"
    },
    {
      "constant": true,
      "inputs": [
        {
          "internalType": "uint256",
          "name": "amount",
          "type": "uint256"
        }
      ],
      "name": "couponPremium",
      "outputs": [
        {
          "internalType": "uint256",
          "name": "",
          "type": "uint256"
        }
      ],
      "payable": false,
      "stateMutability": "view",
      "type": "function"
    },
    {
      "constant": false,
      "inputs": [
        {
          "internalType": "uint256",
          "name": "dollarAmount",
          "type": "uint256"
        }
      ],
      "name": "purchaseCoupons",
      "outputs": [
        {
          "internalType": "uint256",
          "name": "",
          "type": "uint256"
        }
      ],
      "payable": false,
      "stateMutability": "nonpayable",
      "type": "function"
    },
    {
      "constant": false,
      "inputs": [
        {
          "internalType": "uint256",
          "name": "couponEpoch",
          "type": "uint256"
        },
        {
          "internalType": "uint256",
          "name": "couponAmount",
          "type": "uint256"
        }
      ],
      "name": "redeemCoupons",
      "outputs": [],
      "payable": false,
      "stateMutability": "nonpayable",
      "type": "function"
    },
    {
      "constant": false,
      "inputs": [
        {
          "internalType": "address",
          "name": "spender",
          "type": "address"
        },
        {
          "internalType": "uint256",
          "name": "amount",
          "type": "uint256"
        }
      ],
      "name": "approveCoupons",
      "outputs": [],
      "payable": false,
      "stateMutability": "nonpayable",
      "type": "function"
    },
    {
      "constant": false,
      "inputs": [
        {
          "internalType": "address",
          "name": "sender",
          "type": "address"
        },
        {
          "internalType": "address",
          "name": "recipient",
          "type": "address"
        },
        {
          "internalType": "uint256",
          "name": "epoch",
          "type": "uint256"
        },
        {
          "internalType": "uint256",
          "name": "amount",
          "type": "uint256"
        }
      ],
      "name": "transferCoupons",
      "outputs": [],
      "payable": false,
      "stateMutability": "nonpayable",
      "type": "function"
    }
  ],
  "bytecode": "0x608060405234801561001057600080fd5b506121ed806100206000396000f3fe608060405234801561001057600080fd5b50600436106102945760003560e01c806375d5024b11610167578063a9059cbb116100ce578063d8f5413811610087578063d8f5413814610552578063dd62ed3e14610565578063e5f55c7e14610573578063f1b7cf4914610586578063fc7b9c1814610599578063ffbe3b73146105a157610294565b8063a9059cbb146102cc578063bc7513e2146104fe578063c9aff70c14610511578063cf02377914610524578063d60b347f1461052c578063d6a9cf081461053f57610294565b806397a5d5b51161012057806397a5d5b5146104a25780639a649edc146104b55780639bc289f1146104bd5780639f6e1b26146104d0578063a50cd8e7146104e3578063a6c409f1146104f657610294565b806375d5024b146104515780637dc0d1d014610464578063825ad6071461046c57806386cf9f141461047f578063900cf0cf1461049257806395d89b411461049a57610294565b8063353a420c1161020b57806351adeb57116101c457806351adeb57146103e857806351bf21d8146103fd5780635c60da1b1461041057806364668022146104185780636a39e3281461042b57806370a082311461043e57610294565b8063353a420c1461037f5780633a3e6c81146103925780633fbba9a6146103a557806344d96e95146103c55780634c736099146103cd5780635053e461146103e057610294565b806316f0115b1161025d57806316f0115b1461031f57806318160ddd146103345780631edbcf6c1461033c57806323b872dd146103445780632f7f889e14610357578063313ce5671461036a57610294565b80625edd371461029957806306fdde03146102ae578063095ea7b3146102cc57806310e95b6c146102ec57806315e14bf61461030c575b600080fd5b6102ac6102a7366004611b82565b6105b4565b005b6102b66106d7565b6040516102c39190611faa565b60405180910390f35b6102df6102da366004611be3565b610707565b6040516102c39190611f80565b6102ff6102fa366004611c31565b610710565b6040516102c3919061201b565b6102ff61031a366004611add565b610728565b610327610746565b6040516102c39190611f2f565b6102ff610755565b6102ff61075b565b6102df610352366004611b35565b610761565b6102ac610365366004611be3565b61076b565b6103726107eb565b6040516102c39190612037565b6102ff61038d366004611add565b6107f0565b6102df6103a0366004611add565b61080e565b6103b86103b3366004611afb565b61082b565b6040516102c39190611f9c565b6102ff61085e565b6102ff6103db366004611c6d565b610864565b6102ff610894565b6103f06108ea565b6040516102c39190611f8e565b6102ff61040b366004611add565b6108f9565b610327610917565b6102ff610426366004611add565b61093c565b6102ff610439366004611c31565b61095a565b6102ff61044c366004611add565b61096f565b6102df61045f366004611c31565b61098d565b6103f06109a0565b6102ff61047a366004611add565b6109af565b6102ff61048d366004611add565b6109fb565b6102ff610a16565b6102b6610a1c565b6103b86104b0366004611add565b610a3a565b6102ff610a9f565b6102ff6104cb366004611add565b610aa5565b6102ff6104de366004611afb565b610ac3565b6102ff6104f1366004611add565b610af2565b6102ff610b15565b6102ff61050c366004611be3565b610bab565b6102ff61051f366004611c31565b610bef565b6102ff610c04565b6102df61053a366004611add565b610c0a565b6102ac61054d366004611c6d565b610c2b565b6102ff610560366004611c31565b610cbf565b6102ff6102da366004611afb565b6102ff610581366004611c31565b610d4a565b6102ff610594366004611add565b610e3c565b6102ff610e57565b6102ff6105af366004611c31565b610e5d565b6001600160a01b0384166105e35760405162461bcd60e51b81526004016105da90611ffb565b60405180910390fd5b6001600160a01b0383166106095760405162461bcd60e51b81526004016105da90611fcb565b61062d84838360405180606001604052806023815260200161211260239139610e6f565b610638838383610f1a565b336001600160a01b0385161480159061065c57506000196106598533610ac3565b14155b156106855761068584338360405180606001604052806024815260200161213560249139610fc1565b81836001600160a01b0316856001600160a01b03167f0f1dbb1ccbe57a1590c7baad7b01d581b730c9ebc535dcde4345e6db424063d8846040516106c9919061201b565b60405180910390a450505050565b604080518082019091526016815275456d7074792053657420446f6c6c6172205374616b6560501b602082015290565b60005b92915050565b6000818152600d60205260409020600201545b919050565b6001600160a01b03166000908152600e602052604090206001015490565b600b546001600160a01b031690565b60035490565b60065490565b60005b9392505050565b6001600160a01b0382166107915760405162461bcd60e51b81526004016105da90611feb565b61079c338383611032565b816001600160a01b0316336001600160a01b03167f8ff27e6b95060c1ca851e7c2c28af8b413eb1a8bcb637b0290da9543a709cce3836040516107df919061201b565b60405180910390a35050565b601290565b6001600160a01b03166000908152600e602052604090206003015490565b6001600160a01b03166000908152600e6020526040902054151590565b6001600160a01b038082166000908152600e60209081526040808320938616835260049093019052205460ff1692915050565b60045490565b6000828152600d6020526040812060030180548390811061088157fe5b9060005260206000200154905092915050565b600061089e611a7d565b6108a6611062565b90506108b0611a7d565b6108b8611091565b905081602001516108c76110c1565b106108da576108d5826110c5565b6108e3565b6108e3816110c5565b9250505090565b6009546001600160a01b031690565b6001600160a01b03166000908152600c602052604090206004015490565b7f360894a13ba1a3210667c828492db98dca3e2076cc3735a920a3ca505d382bbc5490565b6001600160a01b03166000908152600e602052604090206002015490565b6000908152600d602052604090206003015490565b6001600160a01b03166000908152600c602052604090206001015490565b60006109976110e7565b90911115919050565b600a546001600160a01b031690565b6000806109ba610755565b9050806109cb576000915050610723565b610764816109ef6109db8661096f565b6109e361085e565b9063ffffffff6110ec16565b9063ffffffff61112616565b6001600160a01b03166000908152600c602052604090205490565b60025490565b6040805180820190915260048152634553445360e01b602082015290565b6000610a44610a16565b6001600160a01b0383166000908152600c60205260409020600501541115610a6e57506002610723565b6001600160a01b0382166000908152600c6020526040902060040154610a92610a16565b101561070757600161070a565b60085490565b6001600160a01b03166000908152600c602052604090206005015490565b6001600160a01b039182166000908152600c602090815260408083209390941682526003909201909152205490565b600061070a610b00836107f0565b610b098461093c565b9063ffffffff61116816565b6000610ba6610b22610e57565b610b2a6108ea565b6001600160a01b03166318160ddd6040518163ffffffff1660e01b815260040160206040518083038186803b158015610b6257600080fd5b505afa158015610b76573d6000803e3d6000fd5b505050506040513d601f19601f82011682018060405250610b9a9190810190611c4f565b9063ffffffff61118d16565b905090565b6000610bb682610bef565b610bc25750600061070a565b506001600160a01b03919091166000908152600c6020908152604080832093835260029093019052205490565b6000908152600d602052604090206001015490565b60055490565b6001600160a01b03166000908152600e602052604090206005015460ff1690565b6002610c3983610b9a610a16565b1015610c575760405162461bcd60e51b81526004016105da9061200b565b610c7b33838360405180606001604052806023815260200161211260239139610e6f565b610c8533826111cf565b81336001600160a01b03167f46e9903ae8ac9e9f0c9bc321b05965c1c036e7d4783758703f5cdfc4133c51b6836040516107df919061201b565b600061070a610ccc6108ea565b6001600160a01b03166318160ddd6040518163ffffffff1660e01b815260040160206040518083038186803b158015610d0457600080fd5b505afa158015610d18573d6000803e3d6000fd5b505050506040513d601f19601f82011682018060405250610d3c9190810190611c4f565b610d44610e57565b84611285565b6000610d83600083116513585c9ad95d60d21b7f4d757374207075726368617365206e6f6e2d7a65726f20616d6f756e740000006112b2565b610db382610d8f610e57565b10156513585c9ad95d60d21b6e139bdd08195b9bdd59da081919589d608a1b6112b2565b6000610dbd610a16565b90506000610dda610dcd85610cbf565b859063ffffffff61116816565b9050610de6338561130c565b610df1338383610f1a565b81336001600160a01b03167fbce252db29f761f815dc2e9ea60005af065efba6eb619d2a0b2a113fdeb614148684604051610e2d929190612029565b60405180910390a39392505050565b6001600160a01b03166000908152600e602052604090205490565b60075490565b6000908152600d602052604090205490565b6001600160a01b0384166000908152600c60209081526040808320868452600201909152902054610ea790838363ffffffff61141d16565b6001600160a01b0385166000908152600c60209081526040808320878452600201825280832093909355600d90522060010154610eeb90838363ffffffff61141d16565b6000848152600d6020526040902060010155600854610f1190838363ffffffff61141d16565b60085550505050565b6001600160a01b0383166000908152600c60209081526040808320858452600201909152902054610f51908263ffffffff61116816565b6001600160a01b0384166000908152600c60209081526040808320868452600201825280832093909355600d90522060010154610f94908263ffffffff61116816565b6000838152600d6020526040902060010155600854610fb9908263ffffffff61116816565b600855505050565b6001600160a01b038085166000908152600c602090815260408083209387168352600390930190522054610ffc90838363ffffffff61141d16565b6001600160a01b039485166000908152600c60209081526040808320969097168252600390950190945293909220929092555050565b6001600160a01b039283166000908152600c60209081526040808320949095168252600390930190925291902055565b61106a611a7d565b6040518060600160405280606a8152602001635f7fa8008152602001617080815250905090565b611099611a7d565b6040518060600160405280605b8152602001635f6be180815260200162015180815250905090565b4290565b600061070a8260000151610b0984604001516109ef8660200151610b9a6110c1565b605a90565b6000826110fb5750600061070a565b8282028284828161110857fe5b04146107645760405162461bcd60e51b81526004016105da90611fdb565b600061076483836040518060400160405280601a81526020017f536166654d6174683a206469766973696f6e206279207a65726f000000000000815250611449565b6000828201838110156107645760405162461bcd60e51b81526004016105da90611fbb565b600061076483836040518060400160405280601e81526020017f536166654d6174683a207375627472616374696f6e206f766572666c6f77000081525061141d565b6111d76108ea565b6001600160a01b031663a9059cbb83836040518363ffffffff1660e01b8152600401611204929190611f65565b602060405180830381600087803b15801561121e57600080fd5b505af1158015611232573d6000803e3d6000fd5b505050506040513d601f19601f820116820180604052506112569190810190611c13565b50611279816040518060600160405280602a8152602001612181602a9139611480565b61128161149b565b5050565b60006112aa6112a583611299878787611570565b9063ffffffff6116e916565b611719565b949350505050565b82611307576112c082611736565b6101d160f51b6112cf83611736565b6040516020016112e193929190611efe565b60408051601f198184030181529082905262461bcd60e51b82526105da91600401611faa565b505050565b6113146108ea565b6001600160a01b03166323b872dd8330846040518463ffffffff1660e01b815260040161134393929190611f3d565b602060405180830381600087803b15801561135d57600080fd5b505af1158015611371573d6000803e3d6000fd5b505050506040513d601f19601f820116820180604052506113959190810190611c13565b5061139e6108ea565b6001600160a01b03166342966c68826040518263ffffffff1660e01b81526004016113c9919061201b565b600060405180830381600087803b1580156113e357600080fd5b505af11580156113f7573d6000803e3d6000fd5b5050505061127981604051806060016040528060288152602001612159602891396117b6565b600081848411156114415760405162461bcd60e51b81526004016105da9190611faa565b505050900390565b6000818361146a5760405162461bcd60e51b81526004016105da9190611faa565b50600083858161147657fe5b0495945050505050565b60065461149490838363ffffffff61141d16565b6006555050565b61156e6114bc6114a961075b565b610b096114b4610c04565b610b0961085e565b6114c46108ea565b6001600160a01b03166370a08231306040518263ffffffff1660e01b81526004016114ef9190611f2f565b60206040518083038186803b15801561150757600080fd5b505afa15801561151b573d6000803e3d6000fd5b505050506040513d601f19601f8201168201806040525061153f9190810190611c4f565b10156a21b7b6b83a3937b63632b960a91b74496e636f6e73697374656e742062616c616e63657360581b6112b2565b565b611578611a9e565b611580611a9e565b61158a84866117d1565b9050611594611a9e565b61159c6117f7565b905060006115b0878663ffffffff61118d16565b905060006115c4878763ffffffff61118d16565b90506115ce611a9e565b6115d882846117d1565b90506115ea858563ffffffff61181916565b156116d2576115ff818563ffffffff61181916565b156116195761160d8461182f565b95505050505050610764565b611621611a9e565b61162b8286611876565b9050611635611a9e565b611645868463ffffffff6118d816565b905061164f611a9e565b6116588761182f565b9050611662611a9e565b611672898963ffffffff6118d816565b90506116c2611687848363ffffffff61190116565b6116b661169a858563ffffffff61192a16565b6116aa888863ffffffff61192a16565b9063ffffffff61190116565b9063ffffffff61195816565b9950505050505050505050610764565b6116dc8186611876565b9998505050505050505050565b6116f1611a9e565b604080516020810190915283518190611710908563ffffffff6110ec16565b90529392505050565b805160009061070a90670de0b6b3a764000063ffffffff61112616565b6060808260405160200161174a9190611ee9565b60408051601f19818403018152919052905060205b801561179f5781516000199091019082908290811061177a57fe5b01602001516001600160f81b0319161561179a5760010181529050610723565b61175f565b505060408051600081526020810190915292915050565b6007546117ca90838363ffffffff61141d16565b6007555050565b6117d9611a9e565b604051806020016040528061171085670de0b6b3a764000086611982565b6117ff611a9e565b506040805160208101909152670214e8348c4f0000815290565b60006118258383611998565b6002149392505050565b611837611a9e565b61070a6118426119ca565b61185661186e6002611862876118566119ca565b9063ffffffff6118d816565b9063ffffffff6119ec16565b6116b66119ca565b61187e611a9e565b61188e838363ffffffff611a4216565b156118a35761189c8361182f565b905061070a565b6107646118ae6119ca565b61185661186e6118c0876118566119ca565b6118cc876118566119ca565b9063ffffffff61192a16565b6118e0611a9e565b6040805160208101909152825184518291611710919063ffffffff61118d16565b611909611a9e565b6040805160208101909152825184518291611710919063ffffffff61116816565b611932611a9e565b604051806020016040528061171085600001518560000151670de0b6b3a7640000611982565b611960611a9e565b60405180602001604052806117108560000151670de0b6b3a764000086600001515b60006112aa826109ef868663ffffffff6110ec16565b8051825160009114156119ad5750600161070a565b81518351116119bd5760006119c0565b60025b60ff169392505050565b6119d2611a9e565b506040805160208101909152670de0b6b3a7640000815290565b6119f4611a9e565b81611a035761189c6001611a49565b611a0b611a9e565b5060408051602081019091528351815260015b83811015611a3a57611a30828661192a565b9150600101611a1e565b509392505050565b5190511490565b611a51611a9e565b604080516020810190915280611a7584670de0b6b3a764000063ffffffff6110ec16565b905292915050565b60405180606001604052806000815260200160008152602001600081525090565b6040518060200160405280600081525090565b803561070a816120eb565b805161070a816120ff565b803561070a81612108565b805161070a81612108565b600060208284031215611aef57600080fd5b60006112aa8484611ab1565b60008060408385031215611b0e57600080fd5b6000611b1a8585611ab1565b9250506020611b2b85828601611ab1565b9150509250929050565b600080600060608486031215611b4a57600080fd5b6000611b568686611ab1565b9350506020611b6786828701611ab1565b9250506040611b7886828701611ac7565b9150509250925092565b60008060008060808587031215611b9857600080fd5b6000611ba48787611ab1565b9450506020611bb587828801611ab1565b9350506040611bc687828801611ac7565b9250506060611bd787828801611ac7565b91505092959194509250565b60008060408385031215611bf657600080fd5b6000611c028585611ab1565b9250506020611b2b85828601611ac7565b600060208284031215611c2557600080fd5b60006112aa8484611abc565b600060208284031215611c4357600080fd5b60006112aa8484611ac7565b600060208284031215611c6157600080fd5b60006112aa8484611ad2565b60008060408385031215611c8057600080fd5b6000611c028585611ac7565b611c9581612052565b82525050565b611c958161205d565b611c95611cb082612062565b61206f565b611c95611cb08261206f565b6000611ccc82612045565b611cd68185610723565b9350611ce68185602086016120a4565b9290920192915050565b611c958161208e565b611c9581612099565b6000611d0d82612045565b611d178185612049565b9350611d278185602086016120a4565b611d30816120d4565b9093019392505050565b6000611d47601b83612049565b7f536166654d6174683a206164646974696f6e206f766572666c6f770000000000815260200192915050565b6000611d80602b83612049565b7f4d61726b65743a20436f75706f6e207472616e7366657220746f20746865207a81526a65726f206164647265737360a81b602082015260400192915050565b6000611dcd602183612049565b7f536166654d6174683a206d756c7469706c69636174696f6e206f766572666c6f8152607760f81b602082015260400192915050565b6000611e10602a83612049565b7f4d61726b65743a20436f75706f6e20617070726f766520746f20746865207a65815269726f206164647265737360b01b602082015260400192915050565b6000611e5c602d83612049565b7f4d61726b65743a20436f75706f6e207472616e736665722066726f6d2074686581526c207a65726f206164647265737360981b602082015260400192915050565b6000611eab601b83612049565b7f4d61726b65743a20546f6f206561726c7920746f2072656465656d0000000000815260200192915050565b611c958161206f565b611c9581612088565b6000611ef58284611cb5565b50602001919050565b6000611f0a8286611cc1565b9150611f168285611ca4565b600282019150611f268284611cc1565b95945050505050565b6020810161070a8284611c8c565b60608101611f4b8286611c8c565b611f586020830185611c8c565b6112aa6040830184611ed7565b60408101611f738285611c8c565b6107646020830184611ed7565b6020810161070a8284611c9b565b6020810161070a8284611cf0565b6020810161070a8284611cf9565b602080825281016107648184611d02565b6020808252810161070a81611d3a565b6020808252810161070a81611d73565b6020808252810161070a81611dc0565b6020808252810161070a81611e03565b6020808252810161070a81611e4f565b6020808252810161070a81611e9e565b6020810161070a8284611ed7565b60408101611f738285611ed7565b6020810161070a8284611ee0565b5190565b90815260200190565b600061070a8261207c565b151590565b6001600160f01b03191690565b90565b80610723816120de565b6001600160a01b031690565b60ff1690565b600061070a82612052565b600061070a82612072565b60005b838110156120bf5781810151838201526020016120a7565b838111156120ce576000848401525b50505050565b601f01601f191690565b600381106120e857fe5b50565b6120f481612052565b81146120e857600080fd5b6120f48161205d565b6120f48161206f56fe4d61726b65743a20496e73756666696369656e7420636f75706f6e2062616c616e63654d61726b65743a20496e73756666696369656e7420636f75706f6e20617070726f76616c436f6d7074726f6c6c65723a206e6f7420656e6f756768206f75747374616e64696e672064656274436f6d7074726f6c6c65723a206e6f7420656e6f7567682072656465656d61626c652062616c616e6365a365627a7a723158201d8411909fa1add187fabc36f00d07c81f24b17f8cc9f76f70237427e08136d26c6578706572696d656e74616cf564736f6c63430005110040",
  "source": "/*\n    Copyright 2020 Empty Set Squad <emptysetsquad@protonmail.com>\n\n    Licensed under the Apache License, Version 2.0 (the \"License\");\n    you may not use this file except in compliance with the License.\n    You may obtain a copy of the License at\n\n    http://www.apache.org/licenses/LICENSE-2.0\n\n    Unless required by applicable law or agreed to in writing, software\n    distributed under the License is distributed on an \"AS IS\" BASIS,\n    WITHOUT WARRANTIES OR CONDITIONS OF ANY KIND, either express or implied.\n    See the License for the specific language governing permissions and\n    limitations under the License.\n*/\n\npragma solidity ^0.5.17;\npragma experimental ABIEncoderV2;\n\nimport \"@openzeppelin/contracts/math/SafeMath.sol\";\nimport \"./Curve.sol\";\nimport \"./Comptroller.sol\";\nimport \"../Constants.sol\";\n\ncontract Market is Comptroller, Curve {\n    using SafeMath for uint256;\n\n    bytes32 private constant FILE = \"Market\";\n\n    event CouponExpiration(uint256 indexed epoch, uint256 couponsExpired, uint256 lessRedeemable, uint256 lessDebt, uint256 newBonded);\n    event CouponPurchase(address indexed account, uint256 indexed epoch, uint256 dollarAmount, uint256 couponAmount);\n    event CouponRedemption(address indexed account, uint256 indexed epoch, uint256 couponAmount);\n    event CouponTransfer(address indexed from, address indexed to, uint256 indexed epoch, uint256 value);\n    event CouponApproval(address indexed owner, address indexed spender, uint256 value);\n\n    function step() internal {\n        // Expire prior coupons\n        for (uint256 i = 0; i < expiringCoupons(epoch()); i++) {\n            expireCouponsForEpoch(expiringCouponsAtIndex(epoch(), i));\n        }\n\n        // Record expiry for current epoch's coupons\n        uint256 expirationEpoch = epoch().add(Constants.getCouponExpiration());\n        initializeCouponsExpiration(epoch(), expirationEpoch);\n    }\n\n    function expireCouponsForEpoch(uint256 epoch) private {\n        uint256 couponsForEpoch = outstandingCoupons(epoch);\n        (uint256 lessRedeemable, uint256 newBonded) = (0, 0);\n\n        eliminateOutstandingCoupons(epoch);\n\n        uint256 totalRedeemable = totalRedeemable();\n        uint256 totalCoupons = totalCoupons();\n        if (totalRedeemable > totalCoupons) {\n            lessRedeemable = totalRedeemable.sub(totalCoupons);\n            burnRedeemable(lessRedeemable);\n            (, newBonded) = increaseSupply(lessRedeemable);\n        }\n\n        emit CouponExpiration(epoch, couponsForEpoch, lessRedeemable, 0, newBonded);\n    }\n\n    function couponPremium(uint256 amount) public view returns (uint256) {\n        return calculateCouponPremium(dollar().totalSupply(), totalDebt(), amount);\n    }\n\n    function purchaseCoupons(uint256 dollarAmount) external returns (uint256) {\n        Require.that(\n            dollarAmount > 0,\n            FILE,\n            \"Must purchase non-zero amount\"\n        );\n\n        Require.that(\n            totalDebt() >= dollarAmount,\n            FILE,\n            \"Not enough debt\"\n        );\n\n        uint256 epoch = epoch();\n        uint256 couponAmount = dollarAmount.add(couponPremium(dollarAmount));\n        burnFromAccount(msg.sender, dollarAmount);\n        incrementBalanceOfCoupons(msg.sender, epoch, couponAmount);\n\n        emit CouponPurchase(msg.sender, epoch, dollarAmount, couponAmount);\n\n        return couponAmount;\n    }\n\n    function redeemCoupons(uint256 couponEpoch, uint256 couponAmount) external {\n        require(epoch().sub(couponEpoch) >= 2, \"Market: Too early to redeem\");\n        decrementBalanceOfCoupons(msg.sender, couponEpoch, couponAmount, \"Market: Insufficient coupon balance\");\n        redeemToAccount(msg.sender, couponAmount);\n\n        emit CouponRedemption(msg.sender, couponEpoch, couponAmount);\n    }\n\n    function approveCoupons(address spender, uint256 amount) external {\n        require(spender != address(0), \"Market: Coupon approve to the zero address\");\n\n        updateAllowanceCoupons(msg.sender, spender, amount);\n\n        emit CouponApproval(msg.sender, spender, amount);\n    }\n\n    function transferCoupons(address sender, address recipient, uint256 epoch, uint256 amount) external {\n        require(sender != address(0), \"Market: Coupon transfer from the zero address\");\n        require(recipient != address(0), \"Market: Coupon transfer to the zero address\");\n\n        decrementBalanceOfCoupons(sender, epoch, amount, \"Market: Insufficient coupon balance\");\n        incrementBalanceOfCoupons(recipient, epoch, amount);\n\n        if (msg.sender != sender && allowanceCoupons(sender, msg.sender) != uint256(-1)) {\n            decrementAllowanceCoupons(sender, msg.sender, amount, \"Market: Insufficient coupon approval\");\n        }\n\n        emit CouponTransfer(sender, recipient, epoch, amount);\n    }\n}\n",
  "sourcePath": "/Users/sachin/code/dollar/contracts/dao/Market.sol",
  "compiler": {
    "name": "solc",
    "version": "0.5.17+commit.d19bba13.Emscripten.clang"
  },
  "schemaVersion": "3.3.3",
  "updatedAt": "2021-01-01T20:54:00.115Z",
  "devdoc": {
    "methods": {}
  },
  "userdoc": {
    "methods": {
      "balanceOfStaged(address)": {
        "notice": "Account"
      },
      "dollar()": {
        "notice": "Global"
      },
      "epoch()": {
        "notice": "Epoch"
      },
      "name()": {
        "notice": "ERC20 Interface"
      },
      "recordedVote(address,address)": {
        "notice": "Governance"
      },
      "transfer(address,uint256)": {
        "notice": "ERC20 Interface"
      }
    }
  }
}