{
  "contractName": "MockGovern",
  "abi": [
    {
      "inputs": [],
      "payable": false,
      "stateMutability": "nonpayable",
      "type": "constructor"
    },
    {
      "anonymous": false,
      "inputs": [
        {
          "indexed": true,
          "internalType": "address",
          "name": "account",
          "type": "address"
        },
        {
          "indexed": true,
          "internalType": "address",
          "name": "candidate",
          "type": "address"
        }
      ],
      "name": "Commit",
      "type": "event"
    },
    {
      "anonymous": false,
      "inputs": [
        {
          "indexed": true,
          "internalType": "address",
          "name": "candidate",
          "type": "address"
        },
        {
          "indexed": true,
          "internalType": "address",
          "name": "account",
          "type": "address"
        },
        {
          "indexed": true,
          "internalType": "uint256",
          "name": "start",
          "type": "uint256"
        },
        {
          "indexed": false,
          "internalType": "uint256",
          "name": "period",
          "type": "uint256"
        }
      ],
      "name": "Proposal",
      "type": "event"
    },
    {
      "anonymous": false,
      "inputs": [
        {
          "indexed": true,
          "internalType": "address",
          "name": "from",
          "type": "address"
        },
        {
          "indexed": true,
          "internalType": "address",
          "name": "to",
          "type": "address"
        },
        {
          "indexed": false,
          "internalType": "uint256",
          "name": "value",
          "type": "uint256"
        }
      ],
      "name": "Transfer",
      "type": "event"
    },
    {
      "anonymous": false,
      "inputs": [
        {
          "indexed": true,
          "internalType": "address",
          "name": "implementation",
          "type": "address"
        }
      ],
      "name": "Upgraded",
      "type": "event"
    },
    {
      "anonymous": false,
      "inputs": [
        {
          "indexed": true,
          "internalType": "address",
          "name": "account",
          "type": "address"
        },
        {
          "indexed": true,
          "internalType": "address",
          "name": "candidate",
          "type": "address"
        },
        {
          "indexed": false,
          "internalType": "enum Candidate.Vote",
          "name": "vote",
          "type": "uint8"
        },
        {
          "indexed": false,
          "internalType": "uint256",
          "name": "bonded",
          "type": "uint256"
        }
      ],
      "name": "Vote",
      "type": "event"
    },
    {
      "constant": true,
      "inputs": [
        {
          "internalType": "address",
          "name": "owner",
          "type": "address"
        },
        {
          "internalType": "address",
          "name": "spender",
          "type": "address"
        }
      ],
      "name": "allowance",
      "outputs": [
        {
          "internalType": "uint256",
          "name": "",
          "type": "uint256"
        }
      ],
      "payable": false,
      "stateMutability": "view",
      "type": "function"
    },
    {
      "constant": true,
      "inputs": [
        {
          "internalType": "address",
          "name": "owner",
          "type": "address"
        },
        {
          "internalType": "address",
          "name": "spender",
          "type": "address"
        }
      ],
      "name": "allowanceCoupons",
      "outputs": [
        {
          "internalType": "uint256",
          "name": "",
          "type": "uint256"
        }
      ],
      "payable": false,
      "stateMutability": "view",
      "type": "function"
    },
    {
      "constant": false,
      "inputs": [
        {
          "internalType": "address",
          "name": "spender",
          "type": "address"
        },
        {
          "internalType": "uint256",
          "name": "amount",
          "type": "uint256"
        }
      ],
      "name": "approve",
      "outputs": [
        {
          "internalType": "bool",
          "name": "",
          "type": "bool"
        }
      ],
      "payable": false,
      "stateMutability": "nonpayable",
      "type": "function"
    },
    {
      "constant": true,
      "inputs": [
        {
          "internalType": "address",
          "name": "candidate",
          "type": "address"
        }
      ],
      "name": "approveFor",
      "outputs": [
        {
          "internalType": "uint256",
          "name": "",
          "type": "uint256"
        }
      ],
      "payable": false,
      "stateMutability": "view",
      "type": "function"
    },
    {
      "constant": true,
      "inputs": [
        {
          "internalType": "address",
          "name": "account",
          "type": "address"
        }
      ],
      "name": "balanceOf",
      "outputs": [
        {
          "internalType": "uint256",
          "name": "",
          "type": "uint256"
        }
      ],
      "payable": false,
      "stateMutability": "view",
      "type": "function"
    },
    {
      "constant": true,
      "inputs": [
        {
          "internalType": "address",
          "name": "account",
          "type": "address"
        }
      ],
      "name": "balanceOfBonded",
      "outputs": [
        {
          "internalType": "uint256",
          "name": "",
          "type": "uint256"
        }
      ],
      "payable": false,
      "stateMutability": "view",
      "type": "function"
    },
    {
      "constant": true,
      "inputs": [
        {
          "internalType": "address",
          "name": "account",
          "type": "address"
        },
        {
          "internalType": "uint256",
          "name": "epoch",
          "type": "uint256"
        }
      ],
      "name": "balanceOfCoupons",
      "outputs": [
        {
          "internalType": "uint256",
          "name": "",
          "type": "uint256"
        }
      ],
      "payable": false,
      "stateMutability": "view",
      "type": "function"
    },
    {
      "constant": true,
      "inputs": [
        {
          "internalType": "address",
          "name": "account",
          "type": "address"
        }
      ],
      "name": "balanceOfStaged",
      "outputs": [
        {
          "internalType": "uint256",
          "name": "",
          "type": "uint256"
        }
      ],
      "payable": false,
      "stateMutability": "view",
      "type": "function"
    },
    {
      "constant": true,
      "inputs": [
        {
          "internalType": "uint256",
          "name": "epoch",
          "type": "uint256"
        }
      ],
      "name": "bootstrappingAt",
      "outputs": [
        {
          "internalType": "bool",
          "name": "",
          "type": "bool"
        }
      ],
      "payable": false,
      "stateMutability": "view",
      "type": "function"
    },
    {
      "constant": false,
      "inputs": [
        {
          "internalType": "address",
          "name": "account",
          "type": "address"
        },
        {
          "internalType": "uint256",
          "name": "amount",
          "type": "uint256"
        }
      ],
      "name": "burnFromAccountE",
      "outputs": [],
      "payable": false,
      "stateMutability": "nonpayable",
      "type": "function"
    },
    {
      "constant": false,
      "inputs": [
        {
          "internalType": "uint256",
          "name": "amount",
          "type": "uint256"
        }
      ],
      "name": "burnRedeemableE",
      "outputs": [],
      "payable": false,
      "stateMutability": "nonpayable",
      "type": "function"
    },
    {
      "constant": false,
      "inputs": [
        {
          "internalType": "address",
          "name": "candidate",
          "type": "address"
        }
      ],
      "name": "commit",
      "outputs": [],
      "payable": false,
      "stateMutability": "nonpayable",
      "type": "function"
    },
    {
      "constant": true,
      "inputs": [
        {
          "internalType": "uint256",
          "name": "epoch",
          "type": "uint256"
        }
      ],
      "name": "couponsExpiration",
      "outputs": [
        {
          "internalType": "uint256",
          "name": "",
          "type": "uint256"
        }
      ],
      "payable": false,
      "stateMutability": "view",
      "type": "function"
    },
    {
      "constant": false,
      "inputs": [
        {
          "internalType": "address",
          "name": "candidate",
          "type": "address"
        },
        {
          "internalType": "uint256",
          "name": "period",
          "type": "uint256"
        }
      ],
      "name": "createCandidateE",
      "outputs": [],
      "payable": false,
      "stateMutability": "nonpayable",
      "type": "function"
    },
    {
      "constant": true,
      "inputs": [],
      "name": "decimals",
      "outputs": [
        {
          "internalType": "uint8",
          "name": "",
          "type": "uint8"
        }
      ],
      "payable": false,
      "stateMutability": "view",
      "type": "function"
    },
    {
      "constant": false,
      "inputs": [
        {
          "internalType": "uint256",
          "name": "amount",
          "type": "uint256"
        }
      ],
      "name": "decreaseDebtE",
      "outputs": [],
      "payable": false,
      "stateMutability": "nonpayable",
      "type": "function"
    },
    {
      "constant": false,
      "inputs": [
        {
          "internalType": "address",
          "name": "owner",
          "type": "address"
        },
        {
          "internalType": "address",
          "name": "spender",
          "type": "address"
        },
        {
          "internalType": "uint256",
          "name": "amount",
          "type": "uint256"
        },
        {
          "internalType": "string",
          "name": "reason",
          "type": "string"
        }
      ],
      "name": "decrementAllowanceCouponsE",
      "outputs": [],
      "payable": false,
      "stateMutability": "nonpayable",
      "type": "function"
    },
    {
      "constant": false,
      "inputs": [
        {
          "internalType": "address",
          "name": "candidate",
          "type": "address"
        },
        {
          "internalType": "uint256",
          "name": "amount",
          "type": "uint256"
        },
        {
          "internalType": "string",
          "name": "reason",
          "type": "string"
        }
      ],
      "name": "decrementApproveForE",
      "outputs": [],
      "payable": false,
      "stateMutability": "nonpayable",
      "type": "function"
    },
    {
      "constant": false,
      "inputs": [
        {
          "internalType": "address",
          "name": "account",
          "type": "address"
        },
        {
          "internalType": "uint256",
          "name": "epoch",
          "type": "uint256"
        },
        {
          "internalType": "uint256",
          "name": "amount",
          "type": "uint256"
        },
        {
          "internalType": "string",
          "name": "reason",
          "type": "string"
        }
      ],
      "name": "decrementBalanceOfCouponsE",
      "outputs": [],
      "payable": false,
      "stateMutability": "nonpayable",
      "type": "function"
    },
    {
      "constant": false,
      "inputs": [
        {
          "internalType": "address",
          "name": "account",
          "type": "address"
        },
        {
          "internalType": "uint256",
          "name": "amount",
          "type": "uint256"
        },
        {
          "internalType": "string",
          "name": "reason",
          "type": "string"
        }
      ],
      "name": "decrementBalanceOfE",
      "outputs": [],
      "payable": false,
      "stateMutability": "nonpayable",
      "type": "function"
    },
    {
      "constant": false,
      "inputs": [
        {
          "internalType": "address",
          "name": "account",
          "type": "address"
        },
        {
          "internalType": "uint256",
          "name": "amount",
          "type": "uint256"
        },
        {
          "internalType": "string",
          "name": "reason",
          "type": "string"
        }
      ],
      "name": "decrementBalanceOfStagedE",
      "outputs": [],
      "payable": false,
      "stateMutability": "nonpayable",
      "type": "function"
    },
    {
      "constant": false,
      "inputs": [
        {
          "internalType": "address",
          "name": "candidate",
          "type": "address"
        },
        {
          "internalType": "uint256",
          "name": "amount",
          "type": "uint256"
        },
        {
          "internalType": "string",
          "name": "reason",
          "type": "string"
        }
      ],
      "name": "decrementRejectForE",
      "outputs": [],
      "payable": false,
      "stateMutability": "nonpayable",
      "type": "function"
    },
    {
      "constant": false,
      "inputs": [
        {
          "internalType": "uint256",
          "name": "amount",
          "type": "uint256"
        },
        {
          "internalType": "string",
          "name": "reason",
          "type": "string"
        }
      ],
      "name": "decrementTotalBondedE",
      "outputs": [],
      "payable": false,
      "stateMutability": "nonpayable",
      "type": "function"
    },
    {
      "constant": false,
      "inputs": [
        {
          "internalType": "uint256",
          "name": "amount",
          "type": "uint256"
        },
        {
          "internalType": "string",
          "name": "reason",
          "type": "string"
        }
      ],
      "name": "decrementTotalDebtE",
      "outputs": [],
      "payable": false,
      "stateMutability": "nonpayable",
      "type": "function"
    },
    {
      "constant": false,
      "inputs": [
        {
          "internalType": "uint256",
          "name": "amount",
          "type": "uint256"
        },
        {
          "internalType": "string",
          "name": "reason",
          "type": "string"
        }
      ],
      "name": "decrementTotalRedeemableE",
      "outputs": [],
      "payable": false,
      "stateMutability": "nonpayable",
      "type": "function"
    },
    {
      "constant": true,
      "inputs": [],
      "name": "dollar",
      "outputs": [
        {
          "internalType": "contract IDollar",
          "name": "",
          "type": "address"
        }
      ],
      "payable": false,
      "stateMutability": "view",
      "type": "function"
    },
    {
      "constant": false,
      "inputs": [
        {
          "internalType": "uint256",
          "name": "epoch",
          "type": "uint256"
        }
      ],
      "name": "eliminateOutstandingCouponsE",
      "outputs": [],
      "payable": false,
      "stateMutability": "nonpayable",
      "type": "function"
    },
    {
      "constant": false,
      "inputs": [
        {
          "internalType": "address",
          "name": "candidate",
          "type": "address"
        }
      ],
      "name": "emergencyCommit",
      "outputs": [],
      "payable": false,
      "stateMutability": "nonpayable",
      "type": "function"
    },
    {
      "constant": true,
      "inputs": [],
      "name": "epoch",
      "outputs": [
        {
          "internalType": "uint256",
          "name": "",
          "type": "uint256"
        }
      ],
      "payable": false,
      "stateMutability": "view",
      "type": "function"
    },
    {
      "constant": true,
      "inputs": [
        {
          "internalType": "uint256",
          "name": "epoch",
          "type": "uint256"
        }
      ],
      "name": "expiringCoupons",
      "outputs": [
        {
          "internalType": "uint256",
          "name": "",
          "type": "uint256"
        }
      ],
      "payable": false,
      "stateMutability": "view",
      "type": "function"
    },
    {
      "constant": true,
      "inputs": [
        {
          "internalType": "uint256",
          "name": "epoch",
          "type": "uint256"
        },
        {
          "internalType": "uint256",
          "name": "i",
          "type": "uint256"
        }
      ],
      "name": "expiringCouponsAtIndex",
      "outputs": [
        {
          "internalType": "uint256",
          "name": "",
          "type": "uint256"
        }
      ],
      "payable": false,
      "stateMutability": "view",
      "type": "function"
    },
    {
      "constant": true,
      "inputs": [
        {
          "internalType": "address",
          "name": "account",
          "type": "address"
        }
      ],
      "name": "fluidUntil",
      "outputs": [
        {
          "internalType": "uint256",
          "name": "",
          "type": "uint256"
        }
      ],
      "payable": false,
      "stateMutability": "view",
      "type": "function"
    },
    {
      "constant": true,
      "inputs": [],
      "name": "implementation",
      "outputs": [
        {
          "internalType": "address",
          "name": "impl",
          "type": "address"
        }
      ],
      "payable": false,
      "stateMutability": "view",
      "type": "function"
    },
    {
      "constant": false,
      "inputs": [
        {
          "internalType": "uint256",
          "name": "amount",
          "type": "uint256"
        }
      ],
      "name": "increaseDebtE",
      "outputs": [],
      "payable": false,
      "stateMutability": "nonpayable",
      "type": "function"
    },
    {
      "constant": false,
      "inputs": [
        {
          "internalType": "address",
          "name": "candidate",
          "type": "address"
        },
        {
          "internalType": "uint256",
          "name": "amount",
          "type": "uint256"
        }
      ],
      "name": "incrementApproveForE",
      "outputs": [],
      "payable": false,
      "stateMutability": "nonpayable",
      "type": "function"
    },
    {
      "constant": false,
      "inputs": [
        {
          "internalType": "address",
          "name": "account",
          "type": "address"
        },
        {
          "internalType": "uint256",
          "name": "epoch",
          "type": "uint256"
        },
        {
          "internalType": "uint256",
          "name": "amount",
          "type": "uint256"
        }
      ],
      "name": "incrementBalanceOfCouponsE",
      "outputs": [],
      "payable": false,
      "stateMutability": "nonpayable",
      "type": "function"
    },
    {
      "constant": false,
      "inputs": [
        {
          "internalType": "address",
          "name": "account",
          "type": "address"
        },
        {
          "internalType": "uint256",
          "name": "amount",
          "type": "uint256"
        }
      ],
      "name": "incrementBalanceOfE",
      "outputs": [],
      "payable": false,
      "stateMutability": "nonpayable",
      "type": "function"
    },
    {
      "constant": false,
      "inputs": [
        {
          "internalType": "address",
          "name": "account",
          "type": "address"
        },
        {
          "internalType": "uint256",
          "name": "amount",
          "type": "uint256"
        }
      ],
      "name": "incrementBalanceOfStagedE",
      "outputs": [],
      "payable": false,
      "stateMutability": "nonpayable",
      "type": "function"
    },
    {
      "constant": false,
      "inputs": [],
      "name": "incrementEpochE",
      "outputs": [],
      "payable": false,
      "stateMutability": "nonpayable",
      "type": "function"
    },
    {
      "constant": false,
      "inputs": [
        {
          "internalType": "address",
          "name": "candidate",
          "type": "address"
        },
        {
          "internalType": "uint256",
          "name": "amount",
          "type": "uint256"
        }
      ],
      "name": "incrementRejectForE",
      "outputs": [],
      "payable": false,
      "stateMutability": "nonpayable",
      "type": "function"
    },
    {
      "constant": false,
      "inputs": [
        {
          "internalType": "uint256",
          "name": "amount",
          "type": "uint256"
        }
      ],
      "name": "incrementTotalBondedE",
      "outputs": [],
      "payable": false,
      "stateMutability": "nonpayable",
      "type": "function"
    },
    {
      "constant": false,
      "inputs": [
        {
          "internalType": "uint256",
          "name": "amount",
          "type": "uint256"
        }
      ],
      "name": "incrementTotalDebtE",
      "outputs": [],
      "payable": false,
      "stateMutability": "nonpayable",
      "type": "function"
    },
    {
      "constant": false,
      "inputs": [
        {
          "internalType": "uint256",
          "name": "amount",
          "type": "uint256"
        }
      ],
      "name": "incrementTotalRedeemableE",
      "outputs": [],
      "payable": false,
      "stateMutability": "nonpayable",
      "type": "function"
    },
    {
      "constant": false,
      "inputs": [
        {
          "internalType": "uint256",
          "name": "epoch",
          "type": "uint256"
        },
        {
          "internalType": "uint256",
          "name": "expiration",
          "type": "uint256"
        }
      ],
      "name": "initializeCouponsExpirationE",
      "outputs": [],
      "payable": false,
      "stateMutability": "nonpayable",
      "type": "function"
    },
    {
      "constant": false,
      "inputs": [
        {
          "internalType": "address",
          "name": "candidate",
          "type": "address"
        }
      ],
      "name": "initializedE",
      "outputs": [],
      "payable": false,
      "stateMutability": "nonpayable",
      "type": "function"
    },
    {
      "constant": true,
      "inputs": [
        {
          "internalType": "address",
          "name": "candidate",
          "type": "address"
        }
      ],
      "name": "isInitialized",
      "outputs": [
        {
          "internalType": "bool",
          "name": "",
          "type": "bool"
        }
      ],
      "payable": false,
      "stateMutability": "view",
      "type": "function"
    },
    {
      "constant": true,
      "inputs": [
        {
          "internalType": "address",
          "name": "candidate",
          "type": "address"
        }
      ],
      "name": "isNominated",
      "outputs": [
        {
          "internalType": "bool",
          "name": "",
          "type": "bool"
        }
      ],
      "payable": false,
      "stateMutability": "view",
      "type": "function"
    },
    {
      "constant": true,
      "inputs": [
        {
          "internalType": "address",
          "name": "account",
          "type": "address"
        }
      ],
      "name": "lockedUntil",
      "outputs": [
        {
          "internalType": "uint256",
          "name": "",
          "type": "uint256"
        }
      ],
      "payable": false,
      "stateMutability": "view",
      "type": "function"
    },
    {
      "constant": false,
      "inputs": [
        {
          "internalType": "address",
          "name": "account",
          "type": "address"
        },
        {
          "internalType": "uint256",
          "name": "amount",
          "type": "uint256"
        }
      ],
      "name": "mintToAccountE",
      "outputs": [],
      "payable": false,
      "stateMutability": "nonpayable",
      "type": "function"
    },
    {
      "constant": false,
      "inputs": [
        {
          "internalType": "address",
          "name": "account",
          "type": "address"
        },
        {
          "internalType": "uint256",
          "name": "amount",
          "type": "uint256"
        }
      ],
      "name": "mintToE",
      "outputs": [],
      "payable": false,
      "stateMutability": "nonpayable",
      "type": "function"
    },
    {
      "constant": true,
      "inputs": [],
      "name": "name",
      "outputs": [
        {
          "internalType": "string",
          "name": "",
          "type": "string"
        }
      ],
      "payable": false,
      "stateMutability": "view",
      "type": "function"
    },
    {
      "constant": true,
      "inputs": [],
      "name": "oracle",
      "outputs": [
        {
          "internalType": "contract IOracle",
          "name": "",
          "type": "address"
        }
      ],
      "payable": false,
      "stateMutability": "view",
      "type": "function"
    },
    {
      "constant": true,
      "inputs": [
        {
          "internalType": "uint256",
          "name": "epoch",
          "type": "uint256"
        }
      ],
      "name": "outstandingCoupons",
      "outputs": [
        {
          "internalType": "uint256",
          "name": "",
          "type": "uint256"
        }
      ],
      "payable": false,
      "stateMutability": "view",
      "type": "function"
    },
    {
      "constant": true,
      "inputs": [
        {
          "internalType": "address",
          "name": "candidate",
          "type": "address"
        }
      ],
      "name": "periodFor",
      "outputs": [
        {
          "internalType": "uint256",
          "name": "",
          "type": "uint256"
        }
      ],
      "payable": false,
      "stateMutability": "view",
      "type": "function"
    },
    {
      "constant": false,
      "inputs": [
        {
          "internalType": "address",
          "name": "account",
          "type": "address"
        },
        {
          "internalType": "address",
          "name": "candidate",
          "type": "address"
        }
      ],
      "name": "placeLockE",
      "outputs": [],
      "payable": false,
      "stateMutability": "nonpayable",
      "type": "function"
    },
    {
      "constant": true,
      "inputs": [],
      "name": "pool",
      "outputs": [
        {
          "internalType": "address",
          "name": "",
          "type": "address"
        }
      ],
      "payable": false,
      "stateMutability": "view",
      "type": "function"
    },
    {
      "constant": false,
      "inputs": [
        {
          "internalType": "address",
          "name": "account",
          "type": "address"
        },
        {
          "internalType": "address",
          "name": "candidate",
          "type": "address"
        },
        {
          "internalType": "enum Candidate.Vote",
          "name": "vote",
          "type": "uint8"
        }
      ],
      "name": "recordVoteE",
      "outputs": [],
      "payable": false,
      "stateMutability": "nonpayable",
      "type": "function"
    },
    {
      "constant": true,
      "inputs": [
        {
          "internalType": "address",
          "name": "account",
          "type": "address"
        },
        {
          "internalType": "address",
          "name": "candidate",
          "type": "address"
        }
      ],
      "name": "recordedVote",
      "outputs": [
        {
          "internalType": "enum Candidate.Vote",
          "name": "",
          "type": "uint8"
        }
      ],
      "payable": false,
      "stateMutability": "view",
      "type": "function"
    },
    {
      "constant": false,
      "inputs": [
        {
          "internalType": "address",
          "name": "account",
          "type": "address"
        },
        {
          "internalType": "uint256",
          "name": "amount",
          "type": "uint256"
        }
      ],
      "name": "redeemToAccountE",
      "outputs": [],
      "payable": false,
      "stateMutability": "nonpayable",
      "type": "function"
    },
    {
      "constant": true,
      "inputs": [
        {
          "internalType": "address",
          "name": "candidate",
          "type": "address"
        }
      ],
      "name": "rejectFor",
      "outputs": [
        {
          "internalType": "uint256",
          "name": "",
          "type": "uint256"
        }
      ],
      "payable": false,
      "stateMutability": "view",
      "type": "function"
    },
    {
      "constant": false,
      "inputs": [
        {
          "internalType": "uint256",
          "name": "percent",
          "type": "uint256"
        }
      ],
      "name": "resetDebtE",
      "outputs": [],
      "payable": false,
      "stateMutability": "nonpayable",
      "type": "function"
    },
    {
      "constant": false,
      "inputs": [
        {
          "internalType": "uint256",
          "name": "timestamp",
          "type": "uint256"
        }
      ],
      "name": "setBlockTimestamp",
      "outputs": [],
      "payable": false,
      "stateMutability": "nonpayable",
      "type": "function"
    },
    {
      "constant": false,
      "inputs": [
        {
          "internalType": "uint256",
          "name": "start",
          "type": "uint256"
        },
        {
          "internalType": "uint256",
          "name": "period",
          "type": "uint256"
        }
      ],
      "name": "setEpochParamsE",
      "outputs": [],
      "payable": false,
      "stateMutability": "nonpayable",
      "type": "function"
    },
    {
      "constant": false,
      "inputs": [],
      "name": "snapshotTotalBondedE",
      "outputs": [],
      "payable": false,
      "stateMutability": "nonpayable",
      "type": "function"
    },
    {
      "constant": true,
      "inputs": [
        {
          "internalType": "address",
          "name": "candidate",
          "type": "address"
        }
      ],
      "name": "startFor",
      "outputs": [
        {
          "internalType": "uint256",
          "name": "",
          "type": "uint256"
        }
      ],
      "payable": false,
      "stateMutability": "view",
      "type": "function"
    },
    {
      "constant": true,
      "inputs": [
        {
          "internalType": "address",
          "name": "account",
          "type": "address"
        }
      ],
      "name": "statusOf",
      "outputs": [
        {
          "internalType": "enum Account.Status",
          "name": "",
          "type": "uint8"
        }
      ],
      "payable": false,
      "stateMutability": "view",
      "type": "function"
    },
    {
      "constant": true,
      "inputs": [],
      "name": "symbol",
      "outputs": [
        {
          "internalType": "string",
          "name": "",
          "type": "string"
        }
      ],
      "payable": false,
      "stateMutability": "view",
      "type": "function"
    },
    {
      "constant": true,
      "inputs": [],
      "name": "totalBonded",
      "outputs": [
        {
          "internalType": "uint256",
          "name": "",
          "type": "uint256"
        }
      ],
      "payable": false,
      "stateMutability": "view",
      "type": "function"
    },
    {
      "constant": true,
      "inputs": [
        {
          "internalType": "uint256",
          "name": "epoch",
          "type": "uint256"
        }
      ],
      "name": "totalBondedAt",
      "outputs": [
        {
          "internalType": "uint256",
          "name": "",
          "type": "uint256"
        }
      ],
      "payable": false,
      "stateMutability": "view",
      "type": "function"
    },
    {
      "constant": true,
      "inputs": [],
      "name": "totalCoupons",
      "outputs": [
        {
          "internalType": "uint256",
          "name": "",
          "type": "uint256"
        }
      ],
      "payable": false,
      "stateMutability": "view",
      "type": "function"
    },
    {
      "constant": true,
      "inputs": [],
      "name": "totalDebt",
      "outputs": [
        {
          "internalType": "uint256",
          "name": "",
          "type": "uint256"
        }
      ],
      "payable": false,
      "stateMutability": "view",
      "type": "function"
    },
    {
      "constant": true,
      "inputs": [],
      "name": "totalNet",
      "outputs": [
        {
          "internalType": "uint256",
          "name": "",
          "type": "uint256"
        }
      ],
      "payable": false,
      "stateMutability": "view",
      "type": "function"
    },
    {
      "constant": true,
      "inputs": [],
      "name": "totalRedeemable",
      "outputs": [
        {
          "internalType": "uint256",
          "name": "",
          "type": "uint256"
        }
      ],
      "payable": false,
      "stateMutability": "view",
      "type": "function"
    },
    {
      "constant": true,
      "inputs": [],
      "name": "totalStaged",
      "outputs": [
        {
          "internalType": "uint256",
          "name": "",
          "type": "uint256"
        }
      ],
      "payable": false,
      "stateMutability": "view",
      "type": "function"
    },
    {
      "constant": true,
      "inputs": [],
      "name": "totalSupply",
      "outputs": [
        {
          "internalType": "uint256",
          "name": "",
          "type": "uint256"
        }
      ],
      "payable": false,
      "stateMutability": "view",
      "type": "function"
    },
    {
      "constant": false,
      "inputs": [
        {
          "internalType": "address",
          "name": "recipient",
          "type": "address"
        },
        {
          "internalType": "uint256",
          "name": "amount",
          "type": "uint256"
        }
      ],
      "name": "transfer",
      "outputs": [
        {
          "internalType": "bool",
          "name": "",
          "type": "bool"
        }
      ],
      "payable": false,
      "stateMutability": "nonpayable",
      "type": "function"
    },
    {
      "constant": false,
      "inputs": [
        {
          "internalType": "address",
          "name": "sender",
          "type": "address"
        },
        {
          "internalType": "address",
          "name": "recipient",
          "type": "address"
        },
        {
          "internalType": "uint256",
          "name": "amount",
          "type": "uint256"
        }
      ],
      "name": "transferFrom",
      "outputs": [
        {
          "internalType": "bool",
          "name": "",
          "type": "bool"
        }
      ],
      "payable": false,
      "stateMutability": "nonpayable",
      "type": "function"
    },
    {
      "constant": false,
      "inputs": [
        {
          "internalType": "address",
          "name": "account",
          "type": "address"
        }
      ],
      "name": "unfreezeE",
      "outputs": [],
      "payable": false,
      "stateMutability": "nonpayable",
      "type": "function"
    },
    {
      "constant": false,
      "inputs": [
        {
          "internalType": "address",
          "name": "owner",
          "type": "address"
        },
        {
          "internalType": "address",
          "name": "spender",
          "type": "address"
        },
        {
          "internalType": "uint256",
          "name": "amount",
          "type": "uint256"
        }
      ],
      "name": "updateAllowanceCouponsE",
      "outputs": [],
      "payable": false,
      "stateMutability": "nonpayable",
      "type": "function"
    },
    {
      "constant": false,
      "inputs": [
        {
          "internalType": "address",
          "name": "candidate",
          "type": "address"
        },
        {
          "internalType": "enum Candidate.Vote",
          "name": "vote",
          "type": "uint8"
        }
      ],
      "name": "vote",
      "outputs": [],
      "payable": false,
      "stateMutability": "nonpayable",
      "type": "function"
    },
    {
      "constant": true,
      "inputs": [
        {
          "internalType": "address",
          "name": "candidate",
          "type": "address"
        }
      ],
      "name": "votesFor",
      "outputs": [
        {
          "internalType": "uint256",
          "name": "",
          "type": "uint256"
        }
      ],
      "payable": false,
      "stateMutability": "view",
      "type": "function"
    },
    {
      "constant": false,
      "inputs": [],
      "name": "initialize",
      "outputs": [],
      "payable": false,
      "stateMutability": "nonpayable",
      "type": "function"
    },
    {
      "constant": false,
      "inputs": [
        {
          "internalType": "address",
          "name": "newImplementation",
          "type": "address"
        }
      ],
      "name": "upgradeToE",
      "outputs": [],
      "payable": false,
      "stateMutability": "nonpayable",
      "type": "function"
    },
    {
      "constant": false,
      "inputs": [
        {
          "internalType": "uint256",
          "name": "epochTime",
          "type": "uint256"
        }
      ],
      "name": "setEpochTime",
      "outputs": [],
      "payable": false,
      "stateMutability": "nonpayable",
      "type": "function"
    },
    {
      "constant": true,
      "inputs": [],
      "name": "epochTime",
      "outputs": [
        {
          "internalType": "uint256",
          "name": "",
          "type": "uint256"
        }
      ],
      "payable": false,
      "stateMutability": "view",
      "type": "function"
    }
  ],
  "bytecode": "0x60806040523480156200001157600080fd5b5042600f5560405160009062000027906200007a565b604051809103906000f08015801562000044573d6000803e3d6000fd5b50600980546001600160a01b039283166001600160a01b031991821617909155600b805493909216921691909117905562000088565b611c0480620033b183390190565b61331980620000986000396000f3fe608060405234801561001057600080fd5b50600436106104b75760003560e01c80638129fc1c11610278578063ae5c23811161015c578063cf023779116100ce578063e0abdf6611610092578063e0abdf6614610a2c578063f1b7cf4914610a3f578063f35adf7e14610a52578063f7a3181814610a5a578063fc7b9c1814610a6d578063ffbe3b7314610a75576104b7565b8063cf023779146109dd578063d60b347f146109e5578063d6d8816d146109f8578063d83d3ed514610a0b578063dd62ed3e14610a1e576104b7565b8063bceb514d11610120578063bceb514d1461096b578063c1410c021461097e578063c2aeb5fe14610991578063c45a3e0a146109a4578063c9aff70c146109b7578063cc8d823c146109ca576104b7565b8063ae5c23811461090c578063b11ee0e31461091f578063b16144a314610932578063b32a2f9014610945578063bc7513e214610958576104b7565b80639b82b49b116101f5578063a50cd8e7116101b9578063a50cd8e7146108b8578063a6c409f1146108cb578063a6f37b53146108d3578063a9059cbb146104da578063a9b3cf15146108e6578063adbff2be146108f9576104b7565b80639b82b49b146108595780639bc289f11461086c5780639be464931461087f5780639f6e1b2614610892578063a00e14d1146108a5576104b7565b80638de2e5731161023c5780638de2e5731461081b578063900cf0cf1461082e57806395d89b411461083657806397a5d5b51461083e5780639a649edc14610851576104b7565b80638129fc1c146107c7578063825ad607146107cf5780638413e52a146107e257806386cf9f14146107f55780638a558b0414610808576104b7565b80633fd4973c1161039f5780635f14fec81161031c57806371c511eb116102e057806371c511eb1461076b57806372924d2a1461077357806375d5024b146107865780637a26ec28146107995780637cb95a32146107ac5780637dc0d1d0146107bf576104b7565b80635f14fec81461070c578063646680221461071f5780636a39e328146107325780636b862d661461074557806370a0823114610758576104b7565b80635053e461116103635780635053e461146106c157806351adeb57146106c957806351bf21d8146106de5780635c60da1b146106f15780635dbf800a146106f9576104b7565b80633fd4973c1461066d578063438735261461068057806344d96e951461069357806347c050691461069b5780634c736099146106ae576104b7565b806320f6bc901161043857806332347422116103fc57806332347422146105ee578063353a420c14610601578063369e8c1d146106145780633a3e6c81146106275780633f7bcaf31461063a5780633fbba9a61461064d576104b7565b806320f6bc901461058d57806323b872dd146105a0578063259f7adf146105b3578063277805a9146105c6578063313ce567146105d9576104b7565b806316f0115b1161047f57806316f0115b1461054257806318160ddd146105575780631a08e22a1461055f5780631edbcf6c146105725780631fac97321461057a576104b7565b806306fdde03146104bc578063095ea7b3146104da5780630dc6d3a3146104fa57806310e95b6c1461050f57806315e14bf61461052f575b600080fd5b6104c4610a88565b6040516104d19190613145565b60405180910390f35b6104ed6104e8366004612cd6565b610ab8565b6040516104d1919061310d565b61050d610508366004612c28565b610ac1565b005b61052261051d366004612df3565b610b0a565b6040516104d19190613196565b61052261053d366004612b40565b610b22565b61054a610b40565b6040516104d191906130bc565b610522610b4f565b61050d61056d366004612e85565b610b55565b610522610b63565b61050d610588366004612df3565b610b69565b61050d61059b366004612cd6565b610b75565b6104ed6105ae366004612be5565b610b7f565b61050d6105c1366004612df3565b610b89565b61050d6105d4366004612cd6565b610b92565b6105e1610c1e565b6040516104d191906131a4565b61050d6105fc366004612e2f565b610c23565b61052261060f366004612b40565b610c63565b61050d610622366004612b40565b610c81565b6104ed610635366004612b40565b610e1e565b61050d610648366004612be5565b610e3b565b61066061065b366004612b5e565b610e46565b6040516104d19190613129565b61050d61067b366004612d06565b610e79565b61050d61068e366004612df3565b610ec0565b610522610ec9565b61050d6106a9366004612b40565b610ecf565b6105226106bc366004612e85565b610fc2565b610522610ff2565b6106d1610ff8565b6040516104d1919061311b565b6105226106ec366004612b40565b611007565b61054a611025565b61050d610707366004612df3565b61104a565b61050d61071a366004612cd6565b611053565b61052261072d366004612b40565b61105d565b610522610740366004612df3565b61107b565b61050d610753366004612d6e565b611090565b610522610766366004612b40565b61109b565b61050d6110b9565b61050d610781366004612e2f565b6110c3565b6104ed610794366004612df3565b611103565b61050d6107a7366004612df3565b611116565b61050d6107ba366004612d06565b61111b565b6106d161115c565b61050d61116b565b6105226107dd366004612b40565b61118c565b61050d6107f0366004612b98565b6111d8565b610522610803366004612b40565b6111e3565b61050d610816366004612b40565b6111fe565b61050d610829366004612df3565b611207565b610522611210565b6104c4611216565b61066061084c366004612b40565b611234565b610522611299565b61050d610867366004612e2f565b61129f565b61052261087a366004612b40565b6112df565b61050d61088d366004612b40565b6112fd565b6105226108a0366004612b5e565b611306565b61050d6108b3366004612e85565b611335565b6105226108c6366004612b40565b611340565b610522611357565b61050d6108e1366004612b40565b6113e1565b61050d6108f4366004612df3565b6113ea565b61050d610907366004612d06565b6113f3565b61050d61091a366004612cd6565b611434565b61050d61092d366004612cd6565b61143e565b61050d610940366004612df3565b611448565b61050d610953366004612d06565b61145b565b610522610966366004612cd6565b61149c565b61050d610979366004612ca6565b6114e0565b61050d61098c366004612b5e565b6117c1565b61050d61099f366004612da0565b6117cb565b61050d6109b2366004612cd6565b61180d565b6105226109c5366004612df3565b611817565b61050d6109d8366004612cd6565b61182c565b610522611836565b6104ed6109f3366004612b40565b61183c565b61050d610a06366004612df3565b61185d565b61050d610a19366004612cd6565b611866565b6105226104e8366004612b5e565b61050d610a3a366004612df3565b611870565b610522610a4d366004612b40565b611875565b61050d611890565b61050d610a68366004612cd6565b611898565b6105226118a2565b610522610a83366004612df3565b6118a8565b604080518082019091526016815275456d7074792053657420446f6c6c6172205374616b6560501b602082015290565b60005b92915050565b610b0385858585858080601f0160208091040260200160405190810160405280939291908181526020018383808284376000920191909152506118ba92505050565b5050505050565b6000818152600d60205260409020600201545b919050565b6001600160a01b03166000908152600e602052604090206001015490565b600b546001600160a01b031690565b60035490565b610b5f828261192b565b5050565b60065490565b610b728161195d565b50565b610b5f82826119a4565b60005b9392505050565b610b7281611a4e565b610b9a610ff8565b6001600160a01b03166340c10f1983836040518363ffffffff1660e01b8152600401610bc79291906130f2565b602060405180830381600087803b158015610be157600080fd5b505af1158015610bf5573d6000803e3d6000fd5b505050506040513d601f19601f82011682018060405250610c199190810190612dd5565b505050565b601290565b610c198383838080601f016020809104026020016040519081016040528093929190818152602001838380828437600092019190915250611a6792505050565b6001600160a01b03166000908152600e602052604090206003015490565b610cad610c8d82610e1e565b6523b7bb32b93760d11b6c139bdd081b9bdb5a5b985d1959609a1b611a82565b6000610ce16001610cd5610cc085610b22565b610cc986611875565b9063ffffffff611ad716565b9063ffffffff611afc16565b9050610d0c81610cef611210565b116523b7bb32b93760d11b68139bdd08195b99195960ba1b611a82565b610d4f610d2b610d1a611b3e565b610cc984600163ffffffff611ad716565b610d33611210565b11156523b7bb32b93760d11b66115e1c1a5c995960ca1b611a82565b610da6610d83610d5d611b43565b610d77610d6986611340565b610d72866118a8565b611b65565b9063ffffffff611b9416565b6523b7bb32b93760d11b6f4d75737420686176652071756f726f6d60801b611a82565b610ddb610db283610c63565b610dbb8461105d565b116523b7bb32b93760d11b6b139bdd08185c1c1c9bdd995960a21b611a82565b610de482611baa565b6040516001600160a01b0383169033907f815ca4497ab9fc80c76f210e6e842a5e198e195aa136034557eee144f790e7bb90600090a35050565b6001600160a01b03166000908152600e6020526040902054151590565b610c19838383611c96565b6001600160a01b038082166000908152600e60209081526040808320938616835260049093019052205460ff1692915050565b610eba848484848080601f016020809104026020016040519081016040528093929190818152602001838380828437600092019190915250611cc692505050565b50505050565b610b5f81611d17565b60045490565b610edb610c8d82610e1e565b610f19610ef1610ee9611d5e565b610cc9611210565b610ef9610ff2565b116523b7bb32b93760d11b6b115c1bd8da081cde5b98d95960a21b611a82565b610f6b610f3b610f27611d63565b610d77610f338561105d565b610d72610b4f565b6523b7bb32b93760d11b7f4d7573742068617665207375706572206d616a6f726974790000000000000000611a82565b610f80610f7782610c63565b610dbb8361105d565b610f8981611baa565b6040516001600160a01b0382169033907f815ca4497ab9fc80c76f210e6e842a5e198e195aa136034557eee144f790e7bb90600090a350565b6000828152600d60205260408120600301805483908110610fdf57fe5b9060005260206000200154905092915050565b60105490565b6009546001600160a01b031690565b6001600160a01b03166000908152600c602052604090206004015490565b7f360894a13ba1a3210667c828492db98dca3e2076cc3735a920a3ca505d382bbc5490565b610b7281611d85565b610b5f8282611e0c565b6001600160a01b03166000908152600e602052604090206002015490565b6000908152600d602052604090206003015490565b610c19838383611f1d565b6001600160a01b03166000908152600c602052604090206001015490565b6110c1611fc4565b565b610c198383838080601f016020809104026020016040519081016040528093929190818152602001838380828437600092019190915250611feb92505050565b600061110d612006565b90911115919050565b601055565b610eba848484848080601f01602080910402602001604051908101604052809392919081815260200183838082843760009201919091525061200b92505050565b600a546001600160a01b031690565b60405162461bcd60e51b815260040161118390613186565b60405180910390fd5b600080611197610b4f565b9050806111a8576000915050610b1d565b610b82816111cc6111b88661109b565b6111c0610ec9565b9063ffffffff61205c16565b9063ffffffff61209616565b610c198383836120d8565b6001600160a01b03166000908152600c602052604090205490565b610b7281611baa565b610b7281612122565b60025490565b6040805180820190915260048152634553445360e01b602082015290565b600061123e611210565b6001600160a01b0383166000908152600c6020526040902060050154111561126857506002610b1d565b6001600160a01b0382166000908152600c602052604090206004015461128c611210565b1015610ab8576001610abb565b60085490565b610c198383838080601f01602080910402602001604051908101604052809392919081815260200183838082843760009201919091525061213b92505050565b6001600160a01b03166000908152600c602052604090206005015490565b610b7281612156565b6001600160a01b039182166000908152600c602090815260408083209390941682526003909201909152205490565b600091909155600155565b6000610abb61134e83610c63565b610cc98461105d565b60006113dc6113646118a2565b61136c610ff8565b6001600160a01b03166318160ddd6040518163ffffffff1660e01b815260040160206040518083038186803b1580156113a457600080fd5b505afa1580156113b8573d6000803e3d6000fd5b505050506040513d601f19601f82011682018060405250610cd59190810190612e11565b905090565b610b7281612180565b610b72816121a7565b610eba848484848080601f0160208091040260200160405190810160405280939291908181526020018383808284376000920191909152506121ea92505050565b610b5f8282612295565b610b5f828261233d565b610b5f611456826064611b65565b612399565b610eba848484848080601f01602080910402602001604051908101604052809392919081815260200183838082843760009201919091525061247392505050565b60006114a782611817565b6114b357506000610abb565b506001600160a01b03919091166000908152600c6020908152604080832093835260029093019052205490565b3361152760016114ef83611234565b60028111156114fa57fe5b1415692832b936b4b9b9b4b7b760b11b73139bdd08199c9bde995b881bdc881b1bd8dad95960621b611a82565b61155860006115353361109b565b116523b7bb32b93760d11b6e4d7573742068617665207374616b6560881b611a82565b61156183610e1e565b611604576115a1611571336124d2565b6523b7bb32b93760d11b7f4e6f7420656e6f756768207374616b6520746f2070726f706f73650000000000611a82565b6115b2836115ad612516565b61251b565b6115ba611210565b336001600160a01b0385167fd15e38a680a427478883cd2d32eb664cb6bb2090b0126a23ebaf3e3784b8c56b6115ee612516565b6040516115fb9190613196565b60405180910390a45b611634611613610cc085610b22565b61161b611210565b106523b7bb32b93760d11b64115b99195960da1b611a82565b600061163f3361109b565b9050600061164d3386610e46565b905080600281111561165b57fe5b84600281111561166757fe5b1415611674575050610c19565b600281600281111561168257fe5b14156116c8576116c885836040518060400160405280601b81526020017f476f7665726e3a20496e73756666696369656e742072656a6563740000000000815250611cc6565b60018160028111156116d657fe5b141561171c5761171c85836040518060400160405280601c81526020017f476f7665726e3a20496e73756666696369656e7420617070726f76650000000081525061200b565b600284600281111561172a57fe5b141561173a5761173a8583612547565b600184600281111561174857fe5b1415611758576117588583612596565b6117633386866120d8565b61176d33866125e5565b846001600160a01b0316336001600160a01b03167fbe50c78cbc15b0864819aadea36c6499da421b33c38e2ef19bebda583c708c7886856040516117b2929190613137565b60405180910390a35050505050565b610b5f82826125e5565b610b0385858585858080601f01602080910402602001604051908101604052809392919081815260200183838082843760009201919091525061264592505050565b610b5f82826126f0565b6000908152600d602052604090206001015490565b610b5f8282612547565b60055490565b6001600160a01b03166000908152600e602052604090206005015460ff1690565b610b728161279a565b610b5f828261251b565b600f55565b6001600160a01b03166000908152600e602052604090205490565b6110c16127b3565b610b5f8282612596565b60075490565b6000908152600d602052604090205490565b6001600160a01b038085166000908152600c6020908152604080832093871683526003909301905220546118f590838363ffffffff6127cc16565b6001600160a01b039485166000908152600c60209081526040808320969097168252600390950190945293909220929092555050565b6000828152600d6020908152604080832060020184905592825291812060030180546001810182559082529190200155565b61199c816040518060400160405280601c81526020017f436f6d7074726f6c6c65723a206e6f7420656e6f756768206465627400000000815250611feb565b610b726127f8565b6119ac610ff8565b6001600160a01b03166340c10f1983836040518363ffffffff1660e01b81526004016119d99291906130f2565b602060405180830381600087803b1580156119f357600080fd5b505af1158015611a07573d6000803e3d6000fd5b505050506040513d601f19601f82011682018060405250611a2b9190810190612dd5565b50611a37610794611210565b611a4657611a4481611d17565b505b610b5f6127f8565b600454611a61908263ffffffff611ad716565b60045550565b600654611a7b90838363ffffffff6127cc16565b6006555050565b82610c1957611a90826128cb565b6101d160f51b611a9f836128cb565b604051602001611ab19392919061308b565b60408051601f198184030181529082905262461bcd60e51b825261118391600401613145565b600082820183811015610b825760405162461bcd60e51b815260040161118390613156565b6000610b8283836040518060400160405280601e81526020017f536166654d6174683a207375627472616374696f6e206f766572666c6f7700008152506127cc565b600290565b611b4b612aad565b5060408051602081019091526702c68af0bb140000815290565b611b6d612aad565b6040518060200160405280611b8b85670de0b6b3a76400008661294b565b90529392505050565b6000611ba08383612969565b6002149392505050565b611bb38161299b565b60408051600481526024810182526020810180516001600160e01b031663204a7f0760e21b17905290516000916060916001600160a01b03851691611bf79161307f565b600060405180830381855af49150503d8060008114611c32576040519150601f19603f3d011682016040523d82523d6000602084013e611c37565b606091505b5091509150818190611c5c5760405162461bcd60e51b81526004016111839190613145565b506040516001600160a01b038416907fbc7cd75a20ee27fd9adebab32041f755214dbc6bffa90cc0225b39da2e5c2d3b90600090a2505050565b6001600160a01b039283166000908152600c60209081526040808320949095168252600390930190925291902055565b6001600160a01b0383166000908152600e6020526040902060030154611cf390838363ffffffff6127cc16565b6001600160a01b039093166000908152600e60205260409020600301929092555050565b6000611d2282612122565b6000611d2f6114566129e4565b9050611d396127f8565b828111611d5557611d50838263ffffffff611afc16565b610b82565b50600092915050565b600690565b611d6b612aad565b506040805160208101909152670928ca80cfc20000815290565b611d8d610ff8565b6001600160a01b03166342966c68826040518263ffffffff1660e01b8152600401611db89190613196565b600060405180830381600087803b158015611dd257600080fd5b505af1158015611de6573d6000803e3d6000fd5b5050505061199c816040518060600160405280602a81526020016132ad602a9139611a67565b611e14610ff8565b6001600160a01b03166323b872dd8330846040518463ffffffff1660e01b8152600401611e43939291906130ca565b602060405180830381600087803b158015611e5d57600080fd5b505af1158015611e71573d6000803e3d6000fd5b505050506040513d601f19601f82011682018060405250611e959190810190612dd5565b50611e9e610ff8565b6001600160a01b03166342966c68826040518263ffffffff1660e01b8152600401611ec99190613196565b600060405180830381600087803b158015611ee357600080fd5b505af1158015611ef7573d6000803e3d6000fd5b50505050611a468160405180606001604052806028815260200161328560289139611feb565b6001600160a01b0383166000908152600c60209081526040808320858452600201909152902054611f54908263ffffffff611ad716565b6001600160a01b0384166000908152600c60209081526040808320868452600201825280832093909355600d90522060010154611f97908263ffffffff611ad716565b6000838152600d6020526040902060010155600854611fbc908263ffffffff611ad716565b600855505050565b611fcc610b4f565b600d6000611fd8611210565b8152602081019190915260400160002055565b600754611fff90838363ffffffff6127cc16565b6007555050565b605a90565b6001600160a01b0383166000908152600e602052604090206002015461203890838363ffffffff6127cc16565b6001600160a01b039093166000908152600e60205260409020600201929092555050565b60008261206b57506000610abb565b8282028284828161207857fe5b0414610b825760405162461bcd60e51b815260040161118390613166565b6000610b8283836040518060400160405280601a81526020017f536166654d6174683a206469766973696f6e206279207a65726f000000000000815250612a06565b6001600160a01b038083166000908152600e6020908152604080832093871683526004909301905220805482919060ff1916600183600281111561211857fe5b0217905550505050565b600754612135908263ffffffff611ad716565b60075550565b60045461214f90838363ffffffff6127cc16565b6004555050565b612161610ee9612a3d565b6001600160a01b039091166000908152600c6020526040902060040155565b6001600160a01b03166000908152600e60205260409020600501805460ff19166001179055565b60006121b282611817565b9050806121bf5750610b72565b6008546121d2908263ffffffff611afc16565b600855506000908152600d6020526040812060010155565b6001600160a01b0383166000908152600c602052604090206001015461221790838363ffffffff6127cc16565b6001600160a01b0384166000908152600c602052604090206001015560035461224790838363ffffffff6127cc16565b6003556040516000906001600160a01b038516907fddf252ad1be2c89b69c2b068fc378daa952ba7f163c4a11628f55a4df523b3ef90612288908690613196565b60405180910390a3505050565b6001600160a01b0382166000908152600c60205260409020600101546122c1908263ffffffff611ad716565b6001600160a01b0383166000908152600c60205260409020600101556003546122f0908263ffffffff611ad716565b6003556040516001600160a01b038316906000907fddf252ad1be2c89b69c2b068fc378daa952ba7f163c4a11628f55a4df523b3ef90612331908590613196565b60405180910390a35050565b6001600160a01b0382166000908152600c6020526040902054612366908263ffffffff611ad716565b6001600160a01b0383166000908152600c6020526040902055600554612392908263ffffffff611ad716565b6005555050565b60008061242c6124276123aa610ff8565b6001600160a01b03166318160ddd6040518163ffffffff1660e01b815260040160206040518083038186803b1580156123e257600080fd5b505afa1580156123f6573d6000803e3d6000fd5b505050506040513d601f19601f8201168201806040525061241a9190810190612e11565b859063ffffffff612a4216565b612a69565b905060006124386118a2565b905081811115612469576000612454828463ffffffff611afc16565b905061245f8161195d565b9250610b1d915050565b5060009392505050565b6001600160a01b0383166000908152600c602052604090205461249d90838363ffffffff6127cc16565b6001600160a01b0384166000908152600c60205260409020556005546124ca90838363ffffffff6127cc16565b600555505050565b60006124dc610ec9565b6124e857506000610b1d565b6124f0612aad565b6124fc610f338461109b565b9050610b82612509612a86565b829063ffffffff611b9416565b600990565b612523611210565b6001600160a01b039092166000908152600e60205260409020918255600190910155565b6001600160a01b0382166000908152600e6020526040902060030154612573908263ffffffff611ad716565b6001600160a01b039092166000908152600e602052604090206003019190915550565b6001600160a01b0382166000908152600e60205260409020600201546125c2908263ffffffff611ad716565b6001600160a01b039092166000908152600e602052604090206002019190915550565b6001600160a01b0382166000908152600c60205260408120600501549061261761260e84610b22565b610cc985611875565b905081811115610eba576001600160a01b0384166000908152600c6020526040902060050181905550505050565b6001600160a01b0384166000908152600c6020908152604080832086845260020190915290205461267d90838363ffffffff6127cc16565b6001600160a01b0385166000908152600c60209081526040808320878452600201825280832093909355600d905220600101546126c190838363ffffffff6127cc16565b6000848152600d60205260409020600101556008546126e790838363ffffffff6127cc16565b60085550505050565b6126f8610ff8565b6001600160a01b031663a9059cbb83836040518363ffffffff1660e01b81526004016127259291906130f2565b602060405180830381600087803b15801561273f57600080fd5b505af1158015612753573d6000803e3d6000fd5b505050506040513d601f19601f820116820180604052506127779190810190612dd5565b50611a46816040518060600160405280602a81526020016132ad602a9139611a67565b6006546127ad908263ffffffff611ad716565b60065550565b6002546127c790600163ffffffff611ad716565b600255565b600081848411156127f05760405162461bcd60e51b81526004016111839190613145565b505050900390565b6110c1612819612806610b63565b610cc9612811611836565b610cc9610ec9565b612821610ff8565b6001600160a01b03166370a08231306040518263ffffffff1660e01b815260040161284c91906130bc565b60206040518083038186803b15801561286457600080fd5b505afa158015612878573d6000803e3d6000fd5b505050506040513d601f19601f8201168201806040525061289c9190810190612e11565b10156a21b7b6b83a3937b63632b960a91b74496e636f6e73697374656e742062616c616e63657360581b611a82565b606080826040516020016128df919061306a565b60408051601f19818403018152919052905060205b80156129345781516000199091019082908290811061290f57fe5b01602001516001600160f81b0319161561292f5760010181529050610b1d565b6128f4565b505060408051600081526020810190915292915050565b6000612961826111cc868663ffffffff61205c16565b949350505050565b80518251600091141561297e57506001610abb565b815183511161298e576000612991565b60025b60ff169392505050565b6129a481612aa7565b6129c05760405162461bcd60e51b815260040161118390613176565b7f360894a13ba1a3210667c828492db98dca3e2076cc3735a920a3ca505d382bbc55565b6129ec612aad565b506040805160208101909152670214e8348c4f0000815290565b60008183612a275760405162461bcd60e51b81526004016111839190613145565b506000838581612a3357fe5b0495945050505050565b600f90565b612a4a612aad565b604080516020810190915283518190611b8b908563ffffffff61205c16565b8051600090610abb90670de0b6b3a764000063ffffffff61209616565b612a8e612aad565b5060408051602081019091526611c37937e08000815290565b3b151590565b6040518060200160405280600081525090565b8035610abb81613251565b8051610abb81613265565b8035610abb8161326e565b60008083601f840112612af357600080fd5b50813567ffffffffffffffff811115612b0b57600080fd5b602083019150836001820283011115612b2357600080fd5b9250929050565b8035610abb8161327b565b8051610abb8161327b565b600060208284031215612b5257600080fd5b60006129618484612ac0565b60008060408385031215612b7157600080fd5b6000612b7d8585612ac0565b9250506020612b8e85828601612ac0565b9150509250929050565b600080600060608486031215612bad57600080fd5b6000612bb98686612ac0565b9350506020612bca86828701612ac0565b9250506040612bdb86828701612ad6565b9150509250925092565b600080600060608486031215612bfa57600080fd5b6000612c068686612ac0565b9350506020612c1786828701612ac0565b9250506040612bdb86828701612b2a565b600080600080600060808688031215612c4057600080fd5b6000612c4c8888612ac0565b9550506020612c5d88828901612ac0565b9450506040612c6e88828901612b2a565b935050606086013567ffffffffffffffff811115612c8b57600080fd5b612c9788828901612ae1565b92509250509295509295909350565b60008060408385031215612cb957600080fd5b6000612cc58585612ac0565b9250506020612b8e85828601612ad6565b60008060408385031215612ce957600080fd5b6000612cf58585612ac0565b9250506020612b8e85828601612b2a565b60008060008060608587031215612d1c57600080fd5b6000612d288787612ac0565b9450506020612d3987828801612b2a565b935050604085013567ffffffffffffffff811115612d5657600080fd5b612d6287828801612ae1565b95989497509550505050565b600080600060608486031215612d8357600080fd5b6000612d8f8686612ac0565b9350506020612c1786828701612b2a565b600080600080600060808688031215612db857600080fd5b6000612dc48888612ac0565b9550506020612c5d88828901612b2a565b600060208284031215612de757600080fd5b60006129618484612acb565b600060208284031215612e0557600080fd5b60006129618484612b2a565b600060208284031215612e2357600080fd5b60006129618484612b35565b600080600060408486031215612e4457600080fd5b6000612e508686612b2a565b935050602084013567ffffffffffffffff811115612e6d57600080fd5b612e7986828701612ae1565b92509250509250925092565b60008060408385031215612e9857600080fd5b6000612cf58585612b2a565b612ead816131bf565b82525050565b612ead816131ca565b612ead612ec8826131cf565b6131dc565b612ead612ec8826131dc565b6000612ee4826131b2565b612eee8185610b1d565b9350612efe818560208601613211565b9290920192915050565b612ead816131fb565b612ead81613206565b6000612f25826131b2565b612f2f81856131b6565b9350612f3f818560208601613211565b612f488161323d565b9093019392505050565b6000612f5f601b836131b6565b7f536166654d6174683a206164646974696f6e206f766572666c6f770000000000815260200192915050565b6000612f986021836131b6565b7f536166654d6174683a206d756c7469706c69636174696f6e206f766572666c6f8152607760f81b602082015260400192915050565b6000612fdb603b836131b6565b7f43616e6e6f742073657420612070726f787920696d706c656d656e746174696f81527f6e20746f2061206e6f6e2d636f6e747261637420616464726573730000000000602082015260400192915050565b600061303a600f836131b6565b6e14da1bdd5b19081b9bdd0818d85b1b608a1b815260200192915050565b612ead816131dc565b612ead816131f5565b60006130768284612ecd565b50602001919050565b6000610b828284612ed9565b60006130978286612ed9565b91506130a38285612ebc565b6002820191506130b38284612ed9565b95945050505050565b60208101610abb8284612ea4565b606081016130d88286612ea4565b6130e56020830185612ea4565b6129616040830184613058565b604081016131008285612ea4565b610b826020830184613058565b60208101610abb8284612eb3565b60208101610abb8284612f08565b60208101610abb8284612f11565b604081016131008285612f11565b60208082528101610b828184612f1a565b60208082528101610abb81612f52565b60208082528101610abb81612f8b565b60208082528101610abb81612fce565b60208082528101610abb8161302d565b60208101610abb8284613058565b60208101610abb8284613061565b5190565b90815260200190565b6000610abb826131e9565b151590565b6001600160f01b03191690565b90565b80610b1d81613247565b6001600160a01b031690565b60ff1690565b6000610abb826131bf565b6000610abb826131df565b60005b8381101561322c578181015183820152602001613214565b83811115610eba5750506000910152565b601f01601f191690565b60038110610b7257fe5b61325a816131bf565b8114610b7257600080fd5b61325a816131ca565b60038110610b7257600080fd5b61325a816131dc56fe436f6d7074726f6c6c65723a206e6f7420656e6f756768206f75747374616e64696e672064656274436f6d7074726f6c6c65723a206e6f7420656e6f7567682072656465656d61626c652062616c616e6365a365627a7a72315820493388223ce6ebfadc74dcc5edef319e0bc970bb0451516f8850b0900e7cf9d76c6578706572696d656e74616cf564736f6c6343000511004060806040523480156200001157600080fd5b506040518060400160405280601081526020016f22b6b83a3c9029b2ba102237b63630b960811b815250604051806040016040528060038152602001621154d160ea1b81525060126200007c6200006d6200011760201b60201c565b6001600160e01b036200011c16565b82516200009190600190602086019062000311565b508151620000a790600290602085019062000311565b506003805460ff191660ff92909216919091179055506200010e9050620000cd6200016e565b604051806040016040528060018152602001603160f81b815250620000fc6200020760201b620016341760201c565b306200020c60201b620016391760201c565b60075562000467565b335b90565b620001378160006200026360201b62000d7e1790919060201c565b6040516001600160a01b038216907f6ae172837ea30b801fbfcdd4108aa1d5bf8ff775444fd70256b44e6bf3dfc3f690600090a250565b60018054604080516020601f60026000196101008789161502019095169490940493840181900481028201810190925282815260609390929091830182828015620001fd5780601f10620001d157610100808354040283529160200191620001fd565b820191906000526020600020905b815481529060010190602001808311620001df57829003601f168201915b5050505050905090565b600190565b8351602094850120835193850193909320604080517f8b73c3c69bb8fe3d512ecc4cf759cc79239f7b179b0ffacaa9a75d522b39400f815295860194909452928401929092526060830152608082015260a0902090565b6200027882826001600160e01b03620002c616565b15620002a15760405162461bcd60e51b8152600401620002989062000434565b60405180910390fd5b6001600160a01b0316600090815260209190915260409020805460ff19166001179055565b60006001600160a01b038216620002f15760405162461bcd60e51b815260040162000298906200044c565b506001600160a01b03166000908152602091909152604090205460ff1690565b828054600181600116156101000203166002900490600052602060002090601f016020900481019282601f106200035457805160ff191683800117855562000384565b8280016001018555821562000384579182015b828111156200038457825182559160200191906001019062000367565b506200039292915062000396565b5090565b6200011991905b808211156200039257600081556001016200039d565b6000620003c2601f836200045e565b7f526f6c65733a206163636f756e7420616c72656164792068617320726f6c6500815260200192915050565b6000620003fd6022836200045e565b7f526f6c65733a206163636f756e7420697320746865207a65726f206164647265815261737360f01b602082015260400192915050565b602080825281016200044681620003b3565b92915050565b602080825281016200044681620003ee565b90815260200190565b61178d80620004776000396000f3fe608060405234801561001057600080fd5b506004361061012c5760003560e01c806395d89b41116100ad578063aa271e1a11610071578063aa271e1a14610256578063d505accf14610269578063dab400f31461027c578063dd62ed3e14610284578063e879c19f146102975761012c565b806395d89b411461020d578063983b2d56146102155780639865027514610228578063a457c2d714610230578063a9059cbb146102435761012c565b806339509351116100f457806339509351146101ac57806340c10f19146101bf57806342966c68146101d257806370a08231146101e757806379cc6790146101fa5761012c565b806306fdde0314610131578063095ea7b31461014f57806318160ddd1461016f57806323b872dd14610184578063313ce56714610197575b600080fd5b61013961029f565b60405161014691906114c6565b60405180910390f35b61016261015d366004610ffc565b610334565b604051610146919061141b565b610177610352565b6040516101469190611429565b610162610192366004610f13565b610358565b61019f6103ca565b6040516101469190611587565b6101626101ba366004610ffc565b6103d3565b6101626101cd366004610ffc565b610427565b6101e56101e036600461102c565b610463565b005b6101776101f5366004610eb3565b610477565b6101e5610208366004610ffc565b610496565b6101396104a4565b6101e5610223366004610eb3565b610502565b6101e5610532565b61016261023e366004610ffc565b610544565b610162610251366004610ffc565b6105b2565b610162610264366004610eb3565b6105c6565b6101e5610277366004610f60565b6105d8565b61017761075f565b610177610292366004610ed9565b610765565b610177610790565b60018054604080516020601f6002600019610100878916150201909516949094049384018190048102820181019092528281526060939092909183018282801561032a5780601f106102ff5761010080835404028352916020019161032a565b820191906000526020600020905b81548152906001019060200180831161030d57829003601f168201915b5050505050905090565b60006103486103416107b4565b84846107b8565b5060015b92915050565b60065490565b600061036584848461086c565b600019610374856102926107b4565b146103c0576103c0846103856107b4565b6103bb856040518060600160405280602981526020016116fd602991396103ae8a6102926107b4565b919063ffffffff61098216565b6107b8565b5060019392505050565b60035460ff1690565b60006103486103e06107b4565b846103bb85600560006103f16107b4565b6001600160a01b03908116825260208083019390935260409182016000908120918c16815292529020549063ffffffff6109ae16565b60006104346102646107b4565b6104595760405162461bcd60e51b815260040161045090611517565b60405180910390fd5b61034883836109da565b61047461046e6107b4565b82610a9a565b50565b6001600160a01b0381166000908152600460205260409020545b919050565b6104a08282610b70565b5050565b60028054604080516020601f600019610100600187161502019094168590049384018190048102820181019092528281526060939092909183018282801561032a5780601f106102ff5761010080835404028352916020019161032a565b61050d6102646107b4565b6105295760405162461bcd60e51b815260040161045090611517565b61047481610beb565b61054261053d6107b4565b610c33565b565b60006103486105516107b4565b846103bb85604051806060016040528060258152602001611726602591396005600061057b6107b4565b6001600160a01b03908116825260208083019390935260409182016000908120918d1681529252902054919063ffffffff61098216565b60006103486105bf6107b4565b848461086c565b600061034c818363ffffffff610c7b16565b6007546001600160a01b03881660009081526008602090815260408083208054600181019091559051929361065a93909261063f927f6e71edae12b1b97f4d1f60370fef10105fa2faae0126114a169c64845d6126c9928e928e928e9290918e9101611437565b60405160208183030381529060405280519060200120610cc3565b90506000600182868686604051600081526020016040526040516106819493929190611491565b6020604051602081039080840390855afa1580156106a3573d6000803e3d6000fd5b5050506020604051035190506106f0896001600160a01b0316826001600160a01b0316146a5065726d69747461626c6560a81b70496e76616c6964207369676e617475726560781b610ce2565b6107236001600160a01b03821615156a5065726d69747461626c6560a81b6b5a65726f206164647265737360a01b610ce2565b610749864211156a5065726d69747461626c6560a81b66115e1c1a5c995960ca1b610ce2565b6107548989896107b8565b505050505050505050565b60075481565b6001600160a01b03918216600090815260056020908152604080832093909416825291909152205490565b7f6e71edae12b1b97f4d1f60370fef10105fa2faae0126114a169c64845d6126c981565b3390565b6001600160a01b0383166107de5760405162461bcd60e51b815260040161045090611567565b6001600160a01b0382166108045760405162461bcd60e51b8152600401610450906114f7565b6001600160a01b0380841660008181526005602090815260408083209487168084529490915290819020849055517f8c5be1e5ebec7d5bd14f71427d1e84f3dd0314c0f7b2291e5b200ac8c7c3b9259061085f908590611429565b60405180910390a3505050565b6001600160a01b0383166108925760405162461bcd60e51b815260040161045090611557565b6001600160a01b0382166108b85760405162461bcd60e51b8152600401610450906114d7565b6108fb816040518060600160405280602681526020016116b3602691396001600160a01b038616600090815260046020526040902054919063ffffffff61098216565b6001600160a01b038085166000908152600460205260408082209390935590841681522054610930908263ffffffff6109ae16565b6001600160a01b0380841660008181526004602052604090819020939093559151908516907fddf252ad1be2c89b69c2b068fc378daa952ba7f163c4a11628f55a4df523b3ef9061085f908590611429565b600081848411156109a65760405162461bcd60e51b815260040161045091906114c6565b505050900390565b6000828201838110156109d35760405162461bcd60e51b815260040161045090611507565b9392505050565b6001600160a01b038216610a005760405162461bcd60e51b815260040161045090611577565b600654610a13908263ffffffff6109ae16565b6006556001600160a01b038216600090815260046020526040902054610a3f908263ffffffff6109ae16565b6001600160a01b0383166000818152600460205260408082209390935591519091907fddf252ad1be2c89b69c2b068fc378daa952ba7f163c4a11628f55a4df523b3ef90610a8e908590611429565b60405180910390a35050565b6001600160a01b038216610ac05760405162461bcd60e51b815260040161045090611547565b610b0381604051806060016040528060228152602001611691602291396001600160a01b038516600090815260046020526040902054919063ffffffff61098216565b6001600160a01b038316600090815260046020526040902055600654610b2f908263ffffffff610d3c16565b6006556040516000906001600160a01b038416907fddf252ad1be2c89b69c2b068fc378daa952ba7f163c4a11628f55a4df523b3ef90610a8e908590611429565b610b7a8282610a9a565b6104a082610b866107b4565b6103bb846040518060600160405280602481526020016116d9602491396001600160a01b038816600090815260056020526040812090610bc46107b4565b6001600160a01b03168152602081019190915260400160002054919063ffffffff61098216565b610bfc60008263ffffffff610d7e16565b6040516001600160a01b038216907f6ae172837ea30b801fbfcdd4108aa1d5bf8ff775444fd70256b44e6bf3dfc3f690600090a250565b610c4460008263ffffffff610dca16565b6040516001600160a01b038216907fe94479a9f7e1952cc78f2d6baab678adc1b772d936c6583def489e524cb6669290600090a250565b60006001600160a01b038216610ca35760405162461bcd60e51b815260040161045090611537565b506001600160a01b03166000908152602091909152604090205460ff1690565b60405161190160f01b8152600281019290925260228201526042902090565b82610d3757610cf082610e12565b6101d160f51b610cff83610e12565b604051602001610d11939291906113ea565b60408051601f198184030181529082905262461bcd60e51b8252610450916004016114c6565b505050565b60006109d383836040518060400160405280601e81526020017f536166654d6174683a207375627472616374696f6e206f766572666c6f770000815250610982565b610d888282610c7b565b15610da55760405162461bcd60e51b8152600401610450906114e7565b6001600160a01b0316600090815260209190915260409020805460ff19166001179055565b610dd48282610c7b565b610df05760405162461bcd60e51b815260040161045090611527565b6001600160a01b0316600090815260209190915260409020805460ff19169055565b60608082604051602001610e2691906113d5565b60408051601f19818403018152919052905060205b8015610e7b57815160001990910190829082908110610e5657fe5b01602001516001600160f81b03191615610e765760010181529050610491565b610e3b565b505060408051600081526020810190915292915050565b803561034c8161160e565b803561034c81611622565b803561034c8161162b565b600060208284031215610ec557600080fd5b6000610ed18484610e92565b949350505050565b60008060408385031215610eec57600080fd5b6000610ef88585610e92565b9250506020610f0985828601610e92565b9150509250929050565b600080600060608486031215610f2857600080fd5b6000610f348686610e92565b9350506020610f4586828701610e92565b9250506040610f5686828701610e9d565b9150509250925092565b600080600080600080600060e0888a031215610f7b57600080fd5b6000610f878a8a610e92565b9750506020610f988a828b01610e92565b9650506040610fa98a828b01610e9d565b9550506060610fba8a828b01610e9d565b9450506080610fcb8a828b01610ea8565b93505060a0610fdc8a828b01610e9d565b92505060c0610fed8a828b01610e9d565b91505092959891949750929550565b6000806040838503121561100f57600080fd5b600061101b8585610e92565b9250506020610f0985828601610e9d565b60006020828403121561103e57600080fd5b6000610ed18484610e9d565b611053816115a2565b82525050565b611053816115ad565b61105361106e826115b2565b6115bf565b611053816115bf565b61105361106e826115bf565b600061109382611595565b61109d8185610491565b93506110ad8185602086016115d4565b9290920192915050565b60006110c282611595565b6110cc8185611599565b93506110dc8185602086016115d4565b6110e581611604565b9093019392505050565b60006110fc602383611599565b7f45524332303a207472616e7366657220746f20746865207a65726f206164647281526265737360e81b602082015260400192915050565b6000611141601f83611599565b7f526f6c65733a206163636f756e7420616c72656164792068617320726f6c6500815260200192915050565b600061117a602283611599565b7f45524332303a20617070726f766520746f20746865207a65726f206164647265815261737360f01b602082015260400192915050565b60006111be601b83611599565b7f536166654d6174683a206164646974696f6e206f766572666c6f770000000000815260200192915050565b60006111f7603083611599565b7f4d696e746572526f6c653a2063616c6c657220646f6573206e6f74206861766581526f20746865204d696e74657220726f6c6560801b602082015260400192915050565b6000611249602183611599565b7f526f6c65733a206163636f756e7420646f6573206e6f74206861766520726f6c8152606560f81b602082015260400192915050565b600061128c602283611599565b7f526f6c65733a206163636f756e7420697320746865207a65726f206164647265815261737360f01b602082015260400192915050565b60006112d0602183611599565b7f45524332303a206275726e2066726f6d20746865207a65726f206164647265738152607360f81b602082015260400192915050565b6000611313602583611599565b7f45524332303a207472616e736665722066726f6d20746865207a65726f206164815264647265737360d81b602082015260400192915050565b600061135a602483611599565b7f45524332303a20617070726f76652066726f6d20746865207a65726f206164648152637265737360e01b602082015260400192915050565b60006113a0601f83611599565b7f45524332303a206d696e7420746f20746865207a65726f206164647265737300815260200192915050565b611053816115ce565b60006113e1828461107c565b50602001919050565b60006113f68286611088565b91506114028285611062565b6002820191506114128284611088565b95945050505050565b6020810161034c8284611059565b6020810161034c8284611073565b60c081016114458289611073565b611452602083018861104a565b61145f604083018761104a565b61146c6060830186611073565b6114796080830185611073565b61148660a0830184611073565b979650505050505050565b6080810161149f8287611073565b6114ac60208301866113cc565b6114b96040830185611073565b6114126060830184611073565b602080825281016109d381846110b7565b6020808252810161034c816110ef565b6020808252810161034c81611134565b6020808252810161034c8161116d565b6020808252810161034c816111b1565b6020808252810161034c816111ea565b6020808252810161034c8161123c565b6020808252810161034c8161127f565b6020808252810161034c816112c3565b6020808252810161034c81611306565b6020808252810161034c8161134d565b6020808252810161034c81611393565b6020810161034c82846113cc565b5190565b90815260200190565b600061034c826115c2565b151590565b6001600160f01b03191690565b90565b6001600160a01b031690565b60ff1690565b60005b838110156115ef5781810151838201526020016115d7565b838111156115fe576000848401525b50505050565b601f01601f191690565b611617816115a2565b811461047457600080fd5b611617816115bf565b611617816115ce565b600190565b8351602094850120835193850193909320604080517f8b73c3c69bb8fe3d512ecc4cf759cc79239f7b179b0ffacaa9a75d522b39400f815295860194909452928401929092526060830152608082015260a090209056fe45524332303a206275726e20616d6f756e7420657863656564732062616c616e636545524332303a207472616e7366657220616d6f756e7420657863656564732062616c616e636545524332303a206275726e20616d6f756e74206578636565647320616c6c6f77616e6365446f6c6c61723a207472616e7366657220616d6f756e74206578636565647320616c6c6f77616e636545524332303a2064656372656173656420616c6c6f77616e63652062656c6f77207a65726fa365627a7a72315820f7403c655392b44fbcfb74318820fd8b78c3f3372ffc8490217bf8b272c7e0f76c6578706572696d656e74616cf564736f6c63430005110040",
  "source": "/*\n    Copyright 2020 Empty Set Squad <emptysetsquad@protonmail.com>\n\n    Licensed under the Apache License, Version 2.0 (the \"License\");\n    you may not use this file except in compliance with the License.\n    You may obtain a copy of the License at\n\n    http://www.apache.org/licenses/LICENSE-2.0\n\n    Unless required by applicable law or agreed to in writing, software\n    distributed under the License is distributed on an \"AS IS\" BASIS,\n    WITHOUT WARRANTIES OR CONDITIONS OF ANY KIND, either express or implied.\n    See the License for the specific language governing permissions and\n    limitations under the License.\n*/\n\npragma solidity ^0.5.17;\npragma experimental ABIEncoderV2;\n\nimport \"../dao/Govern.sol\";\nimport \"./MockUpgradeable.sol\";\nimport \"./MockComptroller.sol\";\n\ncontract MockGovern is Govern, MockComptroller {\n    uint256 internal _epochTime;\n\n    constructor() MockComptroller(address(0)) public { }\n\n    function initialize() public {\n        revert(\"Should not call\");\n    }\n\n    function upgradeToE(address newImplementation) external {\n        super.upgradeTo(newImplementation);\n    }\n\n    function setEpochTime(uint256 epochTime) external {\n        _epochTime = epochTime;\n    }\n\n    function epochTime() public view returns (uint256) {\n        return _epochTime;\n    }\n}\n",
  "sourcePath": "/Users/sachin/code/dollar/contracts/mock/MockGovern.sol",
  "compiler": {
    "name": "solc",
    "version": "0.5.17+commit.d19bba13.Emscripten.clang"
  },
  "schemaVersion": "3.3.3",
  "updatedAt": "2021-01-01T20:54:00.165Z",
  "devdoc": {
    "methods": {}
  },
  "userdoc": {
    "methods": {
      "balanceOfStaged(address)": {
        "notice": "Account"
      },
      "createCandidateE(address,uint256)": {
        "notice": "Governance"
      },
      "dollar()": {
        "notice": "Global"
      },
      "epoch()": {
        "notice": "Epoch"
      },
      "incrementBalanceOfE(address,uint256)": {
        "notice": "Account"
      },
      "incrementTotalBondedE(uint256)": {
        "notice": "Global"
      },
      "name()": {
        "notice": "ERC20 Interface"
      },
      "recordedVote(address,address)": {
        "notice": "Governance"
      },
      "setBlockTimestamp(uint256)": {
        "notice": "Mock"
      },
      "setEpochParamsE(uint256,uint256)": {
        "notice": "Epoch"
      },
      "transfer(address,uint256)": {
        "notice": "ERC20 Interface"
      }
    }
  }
}