{
  "contractName": "MockSettableDAO",
  "abi": [
    {
      "constant": false,
      "inputs": [
        {
          "internalType": "uint256",
          "name": "epoch",
          "type": "uint256"
        }
      ],
      "name": "set",
      "outputs": [],
      "payable": false,
      "stateMutability": "nonpayable",
      "type": "function"
    },
    {
      "constant": true,
      "inputs": [],
      "name": "epoch",
      "outputs": [
        {
          "internalType": "uint256",
          "name": "",
          "type": "uint256"
        }
      ],
      "payable": false,
      "stateMutability": "view",
      "type": "function"
    }
  ],
  "bytecode": "0x608060405234801561001057600080fd5b50610112806100206000396000f3fe6080604052348015600f57600080fd5b506004361060325760003560e01c806360fe47b1146037578063900cf0cf146048575b600080fd5b60466042366004607c565b6062565b005b604e6067565b6040516059919060ac565b60405180910390f35b600055565b60005490565b803560768160bb565b92915050565b600060208284031215608d57600080fd5b600060978484606d565b949350505050565b60a68160b8565b82525050565b6020810160768284609f565b90565b60c28160b8565b811460cc57600080fd5b5056fea365627a7a7231582064eab5674e8992340d469a4700116495e36736c5826bd1812aa56fb82214bc2c6c6578706572696d656e74616cf564736f6c63430005110040",
  "source": "/*\n    Copyright 2020 Empty Set Squad <emptysetsquad@protonmail.com>\n\n    Licensed under the Apache License, Version 2.0 (the \"License\");\n    you may not use this file except in compliance with the License.\n    You may obtain a copy of the License at\n\n    http://www.apache.org/licenses/LICENSE-2.0\n\n    Unless required by applicable law or agreed to in writing, software\n    distributed under the License is distributed on an \"AS IS\" BASIS,\n    WITHOUT WARRANTIES OR CONDITIONS OF ANY KIND, either express or implied.\n    See the License for the specific language governing permissions and\n    limitations under the License.\n*/\n\npragma solidity ^0.5.17;\npragma experimental ABIEncoderV2;\n\nimport \"../oracle/IDAO.sol\";\n\ncontract MockSettableDAO is IDAO {\n    uint256 internal _epoch;\n\n    function set(uint256 epoch) external {\n        _epoch = epoch;\n    }\n\n    function epoch() external view returns (uint256) {\n        return _epoch;\n    }\n}\n",
  "sourcePath": "/Users/sachin/code/dollar/contracts/mock/MockSettableDAO.sol",
  "compiler": {
    "name": "solc",
    "version": "0.5.17+commit.d19bba13.Emscripten.clang"
  },
  "schemaVersion": "3.3.3",
  "updatedAt": "2021-01-01T20:54:00.179Z",
  "devdoc": {
    "methods": {}
  },
  "userdoc": {
    "methods": {}
  }
}