{
  "contractName": "MockMarket",
  "abi": [
    {
      "inputs": [
        {
          "internalType": "address",
          "name": "pool",
          "type": "address"
        }
      ],
      "payable": false,
      "stateMutability": "nonpayable",
      "type": "constructor"
    },
    {
      "anonymous": false,
      "inputs": [
        {
          "indexed": true,
          "internalType": "address",
          "name": "owner",
          "type": "address"
        },
        {
          "indexed": true,
          "internalType": "address",
          "name": "spender",
          "type": "address"
        },
        {
          "indexed": false,
          "internalType": "uint256",
          "name": "value",
          "type": "uint256"
        }
      ],
      "name": "CouponApproval",
      "type": "event"
    },
    {
      "anonymous": false,
      "inputs": [
        {
          "indexed": true,
          "internalType": "uint256",
          "name": "epoch",
          "type": "uint256"
        },
        {
          "indexed": false,
          "internalType": "uint256",
          "name": "couponsExpired",
          "type": "uint256"
        },
        {
          "indexed": false,
          "internalType": "uint256",
          "name": "lessRedeemable",
          "type": "uint256"
        },
        {
          "indexed": false,
          "internalType": "uint256",
          "name": "lessDebt",
          "type": "uint256"
        },
        {
          "indexed": false,
          "internalType": "uint256",
          "name": "newBonded",
          "type": "uint256"
        }
      ],
      "name": "CouponExpiration",
      "type": "event"
    },
    {
      "anonymous": false,
      "inputs": [
        {
          "indexed": true,
          "internalType": "address",
          "name": "account",
          "type": "address"
        },
        {
          "indexed": true,
          "internalType": "uint256",
          "name": "epoch",
          "type": "uint256"
        },
        {
          "indexed": false,
          "internalType": "uint256",
          "name": "dollarAmount",
          "type": "uint256"
        },
        {
          "indexed": false,
          "internalType": "uint256",
          "name": "couponAmount",
          "type": "uint256"
        }
      ],
      "name": "CouponPurchase",
      "type": "event"
    },
    {
      "anonymous": false,
      "inputs": [
        {
          "indexed": true,
          "internalType": "address",
          "name": "account",
          "type": "address"
        },
        {
          "indexed": true,
          "internalType": "uint256",
          "name": "epoch",
          "type": "uint256"
        },
        {
          "indexed": false,
          "internalType": "uint256",
          "name": "couponAmount",
          "type": "uint256"
        }
      ],
      "name": "CouponRedemption",
      "type": "event"
    },
    {
      "anonymous": false,
      "inputs": [
        {
          "indexed": true,
          "internalType": "address",
          "name": "from",
          "type": "address"
        },
        {
          "indexed": true,
          "internalType": "address",
          "name": "to",
          "type": "address"
        },
        {
          "indexed": true,
          "internalType": "uint256",
          "name": "epoch",
          "type": "uint256"
        },
        {
          "indexed": false,
          "internalType": "uint256",
          "name": "value",
          "type": "uint256"
        }
      ],
      "name": "CouponTransfer",
      "type": "event"
    },
    {
      "anonymous": false,
      "inputs": [
        {
          "indexed": true,
          "internalType": "address",
          "name": "from",
          "type": "address"
        },
        {
          "indexed": true,
          "internalType": "address",
          "name": "to",
          "type": "address"
        },
        {
          "indexed": false,
          "internalType": "uint256",
          "name": "value",
          "type": "uint256"
        }
      ],
      "name": "Transfer",
      "type": "event"
    },
    {
      "constant": true,
      "inputs": [
        {
          "internalType": "address",
          "name": "owner",
          "type": "address"
        },
        {
          "internalType": "address",
          "name": "spender",
          "type": "address"
        }
      ],
      "name": "allowance",
      "outputs": [
        {
          "internalType": "uint256",
          "name": "",
          "type": "uint256"
        }
      ],
      "payable": false,
      "stateMutability": "view",
      "type": "function"
    },
    {
      "constant": true,
      "inputs": [
        {
          "internalType": "address",
          "name": "owner",
          "type": "address"
        },
        {
          "internalType": "address",
          "name": "spender",
          "type": "address"
        }
      ],
      "name": "allowanceCoupons",
      "outputs": [
        {
          "internalType": "uint256",
          "name": "",
          "type": "uint256"
        }
      ],
      "payable": false,
      "stateMutability": "view",
      "type": "function"
    },
    {
      "constant": false,
      "inputs": [
        {
          "internalType": "address",
          "name": "spender",
          "type": "address"
        },
        {
          "internalType": "uint256",
          "name": "amount",
          "type": "uint256"
        }
      ],
      "name": "approve",
      "outputs": [
        {
          "internalType": "bool",
          "name": "",
          "type": "bool"
        }
      ],
      "payable": false,
      "stateMutability": "nonpayable",
      "type": "function"
    },
    {
      "constant": false,
      "inputs": [
        {
          "internalType": "address",
          "name": "spender",
          "type": "address"
        },
        {
          "internalType": "uint256",
          "name": "amount",
          "type": "uint256"
        }
      ],
      "name": "approveCoupons",
      "outputs": [],
      "payable": false,
      "stateMutability": "nonpayable",
      "type": "function"
    },
    {
      "constant": true,
      "inputs": [
        {
          "internalType": "address",
          "name": "candidate",
          "type": "address"
        }
      ],
      "name": "approveFor",
      "outputs": [
        {
          "internalType": "uint256",
          "name": "",
          "type": "uint256"
        }
      ],
      "payable": false,
      "stateMutability": "view",
      "type": "function"
    },
    {
      "constant": true,
      "inputs": [
        {
          "internalType": "address",
          "name": "account",
          "type": "address"
        }
      ],
      "name": "balanceOf",
      "outputs": [
        {
          "internalType": "uint256",
          "name": "",
          "type": "uint256"
        }
      ],
      "payable": false,
      "stateMutability": "view",
      "type": "function"
    },
    {
      "constant": true,
      "inputs": [
        {
          "internalType": "address",
          "name": "account",
          "type": "address"
        }
      ],
      "name": "balanceOfBonded",
      "outputs": [
        {
          "internalType": "uint256",
          "name": "",
          "type": "uint256"
        }
      ],
      "payable": false,
      "stateMutability": "view",
      "type": "function"
    },
    {
      "constant": true,
      "inputs": [
        {
          "internalType": "address",
          "name": "account",
          "type": "address"
        },
        {
          "internalType": "uint256",
          "name": "epoch",
          "type": "uint256"
        }
      ],
      "name": "balanceOfCoupons",
      "outputs": [
        {
          "internalType": "uint256",
          "name": "",
          "type": "uint256"
        }
      ],
      "payable": false,
      "stateMutability": "view",
      "type": "function"
    },
    {
      "constant": true,
      "inputs": [
        {
          "internalType": "address",
          "name": "account",
          "type": "address"
        }
      ],
      "name": "balanceOfStaged",
      "outputs": [
        {
          "internalType": "uint256",
          "name": "",
          "type": "uint256"
        }
      ],
      "payable": false,
      "stateMutability": "view",
      "type": "function"
    },
    {
      "constant": true,
      "inputs": [
        {
          "internalType": "uint256",
          "name": "epoch",
          "type": "uint256"
        }
      ],
      "name": "bootstrappingAt",
      "outputs": [
        {
          "internalType": "bool",
          "name": "",
          "type": "bool"
        }
      ],
      "payable": false,
      "stateMutability": "view",
      "type": "function"
    },
    {
      "constant": false,
      "inputs": [
        {
          "internalType": "address",
          "name": "account",
          "type": "address"
        },
        {
          "internalType": "uint256",
          "name": "amount",
          "type": "uint256"
        }
      ],
      "name": "burnFromAccountE",
      "outputs": [],
      "payable": false,
      "stateMutability": "nonpayable",
      "type": "function"
    },
    {
      "constant": false,
      "inputs": [
        {
          "internalType": "uint256",
          "name": "amount",
          "type": "uint256"
        }
      ],
      "name": "burnRedeemableE",
      "outputs": [],
      "payable": false,
      "stateMutability": "nonpayable",
      "type": "function"
    },
    {
      "constant": true,
      "inputs": [
        {
          "internalType": "uint256",
          "name": "amount",
          "type": "uint256"
        }
      ],
      "name": "couponPremium",
      "outputs": [
        {
          "internalType": "uint256",
          "name": "",
          "type": "uint256"
        }
      ],
      "payable": false,
      "stateMutability": "view",
      "type": "function"
    },
    {
      "constant": true,
      "inputs": [
        {
          "internalType": "uint256",
          "name": "epoch",
          "type": "uint256"
        }
      ],
      "name": "couponsExpiration",
      "outputs": [
        {
          "internalType": "uint256",
          "name": "",
          "type": "uint256"
        }
      ],
      "payable": false,
      "stateMutability": "view",
      "type": "function"
    },
    {
      "constant": false,
      "inputs": [
        {
          "internalType": "address",
          "name": "candidate",
          "type": "address"
        },
        {
          "internalType": "uint256",
          "name": "period",
          "type": "uint256"
        }
      ],
      "name": "createCandidateE",
      "outputs": [],
      "payable": false,
      "stateMutability": "nonpayable",
      "type": "function"
    },
    {
      "constant": true,
      "inputs": [],
      "name": "decimals",
      "outputs": [
        {
          "internalType": "uint8",
          "name": "",
          "type": "uint8"
        }
      ],
      "payable": false,
      "stateMutability": "view",
      "type": "function"
    },
    {
      "constant": false,
      "inputs": [
        {
          "internalType": "uint256",
          "name": "amount",
          "type": "uint256"
        }
      ],
      "name": "decreaseDebtE",
      "outputs": [],
      "payable": false,
      "stateMutability": "nonpayable",
      "type": "function"
    },
    {
      "constant": false,
      "inputs": [
        {
          "internalType": "address",
          "name": "owner",
          "type": "address"
        },
        {
          "internalType": "address",
          "name": "spender",
          "type": "address"
        },
        {
          "internalType": "uint256",
          "name": "amount",
          "type": "uint256"
        },
        {
          "internalType": "string",
          "name": "reason",
          "type": "string"
        }
      ],
      "name": "decrementAllowanceCouponsE",
      "outputs": [],
      "payable": false,
      "stateMutability": "nonpayable",
      "type": "function"
    },
    {
      "constant": false,
      "inputs": [
        {
          "internalType": "address",
          "name": "candidate",
          "type": "address"
        },
        {
          "internalType": "uint256",
          "name": "amount",
          "type": "uint256"
        },
        {
          "internalType": "string",
          "name": "reason",
          "type": "string"
        }
      ],
      "name": "decrementApproveForE",
      "outputs": [],
      "payable": false,
      "stateMutability": "nonpayable",
      "type": "function"
    },
    {
      "constant": false,
      "inputs": [
        {
          "internalType": "address",
          "name": "account",
          "type": "address"
        },
        {
          "internalType": "uint256",
          "name": "epoch",
          "type": "uint256"
        },
        {
          "internalType": "uint256",
          "name": "amount",
          "type": "uint256"
        },
        {
          "internalType": "string",
          "name": "reason",
          "type": "string"
        }
      ],
      "name": "decrementBalanceOfCouponsE",
      "outputs": [],
      "payable": false,
      "stateMutability": "nonpayable",
      "type": "function"
    },
    {
      "constant": false,
      "inputs": [
        {
          "internalType": "address",
          "name": "account",
          "type": "address"
        },
        {
          "internalType": "uint256",
          "name": "amount",
          "type": "uint256"
        },
        {
          "internalType": "string",
          "name": "reason",
          "type": "string"
        }
      ],
      "name": "decrementBalanceOfE",
      "outputs": [],
      "payable": false,
      "stateMutability": "nonpayable",
      "type": "function"
    },
    {
      "constant": false,
      "inputs": [
        {
          "internalType": "address",
          "name": "account",
          "type": "address"
        },
        {
          "internalType": "uint256",
          "name": "amount",
          "type": "uint256"
        },
        {
          "internalType": "string",
          "name": "reason",
          "type": "string"
        }
      ],
      "name": "decrementBalanceOfStagedE",
      "outputs": [],
      "payable": false,
      "stateMutability": "nonpayable",
      "type": "function"
    },
    {
      "constant": false,
      "inputs": [
        {
          "internalType": "address",
          "name": "candidate",
          "type": "address"
        },
        {
          "internalType": "uint256",
          "name": "amount",
          "type": "uint256"
        },
        {
          "internalType": "string",
          "name": "reason",
          "type": "string"
        }
      ],
      "name": "decrementRejectForE",
      "outputs": [],
      "payable": false,
      "stateMutability": "nonpayable",
      "type": "function"
    },
    {
      "constant": false,
      "inputs": [
        {
          "internalType": "uint256",
          "name": "amount",
          "type": "uint256"
        },
        {
          "internalType": "string",
          "name": "reason",
          "type": "string"
        }
      ],
      "name": "decrementTotalBondedE",
      "outputs": [],
      "payable": false,
      "stateMutability": "nonpayable",
      "type": "function"
    },
    {
      "constant": false,
      "inputs": [
        {
          "internalType": "uint256",
          "name": "amount",
          "type": "uint256"
        },
        {
          "internalType": "string",
          "name": "reason",
          "type": "string"
        }
      ],
      "name": "decrementTotalDebtE",
      "outputs": [],
      "payable": false,
      "stateMutability": "nonpayable",
      "type": "function"
    },
    {
      "constant": false,
      "inputs": [
        {
          "internalType": "uint256",
          "name": "amount",
          "type": "uint256"
        },
        {
          "internalType": "string",
          "name": "reason",
          "type": "string"
        }
      ],
      "name": "decrementTotalRedeemableE",
      "outputs": [],
      "payable": false,
      "stateMutability": "nonpayable",
      "type": "function"
    },
    {
      "constant": true,
      "inputs": [],
      "name": "dollar",
      "outputs": [
        {
          "internalType": "contract IDollar",
          "name": "",
          "type": "address"
        }
      ],
      "payable": false,
      "stateMutability": "view",
      "type": "function"
    },
    {
      "constant": false,
      "inputs": [
        {
          "internalType": "uint256",
          "name": "epoch",
          "type": "uint256"
        }
      ],
      "name": "eliminateOutstandingCouponsE",
      "outputs": [],
      "payable": false,
      "stateMutability": "nonpayable",
      "type": "function"
    },
    {
      "constant": true,
      "inputs": [],
      "name": "epoch",
      "outputs": [
        {
          "internalType": "uint256",
          "name": "",
          "type": "uint256"
        }
      ],
      "payable": false,
      "stateMutability": "view",
      "type": "function"
    },
    {
      "constant": true,
      "inputs": [],
      "name": "epochTime",
      "outputs": [
        {
          "internalType": "uint256",
          "name": "",
          "type": "uint256"
        }
      ],
      "payable": false,
      "stateMutability": "view",
      "type": "function"
    },
    {
      "constant": true,
      "inputs": [
        {
          "internalType": "uint256",
          "name": "epoch",
          "type": "uint256"
        }
      ],
      "name": "expiringCoupons",
      "outputs": [
        {
          "internalType": "uint256",
          "name": "",
          "type": "uint256"
        }
      ],
      "payable": false,
      "stateMutability": "view",
      "type": "function"
    },
    {
      "constant": true,
      "inputs": [
        {
          "internalType": "uint256",
          "name": "epoch",
          "type": "uint256"
        },
        {
          "internalType": "uint256",
          "name": "i",
          "type": "uint256"
        }
      ],
      "name": "expiringCouponsAtIndex",
      "outputs": [
        {
          "internalType": "uint256",
          "name": "",
          "type": "uint256"
        }
      ],
      "payable": false,
      "stateMutability": "view",
      "type": "function"
    },
    {
      "constant": true,
      "inputs": [
        {
          "internalType": "address",
          "name": "account",
          "type": "address"
        }
      ],
      "name": "fluidUntil",
      "outputs": [
        {
          "internalType": "uint256",
          "name": "",
          "type": "uint256"
        }
      ],
      "payable": false,
      "stateMutability": "view",
      "type": "function"
    },
    {
      "constant": true,
      "inputs": [],
      "name": "implementation",
      "outputs": [
        {
          "internalType": "address",
          "name": "impl",
          "type": "address"
        }
      ],
      "payable": false,
      "stateMutability": "view",
      "type": "function"
    },
    {
      "constant": false,
      "inputs": [
        {
          "internalType": "uint256",
          "name": "amount",
          "type": "uint256"
        }
      ],
      "name": "increaseDebtE",
      "outputs": [],
      "payable": false,
      "stateMutability": "nonpayable",
      "type": "function"
    },
    {
      "constant": false,
      "inputs": [
        {
          "internalType": "address",
          "name": "candidate",
          "type": "address"
        },
        {
          "internalType": "uint256",
          "name": "amount",
          "type": "uint256"
        }
      ],
      "name": "incrementApproveForE",
      "outputs": [],
      "payable": false,
      "stateMutability": "nonpayable",
      "type": "function"
    },
    {
      "constant": false,
      "inputs": [
        {
          "internalType": "address",
          "name": "account",
          "type": "address"
        },
        {
          "internalType": "uint256",
          "name": "epoch",
          "type": "uint256"
        },
        {
          "internalType": "uint256",
          "name": "amount",
          "type": "uint256"
        }
      ],
      "name": "incrementBalanceOfCouponsE",
      "outputs": [],
      "payable": false,
      "stateMutability": "nonpayable",
      "type": "function"
    },
    {
      "constant": false,
      "inputs": [
        {
          "internalType": "address",
          "name": "account",
          "type": "address"
        },
        {
          "internalType": "uint256",
          "name": "amount",
          "type": "uint256"
        }
      ],
      "name": "incrementBalanceOfE",
      "outputs": [],
      "payable": false,
      "stateMutability": "nonpayable",
      "type": "function"
    },
    {
      "constant": false,
      "inputs": [
        {
          "internalType": "address",
          "name": "account",
          "type": "address"
        },
        {
          "internalType": "uint256",
          "name": "amount",
          "type": "uint256"
        }
      ],
      "name": "incrementBalanceOfStagedE",
      "outputs": [],
      "payable": false,
      "stateMutability": "nonpayable",
      "type": "function"
    },
    {
      "constant": false,
      "inputs": [],
      "name": "incrementEpochE",
      "outputs": [],
      "payable": false,
      "stateMutability": "nonpayable",
      "type": "function"
    },
    {
      "constant": false,
      "inputs": [
        {
          "internalType": "address",
          "name": "candidate",
          "type": "address"
        },
        {
          "internalType": "uint256",
          "name": "amount",
          "type": "uint256"
        }
      ],
      "name": "incrementRejectForE",
      "outputs": [],
      "payable": false,
      "stateMutability": "nonpayable",
      "type": "function"
    },
    {
      "constant": false,
      "inputs": [
        {
          "internalType": "uint256",
          "name": "amount",
          "type": "uint256"
        }
      ],
      "name": "incrementTotalBondedE",
      "outputs": [],
      "payable": false,
      "stateMutability": "nonpayable",
      "type": "function"
    },
    {
      "constant": false,
      "inputs": [
        {
          "internalType": "uint256",
          "name": "amount",
          "type": "uint256"
        }
      ],
      "name": "incrementTotalDebtE",
      "outputs": [],
      "payable": false,
      "stateMutability": "nonpayable",
      "type": "function"
    },
    {
      "constant": false,
      "inputs": [
        {
          "internalType": "uint256",
          "name": "amount",
          "type": "uint256"
        }
      ],
      "name": "incrementTotalRedeemableE",
      "outputs": [],
      "payable": false,
      "stateMutability": "nonpayable",
      "type": "function"
    },
    {
      "constant": false,
      "inputs": [
        {
          "internalType": "uint256",
          "name": "epoch",
          "type": "uint256"
        },
        {
          "internalType": "uint256",
          "name": "expiration",
          "type": "uint256"
        }
      ],
      "name": "initializeCouponsExpirationE",
      "outputs": [],
      "payable": false,
      "stateMutability": "nonpayable",
      "type": "function"
    },
    {
      "constant": false,
      "inputs": [
        {
          "internalType": "address",
          "name": "candidate",
          "type": "address"
        }
      ],
      "name": "initializedE",
      "outputs": [],
      "payable": false,
      "stateMutability": "nonpayable",
      "type": "function"
    },
    {
      "constant": true,
      "inputs": [
        {
          "internalType": "address",
          "name": "candidate",
          "type": "address"
        }
      ],
      "name": "isInitialized",
      "outputs": [
        {
          "internalType": "bool",
          "name": "",
          "type": "bool"
        }
      ],
      "payable": false,
      "stateMutability": "view",
      "type": "function"
    },
    {
      "constant": true,
      "inputs": [
        {
          "internalType": "address",
          "name": "candidate",
          "type": "address"
        }
      ],
      "name": "isNominated",
      "outputs": [
        {
          "internalType": "bool",
          "name": "",
          "type": "bool"
        }
      ],
      "payable": false,
      "stateMutability": "view",
      "type": "function"
    },
    {
      "constant": true,
      "inputs": [
        {
          "internalType": "address",
          "name": "account",
          "type": "address"
        }
      ],
      "name": "lockedUntil",
      "outputs": [
        {
          "internalType": "uint256",
          "name": "",
          "type": "uint256"
        }
      ],
      "payable": false,
      "stateMutability": "view",
      "type": "function"
    },
    {
      "constant": false,
      "inputs": [
        {
          "internalType": "address",
          "name": "account",
          "type": "address"
        },
        {
          "internalType": "uint256",
          "name": "amount",
          "type": "uint256"
        }
      ],
      "name": "mintToAccountE",
      "outputs": [],
      "payable": false,
      "stateMutability": "nonpayable",
      "type": "function"
    },
    {
      "constant": false,
      "inputs": [
        {
          "internalType": "address",
          "name": "account",
          "type": "address"
        },
        {
          "internalType": "uint256",
          "name": "amount",
          "type": "uint256"
        }
      ],
      "name": "mintToE",
      "outputs": [],
      "payable": false,
      "stateMutability": "nonpayable",
      "type": "function"
    },
    {
      "constant": true,
      "inputs": [],
      "name": "name",
      "outputs": [
        {
          "internalType": "string",
          "name": "",
          "type": "string"
        }
      ],
      "payable": false,
      "stateMutability": "view",
      "type": "function"
    },
    {
      "constant": true,
      "inputs": [],
      "name": "oracle",
      "outputs": [
        {
          "internalType": "contract IOracle",
          "name": "",
          "type": "address"
        }
      ],
      "payable": false,
      "stateMutability": "view",
      "type": "function"
    },
    {
      "constant": true,
      "inputs": [
        {
          "internalType": "uint256",
          "name": "epoch",
          "type": "uint256"
        }
      ],
      "name": "outstandingCoupons",
      "outputs": [
        {
          "internalType": "uint256",
          "name": "",
          "type": "uint256"
        }
      ],
      "payable": false,
      "stateMutability": "view",
      "type": "function"
    },
    {
      "constant": true,
      "inputs": [
        {
          "internalType": "address",
          "name": "candidate",
          "type": "address"
        }
      ],
      "name": "periodFor",
      "outputs": [
        {
          "internalType": "uint256",
          "name": "",
          "type": "uint256"
        }
      ],
      "payable": false,
      "stateMutability": "view",
      "type": "function"
    },
    {
      "constant": false,
      "inputs": [
        {
          "internalType": "address",
          "name": "account",
          "type": "address"
        },
        {
          "internalType": "address",
          "name": "candidate",
          "type": "address"
        }
      ],
      "name": "placeLockE",
      "outputs": [],
      "payable": false,
      "stateMutability": "nonpayable",
      "type": "function"
    },
    {
      "constant": true,
      "inputs": [],
      "name": "pool",
      "outputs": [
        {
          "internalType": "address",
          "name": "",
          "type": "address"
        }
      ],
      "payable": false,
      "stateMutability": "view",
      "type": "function"
    },
    {
      "constant": false,
      "inputs": [
        {
          "internalType": "uint256",
          "name": "dollarAmount",
          "type": "uint256"
        }
      ],
      "name": "purchaseCoupons",
      "outputs": [
        {
          "internalType": "uint256",
          "name": "",
          "type": "uint256"
        }
      ],
      "payable": false,
      "stateMutability": "nonpayable",
      "type": "function"
    },
    {
      "constant": false,
      "inputs": [
        {
          "internalType": "address",
          "name": "account",
          "type": "address"
        },
        {
          "internalType": "address",
          "name": "candidate",
          "type": "address"
        },
        {
          "internalType": "enum Candidate.Vote",
          "name": "vote",
          "type": "uint8"
        }
      ],
      "name": "recordVoteE",
      "outputs": [],
      "payable": false,
      "stateMutability": "nonpayable",
      "type": "function"
    },
    {
      "constant": true,
      "inputs": [
        {
          "internalType": "address",
          "name": "account",
          "type": "address"
        },
        {
          "internalType": "address",
          "name": "candidate",
          "type": "address"
        }
      ],
      "name": "recordedVote",
      "outputs": [
        {
          "internalType": "enum Candidate.Vote",
          "name": "",
          "type": "uint8"
        }
      ],
      "payable": false,
      "stateMutability": "view",
      "type": "function"
    },
    {
      "constant": false,
      "inputs": [
        {
          "internalType": "uint256",
          "name": "couponEpoch",
          "type": "uint256"
        },
        {
          "internalType": "uint256",
          "name": "couponAmount",
          "type": "uint256"
        }
      ],
      "name": "redeemCoupons",
      "outputs": [],
      "payable": false,
      "stateMutability": "nonpayable",
      "type": "function"
    },
    {
      "constant": false,
      "inputs": [
        {
          "internalType": "address",
          "name": "account",
          "type": "address"
        },
        {
          "internalType": "uint256",
          "name": "amount",
          "type": "uint256"
        }
      ],
      "name": "redeemToAccountE",
      "outputs": [],
      "payable": false,
      "stateMutability": "nonpayable",
      "type": "function"
    },
    {
      "constant": true,
      "inputs": [
        {
          "internalType": "address",
          "name": "candidate",
          "type": "address"
        }
      ],
      "name": "rejectFor",
      "outputs": [
        {
          "internalType": "uint256",
          "name": "",
          "type": "uint256"
        }
      ],
      "payable": false,
      "stateMutability": "view",
      "type": "function"
    },
    {
      "constant": false,
      "inputs": [
        {
          "internalType": "uint256",
          "name": "percent",
          "type": "uint256"
        }
      ],
      "name": "resetDebtE",
      "outputs": [],
      "payable": false,
      "stateMutability": "nonpayable",
      "type": "function"
    },
    {
      "constant": false,
      "inputs": [
        {
          "internalType": "uint256",
          "name": "timestamp",
          "type": "uint256"
        }
      ],
      "name": "setBlockTimestamp",
      "outputs": [],
      "payable": false,
      "stateMutability": "nonpayable",
      "type": "function"
    },
    {
      "constant": false,
      "inputs": [
        {
          "internalType": "uint256",
          "name": "start",
          "type": "uint256"
        },
        {
          "internalType": "uint256",
          "name": "period",
          "type": "uint256"
        }
      ],
      "name": "setEpochParamsE",
      "outputs": [],
      "payable": false,
      "stateMutability": "nonpayable",
      "type": "function"
    },
    {
      "constant": false,
      "inputs": [],
      "name": "snapshotTotalBondedE",
      "outputs": [],
      "payable": false,
      "stateMutability": "nonpayable",
      "type": "function"
    },
    {
      "constant": true,
      "inputs": [
        {
          "internalType": "address",
          "name": "candidate",
          "type": "address"
        }
      ],
      "name": "startFor",
      "outputs": [
        {
          "internalType": "uint256",
          "name": "",
          "type": "uint256"
        }
      ],
      "payable": false,
      "stateMutability": "view",
      "type": "function"
    },
    {
      "constant": true,
      "inputs": [
        {
          "internalType": "address",
          "name": "account",
          "type": "address"
        }
      ],
      "name": "statusOf",
      "outputs": [
        {
          "internalType": "enum Account.Status",
          "name": "",
          "type": "uint8"
        }
      ],
      "payable": false,
      "stateMutability": "view",
      "type": "function"
    },
    {
      "constant": true,
      "inputs": [],
      "name": "symbol",
      "outputs": [
        {
          "internalType": "string",
          "name": "",
          "type": "string"
        }
      ],
      "payable": false,
      "stateMutability": "view",
      "type": "function"
    },
    {
      "constant": true,
      "inputs": [],
      "name": "totalBonded",
      "outputs": [
        {
          "internalType": "uint256",
          "name": "",
          "type": "uint256"
        }
      ],
      "payable": false,
      "stateMutability": "view",
      "type": "function"
    },
    {
      "constant": true,
      "inputs": [
        {
          "internalType": "uint256",
          "name": "epoch",
          "type": "uint256"
        }
      ],
      "name": "totalBondedAt",
      "outputs": [
        {
          "internalType": "uint256",
          "name": "",
          "type": "uint256"
        }
      ],
      "payable": false,
      "stateMutability": "view",
      "type": "function"
    },
    {
      "constant": true,
      "inputs": [],
      "name": "totalCoupons",
      "outputs": [
        {
          "internalType": "uint256",
          "name": "",
          "type": "uint256"
        }
      ],
      "payable": false,
      "stateMutability": "view",
      "type": "function"
    },
    {
      "constant": true,
      "inputs": [],
      "name": "totalDebt",
      "outputs": [
        {
          "internalType": "uint256",
          "name": "",
          "type": "uint256"
        }
      ],
      "payable": false,
      "stateMutability": "view",
      "type": "function"
    },
    {
      "constant": true,
      "inputs": [],
      "name": "totalNet",
      "outputs": [
        {
          "internalType": "uint256",
          "name": "",
          "type": "uint256"
        }
      ],
      "payable": false,
      "stateMutability": "view",
      "type": "function"
    },
    {
      "constant": true,
      "inputs": [],
      "name": "totalRedeemable",
      "outputs": [
        {
          "internalType": "uint256",
          "name": "",
          "type": "uint256"
        }
      ],
      "payable": false,
      "stateMutability": "view",
      "type": "function"
    },
    {
      "constant": true,
      "inputs": [],
      "name": "totalStaged",
      "outputs": [
        {
          "internalType": "uint256",
          "name": "",
          "type": "uint256"
        }
      ],
      "payable": false,
      "stateMutability": "view",
      "type": "function"
    },
    {
      "constant": true,
      "inputs": [],
      "name": "totalSupply",
      "outputs": [
        {
          "internalType": "uint256",
          "name": "",
          "type": "uint256"
        }
      ],
      "payable": false,
      "stateMutability": "view",
      "type": "function"
    },
    {
      "constant": false,
      "inputs": [
        {
          "internalType": "address",
          "name": "recipient",
          "type": "address"
        },
        {
          "internalType": "uint256",
          "name": "amount",
          "type": "uint256"
        }
      ],
      "name": "transfer",
      "outputs": [
        {
          "internalType": "bool",
          "name": "",
          "type": "bool"
        }
      ],
      "payable": false,
      "stateMutability": "nonpayable",
      "type": "function"
    },
    {
      "constant": false,
      "inputs": [
        {
          "internalType": "address",
          "name": "sender",
          "type": "address"
        },
        {
          "internalType": "address",
          "name": "recipient",
          "type": "address"
        },
        {
          "internalType": "uint256",
          "name": "epoch",
          "type": "uint256"
        },
        {
          "internalType": "uint256",
          "name": "amount",
          "type": "uint256"
        }
      ],
      "name": "transferCoupons",
      "outputs": [],
      "payable": false,
      "stateMutability": "nonpayable",
      "type": "function"
    },
    {
      "constant": false,
      "inputs": [
        {
          "internalType": "address",
          "name": "sender",
          "type": "address"
        },
        {
          "internalType": "address",
          "name": "recipient",
          "type": "address"
        },
        {
          "internalType": "uint256",
          "name": "amount",
          "type": "uint256"
        }
      ],
      "name": "transferFrom",
      "outputs": [
        {
          "internalType": "bool",
          "name": "",
          "type": "bool"
        }
      ],
      "payable": false,
      "stateMutability": "nonpayable",
      "type": "function"
    },
    {
      "constant": false,
      "inputs": [
        {
          "internalType": "address",
          "name": "account",
          "type": "address"
        }
      ],
      "name": "unfreezeE",
      "outputs": [],
      "payable": false,
      "stateMutability": "nonpayable",
      "type": "function"
    },
    {
      "constant": false,
      "inputs": [
        {
          "internalType": "address",
          "name": "owner",
          "type": "address"
        },
        {
          "internalType": "address",
          "name": "spender",
          "type": "address"
        },
        {
          "internalType": "uint256",
          "name": "amount",
          "type": "uint256"
        }
      ],
      "name": "updateAllowanceCouponsE",
      "outputs": [],
      "payable": false,
      "stateMutability": "nonpayable",
      "type": "function"
    },
    {
      "constant": true,
      "inputs": [
        {
          "internalType": "address",
          "name": "candidate",
          "type": "address"
        }
      ],
      "name": "votesFor",
      "outputs": [
        {
          "internalType": "uint256",
          "name": "",
          "type": "uint256"
        }
      ],
      "payable": false,
      "stateMutability": "view",
      "type": "function"
    },
    {
      "constant": false,
      "inputs": [],
      "name": "stepE",
      "outputs": [],
      "payable": false,
      "stateMutability": "nonpayable",
      "type": "function"
    }
  ],
  "bytecode": "0x60806040523480156200001157600080fd5b50604051620056b7380380620056b78339810160408190526200003491620000bd565b42600f55604051819062000048906200009c565b604051809103906000f08015801562000065573d6000803e3d6000fd5b50600980546001600160a01b039283166001600160a01b031991821617909155600b80549390921692169190911790555062000112565b611c048062003ab383390190565b8051620000b781620000f8565b92915050565b600060208284031215620000d057600080fd5b6000620000de8484620000aa565b949350505050565b60006001600160a01b038216620000b7565b6200010381620000e6565b81146200010f57600080fd5b50565b61399180620001226000396000f3fe608060405234801561001057600080fd5b50600436106104b65760003560e01c8063825ad60711610278578063b16144a31161015c578063d6d8816d116100ce578063e5f55c7e11610092578063e5f55c7e14610a2b578063f1b7cf4914610a3e578063f35adf7e14610a51578063f7a3181814610a59578063fc7b9c1814610a6c578063ffbe3b7314610a74576104b6565b8063d6d8816d146109d1578063d83d3ed5146109e4578063d8f54138146109f7578063dd62ed3e14610a0a578063e0abdf6614610a18576104b6565b8063c45a3e0a11610120578063c45a3e0a1461096a578063c9aff70c1461097d578063cc8d823c14610990578063cf023779146109a3578063d60b347f146109ab578063d6a9cf08146109be576104b6565b8063b16144a31461090b578063b32a2f901461091e578063bc7513e214610931578063c1410c0214610944578063c2aeb5fe14610957576104b6565b80639be46493116101f5578063a6f37b53116101b9578063a6f37b53146108ac578063a9059cbb146104ee578063a9b3cf15146108bf578063adbff2be146108d2578063ae5c2381146108e5578063b11ee0e3146108f8576104b6565b80639be46493146108585780639f6e1b261461086b578063a00e14d11461087e578063a50cd8e714610891578063a6c409f1146108a4576104b6565b806395d89b411161023c57806395d89b411461080f57806397a5d5b5146108175780639a649edc1461082a5780639b82b49b146108325780639bc289f114610845576104b6565b8063825ad607146107bb5780638413e52a146107ce57806386cf9f14146107e15780638de2e573146107f4578063900cf0cf14610807576104b6565b80633fbba9a61161039f5780635dbf800a1161031c57806370a08231116102e057806370a082311461075f57806371c511eb1461077257806372924d2a1461077a57806375d5024b1461078d5780637cb95a32146107a05780637dc0d1d0146107b3576104b6565b80635dbf800a146107005780635f14fec81461071357806364668022146107265780636a39e328146107395780636b862d661461074c576104b6565b80634c736099116103635780634c736099146106b55780635053e461146106c857806351adeb57146106d057806351bf21d8146106e55780635c60da1b146106f8576104b6565b80633fbba9a61461065f5780633fd4973c1461067f578063416a23cc14610692578063438735261461069a57806344d96e95146106ad576104b6565b80631fac9732116104385780632f7f889e116103fc5780632f7f889e146105eb578063313ce567146105fe5780633234742214610613578063353a420c146106265780633a3e6c81146106395780633f7bcaf31461064c576104b6565b80631fac97321461058c57806320f6bc901461059f57806323b872dd146105b2578063259f7adf146105c5578063277805a9146105d8576104b6565b806315e14bf61161047f57806315e14bf61461054157806316f0115b1461055457806318160ddd146105695780631a08e22a146105715780631edbcf6c14610584576104b6565b80625edd37146104bb57806306fdde03146104d0578063095ea7b3146104ee5780630dc6d3a31461050e57806310e95b6c14610521575b600080fd5b6104ce6104c93660046131b2565b610a87565b005b6104d8610baa565b6040516104e59190613708565b60405180910390f35b6105016104fc366004613213565b610bda565b6040516104e591906136de565b6104ce61051c366004613134565b610be3565b61053461052f366004613330565b610c2c565b6040516104e59190613779565b61053461054f36600461304c565b610c44565b61055c610c62565b6040516104e5919061368d565b610534610c71565b6104ce61057f3660046133c2565b610c77565b610534610c85565b6104ce61059a366004613330565b610c8b565b6104ce6105ad366004613213565b610c97565b6105016105c03660046130f1565b610ca1565b6104ce6105d3366004613330565b610cab565b6104ce6105e6366004613213565b610cb4565b6104ce6105f9366004613213565b610d40565b610606610dc0565b6040516104e591906137ca565b6104ce61062136600461336c565b610dc5565b61053461063436600461304c565b610e05565b61050161064736600461304c565b610e23565b6104ce61065a3660046130f1565b610e40565b61067261066d36600461306a565b610e4b565b6040516104e591906136fa565b6104ce61068d366004613243565b610e7e565b6104ce610ec5565b6104ce6106a8366004613330565b610ecf565b610534610ed8565b6105346106c33660046133c2565b610ede565b610534610f0e565b6106d8610f64565b6040516104e591906136ec565b6105346106f336600461304c565b610f73565b61055c610f91565b6104ce61070e366004613330565b610fb6565b6104ce610721366004613213565b610fbf565b61053461073436600461304c565b610fc9565b610534610747366004613330565b610fe7565b6104ce61075a3660046132ab565b610ffc565b61053461076d36600461304c565b611007565b6104ce611025565b6104ce61078836600461336c565b61102d565b61050161079b366004613330565b61106d565b6104ce6107ae366004613243565b611080565b6106d86110c1565b6105346107c936600461304c565b6110d0565b6104ce6107dc3660046130a4565b61111c565b6105346107ef36600461304c565b611127565b6104ce610802366004613330565b611142565b61053461114b565b6104d8611151565b61067261082536600461304c565b61116f565b6105346111d4565b6104ce61084036600461336c565b6111da565b61053461085336600461304c565b61121a565b6104ce61086636600461304c565b611238565b61053461087936600461306a565b611241565b6104ce61088c3660046133c2565b611270565b61053461089f36600461304c565b61127b565b61053461129e565b6104ce6108ba36600461304c565b611334565b6104ce6108cd366004613330565b61133d565b6104ce6108e0366004613243565b611346565b6104ce6108f3366004613213565b611387565b6104ce610906366004613213565b611391565b6104ce610919366004613330565b61139b565b6104ce61092c366004613243565b6113ae565b61053461093f366004613213565b6113ef565b6104ce61095236600461306a565b611433565b6104ce6109653660046132dd565b61143d565b6104ce610978366004613213565b61147f565b61053461098b366004613330565b611489565b6104ce61099e366004613213565b61149e565b6105346114a8565b6105016109b936600461304c565b6114ae565b6104ce6109cc3660046133c2565b6114cf565b6104ce6109df366004613330565b611563565b6104ce6109f2366004613213565b61156c565b610534610a05366004613330565b611576565b6105346104fc36600461306a565b6104ce610a26366004613330565b611601565b610534610a39366004613330565b611606565b610534610a4c36600461304c565b6116f8565b6104ce611713565b6104ce610a67366004613213565b61171b565b610534611725565b610534610a82366004613330565b61172b565b6001600160a01b038416610ab65760405162461bcd60e51b8152600401610aad90613759565b60405180910390fd5b6001600160a01b038316610adc5760405162461bcd60e51b8152600401610aad90613729565b610b008483836040518060600160405280602381526020016138b66023913961173d565b610b0b8383836117e8565b336001600160a01b03851614801590610b2f5750600019610b2c8533611241565b14155b15610b5857610b588433836040518060600160405280602481526020016138d96024913961188f565b81836001600160a01b0316856001600160a01b03167f0f1dbb1ccbe57a1590c7baad7b01d581b730c9ebc535dcde4345e6db424063d884604051610b9c9190613779565b60405180910390a450505050565b604080518082019091526016815275456d7074792053657420446f6c6c6172205374616b6560501b602082015290565b60005b92915050565b610c2585858585858080601f01602080910402602001604051908101604052809392919081815260200183838082843760009201919091525061188f92505050565b5050505050565b6000818152600d60205260409020600201545b919050565b6001600160a01b03166000908152600e602052604090206001015490565b600b546001600160a01b031690565b60035490565b610c818282611900565b5050565b60065490565b610c9481611932565b50565b610c818282611979565b60005b9392505050565b610c9481611a23565b610cbc610f64565b6001600160a01b03166340c10f1983836040518363ffffffff1660e01b8152600401610ce99291906136c3565b602060405180830381600087803b158015610d0357600080fd5b505af1158015610d17573d6000803e3d6000fd5b505050506040513d601f19601f82011682018060405250610d3b9190810190613312565b505050565b6001600160a01b038216610d665760405162461bcd60e51b8152600401610aad90613749565b610d71338383611a3c565b816001600160a01b0316336001600160a01b03167f8ff27e6b95060c1ca851e7c2c28af8b413eb1a8bcb637b0290da9543a709cce383604051610db49190613779565b60405180910390a35050565b601290565b610d3b8383838080601f016020809104026020016040519081016040528093929190818152602001838380828437600092019190915250611a6c92505050565b6001600160a01b03166000908152600e602052604090206003015490565b6001600160a01b03166000908152600e6020526040902054151590565b610d3b838383611a3c565b6001600160a01b038082166000908152600e60209081526040808320938616835260049093019052205460ff1692915050565b610ebf848484848080601f016020809104026020016040519081016040528093929190818152602001838380828437600092019190915250611a8792505050565b50505050565b610ecd611ad8565b565b610c8181611b37565b60045490565b6000828152600d60205260408120600301805483908110610efb57fe5b9060005260206000200154905092915050565b6000610f18612f98565b610f20611b7e565b9050610f2a612f98565b610f32611bad565b90508160200151610f41611bdd565b10610f5457610f4f82611be3565b610f5d565b610f5d81611be3565b9250505090565b6009546001600160a01b031690565b6001600160a01b03166000908152600c602052604090206004015490565b7f360894a13ba1a3210667c828492db98dca3e2076cc3735a920a3ca505d382bbc5490565b610c9481611c05565b610c818282611c8c565b6001600160a01b03166000908152600e602052604090206002015490565b6000908152600d602052604090206003015490565b610d3b8383836117e8565b6001600160a01b03166000908152600c602052604090206001015490565b610ecd611d9d565b610d3b8383838080601f016020809104026020016040519081016040528093929190818152602001838380828437600092019190915250611dc492505050565b6000611077611ddf565b90911115919050565b610ebf848484848080601f016020809104026020016040519081016040528093929190818152602001838380828437600092019190915250611de492505050565b600a546001600160a01b031690565b6000806110db610c71565b9050806110ec576000915050610c3f565b610ca4816111106110fc86611007565b611104610ed8565b9063ffffffff611e3516565b9063ffffffff611e6f16565b610d3b838383611eb1565b6001600160a01b03166000908152600c602052604090205490565b610c9481611efb565b60025490565b6040805180820190915260048152634553445360e01b602082015290565b600061117961114b565b6001600160a01b0383166000908152600c602052604090206005015411156111a357506002610c3f565b6001600160a01b0382166000908152600c60205260409020600401546111c761114b565b1015610bda576001610bdd565b60085490565b610d3b8383838080601f016020809104026020016040519081016040528093929190818152602001838380828437600092019190915250611f1492505050565b6001600160a01b03166000908152600c602052604090206005015490565b610c9481611f2f565b6001600160a01b039182166000908152600c602090815260408083209390941682526003909201909152205490565b600091909155600155565b6000610bdd61128983610e05565b61129284610fc9565b9063ffffffff611f5916565b600061132f6112ab611725565b6112b3610f64565b6001600160a01b03166318160ddd6040518163ffffffff1660e01b815260040160206040518083038186803b1580156112eb57600080fd5b505afa1580156112ff573d6000803e3d6000fd5b505050506040513d601f19601f82011682018060405250611323919081019061334e565b9063ffffffff611f7e16565b905090565b610c9481611fc0565b610c9481611fe7565b610ebf848484848080601f01602080910402602001604051908101604052809392919081815260200183838082843760009201919091525061202a92505050565b610c8182826120d5565b610c818282612171565b610c816113a98260646121cd565b6121fc565b610ebf848484848080601f0160208091040260200160405190810160405280939291908181526020018383808284376000920191909152506122d692505050565b60006113fa82611489565b61140657506000610bdd565b506001600160a01b03919091166000908152600c6020908152604080832093835260029093019052205490565b610c818282612335565b610c2585858585858080601f01602080910402602001604051908101604052809392919081815260200183838082843760009201919091525061173d92505050565b610c818282612395565b6000908152600d602052604090206001015490565b610c81828261243f565b60055490565b6001600160a01b03166000908152600e602052604090206005015460ff1690565b60026114dd8361132361114b565b10156114fb5760405162461bcd60e51b8152600401610aad90613769565b61151f3383836040518060600160405280602381526020016138b66023913961173d565b6115293382612395565b81336001600160a01b03167f46e9903ae8ac9e9f0c9bc321b05965c1c036e7d4783758703f5cdfc4133c51b683604051610db49190613779565b610c948161248e565b610c8182826124a7565b6000610bdd611583610f64565b6001600160a01b03166318160ddd6040518163ffffffff1660e01b815260040160206040518083038186803b1580156115bb57600080fd5b505afa1580156115cf573d6000803e3d6000fd5b505050506040513d601f19601f820116820180604052506115f3919081019061334e565b6115fb611725565b846124d3565b600f55565b600061163f600083116513585c9ad95d60d21b7f4d757374207075726368617365206e6f6e2d7a65726f20616d6f756e740000006124fb565b61166f8261164b611725565b10156513585c9ad95d60d21b6e139bdd08195b9bdd59da081919589d608a1b6124fb565b600061167961114b565b9050600061169661168985611576565b859063ffffffff611f5916565b90506116a23385611c8c565b6116ad3383836117e8565b81336001600160a01b03167fbce252db29f761f815dc2e9ea60005af065efba6eb619d2a0b2a113fdeb6141486846040516116e9929190613787565b60405180910390a39392505050565b6001600160a01b03166000908152600e602052604090205490565b610ecd612550565b610c818282612569565b60075490565b6000908152600d602052604090205490565b6001600160a01b0384166000908152600c6020908152604080832086845260020190915290205461177590838363ffffffff6125b816565b6001600160a01b0385166000908152600c60209081526040808320878452600201825280832093909355600d905220600101546117b990838363ffffffff6125b816565b6000848152600d60205260409020600101556008546117df90838363ffffffff6125b816565b60085550505050565b6001600160a01b0383166000908152600c6020908152604080832085845260020190915290205461181f908263ffffffff611f5916565b6001600160a01b0384166000908152600c60209081526040808320868452600201825280832093909355600d90522060010154611862908263ffffffff611f5916565b6000838152600d6020526040902060010155600854611887908263ffffffff611f5916565b600855505050565b6001600160a01b038085166000908152600c6020908152604080832093871683526003909301905220546118ca90838363ffffffff6125b816565b6001600160a01b039485166000908152600c60209081526040808320969097168252600390950190945293909220929092555050565b6000828152600d6020908152604080832060020184905592825291812060030180546001810182559082529190200155565b611971816040518060400160405280601c81526020017f436f6d7074726f6c6c65723a206e6f7420656e6f756768206465627400000000815250611dc4565b610c946125e4565b611981610f64565b6001600160a01b03166340c10f1983836040518363ffffffff1660e01b81526004016119ae9291906136c3565b602060405180830381600087803b1580156119c857600080fd5b505af11580156119dc573d6000803e3d6000fd5b505050506040513d601f19601f82011682018060405250611a009190810190613312565b50611a0c61079b61114b565b611a1b57611a1981611b37565b505b610c816125e4565b600454611a36908263ffffffff611f5916565b60045550565b6001600160a01b039283166000908152600c60209081526040808320949095168252600390930190925291902055565b600654611a8090838363ffffffff6125b816565b6006555050565b6001600160a01b0383166000908152600e6020526040902060030154611ab490838363ffffffff6125b816565b6001600160a01b039093166000908152600e60205260409020600301929092555050565b60005b611ae661074761114b565b811015611b0e57611b06611b01611afb61114b565b83610ede565b6126b7565b600101611adb565b506000611b24611b1c611ddf565b61129261114b565b9050610c94611b3161114b565b82611900565b6000611b4282611efb565b6000611b4f6113a961275f565b9050611b596125e4565b828111611b7557611b70838263ffffffff611f7e16565b610ca4565b50600092915050565b611b86612f98565b6040518060600160405280606a8152602001635f7fa8008152602001617080815250905090565b611bb5612f98565b6040518060600160405280605b8152602001635f6be180815260200162015180815250905090565b600f5490565b6000610bdd826000015161129284604001516111108660200151611323611bdd565b611c0d610f64565b6001600160a01b03166342966c68826040518263ffffffff1660e01b8152600401611c389190613779565b600060405180830381600087803b158015611c5257600080fd5b505af1158015611c66573d6000803e3d6000fd5b50505050611971816040518060600160405280602a8152602001613925602a9139611a6c565b611c94610f64565b6001600160a01b03166323b872dd8330846040518463ffffffff1660e01b8152600401611cc39392919061369b565b602060405180830381600087803b158015611cdd57600080fd5b505af1158015611cf1573d6000803e3d6000fd5b505050506040513d601f19601f82011682018060405250611d159190810190613312565b50611d1e610f64565b6001600160a01b03166342966c68826040518263ffffffff1660e01b8152600401611d499190613779565b600060405180830381600087803b158015611d6357600080fd5b505af1158015611d77573d6000803e3d6000fd5b50505050611a1b816040518060600160405280602881526020016138fd60289139611dc4565b611da5610c71565b600d6000611db161114b565b8152602081019190915260400160002055565b600754611dd890838363ffffffff6125b816565b6007555050565b605a90565b6001600160a01b0383166000908152600e6020526040902060020154611e1190838363ffffffff6125b816565b6001600160a01b039093166000908152600e60205260409020600201929092555050565b600082611e4457506000610bdd565b82820282848281611e5157fe5b0414610ca45760405162461bcd60e51b8152600401610aad90613739565b6000610ca483836040518060400160405280601a81526020017f536166654d6174683a206469766973696f6e206279207a65726f000000000000815250612781565b6001600160a01b038083166000908152600e6020908152604080832093871683526004909301905220805482919060ff19166001836002811115611ef157fe5b0217905550505050565b600754611f0e908263ffffffff611f5916565b60075550565b600454611f2890838363ffffffff6125b816565b6004555050565b611f3a611b1c6127b8565b6001600160a01b039091166000908152600c6020526040902060040155565b600082820183811015610ca45760405162461bcd60e51b8152600401610aad90613719565b6000610ca483836040518060400160405280601e81526020017f536166654d6174683a207375627472616374696f6e206f766572666c6f7700008152506125b8565b6001600160a01b03166000908152600e60205260409020600501805460ff19166001179055565b6000611ff282611489565b905080611fff5750610c94565b600854612012908263ffffffff611f7e16565b600855506000908152600d6020526040812060010155565b6001600160a01b0383166000908152600c602052604090206001015461205790838363ffffffff6125b816565b6001600160a01b0384166000908152600c602052604090206001015560035461208790838363ffffffff6125b816565b6003556040516000906001600160a01b038516907fddf252ad1be2c89b69c2b068fc378daa952ba7f163c4a11628f55a4df523b3ef906120c8908690613779565b60405180910390a3505050565b6001600160a01b0382166000908152600c6020526040902060010154612101908263ffffffff611f5916565b6001600160a01b0383166000908152600c6020526040902060010155600354612130908263ffffffff611f5916565b6003556040516001600160a01b038316906000907fddf252ad1be2c89b69c2b068fc378daa952ba7f163c4a11628f55a4df523b3ef90610db4908590613779565b6001600160a01b0382166000908152600c602052604090205461219a908263ffffffff611f5916565b6001600160a01b0383166000908152600c60205260409020556005546121c6908263ffffffff611f5916565b6005555050565b6121d5612fb9565b60405180602001604052806121f385670de0b6b3a7640000866127bd565b90529392505050565b60008061228f61228a61220d610f64565b6001600160a01b03166318160ddd6040518163ffffffff1660e01b815260040160206040518083038186803b15801561224557600080fd5b505afa158015612259573d6000803e3d6000fd5b505050506040513d601f19601f8201168201806040525061227d919081019061334e565b859063ffffffff6127d316565b6127fa565b9050600061229b611725565b9050818111156122cc5760006122b7828463ffffffff611f7e16565b90506122c281611932565b9250610c3f915050565b5060009392505050565b6001600160a01b0383166000908152600c602052604090205461230090838363ffffffff6125b816565b6001600160a01b0384166000908152600c602052604090205560055461232d90838363ffffffff6125b816565b600555505050565b6001600160a01b0382166000908152600c60205260408120600501549061236761235e84610c44565b611292856116f8565b905081811115610ebf576001600160a01b0384166000908152600c6020526040902060050181905550505050565b61239d610f64565b6001600160a01b031663a9059cbb83836040518363ffffffff1660e01b81526004016123ca9291906136c3565b602060405180830381600087803b1580156123e457600080fd5b505af11580156123f8573d6000803e3d6000fd5b505050506040513d601f19601f8201168201806040525061241c9190810190613312565b50611a1b816040518060600160405280602a8152602001613925602a9139611a6c565b6001600160a01b0382166000908152600e602052604090206003015461246b908263ffffffff611f5916565b6001600160a01b039092166000908152600e602052604090206003019190915550565b6006546124a1908263ffffffff611f5916565b60065550565b6124af61114b565b6001600160a01b039092166000908152600e60205260409020918255600190910155565b60006124f361228a836124e7878787612817565b9063ffffffff6127d316565b949350505050565b82610d3b5761250982612990565b6101d160f51b61251883612990565b60405160200161252a9392919061365c565b60408051601f198184030181529082905262461bcd60e51b8252610aad91600401613708565b60025461256490600163ffffffff611f5916565b600255565b6001600160a01b0382166000908152600e6020526040902060020154612595908263ffffffff611f5916565b6001600160a01b039092166000908152600e602052604090206002019190915550565b600081848411156125dc5760405162461bcd60e51b8152600401610aad9190613708565b505050900390565b610ecd6126056125f2610c85565b6112926125fd6114a8565b611292610ed8565b61260d610f64565b6001600160a01b03166370a08231306040518263ffffffff1660e01b8152600401612638919061368d565b60206040518083038186803b15801561265057600080fd5b505afa158015612664573d6000803e3d6000fd5b505050506040513d601f19601f82011682018060405250612688919081019061334e565b10156a21b7b6b83a3937b63632b960a91b74496e636f6e73697374656e742062616c616e63657360581b6124fb565b60006126c282611489565b90506000806126d084611fe7565b60006126da610c85565b905060006126e66111d4565b90508082111561271857612700828263ffffffff611f7e16565b935061270b84611c05565b61271484612a10565b9350505b857f753df65b37159bf237ae1fca97ba1bd57cf83bc9498f271a514a4d7bafe87bda868660008760405161274f9493929190613795565b60405180910390a2505050505050565b612767612fb9565b506040805160208101909152670214e8348c4f0000815290565b600081836127a25760405162461bcd60e51b8152600401610aad9190613708565b5060008385816127ae57fe5b0495945050505050565b600f90565b60006124f382611110868663ffffffff611e3516565b6127db612fb9565b6040805160208101909152835181906121f3908563ffffffff611e3516565b8051600090610bdd90670de0b6b3a764000063ffffffff611e6f16565b61281f612fb9565b612827612fb9565b61283184866121cd565b905061283b612fb9565b61284361275f565b90506000612857878663ffffffff611f7e16565b9050600061286b878763ffffffff611f7e16565b9050612875612fb9565b61287f82846121cd565b9050612891858563ffffffff612b4416565b15612979576128a6818563ffffffff612b4416565b156128c0576128b484612b5a565b95505050505050610ca4565b6128c8612fb9565b6128d28286612ba1565b90506128dc612fb9565b6128ec868463ffffffff612c0316565b90506128f6612fb9565b6128ff87612b5a565b9050612909612fb9565b612919898963ffffffff612c0316565b905061296961292e848363ffffffff612c2c16565b61295d612941858563ffffffff612c5516565b612951888863ffffffff612c5516565b9063ffffffff612c2c16565b9063ffffffff612c8316565b9950505050505050505050610ca4565b6129838186612ba1565b9998505050505050505050565b606080826040516020016129a49190613647565b60408051601f19818403018152919052905060205b80156129f9578151600019909101908290829081106129d457fe5b01602001516001600160f81b031916156129f45760010181529050610c3f565b6129b9565b505060408051600081526020810190915292915050565b6000806000612a326064611110612a25612cb1565b879063ffffffff611e3516565b9050612a3d81612cb6565b6000612a5d612710611110612a50612d4a565b889063ffffffff611e3516565b9050612a6881612d4f565b6000612a7a838363ffffffff611f5916565b9050808611612a8a576000612a9a565b612a9a868263ffffffff611f7e16565b9550600080612aa7610c85565b90506000612ab36111d4565b905080821015612afc57612acd818363ffffffff611f7e16565b9250888311612adc5782612ade565b885b9250612ae983612d73565b612af9898463ffffffff611f7e16565b98505b612b04610ed8565b612b0d57600098505b8815612b1c57612b1c89612e04565b612b246125e4565b82612b358a8663ffffffff611f5916565b97509750505050505050915091565b6000612b508383612e9b565b6002149392505050565b612b62612fb9565b610bdd612b6d612ecd565b612b81612b996002612b8d87612b81612ecd565b9063ffffffff612c0316565b9063ffffffff612eef16565b61295d612ecd565b612ba9612fb9565b612bb9838363ffffffff612f4516565b15612bce57612bc783612b5a565b9050610bdd565b610ca4612bd9612ecd565b612b81612b99612beb87612b81612ecd565b612bf787612b81612ecd565b9063ffffffff612c5516565b612c0b612fb9565b60408051602081019091528251845182916121f3919063ffffffff611f7e16565b612c34612fb9565b60408051602081019091528251845182916121f3919063ffffffff611f5916565b612c5d612fb9565b60405180602001604052806121f385600001518560000151670de0b6b3a76400006127bd565b612c8b612fb9565b60405180602001604052806121f38560000151670de0b6b3a764000086600001516127bd565b601490565b8015610c9457612cc4610f64565b6001600160a01b03166340c10f19612cda610c62565b836040518363ffffffff1660e01b8152600401612cf89291906136c3565b602060405180830381600087803b158015612d1257600080fd5b505af1158015612d26573d6000803e3d6000fd5b505050506040513d601f19601f82011682018060405250610c819190810190613312565b60fa90565b8015610c9457612d5d610f64565b6001600160a01b03166340c10f19612cda612f4c565b612d7b610f64565b6001600160a01b03166340c10f1930836040518363ffffffff1660e01b8152600401612da89291906136c3565b602060405180830381600087803b158015612dc257600080fd5b505af1158015612dd6573d6000803e3d6000fd5b505050506040513d601f19601f82011682018060405250612dfa9190810190613312565b506119718161248e565b8015610c9457612e12610f64565b6001600160a01b03166340c10f1930836040518363ffffffff1660e01b8152600401612e3f9291906136c3565b602060405180830381600087803b158015612e5957600080fd5b505af1158015612e6d573d6000803e3d6000fd5b505050506040513d601f19601f82011682018060405250612e919190810190613312565b50610c9481611a23565b805182516000911415612eb057506001610bdd565b8151835111612ec0576000612ec3565b60025b60ff169392505050565b612ed5612fb9565b506040805160208101909152670de0b6b3a7640000815290565b612ef7612fb9565b81612f0657612bc76001612f64565b612f0e612fb9565b5060408051602081019091528351815260015b83811015612f3d57612f338286612c55565b9150600101612f21565b509392505050565b5190511490565b73460661bd4a5364a3abcc9cfc4a8ce7038d05ea2290565b612f6c612fb9565b604080516020810190915280612f9084670de0b6b3a764000063ffffffff611e3516565b905292915050565b60405180606001604052806000815260200160008152602001600081525090565b6040518060200160405280600081525090565b8035610bdd81613882565b8051610bdd81613896565b8035610bdd8161389f565b60008083601f840112612fff57600080fd5b50813567ffffffffffffffff81111561301757600080fd5b60208301915083600182028301111561302f57600080fd5b9250929050565b8035610bdd816138ac565b8051610bdd816138ac565b60006020828403121561305e57600080fd5b60006124f38484612fcc565b6000806040838503121561307d57600080fd5b60006130898585612fcc565b925050602061309a85828601612fcc565b9150509250929050565b6000806000606084860312156130b957600080fd5b60006130c58686612fcc565b93505060206130d686828701612fcc565b92505060406130e786828701612fe2565b9150509250925092565b60008060006060848603121561310657600080fd5b60006131128686612fcc565b935050602061312386828701612fcc565b92505060406130e786828701613036565b60008060008060006080868803121561314c57600080fd5b60006131588888612fcc565b955050602061316988828901612fcc565b945050604061317a88828901613036565b935050606086013567ffffffffffffffff81111561319757600080fd5b6131a388828901612fed565b92509250509295509295909350565b600080600080608085870312156131c857600080fd5b60006131d48787612fcc565b94505060206131e587828801612fcc565b93505060406131f687828801613036565b925050606061320787828801613036565b91505092959194509250565b6000806040838503121561322657600080fd5b60006132328585612fcc565b925050602061309a85828601613036565b6000806000806060858703121561325957600080fd5b60006132658787612fcc565b945050602061327687828801613036565b935050604085013567ffffffffffffffff81111561329357600080fd5b61329f87828801612fed565b95989497509550505050565b6000806000606084860312156132c057600080fd5b60006132cc8686612fcc565b935050602061312386828701613036565b6000806000806000608086880312156132f557600080fd5b60006133018888612fcc565b955050602061316988828901613036565b60006020828403121561332457600080fd5b60006124f38484612fd7565b60006020828403121561334257600080fd5b60006124f38484613036565b60006020828403121561336057600080fd5b60006124f38484613041565b60008060006040848603121561338157600080fd5b600061338d8686613036565b935050602084013567ffffffffffffffff8111156133aa57600080fd5b6133b686828701612fed565b92509250509250925092565b600080604083850312156133d557600080fd5b60006132328585613036565b6133ea816137e5565b82525050565b6133ea816137f0565b6133ea613405826137f5565b613802565b6133ea61340582613802565b6000613421826137d8565b61342b8185610c3f565b935061343b818560208601613842565b9290920192915050565b6133ea81613821565b6133ea8161382c565b6133ea81613837565b600061346b826137d8565b61347581856137dc565b9350613485818560208601613842565b61348e8161386e565b9093019392505050565b60006134a5601b836137dc565b7f536166654d6174683a206164646974696f6e206f766572666c6f770000000000815260200192915050565b60006134de602b836137dc565b7f4d61726b65743a20436f75706f6e207472616e7366657220746f20746865207a81526a65726f206164647265737360a81b602082015260400192915050565b600061352b6021836137dc565b7f536166654d6174683a206d756c7469706c69636174696f6e206f766572666c6f8152607760f81b602082015260400192915050565b600061356e602a836137dc565b7f4d61726b65743a20436f75706f6e20617070726f766520746f20746865207a65815269726f206164647265737360b01b602082015260400192915050565b60006135ba602d836137dc565b7f4d61726b65743a20436f75706f6e207472616e736665722066726f6d2074686581526c207a65726f206164647265737360981b602082015260400192915050565b6000613609601b836137dc565b7f4d61726b65743a20546f6f206561726c7920746f2072656465656d0000000000815260200192915050565b6133ea81613802565b6133ea8161381b565b6000613653828461340a565b50602001919050565b60006136688286613416565b915061367482856133f9565b6002820191506136848284613416565b95945050505050565b60208101610bdd82846133e1565b606081016136a982866133e1565b6136b660208301856133e1565b6124f36040830184613635565b604081016136d182856133e1565b610ca46020830184613635565b60208101610bdd82846133f0565b60208101610bdd8284613445565b60208101610bdd828461344e565b60208082528101610ca48184613460565b60208082528101610bdd81613498565b60208082528101610bdd816134d1565b60208082528101610bdd8161351e565b60208082528101610bdd81613561565b60208082528101610bdd816135ad565b60208082528101610bdd816135fc565b60208101610bdd8284613635565b604081016136d18285613635565b608081016137a38287613635565b6137b06020830186613635565b6137bd6040830185613457565b6136846060830184613635565b60208101610bdd828461363e565b5190565b90815260200190565b6000610bdd8261380f565b151590565b6001600160f01b03191690565b90565b80610c3f81613878565b6001600160a01b031690565b60ff1690565b6000610bdd826137e5565b6000610bdd82613805565b6000610bdd82613802565b60005b8381101561385d578181015183820152602001613845565b83811115610ebf5750506000910152565b601f01601f191690565b60038110610c9457fe5b61388b816137e5565b8114610c9457600080fd5b61388b816137f0565b60038110610c9457600080fd5b61388b8161380256fe4d61726b65743a20496e73756666696369656e7420636f75706f6e2062616c616e63654d61726b65743a20496e73756666696369656e7420636f75706f6e20617070726f76616c436f6d7074726f6c6c65723a206e6f7420656e6f756768206f75747374616e64696e672064656274436f6d7074726f6c6c65723a206e6f7420656e6f7567682072656465656d61626c652062616c616e6365a365627a7a723158205d4b4406e39ebec110d015bda6af9f397246cfd929809f0ed2514f71abd6f41c6c6578706572696d656e74616cf564736f6c6343000511004060806040523480156200001157600080fd5b506040518060400160405280601081526020016f22b6b83a3c9029b2ba102237b63630b960811b815250604051806040016040528060038152602001621154d160ea1b81525060126200007c6200006d6200011760201b60201c565b6001600160e01b036200011c16565b82516200009190600190602086019062000311565b508151620000a790600290602085019062000311565b506003805460ff191660ff92909216919091179055506200010e9050620000cd6200016e565b604051806040016040528060018152602001603160f81b815250620000fc6200020760201b620016341760201c565b306200020c60201b620016391760201c565b60075562000467565b335b90565b620001378160006200026360201b62000d7e1790919060201c565b6040516001600160a01b038216907f6ae172837ea30b801fbfcdd4108aa1d5bf8ff775444fd70256b44e6bf3dfc3f690600090a250565b60018054604080516020601f60026000196101008789161502019095169490940493840181900481028201810190925282815260609390929091830182828015620001fd5780601f10620001d157610100808354040283529160200191620001fd565b820191906000526020600020905b815481529060010190602001808311620001df57829003601f168201915b5050505050905090565b600190565b8351602094850120835193850193909320604080517f8b73c3c69bb8fe3d512ecc4cf759cc79239f7b179b0ffacaa9a75d522b39400f815295860194909452928401929092526060830152608082015260a0902090565b6200027882826001600160e01b03620002c616565b15620002a15760405162461bcd60e51b8152600401620002989062000434565b60405180910390fd5b6001600160a01b0316600090815260209190915260409020805460ff19166001179055565b60006001600160a01b038216620002f15760405162461bcd60e51b815260040162000298906200044c565b506001600160a01b03166000908152602091909152604090205460ff1690565b828054600181600116156101000203166002900490600052602060002090601f016020900481019282601f106200035457805160ff191683800117855562000384565b8280016001018555821562000384579182015b828111156200038457825182559160200191906001019062000367565b506200039292915062000396565b5090565b6200011991905b808211156200039257600081556001016200039d565b6000620003c2601f836200045e565b7f526f6c65733a206163636f756e7420616c72656164792068617320726f6c6500815260200192915050565b6000620003fd6022836200045e565b7f526f6c65733a206163636f756e7420697320746865207a65726f206164647265815261737360f01b602082015260400192915050565b602080825281016200044681620003b3565b92915050565b602080825281016200044681620003ee565b90815260200190565b61178d80620004776000396000f3fe608060405234801561001057600080fd5b506004361061012c5760003560e01c806395d89b41116100ad578063aa271e1a11610071578063aa271e1a14610256578063d505accf14610269578063dab400f31461027c578063dd62ed3e14610284578063e879c19f146102975761012c565b806395d89b411461020d578063983b2d56146102155780639865027514610228578063a457c2d714610230578063a9059cbb146102435761012c565b806339509351116100f457806339509351146101ac57806340c10f19146101bf57806342966c68146101d257806370a08231146101e757806379cc6790146101fa5761012c565b806306fdde0314610131578063095ea7b31461014f57806318160ddd1461016f57806323b872dd14610184578063313ce56714610197575b600080fd5b61013961029f565b60405161014691906114c6565b60405180910390f35b61016261015d366004610ffc565b610334565b604051610146919061141b565b610177610352565b6040516101469190611429565b610162610192366004610f13565b610358565b61019f6103ca565b6040516101469190611587565b6101626101ba366004610ffc565b6103d3565b6101626101cd366004610ffc565b610427565b6101e56101e036600461102c565b610463565b005b6101776101f5366004610eb3565b610477565b6101e5610208366004610ffc565b610496565b6101396104a4565b6101e5610223366004610eb3565b610502565b6101e5610532565b61016261023e366004610ffc565b610544565b610162610251366004610ffc565b6105b2565b610162610264366004610eb3565b6105c6565b6101e5610277366004610f60565b6105d8565b61017761075f565b610177610292366004610ed9565b610765565b610177610790565b60018054604080516020601f6002600019610100878916150201909516949094049384018190048102820181019092528281526060939092909183018282801561032a5780601f106102ff5761010080835404028352916020019161032a565b820191906000526020600020905b81548152906001019060200180831161030d57829003601f168201915b5050505050905090565b60006103486103416107b4565b84846107b8565b5060015b92915050565b60065490565b600061036584848461086c565b600019610374856102926107b4565b146103c0576103c0846103856107b4565b6103bb856040518060600160405280602981526020016116fd602991396103ae8a6102926107b4565b919063ffffffff61098216565b6107b8565b5060019392505050565b60035460ff1690565b60006103486103e06107b4565b846103bb85600560006103f16107b4565b6001600160a01b03908116825260208083019390935260409182016000908120918c16815292529020549063ffffffff6109ae16565b60006104346102646107b4565b6104595760405162461bcd60e51b815260040161045090611517565b60405180910390fd5b61034883836109da565b61047461046e6107b4565b82610a9a565b50565b6001600160a01b0381166000908152600460205260409020545b919050565b6104a08282610b70565b5050565b60028054604080516020601f600019610100600187161502019094168590049384018190048102820181019092528281526060939092909183018282801561032a5780601f106102ff5761010080835404028352916020019161032a565b61050d6102646107b4565b6105295760405162461bcd60e51b815260040161045090611517565b61047481610beb565b61054261053d6107b4565b610c33565b565b60006103486105516107b4565b846103bb85604051806060016040528060258152602001611726602591396005600061057b6107b4565b6001600160a01b03908116825260208083019390935260409182016000908120918d1681529252902054919063ffffffff61098216565b60006103486105bf6107b4565b848461086c565b600061034c818363ffffffff610c7b16565b6007546001600160a01b03881660009081526008602090815260408083208054600181019091559051929361065a93909261063f927f6e71edae12b1b97f4d1f60370fef10105fa2faae0126114a169c64845d6126c9928e928e928e9290918e9101611437565b60405160208183030381529060405280519060200120610cc3565b90506000600182868686604051600081526020016040526040516106819493929190611491565b6020604051602081039080840390855afa1580156106a3573d6000803e3d6000fd5b5050506020604051035190506106f0896001600160a01b0316826001600160a01b0316146a5065726d69747461626c6560a81b70496e76616c6964207369676e617475726560781b610ce2565b6107236001600160a01b03821615156a5065726d69747461626c6560a81b6b5a65726f206164647265737360a01b610ce2565b610749864211156a5065726d69747461626c6560a81b66115e1c1a5c995960ca1b610ce2565b6107548989896107b8565b505050505050505050565b60075481565b6001600160a01b03918216600090815260056020908152604080832093909416825291909152205490565b7f6e71edae12b1b97f4d1f60370fef10105fa2faae0126114a169c64845d6126c981565b3390565b6001600160a01b0383166107de5760405162461bcd60e51b815260040161045090611567565b6001600160a01b0382166108045760405162461bcd60e51b8152600401610450906114f7565b6001600160a01b0380841660008181526005602090815260408083209487168084529490915290819020849055517f8c5be1e5ebec7d5bd14f71427d1e84f3dd0314c0f7b2291e5b200ac8c7c3b9259061085f908590611429565b60405180910390a3505050565b6001600160a01b0383166108925760405162461bcd60e51b815260040161045090611557565b6001600160a01b0382166108b85760405162461bcd60e51b8152600401610450906114d7565b6108fb816040518060600160405280602681526020016116b3602691396001600160a01b038616600090815260046020526040902054919063ffffffff61098216565b6001600160a01b038085166000908152600460205260408082209390935590841681522054610930908263ffffffff6109ae16565b6001600160a01b0380841660008181526004602052604090819020939093559151908516907fddf252ad1be2c89b69c2b068fc378daa952ba7f163c4a11628f55a4df523b3ef9061085f908590611429565b600081848411156109a65760405162461bcd60e51b815260040161045091906114c6565b505050900390565b6000828201838110156109d35760405162461bcd60e51b815260040161045090611507565b9392505050565b6001600160a01b038216610a005760405162461bcd60e51b815260040161045090611577565b600654610a13908263ffffffff6109ae16565b6006556001600160a01b038216600090815260046020526040902054610a3f908263ffffffff6109ae16565b6001600160a01b0383166000818152600460205260408082209390935591519091907fddf252ad1be2c89b69c2b068fc378daa952ba7f163c4a11628f55a4df523b3ef90610a8e908590611429565b60405180910390a35050565b6001600160a01b038216610ac05760405162461bcd60e51b815260040161045090611547565b610b0381604051806060016040528060228152602001611691602291396001600160a01b038516600090815260046020526040902054919063ffffffff61098216565b6001600160a01b038316600090815260046020526040902055600654610b2f908263ffffffff610d3c16565b6006556040516000906001600160a01b038416907fddf252ad1be2c89b69c2b068fc378daa952ba7f163c4a11628f55a4df523b3ef90610a8e908590611429565b610b7a8282610a9a565b6104a082610b866107b4565b6103bb846040518060600160405280602481526020016116d9602491396001600160a01b038816600090815260056020526040812090610bc46107b4565b6001600160a01b03168152602081019190915260400160002054919063ffffffff61098216565b610bfc60008263ffffffff610d7e16565b6040516001600160a01b038216907f6ae172837ea30b801fbfcdd4108aa1d5bf8ff775444fd70256b44e6bf3dfc3f690600090a250565b610c4460008263ffffffff610dca16565b6040516001600160a01b038216907fe94479a9f7e1952cc78f2d6baab678adc1b772d936c6583def489e524cb6669290600090a250565b60006001600160a01b038216610ca35760405162461bcd60e51b815260040161045090611537565b506001600160a01b03166000908152602091909152604090205460ff1690565b60405161190160f01b8152600281019290925260228201526042902090565b82610d3757610cf082610e12565b6101d160f51b610cff83610e12565b604051602001610d11939291906113ea565b60408051601f198184030181529082905262461bcd60e51b8252610450916004016114c6565b505050565b60006109d383836040518060400160405280601e81526020017f536166654d6174683a207375627472616374696f6e206f766572666c6f770000815250610982565b610d888282610c7b565b15610da55760405162461bcd60e51b8152600401610450906114e7565b6001600160a01b0316600090815260209190915260409020805460ff19166001179055565b610dd48282610c7b565b610df05760405162461bcd60e51b815260040161045090611527565b6001600160a01b0316600090815260209190915260409020805460ff19169055565b60608082604051602001610e2691906113d5565b60408051601f19818403018152919052905060205b8015610e7b57815160001990910190829082908110610e5657fe5b01602001516001600160f81b03191615610e765760010181529050610491565b610e3b565b505060408051600081526020810190915292915050565b803561034c8161160e565b803561034c81611622565b803561034c8161162b565b600060208284031215610ec557600080fd5b6000610ed18484610e92565b949350505050565b60008060408385031215610eec57600080fd5b6000610ef88585610e92565b9250506020610f0985828601610e92565b9150509250929050565b600080600060608486031215610f2857600080fd5b6000610f348686610e92565b9350506020610f4586828701610e92565b9250506040610f5686828701610e9d565b9150509250925092565b600080600080600080600060e0888a031215610f7b57600080fd5b6000610f878a8a610e92565b9750506020610f988a828b01610e92565b9650506040610fa98a828b01610e9d565b9550506060610fba8a828b01610e9d565b9450506080610fcb8a828b01610ea8565b93505060a0610fdc8a828b01610e9d565b92505060c0610fed8a828b01610e9d565b91505092959891949750929550565b6000806040838503121561100f57600080fd5b600061101b8585610e92565b9250506020610f0985828601610e9d565b60006020828403121561103e57600080fd5b6000610ed18484610e9d565b611053816115a2565b82525050565b611053816115ad565b61105361106e826115b2565b6115bf565b611053816115bf565b61105361106e826115bf565b600061109382611595565b61109d8185610491565b93506110ad8185602086016115d4565b9290920192915050565b60006110c282611595565b6110cc8185611599565b93506110dc8185602086016115d4565b6110e581611604565b9093019392505050565b60006110fc602383611599565b7f45524332303a207472616e7366657220746f20746865207a65726f206164647281526265737360e81b602082015260400192915050565b6000611141601f83611599565b7f526f6c65733a206163636f756e7420616c72656164792068617320726f6c6500815260200192915050565b600061117a602283611599565b7f45524332303a20617070726f766520746f20746865207a65726f206164647265815261737360f01b602082015260400192915050565b60006111be601b83611599565b7f536166654d6174683a206164646974696f6e206f766572666c6f770000000000815260200192915050565b60006111f7603083611599565b7f4d696e746572526f6c653a2063616c6c657220646f6573206e6f74206861766581526f20746865204d696e74657220726f6c6560801b602082015260400192915050565b6000611249602183611599565b7f526f6c65733a206163636f756e7420646f6573206e6f74206861766520726f6c8152606560f81b602082015260400192915050565b600061128c602283611599565b7f526f6c65733a206163636f756e7420697320746865207a65726f206164647265815261737360f01b602082015260400192915050565b60006112d0602183611599565b7f45524332303a206275726e2066726f6d20746865207a65726f206164647265738152607360f81b602082015260400192915050565b6000611313602583611599565b7f45524332303a207472616e736665722066726f6d20746865207a65726f206164815264647265737360d81b602082015260400192915050565b600061135a602483611599565b7f45524332303a20617070726f76652066726f6d20746865207a65726f206164648152637265737360e01b602082015260400192915050565b60006113a0601f83611599565b7f45524332303a206d696e7420746f20746865207a65726f206164647265737300815260200192915050565b611053816115ce565b60006113e1828461107c565b50602001919050565b60006113f68286611088565b91506114028285611062565b6002820191506114128284611088565b95945050505050565b6020810161034c8284611059565b6020810161034c8284611073565b60c081016114458289611073565b611452602083018861104a565b61145f604083018761104a565b61146c6060830186611073565b6114796080830185611073565b61148660a0830184611073565b979650505050505050565b6080810161149f8287611073565b6114ac60208301866113cc565b6114b96040830185611073565b6114126060830184611073565b602080825281016109d381846110b7565b6020808252810161034c816110ef565b6020808252810161034c81611134565b6020808252810161034c8161116d565b6020808252810161034c816111b1565b6020808252810161034c816111ea565b6020808252810161034c8161123c565b6020808252810161034c8161127f565b6020808252810161034c816112c3565b6020808252810161034c81611306565b6020808252810161034c8161134d565b6020808252810161034c81611393565b6020810161034c82846113cc565b5190565b90815260200190565b600061034c826115c2565b151590565b6001600160f01b03191690565b90565b6001600160a01b031690565b60ff1690565b60005b838110156115ef5781810151838201526020016115d7565b838111156115fe576000848401525b50505050565b601f01601f191690565b611617816115a2565b811461047457600080fd5b611617816115bf565b611617816115ce565b600190565b8351602094850120835193850193909320604080517f8b73c3c69bb8fe3d512ecc4cf759cc79239f7b179b0ffacaa9a75d522b39400f815295860194909452928401929092526060830152608082015260a090209056fe45524332303a206275726e20616d6f756e7420657863656564732062616c616e636545524332303a207472616e7366657220616d6f756e7420657863656564732062616c616e636545524332303a206275726e20616d6f756e74206578636565647320616c6c6f77616e6365446f6c6c61723a207472616e7366657220616d6f756e74206578636565647320616c6c6f77616e636545524332303a2064656372656173656420616c6c6f77616e63652062656c6f77207a65726fa365627a7a723158208e61a028d221fa26d51f465c8284bf132167a31b571a90d94d77fc3201378a806c6578706572696d656e74616cf564736f6c63430005110040",
  "source": "/*\n    Copyright 2020 Empty Set Squad <emptysetsquad@protonmail.com>\n\n    Licensed under the Apache License, Version 2.0 (the \"License\");\n    you may not use this file except in compliance with the License.\n    You may obtain a copy of the License at\n\n    http://www.apache.org/licenses/LICENSE-2.0\n\n    Unless required by applicable law or agreed to in writing, software\n    distributed under the License is distributed on an \"AS IS\" BASIS,\n    WITHOUT WARRANTIES OR CONDITIONS OF ANY KIND, either express or implied.\n    See the License for the specific language governing permissions and\n    limitations under the License.\n*/\n\npragma solidity ^0.5.17;\npragma experimental ABIEncoderV2;\n\nimport \"../dao/Market.sol\";\nimport \"./MockState.sol\";\nimport \"./MockComptroller.sol\";\n\ncontract MockMarket is MockState, MockComptroller, Market {\n    constructor(address pool) MockComptroller(pool) public { }\n\n    function stepE() external {\n        Market.step();\n    }\n}\n",
  "sourcePath": "/Users/sachin/code/dollar/protocol/contracts/mock/MockMarket.sol",
  "compiler": {
    "name": "solc",
    "version": "0.5.17+commit.d19bba13.Emscripten.clang"
  },
  "schemaVersion": "3.3.3",
  "updatedAt": "2021-01-01T20:11:00.378Z",
  "devdoc": {
    "methods": {}
  },
  "userdoc": {
    "methods": {
      "balanceOfStaged(address)": {
        "notice": "Account"
      },
      "createCandidateE(address,uint256)": {
        "notice": "Governance"
      },
      "dollar()": {
        "notice": "Global"
      },
      "epoch()": {
        "notice": "Epoch"
      },
      "incrementBalanceOfE(address,uint256)": {
        "notice": "Account"
      },
      "incrementTotalBondedE(uint256)": {
        "notice": "Global"
      },
      "name()": {
        "notice": "ERC20 Interface"
      },
      "recordedVote(address,address)": {
        "notice": "Governance"
      },
      "setBlockTimestamp(uint256)": {
        "notice": "Mock"
      },
      "setEpochParamsE(uint256,uint256)": {
        "notice": "Epoch"
      },
      "transfer(address,uint256)": {
        "notice": "ERC20 Interface"
      }
    }
  }
}