{
  "contractName": "MockRegulator",
  "abi": [
    {
      "inputs": [
        {
          "internalType": "address",
          "name": "oracle",
          "type": "address"
        },
        {
          "internalType": "address",
          "name": "pool",
          "type": "address"
        }
      ],
      "payable": false,
      "stateMutability": "nonpayable",
      "type": "constructor"
    },
    {
      "anonymous": false,
      "inputs": [
        {
          "indexed": true,
          "internalType": "uint256",
          "name": "epoch",
          "type": "uint256"
        },
        {
          "indexed": false,
          "internalType": "uint256",
          "name": "price",
          "type": "uint256"
        },
        {
          "indexed": false,
          "internalType": "uint256",
          "name": "newDebt",
          "type": "uint256"
        }
      ],
      "name": "SupplyDecrease",
      "type": "event"
    },
    {
      "anonymous": false,
      "inputs": [
        {
          "indexed": true,
          "internalType": "uint256",
          "name": "epoch",
          "type": "uint256"
        },
        {
          "indexed": false,
          "internalType": "uint256",
          "name": "price",
          "type": "uint256"
        },
        {
          "indexed": false,
          "internalType": "uint256",
          "name": "newRedeemable",
          "type": "uint256"
        },
        {
          "indexed": false,
          "internalType": "uint256",
          "name": "lessDebt",
          "type": "uint256"
        },
        {
          "indexed": false,
          "internalType": "uint256",
          "name": "newBonded",
          "type": "uint256"
        }
      ],
      "name": "SupplyIncrease",
      "type": "event"
    },
    {
      "anonymous": false,
      "inputs": [
        {
          "indexed": true,
          "internalType": "uint256",
          "name": "epoch",
          "type": "uint256"
        }
      ],
      "name": "SupplyNeutral",
      "type": "event"
    },
    {
      "anonymous": false,
      "inputs": [
        {
          "indexed": true,
          "internalType": "address",
          "name": "from",
          "type": "address"
        },
        {
          "indexed": true,
          "internalType": "address",
          "name": "to",
          "type": "address"
        },
        {
          "indexed": false,
          "internalType": "uint256",
          "name": "value",
          "type": "uint256"
        }
      ],
      "name": "Transfer",
      "type": "event"
    },
    {
      "constant": true,
      "inputs": [
        {
          "internalType": "address",
          "name": "owner",
          "type": "address"
        },
        {
          "internalType": "address",
          "name": "spender",
          "type": "address"
        }
      ],
      "name": "allowance",
      "outputs": [
        {
          "internalType": "uint256",
          "name": "",
          "type": "uint256"
        }
      ],
      "payable": false,
      "stateMutability": "view",
      "type": "function"
    },
    {
      "constant": true,
      "inputs": [
        {
          "internalType": "address",
          "name": "owner",
          "type": "address"
        },
        {
          "internalType": "address",
          "name": "spender",
          "type": "address"
        }
      ],
      "name": "allowanceCoupons",
      "outputs": [
        {
          "internalType": "uint256",
          "name": "",
          "type": "uint256"
        }
      ],
      "payable": false,
      "stateMutability": "view",
      "type": "function"
    },
    {
      "constant": false,
      "inputs": [
        {
          "internalType": "address",
          "name": "spender",
          "type": "address"
        },
        {
          "internalType": "uint256",
          "name": "amount",
          "type": "uint256"
        }
      ],
      "name": "approve",
      "outputs": [
        {
          "internalType": "bool",
          "name": "",
          "type": "bool"
        }
      ],
      "payable": false,
      "stateMutability": "nonpayable",
      "type": "function"
    },
    {
      "constant": true,
      "inputs": [
        {
          "internalType": "address",
          "name": "candidate",
          "type": "address"
        }
      ],
      "name": "approveFor",
      "outputs": [
        {
          "internalType": "uint256",
          "name": "",
          "type": "uint256"
        }
      ],
      "payable": false,
      "stateMutability": "view",
      "type": "function"
    },
    {
      "constant": true,
      "inputs": [
        {
          "internalType": "address",
          "name": "account",
          "type": "address"
        }
      ],
      "name": "balanceOf",
      "outputs": [
        {
          "internalType": "uint256",
          "name": "",
          "type": "uint256"
        }
      ],
      "payable": false,
      "stateMutability": "view",
      "type": "function"
    },
    {
      "constant": true,
      "inputs": [
        {
          "internalType": "address",
          "name": "account",
          "type": "address"
        }
      ],
      "name": "balanceOfBonded",
      "outputs": [
        {
          "internalType": "uint256",
          "name": "",
          "type": "uint256"
        }
      ],
      "payable": false,
      "stateMutability": "view",
      "type": "function"
    },
    {
      "constant": true,
      "inputs": [
        {
          "internalType": "address",
          "name": "account",
          "type": "address"
        },
        {
          "internalType": "uint256",
          "name": "epoch",
          "type": "uint256"
        }
      ],
      "name": "balanceOfCoupons",
      "outputs": [
        {
          "internalType": "uint256",
          "name": "",
          "type": "uint256"
        }
      ],
      "payable": false,
      "stateMutability": "view",
      "type": "function"
    },
    {
      "constant": true,
      "inputs": [
        {
          "internalType": "address",
          "name": "account",
          "type": "address"
        }
      ],
      "name": "balanceOfStaged",
      "outputs": [
        {
          "internalType": "uint256",
          "name": "",
          "type": "uint256"
        }
      ],
      "payable": false,
      "stateMutability": "view",
      "type": "function"
    },
    {
      "constant": false,
      "inputs": [
        {
          "internalType": "address",
          "name": "account",
          "type": "address"
        },
        {
          "internalType": "uint256",
          "name": "amount",
          "type": "uint256"
        }
      ],
      "name": "burnFromAccountE",
      "outputs": [],
      "payable": false,
      "stateMutability": "nonpayable",
      "type": "function"
    },
    {
      "constant": false,
      "inputs": [
        {
          "internalType": "uint256",
          "name": "amount",
          "type": "uint256"
        }
      ],
      "name": "burnRedeemableE",
      "outputs": [],
      "payable": false,
      "stateMutability": "nonpayable",
      "type": "function"
    },
    {
      "constant": true,
      "inputs": [
        {
          "internalType": "uint256",
          "name": "epoch",
          "type": "uint256"
        }
      ],
      "name": "couponsExpiration",
      "outputs": [
        {
          "internalType": "uint256",
          "name": "",
          "type": "uint256"
        }
      ],
      "payable": false,
      "stateMutability": "view",
      "type": "function"
    },
    {
      "constant": false,
      "inputs": [
        {
          "internalType": "address",
          "name": "candidate",
          "type": "address"
        },
        {
          "internalType": "uint256",
          "name": "period",
          "type": "uint256"
        }
      ],
      "name": "createCandidateE",
      "outputs": [],
      "payable": false,
      "stateMutability": "nonpayable",
      "type": "function"
    },
    {
      "constant": true,
      "inputs": [],
      "name": "decimals",
      "outputs": [
        {
          "internalType": "uint8",
          "name": "",
          "type": "uint8"
        }
      ],
      "payable": false,
      "stateMutability": "view",
      "type": "function"
    },
    {
      "constant": false,
      "inputs": [
        {
          "internalType": "uint256",
          "name": "amount",
          "type": "uint256"
        }
      ],
      "name": "decreaseDebtE",
      "outputs": [],
      "payable": false,
      "stateMutability": "nonpayable",
      "type": "function"
    },
    {
      "constant": false,
      "inputs": [
        {
          "internalType": "address",
          "name": "owner",
          "type": "address"
        },
        {
          "internalType": "address",
          "name": "spender",
          "type": "address"
        },
        {
          "internalType": "uint256",
          "name": "amount",
          "type": "uint256"
        },
        {
          "internalType": "string",
          "name": "reason",
          "type": "string"
        }
      ],
      "name": "decrementAllowanceCouponsE",
      "outputs": [],
      "payable": false,
      "stateMutability": "nonpayable",
      "type": "function"
    },
    {
      "constant": false,
      "inputs": [
        {
          "internalType": "address",
          "name": "candidate",
          "type": "address"
        },
        {
          "internalType": "uint256",
          "name": "amount",
          "type": "uint256"
        },
        {
          "internalType": "string",
          "name": "reason",
          "type": "string"
        }
      ],
      "name": "decrementApproveForE",
      "outputs": [],
      "payable": false,
      "stateMutability": "nonpayable",
      "type": "function"
    },
    {
      "constant": false,
      "inputs": [
        {
          "internalType": "address",
          "name": "account",
          "type": "address"
        },
        {
          "internalType": "uint256",
          "name": "epoch",
          "type": "uint256"
        },
        {
          "internalType": "uint256",
          "name": "amount",
          "type": "uint256"
        },
        {
          "internalType": "string",
          "name": "reason",
          "type": "string"
        }
      ],
      "name": "decrementBalanceOfCouponsE",
      "outputs": [],
      "payable": false,
      "stateMutability": "nonpayable",
      "type": "function"
    },
    {
      "constant": false,
      "inputs": [
        {
          "internalType": "address",
          "name": "account",
          "type": "address"
        },
        {
          "internalType": "uint256",
          "name": "amount",
          "type": "uint256"
        },
        {
          "internalType": "string",
          "name": "reason",
          "type": "string"
        }
      ],
      "name": "decrementBalanceOfE",
      "outputs": [],
      "payable": false,
      "stateMutability": "nonpayable",
      "type": "function"
    },
    {
      "constant": false,
      "inputs": [
        {
          "internalType": "address",
          "name": "account",
          "type": "address"
        },
        {
          "internalType": "uint256",
          "name": "amount",
          "type": "uint256"
        },
        {
          "internalType": "string",
          "name": "reason",
          "type": "string"
        }
      ],
      "name": "decrementBalanceOfStagedE",
      "outputs": [],
      "payable": false,
      "stateMutability": "nonpayable",
      "type": "function"
    },
    {
      "constant": false,
      "inputs": [
        {
          "internalType": "address",
          "name": "candidate",
          "type": "address"
        },
        {
          "internalType": "uint256",
          "name": "amount",
          "type": "uint256"
        },
        {
          "internalType": "string",
          "name": "reason",
          "type": "string"
        }
      ],
      "name": "decrementRejectForE",
      "outputs": [],
      "payable": false,
      "stateMutability": "nonpayable",
      "type": "function"
    },
    {
      "constant": false,
      "inputs": [
        {
          "internalType": "uint256",
          "name": "amount",
          "type": "uint256"
        },
        {
          "internalType": "string",
          "name": "reason",
          "type": "string"
        }
      ],
      "name": "decrementTotalBondedE",
      "outputs": [],
      "payable": false,
      "stateMutability": "nonpayable",
      "type": "function"
    },
    {
      "constant": false,
      "inputs": [
        {
          "internalType": "uint256",
          "name": "amount",
          "type": "uint256"
        },
        {
          "internalType": "string",
          "name": "reason",
          "type": "string"
        }
      ],
      "name": "decrementTotalDebtE",
      "outputs": [],
      "payable": false,
      "stateMutability": "nonpayable",
      "type": "function"
    },
    {
      "constant": false,
      "inputs": [
        {
          "internalType": "uint256",
          "name": "amount",
          "type": "uint256"
        },
        {
          "internalType": "string",
          "name": "reason",
          "type": "string"
        }
      ],
      "name": "decrementTotalRedeemableE",
      "outputs": [],
      "payable": false,
      "stateMutability": "nonpayable",
      "type": "function"
    },
    {
      "constant": true,
      "inputs": [],
      "name": "dollar",
      "outputs": [
        {
          "internalType": "contract IDollar",
          "name": "",
          "type": "address"
        }
      ],
      "payable": false,
      "stateMutability": "view",
      "type": "function"
    },
    {
      "constant": false,
      "inputs": [
        {
          "internalType": "uint256",
          "name": "epoch",
          "type": "uint256"
        }
      ],
      "name": "eliminateOutstandingCouponsE",
      "outputs": [],
      "payable": false,
      "stateMutability": "nonpayable",
      "type": "function"
    },
    {
      "constant": true,
      "inputs": [],
      "name": "epoch",
      "outputs": [
        {
          "internalType": "uint256",
          "name": "",
          "type": "uint256"
        }
      ],
      "payable": false,
      "stateMutability": "view",
      "type": "function"
    },
    {
      "constant": true,
      "inputs": [],
      "name": "epochTime",
      "outputs": [
        {
          "internalType": "uint256",
          "name": "",
          "type": "uint256"
        }
      ],
      "payable": false,
      "stateMutability": "view",
      "type": "function"
    },
    {
      "constant": true,
      "inputs": [
        {
          "internalType": "uint256",
          "name": "epoch",
          "type": "uint256"
        }
      ],
      "name": "expiringCoupons",
      "outputs": [
        {
          "internalType": "uint256",
          "name": "",
          "type": "uint256"
        }
      ],
      "payable": false,
      "stateMutability": "view",
      "type": "function"
    },
    {
      "constant": true,
      "inputs": [
        {
          "internalType": "uint256",
          "name": "epoch",
          "type": "uint256"
        },
        {
          "internalType": "uint256",
          "name": "i",
          "type": "uint256"
        }
      ],
      "name": "expiringCouponsAtIndex",
      "outputs": [
        {
          "internalType": "uint256",
          "name": "",
          "type": "uint256"
        }
      ],
      "payable": false,
      "stateMutability": "view",
      "type": "function"
    },
    {
      "constant": true,
      "inputs": [
        {
          "internalType": "address",
          "name": "account",
          "type": "address"
        }
      ],
      "name": "fluidUntil",
      "outputs": [
        {
          "internalType": "uint256",
          "name": "",
          "type": "uint256"
        }
      ],
      "payable": false,
      "stateMutability": "view",
      "type": "function"
    },
    {
      "constant": true,
      "inputs": [],
      "name": "implementation",
      "outputs": [
        {
          "internalType": "address",
          "name": "impl",
          "type": "address"
        }
      ],
      "payable": false,
      "stateMutability": "view",
      "type": "function"
    },
    {
      "constant": false,
      "inputs": [
        {
          "internalType": "uint256",
          "name": "amount",
          "type": "uint256"
        }
      ],
      "name": "increaseDebtE",
      "outputs": [],
      "payable": false,
      "stateMutability": "nonpayable",
      "type": "function"
    },
    {
      "constant": false,
      "inputs": [
        {
          "internalType": "address",
          "name": "candidate",
          "type": "address"
        },
        {
          "internalType": "uint256",
          "name": "amount",
          "type": "uint256"
        }
      ],
      "name": "incrementApproveForE",
      "outputs": [],
      "payable": false,
      "stateMutability": "nonpayable",
      "type": "function"
    },
    {
      "constant": false,
      "inputs": [
        {
          "internalType": "address",
          "name": "account",
          "type": "address"
        },
        {
          "internalType": "uint256",
          "name": "epoch",
          "type": "uint256"
        },
        {
          "internalType": "uint256",
          "name": "amount",
          "type": "uint256"
        }
      ],
      "name": "incrementBalanceOfCouponsE",
      "outputs": [],
      "payable": false,
      "stateMutability": "nonpayable",
      "type": "function"
    },
    {
      "constant": false,
      "inputs": [
        {
          "internalType": "address",
          "name": "account",
          "type": "address"
        },
        {
          "internalType": "uint256",
          "name": "amount",
          "type": "uint256"
        }
      ],
      "name": "incrementBalanceOfE",
      "outputs": [],
      "payable": false,
      "stateMutability": "nonpayable",
      "type": "function"
    },
    {
      "constant": false,
      "inputs": [
        {
          "internalType": "address",
          "name": "account",
          "type": "address"
        },
        {
          "internalType": "uint256",
          "name": "amount",
          "type": "uint256"
        }
      ],
      "name": "incrementBalanceOfStagedE",
      "outputs": [],
      "payable": false,
      "stateMutability": "nonpayable",
      "type": "function"
    },
    {
      "constant": false,
      "inputs": [],
      "name": "incrementEpochE",
      "outputs": [],
      "payable": false,
      "stateMutability": "nonpayable",
      "type": "function"
    },
    {
      "constant": false,
      "inputs": [
        {
          "internalType": "address",
          "name": "candidate",
          "type": "address"
        },
        {
          "internalType": "uint256",
          "name": "amount",
          "type": "uint256"
        }
      ],
      "name": "incrementRejectForE",
      "outputs": [],
      "payable": false,
      "stateMutability": "nonpayable",
      "type": "function"
    },
    {
      "constant": false,
      "inputs": [
        {
          "internalType": "uint256",
          "name": "amount",
          "type": "uint256"
        }
      ],
      "name": "incrementTotalBondedE",
      "outputs": [],
      "payable": false,
      "stateMutability": "nonpayable",
      "type": "function"
    },
    {
      "constant": false,
      "inputs": [
        {
          "internalType": "uint256",
          "name": "amount",
          "type": "uint256"
        }
      ],
      "name": "incrementTotalDebtE",
      "outputs": [],
      "payable": false,
      "stateMutability": "nonpayable",
      "type": "function"
    },
    {
      "constant": false,
      "inputs": [
        {
          "internalType": "uint256",
          "name": "amount",
          "type": "uint256"
        }
      ],
      "name": "incrementTotalRedeemableE",
      "outputs": [],
      "payable": false,
      "stateMutability": "nonpayable",
      "type": "function"
    },
    {
      "constant": false,
      "inputs": [
        {
          "internalType": "uint256",
          "name": "epoch",
          "type": "uint256"
        },
        {
          "internalType": "uint256",
          "name": "expiration",
          "type": "uint256"
        }
      ],
      "name": "initializeCouponsExpirationE",
      "outputs": [],
      "payable": false,
      "stateMutability": "nonpayable",
      "type": "function"
    },
    {
      "constant": false,
      "inputs": [
        {
          "internalType": "address",
          "name": "candidate",
          "type": "address"
        }
      ],
      "name": "initializedE",
      "outputs": [],
      "payable": false,
      "stateMutability": "nonpayable",
      "type": "function"
    },
    {
      "constant": true,
      "inputs": [
        {
          "internalType": "address",
          "name": "candidate",
          "type": "address"
        }
      ],
      "name": "isInitialized",
      "outputs": [
        {
          "internalType": "bool",
          "name": "",
          "type": "bool"
        }
      ],
      "payable": false,
      "stateMutability": "view",
      "type": "function"
    },
    {
      "constant": true,
      "inputs": [
        {
          "internalType": "address",
          "name": "candidate",
          "type": "address"
        }
      ],
      "name": "isNominated",
      "outputs": [
        {
          "internalType": "bool",
          "name": "",
          "type": "bool"
        }
      ],
      "payable": false,
      "stateMutability": "view",
      "type": "function"
    },
    {
      "constant": true,
      "inputs": [
        {
          "internalType": "address",
          "name": "account",
          "type": "address"
        }
      ],
      "name": "lockedUntil",
      "outputs": [
        {
          "internalType": "uint256",
          "name": "",
          "type": "uint256"
        }
      ],
      "payable": false,
      "stateMutability": "view",
      "type": "function"
    },
    {
      "constant": false,
      "inputs": [
        {
          "internalType": "address",
          "name": "account",
          "type": "address"
        },
        {
          "internalType": "uint256",
          "name": "amount",
          "type": "uint256"
        }
      ],
      "name": "mintToAccountE",
      "outputs": [],
      "payable": false,
      "stateMutability": "nonpayable",
      "type": "function"
    },
    {
      "constant": false,
      "inputs": [
        {
          "internalType": "address",
          "name": "account",
          "type": "address"
        },
        {
          "internalType": "uint256",
          "name": "amount",
          "type": "uint256"
        }
      ],
      "name": "mintToE",
      "outputs": [],
      "payable": false,
      "stateMutability": "nonpayable",
      "type": "function"
    },
    {
      "constant": true,
      "inputs": [],
      "name": "name",
      "outputs": [
        {
          "internalType": "string",
          "name": "",
          "type": "string"
        }
      ],
      "payable": false,
      "stateMutability": "view",
      "type": "function"
    },
    {
      "constant": true,
      "inputs": [],
      "name": "oracle",
      "outputs": [
        {
          "internalType": "contract IOracle",
          "name": "",
          "type": "address"
        }
      ],
      "payable": false,
      "stateMutability": "view",
      "type": "function"
    },
    {
      "constant": true,
      "inputs": [
        {
          "internalType": "uint256",
          "name": "epoch",
          "type": "uint256"
        }
      ],
      "name": "outstandingCoupons",
      "outputs": [
        {
          "internalType": "uint256",
          "name": "",
          "type": "uint256"
        }
      ],
      "payable": false,
      "stateMutability": "view",
      "type": "function"
    },
    {
      "constant": true,
      "inputs": [
        {
          "internalType": "address",
          "name": "candidate",
          "type": "address"
        }
      ],
      "name": "periodFor",
      "outputs": [
        {
          "internalType": "uint256",
          "name": "",
          "type": "uint256"
        }
      ],
      "payable": false,
      "stateMutability": "view",
      "type": "function"
    },
    {
      "constant": false,
      "inputs": [
        {
          "internalType": "address",
          "name": "account",
          "type": "address"
        },
        {
          "internalType": "address",
          "name": "candidate",
          "type": "address"
        }
      ],
      "name": "placeLockE",
      "outputs": [],
      "payable": false,
      "stateMutability": "nonpayable",
      "type": "function"
    },
    {
      "constant": true,
      "inputs": [],
      "name": "pool",
      "outputs": [
        {
          "internalType": "address",
          "name": "",
          "type": "address"
        }
      ],
      "payable": false,
      "stateMutability": "view",
      "type": "function"
    },
    {
      "constant": false,
      "inputs": [
        {
          "internalType": "address",
          "name": "account",
          "type": "address"
        },
        {
          "internalType": "address",
          "name": "candidate",
          "type": "address"
        },
        {
          "internalType": "enum Candidate.Vote",
          "name": "vote",
          "type": "uint8"
        }
      ],
      "name": "recordVoteE",
      "outputs": [],
      "payable": false,
      "stateMutability": "nonpayable",
      "type": "function"
    },
    {
      "constant": true,
      "inputs": [
        {
          "internalType": "address",
          "name": "account",
          "type": "address"
        },
        {
          "internalType": "address",
          "name": "candidate",
          "type": "address"
        }
      ],
      "name": "recordedVote",
      "outputs": [
        {
          "internalType": "enum Candidate.Vote",
          "name": "",
          "type": "uint8"
        }
      ],
      "payable": false,
      "stateMutability": "view",
      "type": "function"
    },
    {
      "constant": false,
      "inputs": [
        {
          "internalType": "address",
          "name": "account",
          "type": "address"
        },
        {
          "internalType": "uint256",
          "name": "amount",
          "type": "uint256"
        }
      ],
      "name": "redeemToAccountE",
      "outputs": [],
      "payable": false,
      "stateMutability": "nonpayable",
      "type": "function"
    },
    {
      "constant": true,
      "inputs": [
        {
          "internalType": "address",
          "name": "candidate",
          "type": "address"
        }
      ],
      "name": "rejectFor",
      "outputs": [
        {
          "internalType": "uint256",
          "name": "",
          "type": "uint256"
        }
      ],
      "payable": false,
      "stateMutability": "view",
      "type": "function"
    },
    {
      "constant": false,
      "inputs": [
        {
          "internalType": "uint256",
          "name": "percent",
          "type": "uint256"
        }
      ],
      "name": "resetDebtE",
      "outputs": [],
      "payable": false,
      "stateMutability": "nonpayable",
      "type": "function"
    },
    {
      "constant": false,
      "inputs": [
        {
          "internalType": "uint256",
          "name": "timestamp",
          "type": "uint256"
        }
      ],
      "name": "setBlockTimestamp",
      "outputs": [],
      "payable": false,
      "stateMutability": "nonpayable",
      "type": "function"
    },
    {
      "constant": false,
      "inputs": [
        {
          "internalType": "uint256",
          "name": "start",
          "type": "uint256"
        },
        {
          "internalType": "uint256",
          "name": "period",
          "type": "uint256"
        }
      ],
      "name": "setEpochParamsE",
      "outputs": [],
      "payable": false,
      "stateMutability": "nonpayable",
      "type": "function"
    },
    {
      "constant": false,
      "inputs": [],
      "name": "snapshotTotalBondedE",
      "outputs": [],
      "payable": false,
      "stateMutability": "nonpayable",
      "type": "function"
    },
    {
      "constant": true,
      "inputs": [
        {
          "internalType": "address",
          "name": "candidate",
          "type": "address"
        }
      ],
      "name": "startFor",
      "outputs": [
        {
          "internalType": "uint256",
          "name": "",
          "type": "uint256"
        }
      ],
      "payable": false,
      "stateMutability": "view",
      "type": "function"
    },
    {
      "constant": true,
      "inputs": [
        {
          "internalType": "address",
          "name": "account",
          "type": "address"
        }
      ],
      "name": "statusOf",
      "outputs": [
        {
          "internalType": "enum Account.Status",
          "name": "",
          "type": "uint8"
        }
      ],
      "payable": false,
      "stateMutability": "view",
      "type": "function"
    },
    {
      "constant": true,
      "inputs": [],
      "name": "symbol",
      "outputs": [
        {
          "internalType": "string",
          "name": "",
          "type": "string"
        }
      ],
      "payable": false,
      "stateMutability": "view",
      "type": "function"
    },
    {
      "constant": true,
      "inputs": [],
      "name": "totalBonded",
      "outputs": [
        {
          "internalType": "uint256",
          "name": "",
          "type": "uint256"
        }
      ],
      "payable": false,
      "stateMutability": "view",
      "type": "function"
    },
    {
      "constant": true,
      "inputs": [
        {
          "internalType": "uint256",
          "name": "epoch",
          "type": "uint256"
        }
      ],
      "name": "totalBondedAt",
      "outputs": [
        {
          "internalType": "uint256",
          "name": "",
          "type": "uint256"
        }
      ],
      "payable": false,
      "stateMutability": "view",
      "type": "function"
    },
    {
      "constant": true,
      "inputs": [],
      "name": "totalCoupons",
      "outputs": [
        {
          "internalType": "uint256",
          "name": "",
          "type": "uint256"
        }
      ],
      "payable": false,
      "stateMutability": "view",
      "type": "function"
    },
    {
      "constant": true,
      "inputs": [],
      "name": "totalDebt",
      "outputs": [
        {
          "internalType": "uint256",
          "name": "",
          "type": "uint256"
        }
      ],
      "payable": false,
      "stateMutability": "view",
      "type": "function"
    },
    {
      "constant": true,
      "inputs": [],
      "name": "totalNet",
      "outputs": [
        {
          "internalType": "uint256",
          "name": "",
          "type": "uint256"
        }
      ],
      "payable": false,
      "stateMutability": "view",
      "type": "function"
    },
    {
      "constant": true,
      "inputs": [],
      "name": "totalRedeemable",
      "outputs": [
        {
          "internalType": "uint256",
          "name": "",
          "type": "uint256"
        }
      ],
      "payable": false,
      "stateMutability": "view",
      "type": "function"
    },
    {
      "constant": true,
      "inputs": [],
      "name": "totalStaged",
      "outputs": [
        {
          "internalType": "uint256",
          "name": "",
          "type": "uint256"
        }
      ],
      "payable": false,
      "stateMutability": "view",
      "type": "function"
    },
    {
      "constant": true,
      "inputs": [],
      "name": "totalSupply",
      "outputs": [
        {
          "internalType": "uint256",
          "name": "",
          "type": "uint256"
        }
      ],
      "payable": false,
      "stateMutability": "view",
      "type": "function"
    },
    {
      "constant": false,
      "inputs": [
        {
          "internalType": "address",
          "name": "recipient",
          "type": "address"
        },
        {
          "internalType": "uint256",
          "name": "amount",
          "type": "uint256"
        }
      ],
      "name": "transfer",
      "outputs": [
        {
          "internalType": "bool",
          "name": "",
          "type": "bool"
        }
      ],
      "payable": false,
      "stateMutability": "nonpayable",
      "type": "function"
    },
    {
      "constant": false,
      "inputs": [
        {
          "internalType": "address",
          "name": "sender",
          "type": "address"
        },
        {
          "internalType": "address",
          "name": "recipient",
          "type": "address"
        },
        {
          "internalType": "uint256",
          "name": "amount",
          "type": "uint256"
        }
      ],
      "name": "transferFrom",
      "outputs": [
        {
          "internalType": "bool",
          "name": "",
          "type": "bool"
        }
      ],
      "payable": false,
      "stateMutability": "nonpayable",
      "type": "function"
    },
    {
      "constant": false,
      "inputs": [
        {
          "internalType": "address",
          "name": "account",
          "type": "address"
        }
      ],
      "name": "unfreezeE",
      "outputs": [],
      "payable": false,
      "stateMutability": "nonpayable",
      "type": "function"
    },
    {
      "constant": false,
      "inputs": [
        {
          "internalType": "address",
          "name": "owner",
          "type": "address"
        },
        {
          "internalType": "address",
          "name": "spender",
          "type": "address"
        },
        {
          "internalType": "uint256",
          "name": "amount",
          "type": "uint256"
        }
      ],
      "name": "updateAllowanceCouponsE",
      "outputs": [],
      "payable": false,
      "stateMutability": "nonpayable",
      "type": "function"
    },
    {
      "constant": true,
      "inputs": [
        {
          "internalType": "address",
          "name": "candidate",
          "type": "address"
        }
      ],
      "name": "votesFor",
      "outputs": [
        {
          "internalType": "uint256",
          "name": "",
          "type": "uint256"
        }
      ],
      "payable": false,
      "stateMutability": "view",
      "type": "function"
    },
    {
      "constant": false,
      "inputs": [],
      "name": "stepE",
      "outputs": [],
      "payable": false,
      "stateMutability": "nonpayable",
      "type": "function"
    },
    {
      "constant": true,
      "inputs": [
        {
          "internalType": "uint256",
          "name": "epoch",
          "type": "uint256"
        }
      ],
      "name": "bootstrappingAt",
      "outputs": [
        {
          "internalType": "bool",
          "name": "",
          "type": "bool"
        }
      ],
      "payable": false,
      "stateMutability": "view",
      "type": "function"
    }
  ],
  "bytecode": "0x60806040523480156200001157600080fd5b5060405162005073380380620050738339810160408190526200003491620000cd565b42600f5560405181906200004890620000ac565b604051809103906000f08015801562000065573d6000803e3d6000fd5b50600980546001600160a01b03199081166001600160a01b0393841617909155600b8054821693831693909317909255600a80549092169316929092179091555062000138565b611c04806200346f83390190565b8051620000c7816200011e565b92915050565b60008060408385031215620000e157600080fd5b6000620000ef8585620000ba565b92505060206200010285828601620000ba565b9150509250929050565b60006001600160a01b038216620000c7565b62000129816200010c565b81146200013557600080fd5b50565b61332780620001486000396000f3fe608060405234801561001057600080fd5b50600436106104805760003560e01c8063825ad60711610257578063b11ee0e311610146578063d60b347f116100c3578063f1b7cf4911610087578063f1b7cf49146109a9578063f35adf7e146109bc578063f7a31818146109c4578063fc7b9c18146109d7578063ffbe3b73146109df57610480565b8063d60b347f1461094f578063d6d8816d14610962578063d83d3ed514610975578063dd62ed3e14610988578063e0abdf661461099657610480565b8063c2aeb5fe1161010a578063c2aeb5fe146108fb578063c45a3e0a1461090e578063c9aff70c14610921578063cc8d823c14610934578063cf0237791461094757610480565b8063b11ee0e31461089c578063b16144a3146108af578063b32a2f90146108c2578063bc7513e2146108d5578063c1410c02146108e857610480565b80639be46493116101d4578063a6f37b5311610198578063a6f37b5314610850578063a9059cbb146104a3578063a9b3cf1514610863578063adbff2be14610876578063ae5c23811461088957610480565b80639be46493146107fc5780639f6e1b261461080f578063a00e14d114610822578063a50cd8e714610835578063a6c409f11461084857610480565b806395d89b411161021b57806395d89b41146107b357806397a5d5b5146107bb5780639a649edc146107ce5780639b82b49b146107d65780639bc289f1146107e957610480565b8063825ad6071461075f5780638413e52a1461077257806386cf9f14146107855780638de2e57314610798578063900cf0cf146107ab57610480565b80633fd4973c116103735780635f14fec8116102f057806371c511eb116102b457806371c511eb1461071657806372924d2a1461071e57806375d5024b146107315780637cb95a32146107445780637dc0d1d01461075757610480565b80635f14fec8146106b757806364668022146106ca5780636a39e328146106dd5780636b862d66146106f057806370a082311461070357610480565b80635053e461116103375780635053e4611461066c57806351adeb571461067457806351bf21d8146106895780635c60da1b1461069c5780635dbf800a146106a457610480565b80633fd4973c14610623578063416a23cc14610636578063438735261461063e57806344d96e95146106515780634c7360991461065957610480565b806320f6bc901161040157806332347422116103c557806332347422146105b7578063353a420c146105ca5780633a3e6c81146105dd5780633f7bcaf3146105f05780633fbba9a61461060357610480565b806320f6bc901461055657806323b872dd14610569578063259f7adf1461057c578063277805a91461058f578063313ce567146105a257610480565b806316f0115b1161044857806316f0115b1461050b57806318160ddd146105205780631a08e22a146105285780631edbcf6c1461053b5780631fac97321461054357610480565b806306fdde0314610485578063095ea7b3146104a35780630dc6d3a3146104c357806310e95b6c146104d857806315e14bf6146104f8575b600080fd5b61048d6109f2565b60405161049a919061310c565b60405180910390f35b6104b66104b1366004612d11565b610a23565b60405161049a91906130e2565b6104d66104d1366004612c93565b610a2c565b005b6104eb6104e6366004612e5e565b610a75565b60405161049a919061313d565b6104eb610506366004612bab565b610a8d565b610513610aab565b60405161049a9190613091565b6104eb610aba565b6104d6610536366004612ef0565b610ac0565b6104eb610ace565b6104d6610551366004612e5e565b610ad4565b6104d6610564366004612d11565b610ae0565b6104b6610577366004612c50565b610aea565b6104d661058a366004612e5e565b610af4565b6104d661059d366004612d11565b610afd565b6105aa610b89565b60405161049a919061318e565b6104d66105c5366004612e9a565b610b8e565b6104eb6105d8366004612bab565b610bce565b6104b66105eb366004612bab565b610bec565b6104d66105fe366004612c50565b610c09565b610616610611366004612bc9565b610c14565b60405161049a91906130fe565b6104d6610631366004612d41565b610c47565b6104d6610c8e565b6104d661064c366004612e5e565b610c98565b6104eb610ca1565b6104eb610667366004612ef0565b610ca7565b6104eb610cd7565b61067c610d2d565b60405161049a91906130f0565b6104eb610697366004612bab565b610d3c565b610513610d5a565b6104d66106b2366004612e5e565b610d7f565b6104d66106c5366004612d11565b610d88565b6104eb6106d8366004612bab565b610d92565b6104eb6106eb366004612e5e565b610db0565b6104d66106fe366004612da9565b610dc5565b6104eb610711366004612bab565b610dd0565b6104d6610dee565b6104d661072c366004612e9a565b610df6565b6104b661073f366004612e5e565b610e36565b6104d6610752366004612d41565b610e3d565b61067c610e7e565b6104eb61076d366004612bab565b610e8d565b6104d6610780366004612c03565b610ed9565b6104eb610793366004612bab565b610ee4565b6104d66107a6366004612e5e565b610eff565b6104eb610f08565b61048d610f0e565b6106166107c9366004612bab565b610f2c565b6104eb610f91565b6104d66107e4366004612e9a565b610f97565b6104eb6107f7366004612bab565b610fd7565b6104d661080a366004612bab565b610ff5565b6104eb61081d366004612bc9565b610ffe565b6104d6610830366004612ef0565b61102d565b6104eb610843366004612bab565b611038565b6104eb61105b565b6104d661085e366004612bab565b6110f1565b6104d6610871366004612e5e565b6110fa565b6104d6610884366004612d41565b611103565b6104d6610897366004612d11565b611144565b6104d66108aa366004612d11565b61114e565b6104d66108bd366004612e5e565b611158565b6104d66108d0366004612d41565b61116b565b6104eb6108e3366004612d11565b6111ac565b6104d66108f6366004612bc9565b6111f0565b6104d6610909366004612ddb565b6111fa565b6104d661091c366004612d11565b61123c565b6104eb61092f366004612e5e565b611246565b6104d6610942366004612d11565b61125b565b6104eb611265565b6104b661095d366004612bab565b61126b565b6104d6610970366004612e5e565b61128c565b6104d6610983366004612d11565b611295565b6104eb6104b1366004612bc9565b6104d66109a4366004612e5e565b61129f565b6104eb6109b7366004612bab565b6112a4565b6104d66112bf565b6104d66109d2366004612d11565b6112c7565b6104eb6112d1565b6104eb6109ed366004612e5e565b6112d7565b604080518082019091526016815275456d7074792053657420446f6c6c6172205374616b6560501b60208201525b90565b60005b92915050565b610a6e85858585858080601f0160208091040260200160405190810160405280939291908181526020018383808284376000920191909152506112e992505050565b5050505050565b6000818152600d60205260409020600201545b919050565b6001600160a01b03166000908152600e602052604090206001015490565b600b546001600160a01b031690565b60035490565b610aca828261135a565b5050565b60065490565b610add8161138c565b50565b610aca82826113d3565b60005b9392505050565b610add8161147d565b610b05610d2d565b6001600160a01b03166340c10f1983836040518363ffffffff1660e01b8152600401610b329291906130c7565b602060405180830381600087803b158015610b4c57600080fd5b505af1158015610b60573d6000803e3d6000fd5b505050506040513d601f19601f82011682018060405250610b849190810190612e10565b505050565b601290565b610b848383838080601f01602080910402602001604051908101604052809392919081815260200183838082843760009201919091525061149692505050565b6001600160a01b03166000908152600e602052604090206003015490565b6001600160a01b03166000908152600e6020526040902054151590565b610b848383836114b1565b6001600160a01b038082166000908152600e60209081526040808320938616835260049093019052205460ff1692915050565b610c88848484848080601f0160208091040260200160405190810160405280939291908181526020018383808284376000920191909152506114e192505050565b50505050565b610c96611532565b565b610aca816115ca565b60045490565b6000828152600d60205260408120600301805483908110610cc457fe5b9060005260206000200154905092915050565b6000610ce1612ac4565b610ce9611611565b9050610cf3612ac4565b610cfb611640565b90508160200151610d0a611670565b10610d1d57610d1882611676565b610d26565b610d2681611676565b9250505090565b6009546001600160a01b031690565b6001600160a01b03166000908152600c602052604090206004015490565b7f360894a13ba1a3210667c828492db98dca3e2076cc3735a920a3ca505d382bbc5490565b610add81611698565b610aca828261171f565b6001600160a01b03166000908152600e602052604090206002015490565b6000908152600d602052604090206003015490565b610b84838383611830565b6001600160a01b03166000908152600c602052604090206001015490565b610c966118d7565b610b848383838080601f0160208091040260200160405190810160405280939291908181526020018383808284376000920191909152506118fe92505050565b6005101590565b610c88848484848080601f01602080910402602001604051908101604052809392919081815260200183838082843760009201919091525061191992505050565b600a546001600160a01b031690565b600080610e98610aba565b905080610ea9576000915050610a88565b610aed81610ecd610eb986610dd0565b610ec1610ca1565b9063ffffffff61196a16565b9063ffffffff6119ad16565b610b848383836119ef565b6001600160a01b03166000908152600c602052604090205490565b610add81611a39565b60025490565b6040805180820190915260048152634553445360e01b602082015290565b6000610f36610f08565b6001600160a01b0383166000908152600c60205260409020600501541115610f6057506002610a88565b6001600160a01b0382166000908152600c6020526040902060040154610f84610f08565b1015610a23576001610a26565b60085490565b610b848383838080601f016020809104026020016040519081016040528093929190818152602001838380828437600092019190915250611a5292505050565b6001600160a01b03166000908152600c602052604090206005015490565b610add81611a6d565b6001600160a01b039182166000908152600c602090815260408083209390941682526003909201909152205490565b600091909155600155565b6000610a2661104683610bce565b61104f84610d92565b9063ffffffff611a9f16565b60006110ec6110686112d1565b611070610d2d565b6001600160a01b03166318160ddd6040518163ffffffff1660e01b815260040160206040518083038186803b1580156110a857600080fd5b505afa1580156110bc573d6000803e3d6000fd5b505050506040513d601f19601f820116820180604052506110e09190810190612e7c565b9063ffffffff611ac416565b905090565b610add81611b06565b610add81611b2d565b610c88848484848080601f016020809104026020016040519081016040528093929190818152602001838380828437600092019190915250611b7092505050565b610aca8282611c1b565b610aca8282611cc3565b610aca611166826064611d1f565b611d4e565b610c88848484848080601f016020809104026020016040519081016040528093929190818152602001838380828437600092019190915250611e2892505050565b60006111b782611246565b6111c357506000610a26565b506001600160a01b03919091166000908152600c6020908152604080832093835260029093019052205490565b610aca8282611e87565b610a6e85858585858080601f016020809104026020016040519081016040528093929190818152602001838380828437600092019190915250611ee792505050565b610aca8282611f92565b6000908152600d602052604090206001015490565b610aca828261203c565b60055490565b6001600160a01b03166000908152600e602052604090206005015460ff1690565b610add8161208b565b610aca82826120a4565b600f55565b6001600160a01b03166000908152600e602052604090205490565b610c966120d0565b610aca82826120e9565b60075490565b6000908152600d602052604090205490565b6001600160a01b038085166000908152600c60209081526040808320938716835260039093019052205461132490838363ffffffff61213816565b6001600160a01b039485166000908152600c60209081526040808320969097168252600390950190945293909220929092555050565b6000828152600d6020908152604080832060020184905592825291812060030180546001810182559082529190200155565b6113cb816040518060400160405280601c81526020017f436f6d7074726f6c6c65723a206e6f7420656e6f7567682064656274000000008152506118fe565b610add612164565b6113db610d2d565b6001600160a01b03166340c10f1983836040518363ffffffff1660e01b81526004016114089291906130c7565b602060405180830381600087803b15801561142257600080fd5b505af1158015611436573d6000803e3d6000fd5b505050506040513d601f19601f8201168201806040525061145a9190810190612e10565b5061146661073f610f08565b61147557611473816115ca565b505b610aca612164565b600454611490908263ffffffff611a9f16565b60045550565b6006546114aa90838363ffffffff61213816565b6006555050565b6001600160a01b039283166000908152600c60209081526040808320949095168252600390930190925291902055565b6001600160a01b0383166000908152600e602052604090206003015461150e90838363ffffffff61213816565b6001600160a01b039093166000908152600e60205260409020600301929092555050565b61153a612ae5565b611542612237565b905061155c61154f6122ff565b829063ffffffff61232116565b156115705761156a81612337565b50610c96565b61158861157b6122ff565b829063ffffffff6123ee16565b156115965761156a81612402565b61159e610f08565b6040517fff7db5a0dc69b02c191ba632db46961b7d0daa1bd30709ddba9b80ad0a15d2c090600090a250565b60006115d582611a39565b60006115e2611166612494565b90506115ec612164565b82811161160857611603838263ffffffff611ac416565b610aed565b50600092915050565b611619612ac4565b6040518060600160405280606a8152602001635f7fa8008152602001617080815250905090565b611648612ac4565b6040518060600160405280605b8152602001635f6be180815260200162015180815250905090565b600f5490565b6000610a26826000015161104f8460400151610ecd86602001516110e0611670565b6116a0610d2d565b6001600160a01b03166342966c68826040518263ffffffff1660e01b81526004016116cb919061313d565b600060405180830381600087803b1580156116e557600080fd5b505af11580156116f9573d6000803e3d6000fd5b505050506113cb816040518060600160405280602a81526020016132bb602a9139611496565b611727610d2d565b6001600160a01b03166323b872dd8330846040518463ffffffff1660e01b81526004016117569392919061309f565b602060405180830381600087803b15801561177057600080fd5b505af1158015611784573d6000803e3d6000fd5b505050506040513d601f19601f820116820180604052506117a89190810190612e10565b506117b1610d2d565b6001600160a01b03166342966c68826040518263ffffffff1660e01b81526004016117dc919061313d565b600060405180830381600087803b1580156117f657600080fd5b505af115801561180a573d6000803e3d6000fd5b5050505061147581604051806060016040528060288152602001613293602891396118fe565b6001600160a01b0383166000908152600c60209081526040808320858452600201909152902054611867908263ffffffff611a9f16565b6001600160a01b0384166000908152600c60209081526040808320868452600201825280832093909355600d905220600101546118aa908263ffffffff611a9f16565b6000838152600d60205260409020600101556008546118cf908263ffffffff611a9f16565b600855505050565b6118df610aba565b600d60006118eb610f08565b8152602081019190915260400160002055565b60075461191290838363ffffffff61213816565b6007555050565b6001600160a01b0383166000908152600e602052604090206002015461194690838363ffffffff61213816565b6001600160a01b039093166000908152600e60205260409020600201929092555050565b60008261197957506000610a26565b8282028284828161198657fe5b0414610aed5760405162461bcd60e51b81526004016119a49061312d565b60405180910390fd5b6000610aed83836040518060400160405280601a81526020017f536166654d6174683a206469766973696f6e206279207a65726f0000000000008152506124b6565b6001600160a01b038083166000908152600e6020908152604080832093871683526004909301905220805482919060ff19166001836002811115611a2f57fe5b0217905550505050565b600754611a4c908263ffffffff611a9f16565b60075550565b600454611a6690838363ffffffff61213816565b6004555050565b611a80611a786124ed565b61104f610f08565b6001600160a01b039091166000908152600c6020526040902060040155565b600082820183811015610aed5760405162461bcd60e51b81526004016119a49061311d565b6000610aed83836040518060400160405280601e81526020017f536166654d6174683a207375627472616374696f6e206f766572666c6f770000815250612138565b6001600160a01b03166000908152600e60205260409020600501805460ff19166001179055565b6000611b3882611246565b905080611b455750610add565b600854611b58908263ffffffff611ac416565b600855506000908152600d6020526040812060010155565b6001600160a01b0383166000908152600c6020526040902060010154611b9d90838363ffffffff61213816565b6001600160a01b0384166000908152600c6020526040902060010155600354611bcd90838363ffffffff61213816565b6003556040516000906001600160a01b038516907fddf252ad1be2c89b69c2b068fc378daa952ba7f163c4a11628f55a4df523b3ef90611c0e90869061313d565b60405180910390a3505050565b6001600160a01b0382166000908152600c6020526040902060010154611c47908263ffffffff611a9f16565b6001600160a01b0383166000908152600c6020526040902060010155600354611c76908263ffffffff611a9f16565b6003556040516001600160a01b038316906000907fddf252ad1be2c89b69c2b068fc378daa952ba7f163c4a11628f55a4df523b3ef90611cb790859061313d565b60405180910390a35050565b6001600160a01b0382166000908152600c6020526040902054611cec908263ffffffff611a9f16565b6001600160a01b0383166000908152600c6020526040902055600554611d18908263ffffffff611a9f16565b6005555050565b611d27612ae5565b6040518060200160405280611d4585670de0b6b3a7640000866124f2565b90529392505050565b600080611de1611ddc611d5f610d2d565b6001600160a01b03166318160ddd6040518163ffffffff1660e01b815260040160206040518083038186803b158015611d9757600080fd5b505afa158015611dab573d6000803e3d6000fd5b505050506040513d601f19601f82011682018060405250611dcf9190810190612e7c565b859063ffffffff61251016565b612537565b90506000611ded6112d1565b905081811115611e1e576000611e09828463ffffffff611ac416565b9050611e148161138c565b9250610a88915050565b5060009392505050565b6001600160a01b0383166000908152600c6020526040902054611e5290838363ffffffff61213816565b6001600160a01b0384166000908152600c6020526040902055600554611e7f90838363ffffffff61213816565b600555505050565b6001600160a01b0382166000908152600c602052604081206005015490611eb9611eb084610a8d565b61104f856112a4565b905081811115610c88576001600160a01b0384166000908152600c6020526040902060050181905550505050565b6001600160a01b0384166000908152600c60209081526040808320868452600201909152902054611f1f90838363ffffffff61213816565b6001600160a01b0385166000908152600c60209081526040808320878452600201825280832093909355600d90522060010154611f6390838363ffffffff61213816565b6000848152600d6020526040902060010155600854611f8990838363ffffffff61213816565b60085550505050565b611f9a610d2d565b6001600160a01b031663a9059cbb83836040518363ffffffff1660e01b8152600401611fc79291906130c7565b602060405180830381600087803b158015611fe157600080fd5b505af1158015611ff5573d6000803e3d6000fd5b505050506040513d601f19601f820116820180604052506120199190810190612e10565b50611475816040518060600160405280602a81526020016132bb602a9139611496565b6001600160a01b0382166000908152600e6020526040902060030154612068908263ffffffff611a9f16565b6001600160a01b039092166000908152600e602052604090206003019190915550565b60065461209e908263ffffffff611a9f16565b60065550565b6120ac610f08565b6001600160a01b039092166000908152600e60205260409020918255600190910155565b6002546120e490600163ffffffff611a9f16565b600255565b6001600160a01b0382166000908152600e6020526040902060020154612115908263ffffffff611a9f16565b6001600160a01b039092166000908152600e602052604090206002019190915550565b6000818484111561215c5760405162461bcd60e51b81526004016119a4919061310c565b505050900390565b610c96612185612172610ace565b61104f61217d611265565b61104f610ca1565b61218d610d2d565b6001600160a01b03166370a08231306040518263ffffffff1660e01b81526004016121b89190613091565b60206040518083038186803b1580156121d057600080fd5b505afa1580156121e4573d6000803e3d6000fd5b505050506040513d601f19601f820116820180604052506122089190810190612e7c565b10156a21b7b6b83a3937b63632b960a91b74496e636f6e73697374656e742062616c616e63657360581b612554565b61223f612ae5565b612247612ae5565b6000612251610e7e565b6001600160a01b031663d4a3e9d76040518163ffffffff1660e01b81526004016040805180830381600087803b15801561228a57600080fd5b505af115801561229e573d6000803e3d6000fd5b505050506040513d601f19601f820116820180604052506122c29190810190612e2e565b915091506122d661073f60016110e0610f08565b156122ec576122e36125a9565b92505050610a20565b806122f9576122e36122ff565b50905090565b612307612ae5565b506040805160208101909152670de0b6b3a7640000815290565b600061232d83836125cb565b6002149392505050565b60006123446111666125fd565b905061234e612ae5565b61236f61236961235c6122ff565b859063ffffffff61261816565b84612641565b9050600061238e611ddc61238161105b565b849063ffffffff61251016565b905060008061239c836126cc565b915091506123a8610f08565b86516040517f32fcaa1e76ed9517f4749d8ec9a77dd5e7329456d740b9bf9665d900eef5e283916123de9186908a908790613159565b60405180910390a2505050505050565b60006123fa83836125cb565b159392505050565b61240a612ae5565b61242b612425836124196122ff565b9063ffffffff61261816565b83612641565b9050600061243d611ddc61238161105b565b9050600061244a826115ca565b9050612454610f08565b84516040517f5e139d4b8080a4a00dcc151e8217694aeebae893936326aa22096924a99066779161248691859061314b565b60405180910390a250505050565b61249c612ae5565b506040805160208101909152670214e8348c4f0000815290565b600081836124d75760405162461bcd60e51b81526004016119a4919061310c565b5060008385816124e357fe5b0495945050505050565b600f90565b600061250882610ecd868663ffffffff61196a16565b949350505050565b612518612ae5565b604080516020810190915283518190611d45908563ffffffff61196a16565b8051600090610a2690670de0b6b3a764000063ffffffff6119ad16565b82610b845761256282612800565b6101d160f51b61257183612800565b60405160200161258393929190613060565b60408051601f198184030181529082905262461bcd60e51b82526119a49160040161310c565b6125b1612ae5565b506040805160208101909152670f43fc2c04ee0000815290565b8051825160009114156125e057506001610a26565b81518351116125f05760006125f3565b60025b60ff169392505050565b612605612ae5565b5060408051602081019091526000815290565b612620612ae5565b6040805160208101909152825184518291611d45919063ffffffff611ac416565b612649612ae5565b612651612ae5565b612659612880565b90506000612665610ace565b90506000612671610f91565b905061268b61267e6122ff565b869063ffffffff61232116565b801561269657508082105b156126a6576126a36128a1565b92505b6126b6868463ffffffff61232116565b6126c057856126c2565b825b9695505050505050565b60008060006126ee6064610ecd6126e16128c2565b879063ffffffff61196a16565b90506126f9816128c7565b6000612719612710610ecd61270c61295b565b889063ffffffff61196a16565b905061272481612960565b6000612736838363ffffffff611a9f16565b9050808611612746576000612756565b612756868263ffffffff611ac416565b9550600080612763610ace565b9050600061276f610f91565b9050808210156127b857612789818363ffffffff611ac416565b9250888311612798578261279a565b885b92506127a583612984565b6127b5898463ffffffff611ac416565b98505b6127c0610ca1565b6127c957600098505b88156127d8576127d889612a15565b6127e0612164565b826127f18a8663ffffffff611a9f16565b97509750505050505050915091565b60608082604051602001612814919061304b565b60408051601f19818403018152919052905060205b80156128695781516000199091019082908290811061284457fe5b01602001516001600160f81b031916156128645760010181529050610a88565b612829565b505060408051600081526020810190915292915050565b612888612ae5565b506040805160208101909152666a94d74f430000815290565b6128a9612ae5565b50604080516020810190915266d529ae9e860000815290565b601490565b8015610add576128d5610d2d565b6001600160a01b03166340c10f196128eb610aab565b836040518363ffffffff1660e01b81526004016129099291906130c7565b602060405180830381600087803b15801561292357600080fd5b505af1158015612937573d6000803e3d6000fd5b505050506040513d601f19601f82011682018060405250610aca9190810190612e10565b60fa90565b8015610add5761296e610d2d565b6001600160a01b03166340c10f196128eb612aac565b61298c610d2d565b6001600160a01b03166340c10f1930836040518363ffffffff1660e01b81526004016129b99291906130c7565b602060405180830381600087803b1580156129d357600080fd5b505af11580156129e7573d6000803e3d6000fd5b505050506040513d601f19601f82011682018060405250612a0b9190810190612e10565b506113cb8161208b565b8015610add57612a23610d2d565b6001600160a01b03166340c10f1930836040518363ffffffff1660e01b8152600401612a509291906130c7565b602060405180830381600087803b158015612a6a57600080fd5b505af1158015612a7e573d6000803e3d6000fd5b505050506040513d601f19601f82011682018060405250612aa29190810190612e10565b50610add8161147d565b73460661bd4a5364a3abcc9cfc4a8ce7038d05ea2290565b60405180606001604052806000815260200160008152602001600081525090565b6040518060200160405280600081525090565b8035610a268161325f565b8051610a2681613273565b8035610a268161327c565b60008083601f840112612b2b57600080fd5b50813567ffffffffffffffff811115612b4357600080fd5b602083019150836001820283011115612b5b57600080fd5b9250929050565b600060208284031215612b7457600080fd5b612b7e602061319c565b90506000612b8c8484612ba0565b82525092915050565b8035610a2681613289565b8051610a2681613289565b600060208284031215612bbd57600080fd5b60006125088484612af8565b60008060408385031215612bdc57600080fd5b6000612be88585612af8565b9250506020612bf985828601612af8565b9150509250929050565b600080600060608486031215612c1857600080fd5b6000612c248686612af8565b9350506020612c3586828701612af8565b9250506040612c4686828701612b0e565b9150509250925092565b600080600060608486031215612c6557600080fd5b6000612c718686612af8565b9350506020612c8286828701612af8565b9250506040612c4686828701612b95565b600080600080600060808688031215612cab57600080fd5b6000612cb78888612af8565b9550506020612cc888828901612af8565b9450506040612cd988828901612b95565b935050606086013567ffffffffffffffff811115612cf657600080fd5b612d0288828901612b19565b92509250509295509295909350565b60008060408385031215612d2457600080fd5b6000612d308585612af8565b9250506020612bf985828601612b95565b60008060008060608587031215612d5757600080fd5b6000612d638787612af8565b9450506020612d7487828801612b95565b935050604085013567ffffffffffffffff811115612d9157600080fd5b612d9d87828801612b19565b95989497509550505050565b600080600060608486031215612dbe57600080fd5b6000612dca8686612af8565b9350506020612c8286828701612b95565b600080600080600060808688031215612df357600080fd5b6000612dff8888612af8565b9550506020612cc888828901612b95565b600060208284031215612e2257600080fd5b60006125088484612b03565b60008060408385031215612e4157600080fd5b6000612e4d8585612b62565b9250506020612bf985828601612b03565b600060208284031215612e7057600080fd5b60006125088484612b95565b600060208284031215612e8e57600080fd5b60006125088484612ba0565b600080600060408486031215612eaf57600080fd5b6000612ebb8686612b95565b935050602084013567ffffffffffffffff811115612ed857600080fd5b612ee486828701612b19565b92509250509250925092565b60008060408385031215612f0357600080fd5b6000612d308585612b95565b612f18816131d0565b82525050565b612f18816131db565b612f18612f33826131e0565b610a20565b612f18612f3382610a20565b6000612f4f826131c3565b612f598185610a88565b9350612f6981856020860161321f565b9290920192915050565b612f1881613209565b612f1881613214565b6000612f90826131c3565b612f9a81856131c7565b9350612faa81856020860161321f565b612fb38161324b565b9093019392505050565b6000612fca601b836131c7565b7f536166654d6174683a206164646974696f6e206f766572666c6f770000000000815260200192915050565b60006130036021836131c7565b7f536166654d6174683a206d756c7469706c69636174696f6e206f766572666c6f8152607760f81b602082015260400192915050565b612f1881610a20565b612f1881613203565b60006130578284612f38565b50602001919050565b600061306c8286612f44565b91506130788285612f27565b6002820191506130888284612f44565b95945050505050565b60208101610a268284612f0f565b606081016130ad8286612f0f565b6130ba6020830185612f0f565b6125086040830184613039565b604081016130d58285612f0f565b610aed6020830184613039565b60208101610a268284612f1e565b60208101610a268284612f73565b60208101610a268284612f7c565b60208082528101610aed8184612f85565b60208082528101610a2681612fbd565b60208082528101610a2681612ff6565b60208101610a268284613039565b604081016130d58285613039565b608081016131678287613039565b6131746020830186613039565b6131816040830185613039565b6130886060830184613039565b60208101610a268284613042565b60405181810167ffffffffffffffff811182821017156131bb57600080fd5b604052919050565b5190565b90815260200190565b6000610a26826131f7565b151590565b6001600160f01b03191690565b80610a8881613255565b6001600160a01b031690565b60ff1690565b6000610a26826131d0565b6000610a26826131ed565b60005b8381101561323a578181015183820152602001613222565b83811115610c885750506000910152565b601f01601f191690565b60038110610add57fe5b613268816131d0565b8114610add57600080fd5b613268816131db565b60038110610add57600080fd5b61326881610a2056fe436f6d7074726f6c6c65723a206e6f7420656e6f756768206f75747374616e64696e672064656274436f6d7074726f6c6c65723a206e6f7420656e6f7567682072656465656d61626c652062616c616e6365a365627a7a72315820aa399ea71da5acb1f5217da5203b9b8ddf3f1eba4e14ac0523d530b2f3d237376c6578706572696d656e74616cf564736f6c6343000511004060806040523480156200001157600080fd5b506040518060400160405280601081526020016f22b6b83a3c9029b2ba102237b63630b960811b815250604051806040016040528060038152602001621154d160ea1b81525060126200007c6200006d6200011760201b60201c565b6001600160e01b036200011c16565b82516200009190600190602086019062000311565b508151620000a790600290602085019062000311565b506003805460ff191660ff92909216919091179055506200010e9050620000cd6200016e565b604051806040016040528060018152602001603160f81b815250620000fc6200020760201b620016341760201c565b306200020c60201b620016391760201c565b60075562000467565b335b90565b620001378160006200026360201b62000d7e1790919060201c565b6040516001600160a01b038216907f6ae172837ea30b801fbfcdd4108aa1d5bf8ff775444fd70256b44e6bf3dfc3f690600090a250565b60018054604080516020601f60026000196101008789161502019095169490940493840181900481028201810190925282815260609390929091830182828015620001fd5780601f10620001d157610100808354040283529160200191620001fd565b820191906000526020600020905b815481529060010190602001808311620001df57829003601f168201915b5050505050905090565b600190565b8351602094850120835193850193909320604080517f8b73c3c69bb8fe3d512ecc4cf759cc79239f7b179b0ffacaa9a75d522b39400f815295860194909452928401929092526060830152608082015260a0902090565b6200027882826001600160e01b03620002c616565b15620002a15760405162461bcd60e51b8152600401620002989062000434565b60405180910390fd5b6001600160a01b0316600090815260209190915260409020805460ff19166001179055565b60006001600160a01b038216620002f15760405162461bcd60e51b815260040162000298906200044c565b506001600160a01b03166000908152602091909152604090205460ff1690565b828054600181600116156101000203166002900490600052602060002090601f016020900481019282601f106200035457805160ff191683800117855562000384565b8280016001018555821562000384579182015b828111156200038457825182559160200191906001019062000367565b506200039292915062000396565b5090565b6200011991905b808211156200039257600081556001016200039d565b6000620003c2601f836200045e565b7f526f6c65733a206163636f756e7420616c72656164792068617320726f6c6500815260200192915050565b6000620003fd6022836200045e565b7f526f6c65733a206163636f756e7420697320746865207a65726f206164647265815261737360f01b602082015260400192915050565b602080825281016200044681620003b3565b92915050565b602080825281016200044681620003ee565b90815260200190565b61178d80620004776000396000f3fe608060405234801561001057600080fd5b506004361061012c5760003560e01c806395d89b41116100ad578063aa271e1a11610071578063aa271e1a14610256578063d505accf14610269578063dab400f31461027c578063dd62ed3e14610284578063e879c19f146102975761012c565b806395d89b411461020d578063983b2d56146102155780639865027514610228578063a457c2d714610230578063a9059cbb146102435761012c565b806339509351116100f457806339509351146101ac57806340c10f19146101bf57806342966c68146101d257806370a08231146101e757806379cc6790146101fa5761012c565b806306fdde0314610131578063095ea7b31461014f57806318160ddd1461016f57806323b872dd14610184578063313ce56714610197575b600080fd5b61013961029f565b60405161014691906114c6565b60405180910390f35b61016261015d366004610ffc565b610334565b604051610146919061141b565b610177610352565b6040516101469190611429565b610162610192366004610f13565b610358565b61019f6103ca565b6040516101469190611587565b6101626101ba366004610ffc565b6103d3565b6101626101cd366004610ffc565b610427565b6101e56101e036600461102c565b610463565b005b6101776101f5366004610eb3565b610477565b6101e5610208366004610ffc565b610496565b6101396104a4565b6101e5610223366004610eb3565b610502565b6101e5610532565b61016261023e366004610ffc565b610544565b610162610251366004610ffc565b6105b2565b610162610264366004610eb3565b6105c6565b6101e5610277366004610f60565b6105d8565b61017761075f565b610177610292366004610ed9565b610765565b610177610790565b60018054604080516020601f6002600019610100878916150201909516949094049384018190048102820181019092528281526060939092909183018282801561032a5780601f106102ff5761010080835404028352916020019161032a565b820191906000526020600020905b81548152906001019060200180831161030d57829003601f168201915b5050505050905090565b60006103486103416107b4565b84846107b8565b5060015b92915050565b60065490565b600061036584848461086c565b600019610374856102926107b4565b146103c0576103c0846103856107b4565b6103bb856040518060600160405280602981526020016116fd602991396103ae8a6102926107b4565b919063ffffffff61098216565b6107b8565b5060019392505050565b60035460ff1690565b60006103486103e06107b4565b846103bb85600560006103f16107b4565b6001600160a01b03908116825260208083019390935260409182016000908120918c16815292529020549063ffffffff6109ae16565b60006104346102646107b4565b6104595760405162461bcd60e51b815260040161045090611517565b60405180910390fd5b61034883836109da565b61047461046e6107b4565b82610a9a565b50565b6001600160a01b0381166000908152600460205260409020545b919050565b6104a08282610b70565b5050565b60028054604080516020601f600019610100600187161502019094168590049384018190048102820181019092528281526060939092909183018282801561032a5780601f106102ff5761010080835404028352916020019161032a565b61050d6102646107b4565b6105295760405162461bcd60e51b815260040161045090611517565b61047481610beb565b61054261053d6107b4565b610c33565b565b60006103486105516107b4565b846103bb85604051806060016040528060258152602001611726602591396005600061057b6107b4565b6001600160a01b03908116825260208083019390935260409182016000908120918d1681529252902054919063ffffffff61098216565b60006103486105bf6107b4565b848461086c565b600061034c818363ffffffff610c7b16565b6007546001600160a01b03881660009081526008602090815260408083208054600181019091559051929361065a93909261063f927f6e71edae12b1b97f4d1f60370fef10105fa2faae0126114a169c64845d6126c9928e928e928e9290918e9101611437565b60405160208183030381529060405280519060200120610cc3565b90506000600182868686604051600081526020016040526040516106819493929190611491565b6020604051602081039080840390855afa1580156106a3573d6000803e3d6000fd5b5050506020604051035190506106f0896001600160a01b0316826001600160a01b0316146a5065726d69747461626c6560a81b70496e76616c6964207369676e617475726560781b610ce2565b6107236001600160a01b03821615156a5065726d69747461626c6560a81b6b5a65726f206164647265737360a01b610ce2565b610749864211156a5065726d69747461626c6560a81b66115e1c1a5c995960ca1b610ce2565b6107548989896107b8565b505050505050505050565b60075481565b6001600160a01b03918216600090815260056020908152604080832093909416825291909152205490565b7f6e71edae12b1b97f4d1f60370fef10105fa2faae0126114a169c64845d6126c981565b3390565b6001600160a01b0383166107de5760405162461bcd60e51b815260040161045090611567565b6001600160a01b0382166108045760405162461bcd60e51b8152600401610450906114f7565b6001600160a01b0380841660008181526005602090815260408083209487168084529490915290819020849055517f8c5be1e5ebec7d5bd14f71427d1e84f3dd0314c0f7b2291e5b200ac8c7c3b9259061085f908590611429565b60405180910390a3505050565b6001600160a01b0383166108925760405162461bcd60e51b815260040161045090611557565b6001600160a01b0382166108b85760405162461bcd60e51b8152600401610450906114d7565b6108fb816040518060600160405280602681526020016116b3602691396001600160a01b038616600090815260046020526040902054919063ffffffff61098216565b6001600160a01b038085166000908152600460205260408082209390935590841681522054610930908263ffffffff6109ae16565b6001600160a01b0380841660008181526004602052604090819020939093559151908516907fddf252ad1be2c89b69c2b068fc378daa952ba7f163c4a11628f55a4df523b3ef9061085f908590611429565b600081848411156109a65760405162461bcd60e51b815260040161045091906114c6565b505050900390565b6000828201838110156109d35760405162461bcd60e51b815260040161045090611507565b9392505050565b6001600160a01b038216610a005760405162461bcd60e51b815260040161045090611577565b600654610a13908263ffffffff6109ae16565b6006556001600160a01b038216600090815260046020526040902054610a3f908263ffffffff6109ae16565b6001600160a01b0383166000818152600460205260408082209390935591519091907fddf252ad1be2c89b69c2b068fc378daa952ba7f163c4a11628f55a4df523b3ef90610a8e908590611429565b60405180910390a35050565b6001600160a01b038216610ac05760405162461bcd60e51b815260040161045090611547565b610b0381604051806060016040528060228152602001611691602291396001600160a01b038516600090815260046020526040902054919063ffffffff61098216565b6001600160a01b038316600090815260046020526040902055600654610b2f908263ffffffff610d3c16565b6006556040516000906001600160a01b038416907fddf252ad1be2c89b69c2b068fc378daa952ba7f163c4a11628f55a4df523b3ef90610a8e908590611429565b610b7a8282610a9a565b6104a082610b866107b4565b6103bb846040518060600160405280602481526020016116d9602491396001600160a01b038816600090815260056020526040812090610bc46107b4565b6001600160a01b03168152602081019190915260400160002054919063ffffffff61098216565b610bfc60008263ffffffff610d7e16565b6040516001600160a01b038216907f6ae172837ea30b801fbfcdd4108aa1d5bf8ff775444fd70256b44e6bf3dfc3f690600090a250565b610c4460008263ffffffff610dca16565b6040516001600160a01b038216907fe94479a9f7e1952cc78f2d6baab678adc1b772d936c6583def489e524cb6669290600090a250565b60006001600160a01b038216610ca35760405162461bcd60e51b815260040161045090611537565b506001600160a01b03166000908152602091909152604090205460ff1690565b60405161190160f01b8152600281019290925260228201526042902090565b82610d3757610cf082610e12565b6101d160f51b610cff83610e12565b604051602001610d11939291906113ea565b60408051601f198184030181529082905262461bcd60e51b8252610450916004016114c6565b505050565b60006109d383836040518060400160405280601e81526020017f536166654d6174683a207375627472616374696f6e206f766572666c6f770000815250610982565b610d888282610c7b565b15610da55760405162461bcd60e51b8152600401610450906114e7565b6001600160a01b0316600090815260209190915260409020805460ff19166001179055565b610dd48282610c7b565b610df05760405162461bcd60e51b815260040161045090611527565b6001600160a01b0316600090815260209190915260409020805460ff19169055565b60608082604051602001610e2691906113d5565b60408051601f19818403018152919052905060205b8015610e7b57815160001990910190829082908110610e5657fe5b01602001516001600160f81b03191615610e765760010181529050610491565b610e3b565b505060408051600081526020810190915292915050565b803561034c8161160e565b803561034c81611622565b803561034c8161162b565b600060208284031215610ec557600080fd5b6000610ed18484610e92565b949350505050565b60008060408385031215610eec57600080fd5b6000610ef88585610e92565b9250506020610f0985828601610e92565b9150509250929050565b600080600060608486031215610f2857600080fd5b6000610f348686610e92565b9350506020610f4586828701610e92565b9250506040610f5686828701610e9d565b9150509250925092565b600080600080600080600060e0888a031215610f7b57600080fd5b6000610f878a8a610e92565b9750506020610f988a828b01610e92565b9650506040610fa98a828b01610e9d565b9550506060610fba8a828b01610e9d565b9450506080610fcb8a828b01610ea8565b93505060a0610fdc8a828b01610e9d565b92505060c0610fed8a828b01610e9d565b91505092959891949750929550565b6000806040838503121561100f57600080fd5b600061101b8585610e92565b9250506020610f0985828601610e9d565b60006020828403121561103e57600080fd5b6000610ed18484610e9d565b611053816115a2565b82525050565b611053816115ad565b61105361106e826115b2565b6115bf565b611053816115bf565b61105361106e826115bf565b600061109382611595565b61109d8185610491565b93506110ad8185602086016115d4565b9290920192915050565b60006110c282611595565b6110cc8185611599565b93506110dc8185602086016115d4565b6110e581611604565b9093019392505050565b60006110fc602383611599565b7f45524332303a207472616e7366657220746f20746865207a65726f206164647281526265737360e81b602082015260400192915050565b6000611141601f83611599565b7f526f6c65733a206163636f756e7420616c72656164792068617320726f6c6500815260200192915050565b600061117a602283611599565b7f45524332303a20617070726f766520746f20746865207a65726f206164647265815261737360f01b602082015260400192915050565b60006111be601b83611599565b7f536166654d6174683a206164646974696f6e206f766572666c6f770000000000815260200192915050565b60006111f7603083611599565b7f4d696e746572526f6c653a2063616c6c657220646f6573206e6f74206861766581526f20746865204d696e74657220726f6c6560801b602082015260400192915050565b6000611249602183611599565b7f526f6c65733a206163636f756e7420646f6573206e6f74206861766520726f6c8152606560f81b602082015260400192915050565b600061128c602283611599565b7f526f6c65733a206163636f756e7420697320746865207a65726f206164647265815261737360f01b602082015260400192915050565b60006112d0602183611599565b7f45524332303a206275726e2066726f6d20746865207a65726f206164647265738152607360f81b602082015260400192915050565b6000611313602583611599565b7f45524332303a207472616e736665722066726f6d20746865207a65726f206164815264647265737360d81b602082015260400192915050565b600061135a602483611599565b7f45524332303a20617070726f76652066726f6d20746865207a65726f206164648152637265737360e01b602082015260400192915050565b60006113a0601f83611599565b7f45524332303a206d696e7420746f20746865207a65726f206164647265737300815260200192915050565b611053816115ce565b60006113e1828461107c565b50602001919050565b60006113f68286611088565b91506114028285611062565b6002820191506114128284611088565b95945050505050565b6020810161034c8284611059565b6020810161034c8284611073565b60c081016114458289611073565b611452602083018861104a565b61145f604083018761104a565b61146c6060830186611073565b6114796080830185611073565b61148660a0830184611073565b979650505050505050565b6080810161149f8287611073565b6114ac60208301866113cc565b6114b96040830185611073565b6114126060830184611073565b602080825281016109d381846110b7565b6020808252810161034c816110ef565b6020808252810161034c81611134565b6020808252810161034c8161116d565b6020808252810161034c816111b1565b6020808252810161034c816111ea565b6020808252810161034c8161123c565b6020808252810161034c8161127f565b6020808252810161034c816112c3565b6020808252810161034c81611306565b6020808252810161034c8161134d565b6020808252810161034c81611393565b6020810161034c82846113cc565b5190565b90815260200190565b600061034c826115c2565b151590565b6001600160f01b03191690565b90565b6001600160a01b031690565b60ff1690565b60005b838110156115ef5781810151838201526020016115d7565b838111156115fe576000848401525b50505050565b601f01601f191690565b611617816115a2565b811461047457600080fd5b611617816115bf565b611617816115ce565b600190565b8351602094850120835193850193909320604080517f8b73c3c69bb8fe3d512ecc4cf759cc79239f7b179b0ffacaa9a75d522b39400f815295860194909452928401929092526060830152608082015260a090209056fe45524332303a206275726e20616d6f756e7420657863656564732062616c616e636545524332303a207472616e7366657220616d6f756e7420657863656564732062616c616e636545524332303a206275726e20616d6f756e74206578636565647320616c6c6f77616e6365446f6c6c61723a207472616e7366657220616d6f756e74206578636565647320616c6c6f77616e636545524332303a2064656372656173656420616c6c6f77616e63652062656c6f77207a65726fa365627a7a72315820f7403c655392b44fbcfb74318820fd8b78c3f3372ffc8490217bf8b272c7e0f76c6578706572696d656e74616cf564736f6c63430005110040",
  "source": "/*\n    Copyright 2020 Empty Set Squad <emptysetsquad@protonmail.com>\n\n    Licensed under the Apache License, Version 2.0 (the \"License\");\n    you may not use this file except in compliance with the License.\n    You may obtain a copy of the License at\n\n    http://www.apache.org/licenses/LICENSE-2.0\n\n    Unless required by applicable law or agreed to in writing, software\n    distributed under the License is distributed on an \"AS IS\" BASIS,\n    WITHOUT WARRANTIES OR CONDITIONS OF ANY KIND, either express or implied.\n    See the License for the specific language governing permissions and\n    limitations under the License.\n*/\n\npragma solidity ^0.5.17;\npragma experimental ABIEncoderV2;\n\nimport \"../dao/Regulator.sol\";\nimport \"../oracle/IOracle.sol\";\nimport \"./MockComptroller.sol\";\nimport \"./MockState.sol\";\n\ncontract MockRegulator is MockComptroller, Regulator {\n    constructor (address oracle, address pool) MockComptroller(pool) public {\n        _state.provider.oracle = IOracle(oracle);\n    }\n\n    function stepE() external {\n        super.step();\n    }\n\n    function bootstrappingAt(uint256 epoch) public view returns (bool) {\n        return epoch <= 5;\n    }\n}\n",
  "sourcePath": "/Users/sachin/code/dollar/contracts/mock/MockRegulator.sol",
  "compiler": {
    "name": "solc",
    "version": "0.5.17+commit.d19bba13.Emscripten.clang"
  },
  "schemaVersion": "3.3.3",
  "updatedAt": "2021-01-01T20:54:00.177Z",
  "devdoc": {
    "methods": {}
  },
  "userdoc": {
    "methods": {
      "balanceOfStaged(address)": {
        "notice": "Account"
      },
      "createCandidateE(address,uint256)": {
        "notice": "Governance"
      },
      "dollar()": {
        "notice": "Global"
      },
      "epoch()": {
        "notice": "Epoch"
      },
      "incrementBalanceOfE(address,uint256)": {
        "notice": "Account"
      },
      "incrementTotalBondedE(uint256)": {
        "notice": "Global"
      },
      "name()": {
        "notice": "ERC20 Interface"
      },
      "recordedVote(address,address)": {
        "notice": "Governance"
      },
      "setBlockTimestamp(uint256)": {
        "notice": "Mock"
      },
      "setEpochParamsE(uint256,uint256)": {
        "notice": "Epoch"
      },
      "transfer(address,uint256)": {
        "notice": "ERC20 Interface"
      }
    }
  }
}