{
  "contractName": "Pool",
  "abi": [
    {
      "inputs": [],
      "payable": false,
      "stateMutability": "nonpayable",
      "type": "constructor"
    },
    {
      "anonymous": false,
      "inputs": [
        {
          "indexed": true,
          "internalType": "address",
          "name": "account",
          "type": "address"
        },
        {
          "indexed": false,
          "internalType": "uint256",
          "name": "start",
          "type": "uint256"
        },
        {
          "indexed": false,
          "internalType": "uint256",
          "name": "value",
          "type": "uint256"
        }
      ],
      "name": "Bond",
      "type": "event"
    },
    {
      "anonymous": false,
      "inputs": [
        {
          "indexed": true,
          "internalType": "address",
          "name": "account",
          "type": "address"
        },
        {
          "indexed": false,
          "internalType": "uint256",
          "name": "value",
          "type": "uint256"
        }
      ],
      "name": "Claim",
      "type": "event"
    },
    {
      "anonymous": false,
      "inputs": [
        {
          "indexed": true,
          "internalType": "address",
          "name": "account",
          "type": "address"
        },
        {
          "indexed": false,
          "internalType": "uint256",
          "name": "value",
          "type": "uint256"
        }
      ],
      "name": "Deposit",
      "type": "event"
    },
    {
      "anonymous": false,
      "inputs": [
        {
          "indexed": true,
          "internalType": "address",
          "name": "account",
          "type": "address"
        },
        {
          "indexed": false,
          "internalType": "uint256",
          "name": "value",
          "type": "uint256"
        },
        {
          "indexed": false,
          "internalType": "uint256",
          "name": "lessUsdc",
          "type": "uint256"
        },
        {
          "indexed": false,
          "internalType": "uint256",
          "name": "newUniv2",
          "type": "uint256"
        }
      ],
      "name": "Provide",
      "type": "event"
    },
    {
      "anonymous": false,
      "inputs": [
        {
          "indexed": true,
          "internalType": "address",
          "name": "account",
          "type": "address"
        },
        {
          "indexed": false,
          "internalType": "uint256",
          "name": "start",
          "type": "uint256"
        },
        {
          "indexed": false,
          "internalType": "uint256",
          "name": "value",
          "type": "uint256"
        },
        {
          "indexed": false,
          "internalType": "uint256",
          "name": "newClaimable",
          "type": "uint256"
        }
      ],
      "name": "Unbond",
      "type": "event"
    },
    {
      "anonymous": false,
      "inputs": [
        {
          "indexed": true,
          "internalType": "address",
          "name": "account",
          "type": "address"
        },
        {
          "indexed": false,
          "internalType": "uint256",
          "name": "value",
          "type": "uint256"
        }
      ],
      "name": "Withdraw",
      "type": "event"
    },
    {
      "constant": true,
      "inputs": [
        {
          "internalType": "address",
          "name": "account",
          "type": "address"
        }
      ],
      "name": "balanceOfBonded",
      "outputs": [
        {
          "internalType": "uint256",
          "name": "",
          "type": "uint256"
        }
      ],
      "payable": false,
      "stateMutability": "view",
      "type": "function"
    },
    {
      "constant": true,
      "inputs": [
        {
          "internalType": "address",
          "name": "account",
          "type": "address"
        }
      ],
      "name": "balanceOfClaimable",
      "outputs": [
        {
          "internalType": "uint256",
          "name": "",
          "type": "uint256"
        }
      ],
      "payable": false,
      "stateMutability": "view",
      "type": "function"
    },
    {
      "constant": true,
      "inputs": [
        {
          "internalType": "address",
          "name": "account",
          "type": "address"
        }
      ],
      "name": "balanceOfPhantom",
      "outputs": [
        {
          "internalType": "uint256",
          "name": "",
          "type": "uint256"
        }
      ],
      "payable": false,
      "stateMutability": "view",
      "type": "function"
    },
    {
      "constant": true,
      "inputs": [
        {
          "internalType": "address",
          "name": "account",
          "type": "address"
        }
      ],
      "name": "balanceOfRewarded",
      "outputs": [
        {
          "internalType": "uint256",
          "name": "",
          "type": "uint256"
        }
      ],
      "payable": false,
      "stateMutability": "view",
      "type": "function"
    },
    {
      "constant": true,
      "inputs": [
        {
          "internalType": "address",
          "name": "account",
          "type": "address"
        }
      ],
      "name": "balanceOfStaged",
      "outputs": [
        {
          "internalType": "uint256",
          "name": "",
          "type": "uint256"
        }
      ],
      "payable": false,
      "stateMutability": "view",
      "type": "function"
    },
    {
      "constant": true,
      "inputs": [],
      "name": "dao",
      "outputs": [
        {
          "internalType": "contract IDAO",
          "name": "",
          "type": "address"
        }
      ],
      "payable": false,
      "stateMutability": "view",
      "type": "function"
    },
    {
      "constant": true,
      "inputs": [],
      "name": "dollar",
      "outputs": [
        {
          "internalType": "contract IDollar",
          "name": "",
          "type": "address"
        }
      ],
      "payable": false,
      "stateMutability": "view",
      "type": "function"
    },
    {
      "constant": true,
      "inputs": [],
      "name": "paused",
      "outputs": [
        {
          "internalType": "bool",
          "name": "",
          "type": "bool"
        }
      ],
      "payable": false,
      "stateMutability": "view",
      "type": "function"
    },
    {
      "constant": true,
      "inputs": [
        {
          "internalType": "address",
          "name": "account",
          "type": "address"
        }
      ],
      "name": "statusOf",
      "outputs": [
        {
          "internalType": "enum PoolAccount.Status",
          "name": "",
          "type": "uint8"
        }
      ],
      "payable": false,
      "stateMutability": "view",
      "type": "function"
    },
    {
      "constant": true,
      "inputs": [],
      "name": "totalBonded",
      "outputs": [
        {
          "internalType": "uint256",
          "name": "",
          "type": "uint256"
        }
      ],
      "payable": false,
      "stateMutability": "view",
      "type": "function"
    },
    {
      "constant": true,
      "inputs": [],
      "name": "totalClaimable",
      "outputs": [
        {
          "internalType": "uint256",
          "name": "",
          "type": "uint256"
        }
      ],
      "payable": false,
      "stateMutability": "view",
      "type": "function"
    },
    {
      "constant": true,
      "inputs": [],
      "name": "totalPhantom",
      "outputs": [
        {
          "internalType": "uint256",
          "name": "",
          "type": "uint256"
        }
      ],
      "payable": false,
      "stateMutability": "view",
      "type": "function"
    },
    {
      "constant": true,
      "inputs": [],
      "name": "totalRewarded",
      "outputs": [
        {
          "internalType": "uint256",
          "name": "",
          "type": "uint256"
        }
      ],
      "payable": false,
      "stateMutability": "view",
      "type": "function"
    },
    {
      "constant": true,
      "inputs": [],
      "name": "totalStaged",
      "outputs": [
        {
          "internalType": "uint256",
          "name": "",
          "type": "uint256"
        }
      ],
      "payable": false,
      "stateMutability": "view",
      "type": "function"
    },
    {
      "constant": true,
      "inputs": [],
      "name": "univ2",
      "outputs": [
        {
          "internalType": "contract IERC20",
          "name": "",
          "type": "address"
        }
      ],
      "payable": false,
      "stateMutability": "view",
      "type": "function"
    },
    {
      "constant": true,
      "inputs": [],
      "name": "usdc",
      "outputs": [
        {
          "internalType": "address",
          "name": "",
          "type": "address"
        }
      ],
      "payable": false,
      "stateMutability": "view",
      "type": "function"
    },
    {
      "constant": false,
      "inputs": [
        {
          "internalType": "uint256",
          "name": "value",
          "type": "uint256"
        }
      ],
      "name": "deposit",
      "outputs": [],
      "payable": false,
      "stateMutability": "nonpayable",
      "type": "function"
    },
    {
      "constant": false,
      "inputs": [
        {
          "internalType": "uint256",
          "name": "value",
          "type": "uint256"
        }
      ],
      "name": "withdraw",
      "outputs": [],
      "payable": false,
      "stateMutability": "nonpayable",
      "type": "function"
    },
    {
      "constant": false,
      "inputs": [
        {
          "internalType": "uint256",
          "name": "value",
          "type": "uint256"
        }
      ],
      "name": "claim",
      "outputs": [],
      "payable": false,
      "stateMutability": "nonpayable",
      "type": "function"
    },
    {
      "constant": false,
      "inputs": [
        {
          "internalType": "uint256",
          "name": "value",
          "type": "uint256"
        }
      ],
      "name": "bond",
      "outputs": [],
      "payable": false,
      "stateMutability": "nonpayable",
      "type": "function"
    },
    {
      "constant": false,
      "inputs": [
        {
          "internalType": "uint256",
          "name": "value",
          "type": "uint256"
        }
      ],
      "name": "unbond",
      "outputs": [],
      "payable": false,
      "stateMutability": "nonpayable",
      "type": "function"
    },
    {
      "constant": false,
      "inputs": [
        {
          "internalType": "uint256",
          "name": "value",
          "type": "uint256"
        }
      ],
      "name": "provide",
      "outputs": [],
      "payable": false,
      "stateMutability": "nonpayable",
      "type": "function"
    },
    {
      "constant": false,
      "inputs": [
        {
          "internalType": "address",
          "name": "token",
          "type": "address"
        },
        {
          "internalType": "uint256",
          "name": "value",
          "type": "uint256"
        }
      ],
      "name": "emergencyWithdraw",
      "outputs": [],
      "payable": false,
      "stateMutability": "nonpayable",
      "type": "function"
    },
    {
      "constant": false,
      "inputs": [],
      "name": "emergencyPause",
      "outputs": [],
      "payable": false,
      "stateMutability": "nonpayable",
      "type": "function"
    }
  ],
  "bytecode": "0x608060405234801561001057600080fd5b50612012806100206000396000f3fe608060405234801561001057600080fd5b50600436106101585760003560e01c80635c975abb116100c35780639940686e1161007c5780639940686e146102a7578063aed29d07146102ba578063b6b55f25146102c2578063c0d7a94f146102d5578063cf023779146102e8578063e0cf7285146102f057610158565b80635c975abb146102315780637298d36e14610246578063825ad6071461024e57806386cf9f141461026157806395ccea671461027457806397a5d5b51461028757610158565b80633e413bee116101155780633e413bee146101e75780634162169f146101fc57806344d96e95146102115780634838ed191461021957806351858e271461022157806351adeb571461022957610158565b80631667eb171461015d57806327de9e321461018657806329f32ed41461019b5780632e1a7d4d146101ae5780632e2ebe06146101c1578063379607f5146101d4575b600080fd5b61017061016b3660046118aa565b6102f8565b60405161017d9190611e05565b60405180910390f35b610199610194366004611975565b61031a565b005b6101706101a93660046118aa565b610463565b6101996101bc366004611975565b610481565b6101996101cf366004611975565b6105b0565b6101996101e2366004611975565b610755565b6101ef61084c565b60405161017d9190611d0b565b61020461085b565b60405161017d9190611d78565b610170610865565b61017061086b565b610199610871565b6102046108b2565b6102396108bc565b60405161017d9190611d6a565b6102046108c5565b61017061025c3660046118aa565b6108cf565b61017061026f3660046118aa565b6108ed565b6101996102823660046118d0565b610908565b61029a6102953660046118aa565b61099f565b60405161017d9190611d86565b6101996102b5366004611975565b6109d9565b610170610ac7565b6101996102d0366004611975565b610b63565b6101706102e33660046118aa565b610c4e565b610170610cd6565b610170610cdc565b6001600160a01b0381166000908152600560205260409020600101545b919050565b61032333610ce2565b600061032e336108cf565b90506103656000821163141bdbdb60e21b7f696e73756666696369656e7420626f6e6465642062616c616e63650000000000610d14565b6000610390826103848561037833610c4e565b9063ffffffff610d7216565b9063ffffffff610db316565b905060006103a5836103848661037833610463565b90506103b13385610df5565b6103bb3383610e52565b6103de3385604051806060016040528060218152602001611faf60219139610eb7565b6104013382604051806060016040528060228152602001611f6c60229139610f1f565b610409610f87565b337f93530ac0ee8c50e696e13c5ac62355d0c0ba4bd943620d5bda1eb08b64ae75126104446001610438611050565b9063ffffffff6110ca16565b868560405161045593929190611e21565b60405180910390a250505050565b6001600160a01b031660009081526005602052604090206003015490565b336104b860005b6104918361099f565b600281111561049c57fe5b1463141bdbdb60e21b692737ba10333937bd32b760b11b610d14565b6104c06108c5565b6001600160a01b031663a9059cbb33846040518363ffffffff1660e01b81526004016104ed929190611d41565b602060405180830381600087803b15801561050757600080fd5b505af115801561051b573d6000803e3d6000fd5b505050506040513d601f19601f8201168201806040525061053f919081019061190a565b506105633383604051806060016040528060218152602001611f8e602191396110ef565b61056b610f87565b336001600160a01b03167f884edad9ce6fa2440d8a54cc123490eb96d2768479d49ff9c7366125a9424364836040516105a49190611e05565b60405180910390a25050565b336105bb6000610488565b6105de6105c66108bc565b1563141bdbdb60e21b6514185d5cd95960d21b610d14565b61061a60006105eb610865565b1163141bdbdb60e21b7f696e73756666696369656e7420746f74616c20626f6e64656400000000000000610d14565b6106566000610627610ac7565b1163141bdbdb60e21b7f696e73756666696369656e7420746f74616c2072657761726465640000000000610d14565b6106938261066333610c4e565b101563141bdbdb60e21b7f696e73756666696369656e742072657761726465642062616c616e6365000000610d14565b60008061069f8461114f565b9150915060006106bc856104386106b4610cdc565b610438610ac7565b905060006106db6106cb610865565b610384848663ffffffff610d7216565b90506106e73384611342565b610700336106fb888463ffffffff6110ca16565b6113a7565b610708610f87565b336001600160a01b03167fbe9d8078818a53534ce225882a00e0c6f709b5296c8a08c3a1f23f9ffd44838087868660405161074593929190611e21565b60405180910390a2505050505050565b336107606000610488565b6107686108b2565b6001600160a01b031663a9059cbb33846040518363ffffffff1660e01b8152600401610795929190611d41565b602060405180830381600087803b1580156107af57600080fd5b505af11580156107c3573d6000803e3d6000fd5b505050506040513d601f19601f820116820180604052506107e7919081019061190a565b5061080b3383604051806060016040528060248152602001611f486024913961140c565b610813610f87565b336001600160a01b03167f47cee97cb7acd717b3c0aa1435d004cd5b3c8c57d70dbceb4e4458bbd60e39d4836040516105a49190611e05565b6000610856611474565b905090565b600061085661148c565b60025490565b60015490565b6108a861087c61085b565b6001600160a01b0316336001600160a01b03161463141bdbdb60e21b664e6f742064616f60c81b610d14565b6108b06114a4565b565b60006108566114b3565b60045460ff1690565b60006108566114cb565b6001600160a01b031660009081526005602052604090206002015490565b6001600160a01b031660009081526005602052604090205490565b61091361087c61085b565b816001600160a01b031663a9059cbb61092a61085b565b836040518363ffffffff1660e01b8152600401610948929190611d5c565b602060405180830381600087803b15801561096257600080fd5b505af1158015610976573d6000803e3d6000fd5b505050506040513d601f19601f8201168201806040525061099a919081019061190a565b505050565b6001600160a01b0381166000908152600560205260408120600401546109c3611050565b10156109d05760016109d3565b60005b92915050565b6109e46105c66108bc565b6109ed33610ce2565b60006109fa6106b4610cdc565b90506000610a06610865565b15610a1b57610a166106cb610865565b610a3b565b610a23610ac7565b15610a2f576000610a3b565b610a3b836103786114e3565b9050610a473384611342565b610a5133826113a7565b610a743384604051806060016040528060218152602001611f8e602191396110ef565b610a7c610f87565b337f3ae9ad26d7d47616d306d7757b947fe7b0f9a7c61a5f0dc784b0ddb6c7c40b5a610aab6001610438611050565b85604051610aba929190611e13565b60405180910390a2505050565b6000610856610ad461086b565b610adc6108b2565b6001600160a01b03166370a08231306040518263ffffffff1660e01b8152600401610b079190611d0b565b60206040518083038186803b158015610b1f57600080fd5b505afa158015610b33573d6000803e3d6000fd5b505050506040513d601f19601f82011682018060405250610b579190810190611993565b9063ffffffff6114ea16565b33610b6e6000610488565b610b796105c66108bc565b610b816108c5565b6001600160a01b03166323b872dd3330856040518463ffffffff1660e01b8152600401610bb093929190611d19565b602060405180830381600087803b158015610bca57600080fd5b505af1158015610bde573d6000803e3d6000fd5b505050506040513d601f19601f82011682018060405250610c02919081019061190a565b50610c0d3383610df5565b610c15610f87565b336001600160a01b03167fe1fffcc4923d04b559f4d29a8bfc6cda04eb5b0d3c460751c2402c5c5cc9109c836040516105a49190611e05565b600080610c59610865565b905080610c6a576000915050610315565b6000610c776106b4610cdc565b90506000610c9883610384610c8b886108cf565b859063ffffffff610d7216565b90506000610ca586610463565b905080821115610cca57610cbf828263ffffffff6114ea16565b945050505050610315565b50600095945050505050565b60005490565b60035490565b610cf5610ced61152c565b610438611050565b6001600160a01b03909116600090815260056020526040902060040155565b8261099a57610d2282611531565b6101d160f51b610d3183611531565b604051602001610d4393929190611ca4565b60408051601f198184030181529082905262461bcd60e51b8252610d6991600401611d94565b60405180910390fd5b600082610d81575060006109d3565b82820282848281610d8e57fe5b0414610dac5760405162461bcd60e51b8152600401610d6990611dd5565b9392505050565b6000610dac83836040518060400160405280601a81526020017f536166654d6174683a206469766973696f6e206279207a65726f0000000000008152506115b1565b6001600160a01b038216600090815260056020526040902054610e1e908263ffffffff6110ca16565b6001600160a01b03831660009081526005602052604081209190915554610e4b908263ffffffff6110ca16565b6000555050565b6001600160a01b038216600090815260056020526040902060010154610e7e908263ffffffff6110ca16565b6001600160a01b038316600090815260056020526040902060019081019190915554610eb0908263ffffffff6110ca16565b6001555050565b6001600160a01b038316600090815260056020526040902060020154610ee490838363ffffffff6115e816565b6001600160a01b038416600090815260056020526040902060029081019190915554610f1790838363ffffffff6115e816565b600255505050565b6001600160a01b038316600090815260056020526040902060030154610f4c90838363ffffffff6115e816565b6001600160a01b038416600090815260056020526040902060039081019190915554610f7f90838363ffffffff6115e816565b600355505050565b6108b0610f9d610f95610865565b610438610cd6565b610fa56108c5565b6001600160a01b03166370a08231306040518263ffffffff1660e01b8152600401610fd09190611d0b565b60206040518083038186803b158015610fe857600080fd5b505afa158015610ffc573d6000803e3d6000fd5b505050506040513d601f19601f820116820180604052506110209190810190611993565b101563141bdbdb60e21b7f496e636f6e73697374656e7420554e492d56322062616c616e63657300000000610d14565b600061105a61085b565b6001600160a01b031663900cf0cf6040518163ffffffff1660e01b815260040160206040518083038186803b15801561109257600080fd5b505afa1580156110a6573d6000803e3d6000fd5b505050506040513d601f19601f820116820180604052506108569190810190611993565b600082820183811015610dac5760405162461bcd60e51b8152600401610d6990611da5565b6001600160a01b03831660009081526005602052604090205461111990838363ffffffff6115e816565b6001600160a01b0384166000908152600560205260408120919091555461114790838363ffffffff6115e816565b600055505050565b60008060008061115d6108b2565b61116561084c565b915091506000806111768484611614565b91509150600082600014801561118a575081155b61119e57611199888484611700565b6111a0565b875b905060006111ac6108c5565b60405163a9059cbb60e01b81529091506001600160a01b0387169063a9059cbb906111dd9084908d90600401611d5c565b602060405180830381600087803b1580156111f757600080fd5b505af115801561120b573d6000803e3d6000fd5b505050506040513d601f19601f8201168201806040525061122f919081019061190a565b506040516323b872dd60e01b81526001600160a01b038616906323b872dd9061126090339085908790600401611d19565b602060405180830381600087803b15801561127a57600080fd5b505af115801561128e573d6000803e3d6000fd5b505050506040513d601f19601f820116820180604052506112b2919081019061190a565b506040516335313c2160e11b815282906001600160a01b03831690636a627842906112e1903090600401611d0b565b602060405180830381600087803b1580156112fb57600080fd5b505af115801561130f573d6000803e3d6000fd5b505050506040513d601f19601f820116820180604052506113339190810190611993565b97509750505050505050915091565b6001600160a01b03821660009081526005602052604090206002015461136e908263ffffffff6110ca16565b6001600160a01b0383166000908152600560205260409020600290810191909155546113a0908263ffffffff6110ca16565b6002555050565b6001600160a01b0382166000908152600560205260409020600301546113d3908263ffffffff6110ca16565b6001600160a01b038316600090815260056020526040902060039081019190915554611405908263ffffffff6110ca16565b6003555050565b6001600160a01b03831660009081526005602052604090206001015461143990838363ffffffff6115e816565b6001600160a01b03841660009081526005602052604090206001908101919091555461146c90838363ffffffff6115e816565b600155505050565b73a0b86991c6218b36c1d19d4a2e9eb0ce3606eb4890565b73443d2f2755db5942601fa062cc248aaa153313d390565b6004805460ff19166001179055565b7336f3fd68e7325a35eb768f1aedaae9ea0689d72390565b7388ff79eb2bc5850f27315415da8685282c7610f990565b620f424090565b6000610dac83836040518060400160405280601e81526020017f536166654d6174683a207375627472616374696f6e206f766572666c6f7700008152506115e8565b600590565b606080826040516020016115459190611c8f565b60408051601f19818403018152919052905060205b801561159a5781516000199091019082908290811061157557fe5b01602001516001600160f81b031916156115955760010181529050610315565b61155a565b505060408051600081526020810190915292915050565b600081836115d25760405162461bcd60e51b8152600401610d699190611d94565b5060008385816115de57fe5b0495945050505050565b6000818484111561160c5760405162461bcd60e51b8152600401610d699190611d94565b505050900390565b6000806000611623858561176e565b509050600080611648735c69bee701ef814a2b6a3edd4b1652cb9cc5aa6f88886117f8565b6001600160a01b0316630902f1ac6040518163ffffffff1660e01b815260040160606040518083038186803b15801561168057600080fd5b505afa158015611694573d6000803e3d6000fd5b505050506040513d601f19601f820116820180604052506116b89190810190611928565b506001600160701b031691506001600160701b03169150826001600160a01b0316876001600160a01b0316146116ef5780826116f2565b81815b909890975095505050505050565b60008084116117215760405162461bcd60e51b8152600401610d6990611de5565b6000831180156117315750600082115b61174d5760405162461bcd60e51b8152600401610d6990611dc5565b8261175e858463ffffffff610d7216565b8161176557fe5b04949350505050565b600080826001600160a01b0316846001600160a01b031614156117a35760405162461bcd60e51b8152600401610d6990611db5565b826001600160a01b0316846001600160a01b0316106117c35782846117c6565b83835b90925090506001600160a01b0382166117f15760405162461bcd60e51b8152600401610d6990611df5565b9250929050565b6000806000611807858561176e565b9150915085828260405160200161181f929190611c69565b60405160208183030381529060405280519060200120604051602001611846929190611cd5565b60408051601f1981840301815291905280516020909101209695505050505050565b80356109d381611f0f565b80516109d381611f23565b80516109d381611f2c565b80356109d381611f35565b80516109d381611f35565b80516109d381611f3e565b6000602082840312156118bc57600080fd5b60006118c88484611868565b949350505050565b600080604083850312156118e357600080fd5b60006118ef8585611868565b925050602061190085828601611889565b9150509250929050565b60006020828403121561191c57600080fd5b60006118c88484611873565b60008060006060848603121561193d57600080fd5b6000611949868661187e565b935050602061195a8682870161187e565b925050604061196b8682870161189f565b9150509250925092565b60006020828403121561198757600080fd5b60006118c88484611889565b6000602082840312156119a557600080fd5b60006118c88484611894565b6119ba81611e94565b82525050565b6119ba81611e49565b6119ba6119d582611e49565b611ee1565b6119ba81611e54565b6119ba6119ef82611e59565b611e66565b6119ba6119ef82611e66565b6000611a0b82611e3c565b611a158185610315565b9350611a25818560208601611eb1565b9290920192915050565b6119ba81611e9b565b6119ba81611ea6565b6000611a4c82611e3c565b611a568185611e40565b9350611a66818560208601611eb1565b611a6f81611ef2565b9093019392505050565b6000611a86601b83611e40565b7f536166654d6174683a206164646974696f6e206f766572666c6f770000000000815260200192915050565b6000611abf602583611e40565b7f556e697377617056324c6962726172793a204944454e544943414c5f41444452815264455353455360d81b602082015260400192915050565b6000611b06602083610315565b7f96e8ac4277198ff8b6f785478aa9a39f403cb768dd02cbee326c3e7da348845f815260200192915050565b6000611b3f602883611e40565b7f556e697377617056324c6962726172793a20494e53554646494349454e545f4c815267495155494449545960c01b602082015260400192915050565b6000611b89600183610315565b6001600160f81b0319815260010192915050565b6000611baa602183611e40565b7f536166654d6174683a206d756c7469706c69636174696f6e206f766572666c6f8152607760f81b602082015260400192915050565b6000611bed602583611e40565b7f556e697377617056324c6962726172793a20494e53554646494349454e545f418152641353d5539560da1b602082015260400192915050565b6000611c34601e83611e40565b7f556e697377617056324c6962726172793a205a45524f5f414444524553530000815260200192915050565b6119ba81611e66565b6000611c7582856119c9565b601482019150611c8582846119c9565b5060140192915050565b6000611c9b82846119f4565b50602001919050565b6000611cb08286611a00565b9150611cbc82856119e3565b600282019150611ccc8284611a00565b95945050505050565b6000611ce082611b7c565b9150611cec82856119c9565b601482019150611cfc82846119f4565b6020820191506118c882611af9565b602081016109d382846119c0565b60608101611d2782866119b1565b611d3460208301856119c0565b6118c86040830184611c60565b60408101611d4f82856119b1565b610dac6020830184611c60565b60408101611d4f82856119c0565b602081016109d382846119da565b602081016109d38284611a2f565b602081016109d38284611a38565b60208082528101610dac8184611a41565b602080825281016109d381611a79565b602080825281016109d381611ab2565b602080825281016109d381611b32565b602080825281016109d381611b9d565b602080825281016109d381611be0565b602080825281016109d381611c27565b602081016109d38284611c60565b60408101611d4f8285611c60565b60608101611e2f8286611c60565b611d346020830185611c60565b5190565b90815260200190565b60006109d382611e7f565b151590565b6001600160f01b03191690565b90565b8061031581611f02565b6001600160701b031690565b6001600160a01b031690565b63ffffffff1690565b60006109d3825b60006109d382611e49565b60006109d382611e69565b60005b83811015611ecc578181015183820152602001611eb4565b83811115611edb576000848401525b50505050565b60006109d38260006109d382611efc565b601f01601f191690565b60601b90565b60038110611f0c57fe5b50565b611f1881611e49565b8114611f0c57600080fd5b611f1881611e54565b611f1881611e73565b611f1881611e66565b611f1881611e8b56fe506f6f6c3a20696e73756666696369656e7420636c61696d61626c652062616c616e6365506f6f6c3a20696e73756666696369656e74207068616e746f6d2062616c616e6365506f6f6c3a20696e73756666696369656e74207374616765642062616c616e6365506f6f6c3a20696e73756666696369656e7420626f6e6465642062616c616e6365a365627a7a7231582085c66b98adbff43dba442326b29b22e104af4ed1201709de715141fcdb40fd586c6578706572696d656e74616cf564736f6c63430005110040",
  "source": "/*\n    Copyright 2020 Empty Set Squad <emptysetsquad@protonmail.com>\n\n    Licensed under the Apache License, Version 2.0 (the \"License\");\n    you may not use this file except in compliance with the License.\n    You may obtain a copy of the License at\n\n    http://www.apache.org/licenses/LICENSE-2.0\n\n    Unless required by applicable law or agreed to in writing, software\n    distributed under the License is distributed on an \"AS IS\" BASIS,\n    WITHOUT WARRANTIES OR CONDITIONS OF ANY KIND, either express or implied.\n    See the License for the specific language governing permissions and\n    limitations under the License.\n*/\n\npragma solidity ^0.5.17;\npragma experimental ABIEncoderV2;\n\nimport \"@openzeppelin/contracts/math/SafeMath.sol\";\nimport \"@openzeppelin/contracts/token/ERC20/IERC20.sol\";\nimport \"../external/Require.sol\";\nimport \"../Constants.sol\";\nimport \"./PoolSetters.sol\";\nimport \"./Liquidity.sol\";\n\ncontract Pool is PoolSetters, Liquidity {\n    using SafeMath for uint256;\n\n    constructor() public { }\n\n    bytes32 private constant FILE = \"Pool\";\n\n    event Deposit(address indexed account, uint256 value);\n    event Withdraw(address indexed account, uint256 value);\n    event Claim(address indexed account, uint256 value);\n    event Bond(address indexed account, uint256 start, uint256 value);\n    event Unbond(address indexed account, uint256 start, uint256 value, uint256 newClaimable);\n    event Provide(address indexed account, uint256 value, uint256 lessUsdc, uint256 newUniv2);\n\n    function deposit(uint256 value) external onlyFrozen(msg.sender) notPaused {\n        univ2().transferFrom(msg.sender, address(this), value);\n        incrementBalanceOfStaged(msg.sender, value);\n\n        balanceCheck();\n\n        emit Deposit(msg.sender, value);\n    }\n\n    function withdraw(uint256 value) external onlyFrozen(msg.sender) {\n        univ2().transfer(msg.sender, value);\n        decrementBalanceOfStaged(msg.sender, value, \"Pool: insufficient staged balance\");\n\n        balanceCheck();\n\n        emit Withdraw(msg.sender, value);\n    }\n\n    function claim(uint256 value) external onlyFrozen(msg.sender) {\n        dollar().transfer(msg.sender, value);\n        decrementBalanceOfClaimable(msg.sender, value, \"Pool: insufficient claimable balance\");\n\n        balanceCheck();\n\n        emit Claim(msg.sender, value);\n    }\n\n    function bond(uint256 value) external notPaused {\n        unfreeze(msg.sender);\n\n        uint256 totalRewardedWithPhantom = totalRewarded().add(totalPhantom());\n        uint256 newPhantom = totalBonded() == 0 ?\n            totalRewarded() == 0 ? Constants.getInitialStakeMultiple().mul(value) : 0 :\n            totalRewardedWithPhantom.mul(value).div(totalBonded());\n\n        incrementBalanceOfBonded(msg.sender, value);\n        incrementBalanceOfPhantom(msg.sender, newPhantom);\n        decrementBalanceOfStaged(msg.sender, value, \"Pool: insufficient staged balance\");\n\n        balanceCheck();\n\n        emit Bond(msg.sender, epoch().add(1), value);\n    }\n\n    function unbond(uint256 value) external {\n        unfreeze(msg.sender);\n\n        uint256 balanceOfBonded = balanceOfBonded(msg.sender);\n        Require.that(\n            balanceOfBonded > 0,\n            FILE,\n            \"insufficient bonded balance\"\n        );\n\n        uint256 newClaimable = balanceOfRewarded(msg.sender).mul(value).div(balanceOfBonded);\n        uint256 lessPhantom = balanceOfPhantom(msg.sender).mul(value).div(balanceOfBonded);\n\n        incrementBalanceOfStaged(msg.sender, value);\n        incrementBalanceOfClaimable(msg.sender, newClaimable);\n        decrementBalanceOfBonded(msg.sender, value, \"Pool: insufficient bonded balance\");\n        decrementBalanceOfPhantom(msg.sender, lessPhantom, \"Pool: insufficient phantom balance\");\n\n        balanceCheck();\n\n        emit Unbond(msg.sender, epoch().add(1), value, newClaimable);\n    }\n\n    function provide(uint256 value) external onlyFrozen(msg.sender) notPaused {\n        Require.that(\n            totalBonded() > 0,\n            FILE,\n            \"insufficient total bonded\"\n        );\n\n        Require.that(\n            totalRewarded() > 0,\n            FILE,\n            \"insufficient total rewarded\"\n        );\n\n        Require.that(\n            balanceOfRewarded(msg.sender) >= value,\n            FILE,\n            \"insufficient rewarded balance\"\n        );\n\n        (uint256 lessUsdc, uint256 newUniv2) = addLiquidity(value);\n\n        uint256 totalRewardedWithPhantom = totalRewarded().add(totalPhantom()).add(value);\n        uint256 newPhantomFromBonded = totalRewardedWithPhantom.mul(newUniv2).div(totalBonded());\n\n        incrementBalanceOfBonded(msg.sender, newUniv2);\n        incrementBalanceOfPhantom(msg.sender, value.add(newPhantomFromBonded));\n\n\n        balanceCheck();\n\n        emit Provide(msg.sender, value, lessUsdc, newUniv2);\n    }\n\n    function emergencyWithdraw(address token, uint256 value) external onlyDao {\n        IERC20(token).transfer(address(dao()), value);\n    }\n\n    function emergencyPause() external onlyDao {\n        pause();\n    }\n\n    function balanceCheck() private {\n        Require.that(\n            univ2().balanceOf(address(this)) >= totalStaged().add(totalBonded()),\n            FILE,\n            \"Inconsistent UNI-V2 balances\"\n        );\n    }\n\n    modifier onlyFrozen(address account) {\n        Require.that(\n            statusOf(account) == PoolAccount.Status.Frozen,\n            FILE,\n            \"Not frozen\"\n        );\n\n        _;\n    }\n\n    modifier onlyDao() {\n        Require.that(\n            msg.sender == address(dao()),\n            FILE,\n            \"Not dao\"\n        );\n\n        _;\n    }\n\n    modifier notPaused() {\n        Require.that(\n            !paused(),\n            FILE,\n            \"Paused\"\n        );\n\n        _;\n    }\n}\n",
  "sourcePath": "/Users/sachin/code/dollar/contracts/oracle/Pool.sol",
  "compiler": {
    "name": "solc",
    "version": "0.5.17+commit.d19bba13.Emscripten.clang"
  },
  "schemaVersion": "3.3.3",
  "updatedAt": "2021-01-01T20:54:00.208Z",
  "devdoc": {
    "methods": {}
  },
  "userdoc": {
    "methods": {
      "balanceOfStaged(address)": {
        "notice": "Account"
      },
      "usdc()": {
        "notice": "Global"
      }
    }
  }
}